{
  "contractName": "PharmacistRole",
  "abi": [
    {
      "inputs": [],
      "payable": false,
      "stateMutability": "nonpayable",
      "type": "constructor",
      "signature": "constructor"
    },
    {
      "anonymous": false,
      "inputs": [
        {
          "indexed": true,
          "name": "account",
          "type": "address"
        }
      ],
      "name": "PharmacistAdded",
      "type": "event",
      "signature": "0x5a4264410853372bdd7255ebc9624cb523fc039cd6f9f1855165194738125f63"
    },
    {
      "anonymous": false,
      "inputs": [
        {
          "indexed": true,
          "name": "account",
          "type": "address"
        }
      ],
      "name": "PharmacistRemoved",
      "type": "event",
      "signature": "0x9d17ec7e57a5118cf27abf33370bcc6f007c27a9706ab4cc473a76fe552447d2"
    },
    {
      "constant": true,
      "inputs": [
        {
          "name": "account",
          "type": "address"
        }
      ],
      "name": "isPharmacist",
      "outputs": [
        {
          "name": "",
          "type": "bool"
        }
      ],
      "payable": false,
      "stateMutability": "view",
      "type": "function",
      "signature": "0x82946ee2"
    },
    {
      "constant": false,
      "inputs": [
        {
          "name": "account",
          "type": "address"
        }
      ],
      "name": "addPharmacist",
      "outputs": [],
      "payable": false,
      "stateMutability": "nonpayable",
      "type": "function",
      "signature": "0xc09e2693"
    },
    {
      "constant": false,
      "inputs": [],
      "name": "renouncePharmacist",
      "outputs": [],
      "payable": false,
      "stateMutability": "nonpayable",
      "type": "function",
      "signature": "0x5ae63247"
    }
  ],
  "bytecode": "0x608060405234801561001057600080fd5b506100293361002e640100000000026401000000009004565b6101e5565b61004c60008261009264010000000002610351176401000000009004565b8073ffffffffffffffffffffffffffffffffffffffff167f5a4264410853372bdd7255ebc9624cb523fc039cd6f9f1855165194738125f6360405160405180910390a250565b600073ffffffffffffffffffffffffffffffffffffffff168173ffffffffffffffffffffffffffffffffffffffff16141515156100ce57600080fd5b6100e78282610151640100000000026401000000009004565b1515156100f357600080fd5b60018260000160008373ffffffffffffffffffffffffffffffffffffffff1673ffffffffffffffffffffffffffffffffffffffff16815260200190815260200160002060006101000a81548160ff0219169083151502179055505050565b60008073ffffffffffffffffffffffffffffffffffffffff168273ffffffffffffffffffffffffffffffffffffffff161415151561018e57600080fd5b8260000160008373ffffffffffffffffffffffffffffffffffffffff1673ffffffffffffffffffffffffffffffffffffffff16815260200190815260200160002060009054906101000a900460ff16905092915050565b61042d806101f46000396000f3fe608060405260043610610057576000357c0100000000000000000000000000000000000000000000000000000000900463ffffffff1680635ae632471461005c57806382946ee214610073578063c09e2693146100dc575b600080fd5b34801561006857600080fd5b5061007161012d565b005b34801561007f57600080fd5b506100c26004803603602081101561009657600080fd5b81019080803573ffffffffffffffffffffffffffffffffffffffff169060200190929190505050610138565b604051808215151515815260200191505060405180910390f35b3480156100e857600080fd5b5061012b600480360360208110156100ff57600080fd5b81019080803573ffffffffffffffffffffffffffffffffffffffff16906020019092919050505061014c565b005b6101363361016c565b565b60006101456000836101bd565b9050919050565b61015533610138565b151561016057600080fd5b61016981610251565b50565b6101776000826102a2565b8073ffffffffffffffffffffffffffffffffffffffff167f9d17ec7e57a5118cf27abf33370bcc6f007c27a9706ab4cc473a76fe552447d260405160405180910390a250565b60008073ffffffffffffffffffffffffffffffffffffffff168273ffffffffffffffffffffffffffffffffffffffff16141515156101fa57600080fd5b8260000160008373ffffffffffffffffffffffffffffffffffffffff1673ffffffffffffffffffffffffffffffffffffffff16815260200190815260200160002060009054906101000a900460ff16905092915050565b61025c600082610351565b8073ffffffffffffffffffffffffffffffffffffffff167f5a4264410853372bdd7255ebc9624cb523fc039cd6f9f1855165194738125f6360405160405180910390a250565b600073ffffffffffffffffffffffffffffffffffffffff168173ffffffffffffffffffffffffffffffffffffffff16141515156102de57600080fd5b6102e882826101bd565b15156102f357600080fd5b60008260000160008373ffffffffffffffffffffffffffffffffffffffff1673ffffffffffffffffffffffffffffffffffffffff16815260200190815260200160002060006101000a81548160ff0219169083151502179055505050565b600073ffffffffffffffffffffffffffffffffffffffff168173ffffffffffffffffffffffffffffffffffffffff161415151561038d57600080fd5b61039782826101bd565b1515156103a357600080fd5b60018260000160008373ffffffffffffffffffffffffffffffffffffffff1673ffffffffffffffffffffffffffffffffffffffff16815260200190815260200160002060006101000a81548160ff021916908315150217905550505056fea165627a7a7230582010a71d99f5f01a2897bb54ee05ae47005cb0a61955426c5498b3e2a816df44170029",
  "source": "// SPDX-License-Identifier: MIT\n\n\npragma solidity >=0.4.21 <0.7.0;\n\n// Import the library 'Roles'\nimport \"./Roles.sol\";\n\n// Define a contract 'PharmacistRole' to manage this role - add, remove, check\ncontract PharmacistRole {\n  using Roles for Roles.Role;\n\n  // Define 2 events, one for Adding, and other for Removing\n  event PharmacistAdded(address indexed account);\n  event PharmacistRemoved(address indexed account);\n\n  // Define a struct 'pharmacists' by inheriting from 'Roles' library, struct Role\n  Roles.Role private pharmacists;\n  // In the constructor make the address that deploys this contract the 1st pharmacist\n  constructor() public {\n    _addPharmacist(msg.sender);\n  }\n\n  // Define a modifier that checks to see if msg.sender has the appropriate role\n  modifier onlyPharmacist() {\n    require(isPharmacist(msg.sender));\n    _;\n  }\n\n  // Define a function 'isPharmacist' to check this role\n  function isPharmacist(address account) public view returns (bool) {\n    return Roles.has(pharmacists, account);\n  }\n\n  // Define a function 'addPharmacist' that adds this role\n  function addPharmacist(address account) public onlyPharmacist {\n    _addPharmacist(account);\n  }\n\n  // Define a function 'renouncePharmacist' to renounce this role\n  function renouncePharmacist() public {\n    _removePharmacist(msg.sender);\n  }\n\n  // Define an internal function '_addPharmacist' to add this role, called by 'addPharmacist'\n  function _addPharmacist(address account) internal {\n    Roles.add(pharmacists, account);\n    emit PharmacistAdded(account);\n  }\n\n  // Define an internal function '_removePharmacist' to remove this role, called by 'removePharmacist'\n  function _removePharmacist(address account) internal {\n    Roles.remove(pharmacists, account);\n    emit PharmacistRemoved(account);\n  }\n}",
  "sourcePath": "C:/Users/remove/Capstone_final/contracts/PharmacistRole.sol",
  "compiler": {
    "name": "solc",
    "version": "0.5.0+commit.1d4f565a.Emscripten.clang"
  },
  "schemaVersion": "3.0.1",
  "updatedAt": "2021-12-14T12:31:27.455Z",
  "devdoc": {
    "methods": {}
  },
  "userdoc": {
    "methods": {}
  }
}