{
  "contractName": "SimpleStorage",
  "abi": [
    {
      "anonymous": false,
      "inputs": [
        {
          "indexed": false,
          "name": "upc",
          "type": "uint256"
        }
      ],
      "name": "Made",
      "type": "event",
      "signature": "0xeb8109592a383473c76afa62041a6dbabac0ca80d859bbdffb13c5a70c454b90"
    },
    {
      "anonymous": false,
      "inputs": [
        {
          "indexed": false,
          "name": "upc",
          "type": "uint256"
        }
      ],
      "name": "Packed",
      "type": "event",
      "signature": "0x9b3b66e2380b690bae22c73ef1428fb0c91e72fe14a4b6defa13035214187aff"
    },
    {
      "anonymous": false,
      "inputs": [
        {
          "indexed": false,
          "name": "upc",
          "type": "uint256"
        }
      ],
      "name": "ForSale",
      "type": "event",
      "signature": "0xa96ae0fc3224ebd79eebfe54bd130cc9cb94416cddd1f2386115e00b72532468"
    },
    {
      "anonymous": false,
      "inputs": [
        {
          "indexed": false,
          "name": "upc",
          "type": "uint256"
        }
      ],
      "name": "Soldtodistributor",
      "type": "event",
      "signature": "0xbf196506b2f00aa0ddfe8eb41c3c9ccfddcc58a5142960f08f9131afa7908496"
    },
    {
      "anonymous": false,
      "inputs": [
        {
          "indexed": false,
          "name": "upc",
          "type": "uint256"
        }
      ],
      "name": "shippedbymanufacturer",
      "type": "event",
      "signature": "0xf5fba10cdde0743e9e1a1208d61a8f3bea78c1dc743844aef4501affa3efd151"
    },
    {
      "anonymous": false,
      "inputs": [
        {
          "indexed": false,
          "name": "upc",
          "type": "uint256"
        }
      ],
      "name": "recievedDistributor",
      "type": "event",
      "signature": "0x1e93508ab5b39bf9f45afa406d4ce6117c21b48d5b79372f9e599ce66210cda2"
    },
    {
      "anonymous": false,
      "inputs": [
        {
          "indexed": false,
          "name": "upc",
          "type": "uint256"
        }
      ],
      "name": "soldtoPharma",
      "type": "event",
      "signature": "0xd27cf9eb13fb50222e8ff27788988edb150171b58e49b33f165418d0eb0253eb"
    },
    {
      "anonymous": false,
      "inputs": [
        {
          "indexed": false,
          "name": "upc",
          "type": "uint256"
        }
      ],
      "name": "shippedtoPharma",
      "type": "event",
      "signature": "0x94d498cff24e232da4c3ed3ce9547d37faee065ef6fe670586828a6e3ccf8a53"
    },
    {
      "anonymous": false,
      "inputs": [
        {
          "indexed": false,
          "name": "upc",
          "type": "uint256"
        }
      ],
      "name": "recievedpharma",
      "type": "event",
      "signature": "0x73d6827c08a640a6959426f0ee26c7bb964902de8446b4ca6bca213740bf262f"
    },
    {
      "anonymous": false,
      "inputs": [
        {
          "indexed": false,
          "name": "upc",
          "type": "uint256"
        }
      ],
      "name": "soldtopatient",
      "type": "event",
      "signature": "0x616dfa0fd1e8003e293d0d707897c48415f6acadc960e3a8239f70841bc98c5b"
    },
    {
      "anonymous": false,
      "inputs": [
        {
          "indexed": false,
          "name": "upc",
          "type": "uint256"
        }
      ],
      "name": "shippedtopatient",
      "type": "event",
      "signature": "0xb4cdacdf11ca5dc03f3ddd7b53e92ed9d205e79bf7c06a3f4b514b084a17bb5d"
    },
    {
      "anonymous": false,
      "inputs": [
        {
          "indexed": false,
          "name": "upc",
          "type": "uint256"
        }
      ],
      "name": "Purchased",
      "type": "event",
      "signature": "0x653d56639fee6b566a5c804764e9689de38645f0b733df89a36a1b7b42173dd8"
    },
    {
      "constant": false,
      "inputs": [
        {
          "name": "_upc",
          "type": "uint256"
        },
        {
          "name": "_originManufacturerID",
          "type": "address"
        },
        {
          "name": "_originFactoryName",
          "type": "string"
        },
        {
          "name": "_originFactoryInformation",
          "type": "string"
        },
        {
          "name": "_originFactoryLatitude",
          "type": "string"
        },
        {
          "name": "_originFactoryLongitude",
          "type": "string"
        },
        {
          "name": "_medicineNotes",
          "type": "string"
        }
      ],
      "name": "makeMedicine",
      "outputs": [],
      "payable": false,
      "stateMutability": "nonpayable",
      "type": "function",
      "signature": "0xab77f959"
    },
    {
      "constant": false,
      "inputs": [
        {
          "name": "_upc",
          "type": "uint256"
        }
      ],
      "name": "packMedicine",
      "outputs": [],
      "payable": false,
      "stateMutability": "nonpayable",
      "type": "function",
      "signature": "0x3b7e1e86"
    },
    {
      "constant": false,
      "inputs": [
        {
          "name": "_upc",
          "type": "uint256"
        }
      ],
      "name": "forSale_bymanuf",
      "outputs": [],
      "payable": false,
      "stateMutability": "nonpayable",
      "type": "function",
      "signature": "0xb76fa457"
    },
    {
      "constant": false,
      "inputs": [
        {
          "name": "_upc",
          "type": "uint256"
        }
      ],
      "name": "soldToDistributor",
      "outputs": [],
      "payable": false,
      "stateMutability": "nonpayable",
      "type": "function",
      "signature": "0x6494a862"
    },
    {
      "constant": false,
      "inputs": [
        {
          "name": "_upc",
          "type": "uint256"
        }
      ],
      "name": "shippedByManufacturer",
      "outputs": [],
      "payable": false,
      "stateMutability": "nonpayable",
      "type": "function",
      "signature": "0x89aa147e"
    },
    {
      "constant": false,
      "inputs": [
        {
          "name": "_upc",
          "type": "uint256"
        }
      ],
      "name": "RecievedDistributor",
      "outputs": [],
      "payable": false,
      "stateMutability": "nonpayable",
      "type": "function",
      "signature": "0x3060c1e6"
    },
    {
      "constant": false,
      "inputs": [
        {
          "name": "_upc",
          "type": "uint256"
        }
      ],
      "name": "SoldtoPharma",
      "outputs": [],
      "payable": false,
      "stateMutability": "nonpayable",
      "type": "function",
      "signature": "0x98d35cfd"
    },
    {
      "constant": false,
      "inputs": [
        {
          "name": "_upc",
          "type": "uint256"
        }
      ],
      "name": "ShippedtoPharma",
      "outputs": [],
      "payable": false,
      "stateMutability": "nonpayable",
      "type": "function",
      "signature": "0x81bd21ad"
    },
    {
      "constant": false,
      "inputs": [
        {
          "name": "_upc",
          "type": "uint256"
        }
      ],
      "name": "Recieved_Pharma",
      "outputs": [],
      "payable": false,
      "stateMutability": "nonpayable",
      "type": "function",
      "signature": "0xf3b9a4d4"
    },
    {
      "constant": false,
      "inputs": [
        {
          "name": "_upc",
          "type": "uint256"
        }
      ],
      "name": "Sold_to_Patient",
      "outputs": [],
      "payable": false,
      "stateMutability": "nonpayable",
      "type": "function",
      "signature": "0xf76a63e6"
    },
    {
      "constant": false,
      "inputs": [
        {
          "name": "_upc",
          "type": "uint256"
        }
      ],
      "name": "Shipped_to_Patient",
      "outputs": [],
      "payable": false,
      "stateMutability": "nonpayable",
      "type": "function",
      "signature": "0xfa2737bb"
    },
    {
      "constant": true,
      "inputs": [
        {
          "name": "_upc",
          "type": "uint256"
        }
      ],
      "name": "fetchstate",
      "outputs": [
        {
          "name": "_medicineState",
          "type": "uint8"
        }
      ],
      "payable": false,
      "stateMutability": "view",
      "type": "function",
      "signature": "0xdbdf8b75"
    },
    {
      "constant": true,
      "inputs": [
        {
          "name": "_upc",
          "type": "uint256"
        }
      ],
      "name": "fetchMedicine",
      "outputs": [
        {
          "name": "upc_",
          "type": "uint256"
        },
        {
          "name": "ownerid",
          "type": "address"
        },
        {
          "name": "manufacturername",
          "type": "string"
        },
        {
          "name": "Latitude",
          "type": "string"
        },
        {
          "name": "Longitude",
          "type": "string"
        },
        {
          "name": "factoryinfo",
          "type": "string"
        },
        {
          "name": "notes",
          "type": "string"
        }
      ],
      "payable": false,
      "stateMutability": "view",
      "type": "function",
      "signature": "0x4fa75b7c"
    }
  ],
  "bytecode": "0x608060405234801561001057600080fd5b506116f6806100206000396000f3fe6080604052600436106100c5576000357c0100000000000000000000000000000000000000000000000000000000900463ffffffff1680633060c1e6146100ca5780633b7e1e86146101055780634fa75b7c146101405780636494a862146103de57806381bd21ad1461041957806389aa147e1461045457806398d35cfd1461048f578063ab77f959146104ca578063b76fa45714610818578063dbdf8b7514610853578063f3b9a4d4146108b0578063f76a63e6146108eb578063fa2737bb14610926575b600080fd5b3480156100d657600080fd5b50610103600480360360208110156100ed57600080fd5b8101908080359060200190929190505050610961565b005b34801561011157600080fd5b5061013e6004803603602081101561012857600080fd5b81019080803590602001909291905050506109d2565b005b34801561014c57600080fd5b506101796004803603602081101561016357600080fd5b8101908080359060200190929190505050610a43565b604051808881526020018773ffffffffffffffffffffffffffffffffffffffff1673ffffffffffffffffffffffffffffffffffffffff168152602001806020018060200180602001806020018060200186810386528b818151815260200191508051906020019080838360005b838110156102015780820151818401526020810190506101e6565b50505050905090810190601f16801561022e5780820380516001836020036101000a031916815260200191505b5086810385528a818151815260200191508051906020019080838360005b8381101561026757808201518184015260208101905061024c565b50505050905090810190601f1680156102945780820380516001836020036101000a031916815260200191505b50868103845289818151815260200191508051906020019080838360005b838110156102cd5780820151818401526020810190506102b2565b50505050905090810190601f1680156102fa5780820380516001836020036101000a031916815260200191505b50868103835288818151815260200191508051906020019080838360005b83811015610333578082015181840152602081019050610318565b50505050905090810190601f1680156103605780820380516001836020036101000a031916815260200191505b50868103825287818151815260200191508051906020019080838360005b8381101561039957808201518184015260208101905061037e565b50505050905090810190601f1680156103c65780820380516001836020036101000a031916815260200191505b509c5050505050505050505050505060405180910390f35b3480156103ea57600080fd5b506104176004803603602081101561040157600080fd5b8101908080359060200190929190505050610e13565b005b34801561042557600080fd5b506104526004803603602081101561043c57600080fd5b8101908080359060200190929190505050610e84565b005b34801561046057600080fd5b5061048d6004803603602081101561047757600080fd5b8101908080359060200190929190505050610ef5565b005b34801561049b57600080fd5b506104c8600480360360208110156104b257600080fd5b8101908080359060200190929190505050610f66565b005b3480156104d657600080fd5b50610816600480360360e08110156104ed57600080fd5b8101908080359060200190929190803573ffffffffffffffffffffffffffffffffffffffff1690602001909291908035906020019064010000000081111561053457600080fd5b82018360208201111561054657600080fd5b8035906020019184600183028401116401000000008311171561056857600080fd5b91908080601f016020809104026020016040519081016040528093929190818152602001838380828437600081840152601f19601f820116905080830192505050505050509192919290803590602001906401000000008111156105cb57600080fd5b8201836020820111156105dd57600080fd5b803590602001918460018302840111640100000000831117156105ff57600080fd5b91908080601f016020809104026020016040519081016040528093929190818152602001838380828437600081840152601f19601f8201169050808301925050505050505091929192908035906020019064010000000081111561066257600080fd5b82018360208201111561067457600080fd5b8035906020019184600183028401116401000000008311171561069657600080fd5b91908080601f016020809104026020016040519081016040528093929190818152602001838380828437600081840152601f19601f820116905080830192505050505050509192919290803590602001906401000000008111156106f957600080fd5b82018360208201111561070b57600080fd5b8035906020019184600183028401116401000000008311171561072d57600080fd5b91908080601f016020809104026020016040519081016040528093929190818152602001838380828437600081840152601f19601f8201169050808301925050505050505091929192908035906020019064010000000081111561079057600080fd5b8201836020820111156107a257600080fd5b803590602001918460018302840111640100000000831117156107c457600080fd5b91908080601f016020809104026020016040519081016040528093929190818152602001838380828437600081840152601f19601f820116905080830192505050505050509192919290505050610fd7565b005b34801561082457600080fd5b506108516004803603602081101561083b57600080fd5b8101908080359060200190929190505050611345565b005b34801561085f57600080fd5b5061088c6004803603602081101561087657600080fd5b81019080803590602001909291905050506113b6565b6040518082600a81111561089c57fe5b60ff16815260200191505060405180910390f35b3480156108bc57600080fd5b506108e9600480360360208110156108d357600080fd5b81019080803590602001909291905050506113e2565b005b3480156108f757600080fd5b506109246004803603602081101561090e57600080fd5b8101908080359060200190929190505050611453565b005b34801561093257600080fd5b5061095f6004803603602081101561094957600080fd5b81019080803590602001909291905050506114c4565b005b6005600080838152602001908152602001600020600b0160006101000a81548160ff0219169083600a81111561099357fe5b02179055507f1e93508ab5b39bf9f45afa406d4ce6117c21b48d5b79372f9e599ce66210cda2816040518082815260200191505060405180910390a150565b6001600080838152602001908152602001600020600b0160006101000a81548160ff0219169083600a811115610a0457fe5b02179055507f9b3b66e2380b690bae22c73ef1428fb0c91e72fe14a4b6defa13035214187aff816040518082815260200191505060405180910390a150565b6000806060806060806060876000808a815260200190815260200160002060020160009054906101000a900473ffffffffffffffffffffffffffffffffffffffff166000808b81526020019081526020016000206004016000808c81526020019081526020016000206006016000808d81526020019081526020016000206007016000808e81526020019081526020016000206005016000808f8152602001908152602001600020600901848054600181600116156101000203166002900480601f016020809104026020016040519081016040528092919081815260200182805460018160011615610100020316600290048015610b835780601f10610b5857610100808354040283529160200191610b83565b820191906000526020600020905b815481529060010190602001808311610b6657829003601f168201915b50505050509450838054600181600116156101000203166002900480601f016020809104026020016040519081016040528092919081815260200182805460018160011615610100020316600290048015610c1f5780601f10610bf457610100808354040283529160200191610c1f565b820191906000526020600020905b815481529060010190602001808311610c0257829003601f168201915b50505050509350828054600181600116156101000203166002900480601f016020809104026020016040519081016040528092919081815260200182805460018160011615610100020316600290048015610cbb5780601f10610c9057610100808354040283529160200191610cbb565b820191906000526020600020905b815481529060010190602001808311610c9e57829003601f168201915b50505050509250818054600181600116156101000203166002900480601f016020809104026020016040519081016040528092919081815260200182805460018160011615610100020316600290048015610d575780601f10610d2c57610100808354040283529160200191610d57565b820191906000526020600020905b815481529060010190602001808311610d3a57829003601f168201915b50505050509150808054600181600116156101000203166002900480601f016020809104026020016040519081016040528092919081815260200182805460018160011615610100020316600290048015610df35780601f10610dc857610100808354040283529160200191610df3565b820191906000526020600020905b815481529060010190602001808311610dd657829003601f168201915b505050505090509650965096509650965096509650919395979092949650565b6003600080838152602001908152602001600020600b0160006101000a81548160ff0219169083600a811115610e4557fe5b02179055507fbf196506b2f00aa0ddfe8eb41c3c9ccfddcc58a5142960f08f9131afa7908496816040518082815260200191505060405180910390a150565b6007600080838152602001908152602001600020600b0160006101000a81548160ff0219169083600a811115610eb657fe5b02179055507f94d498cff24e232da4c3ed3ce9547d37faee065ef6fe670586828a6e3ccf8a53816040518082815260200191505060405180910390a150565b6004600080838152602001908152602001600020600b0160006101000a81548160ff0219169083600a811115610f2757fe5b02179055507ff5fba10cdde0743e9e1a1208d61a8f3bea78c1dc743844aef4501affa3efd151816040518082815260200191505060405180910390a150565b6006600080838152602001908152602001600020600b0160006101000a81548160ff0219169083600a811115610f9857fe5b02179055507fd27cf9eb13fb50222e8ff27788988edb150171b58e49b33f165418d0eb0253eb816040518082815260200191505060405180910390a150565b610fdf611535565b6101e06040519081016040528060016004540181526020018981526020018873ffffffffffffffffffffffffffffffffffffffff1681526020018873ffffffffffffffffffffffffffffffffffffffff16815260200187815260200186815260200185815260200184815260200189600454018152602001838152602001600081526020016000600a81111561107157fe5b8152602001600073ffffffffffffffffffffffffffffffffffffffff168152602001600073ffffffffffffffffffffffffffffffffffffffff168152602001600073ffffffffffffffffffffffffffffffffffffffff168152509050806000808a8152602001908152602001600020600082015181600001556020820151816001015560408201518160020160006101000a81548173ffffffffffffffffffffffffffffffffffffffff021916908373ffffffffffffffffffffffffffffffffffffffff16021790555060608201518160030160006101000a81548173ffffffffffffffffffffffffffffffffffffffff021916908373ffffffffffffffffffffffffffffffffffffffff160217905550608082015181600401908051906020019061119e929190611625565b5060a08201518160050190805190602001906111bb929190611625565b5060c08201518160060190805190602001906111d8929190611625565b5060e08201518160070190805190602001906111f5929190611625565b50610100820151816008015561012082015181600901908051906020019061121e929190611625565b5061014082015181600a015561016082015181600b0160006101000a81548160ff0219169083600a81111561124f57fe5b021790555061018082015181600b0160016101000a81548173ffffffffffffffffffffffffffffffffffffffff021916908373ffffffffffffffffffffffffffffffffffffffff1602179055506101a082015181600c0160006101000a81548173ffffffffffffffffffffffffffffffffffffffff021916908373ffffffffffffffffffffffffffffffffffffffff1602179055506101c082015181600d0160006101000a81548173ffffffffffffffffffffffffffffffffffffffff021916908373ffffffffffffffffffffffffffffffffffffffff1602179055509050506001600454016004819055505050505050505050565b6002600080838152602001908152602001600020600b0160006101000a81548160ff0219169083600a81111561137757fe5b02179055507fa96ae0fc3224ebd79eebfe54bd130cc9cb94416cddd1f2386115e00b72532468816040518082815260200191505060405180910390a150565b6000806000838152602001908152602001600020600b0160009054906101000a900460ff169050919050565b6008600080838152602001908152602001600020600b0160006101000a81548160ff0219169083600a81111561141457fe5b02179055507f73d6827c08a640a6959426f0ee26c7bb964902de8446b4ca6bca213740bf262f816040518082815260200191505060405180910390a150565b6009600080838152602001908152602001600020600b0160006101000a81548160ff0219169083600a81111561148557fe5b02179055507f616dfa0fd1e8003e293d0d707897c48415f6acadc960e3a8239f70841bc98c5b816040518082815260200191505060405180910390a150565b600a600080838152602001908152602001600020600b0160006101000a81548160ff0219169083600a8111156114f657fe5b02179055507fb4cdacdf11ca5dc03f3ddd7b53e92ed9d205e79bf7c06a3f4b514b084a17bb5d816040518082815260200191505060405180910390a150565b6101e0604051908101604052806000815260200160008152602001600073ffffffffffffffffffffffffffffffffffffffff168152602001600073ffffffffffffffffffffffffffffffffffffffff168152602001606081526020016060815260200160608152602001606081526020016000815260200160608152602001600081526020016000600a8111156115c857fe5b8152602001600073ffffffffffffffffffffffffffffffffffffffff168152602001600073ffffffffffffffffffffffffffffffffffffffff168152602001600073ffffffffffffffffffffffffffffffffffffffff1681525090565b828054600181600116156101000203166002900490600052602060002090601f016020900481019282601f1061166657805160ff1916838001178555611694565b82800160010185558215611694579182015b82811115611693578251825591602001919060010190611678565b5b5090506116a191906116a5565b5090565b6116c791905b808211156116c35760008160009055506001016116ab565b5090565b9056fea165627a7a72305820e4b4ee6618f702b7f6e14714e03f5adbfcc1f60fb2afea17bf40ad4aebdac42e0029",
  "source": "// SPDX-License-Identifier: MIT\npragma solidity >=0.4.21 <0.7.0;\n\ncontract SimpleStorage {\n  \n  mapping (uint => Medicine) medicines;\n  mapping (uint => string ) medicinehistory ; \n\n  address owner;\n\n  // Define a variable called 'upc' for Universal Product Code (UPC)\n  uint  upc;\n\n  // Define a variable called 'sku' for Stock Keeping Unit (SKU)\n  uint  sku;\n\n  //manufacturer events\n  event Made(uint upc);\n  event Packed(uint upc);\n  event ForSale(uint upc);\n  event Soldtodistributor(uint upc);\n  event shippedbymanufacturer(uint upc);\n  //distributor events\n  event recievedDistributor(uint upc);\n  event soldtoPharma(uint upc);\n  event shippedtoPharma(uint upc);\n  //pharma events\n  event recievedpharma(uint upc);\n  event soldtopatient(uint upc);\n  event shippedtopatient(uint upc);\n  //Patientt event \n  event Purchased(uint upc);\n\n    // Define enum 'State' with the following values:\n  enum State \n  { \n    //manufacturer states\n    Made,       // 0\n    Packed,     // 1\n    ForSale,    // 2\n    Soldtodistributor, //3\n    shippedbymanufacturer,//4\n    //distributor states\n    RecievedDistributor, //5\n    SoldtoPharma, //6\n    ShippedtoPharma,  //7\n    //Pharmacist\n    RecievedPharma, //8\n    SoldtoPatient , //9\n    ShippedtoPatient //10\n\n\n\n  }\n\n   struct Medicine {\n    uint    sku;  // Stock Keeping Unit (SKU)\n    uint    upc; // Universal Product Code (UPC), generated by the Manufacturer, goes on the package, can be verified by the Patient\n    address ownerID;  // Metamask-Ethereum address of the current owner as the medicine moves through 8 stages\n    address originManufacturerID; // Metamask-Ethereum address of the Manufacturer\n    string  originFactoryName; // Manufacturer Name\n    string  originFactoryInformation;  // Manufacturer Information\n    string  originFactoryLatitude; // Factory Latitude\n    string  originFactoryLongitude;  // Factory Longitude\n    uint    medicineID;  // Product ID potentially a combination of upc + sku\n    string  medicineNotes; // Product Notes\n    uint    medicinePrice; // Product Price\n    State   medicineState;  // Product State as represented in the enum above\n    address distributorID;  // Metamask-Ethereum address of the Distributor\n    address pharmacistID; // Metamask-Ethereum address of the Pharmacist\n    address patientID; // Metamask-Ethereum address of the Patient\n  }\n\n\n  function makeMedicine(uint _upc, address _originManufacturerID, string memory _originFactoryName, string memory _originFactoryInformation, string  memory _originFactoryLatitude, string  memory _originFactoryLongitude, string  memory _medicineNotes) public\n  \n\n\n  {\n    // Add the new medicine as part of medicines\n    Medicine memory temp_medicine = Medicine({\n      sku:sku + 1,\n      upc:_upc,\n      ownerID:_originManufacturerID,\n      originManufacturerID:_originManufacturerID,\n      originFactoryName:_originFactoryName,\n      originFactoryInformation:_originFactoryInformation,\n      originFactoryLatitude:_originFactoryLatitude,\n      originFactoryLongitude:_originFactoryLongitude,\n      medicineID:sku+_upc,\n      medicineNotes:_medicineNotes,\n      medicineState:State.Made,\n      medicinePrice:0,\n      distributorID:address(0),\n      pharmacistID:address(0),\n      patientID:address(0)\n\n      });\n    //string storage initial_history=\"This med is made by date will be passed by frontend\" ;\n    medicines[_upc] = temp_medicine;\n    //medicinehistory[_upc]  =initial_history;\n\n// uint    sku;  // Stock Keeping Unit (SKU)\n//     uint    upc; // Universal Product Code (UPC), generated by the Manufacturer, goes on the package, can be verified by the Patient\n//     address ownerID;  // Metamask-Ethereum address of the current owner as the medicine moves through 8 stages\n//     address originManufacturerID; // Metamask-Ethereum address of the Manufacturer\n//     string  originFactoryName; // Manufacturer Name\n//     string  originFactoryInformation;  // Manufacturer Information\n//     string  originFactoryLatitude; // Factory Latitude\n//     string  originFactoryLongitude;  // Factory Longitude\n//     uint    medicineID;  // Product ID potentially a combination of upc + sku\n//     string  medicineNotes; // Product Notes\n//     uint    medicinePrice; // Product Price\n//     State   medicineState;  // Product State as represented in the enum above\n//     address distributorID;  // Metamask-Ethereum address of the Distributor\n//     address pharmacistID; // Metamask-Ethereum address of the Pharmacist\n//     address patientID; // Metamask-Ethereum address of the Patient\n\n\n\n\n    // Increment sku\n    sku = sku + 1;\n    // Emit the appropriate event\n\n     \n  }\n  // function makeMedicine(uint _upc,uint _price ,string memory _name) public {\n  //     Medicine memory temp_medicine = Medicine({\n  //         upc : _upc,\n  //         price : _price,\n  //         name : _name\n  //     });\n  //     medicines[_upc] = temp_medicine;\n\n  // }\n\n  //manufacturer sub events\n\n  function packMedicine(uint _upc) public {\n  // // Call modifier to check if upc has passed previous supply chain stage\n  // Made(_upc);\n  // Call modifier to verify caller of this function\n  \n    // Update the appropriate fields\n    medicines[_upc].medicineState = State.Packed;\n   // string memory history = medicinehistory[_upc];\n    //history = history + \" packed by manufacturer on date____\";\n    //medicinehistory[_upc] = history;\n    // Emit the appropriate event\n    emit Packed(_upc);\n  }\n\n   function forSale_bymanuf(uint _upc) public {\n  // // Call modifier to check if upc has passed previous supply chain stage\n  // Made(_upc);\n  // Call modifier to verify caller of this function\n  \n    // Update the appropriate fields\n    medicines[_upc].medicineState = State.ForSale;\n   // string memory history = medicinehistory[_upc];\n    //history = history + \" packed by manufacturer on date____\";\n    //medicinehistory[_upc] = history;\n    // Emit the appropriate event\n    emit ForSale(_upc);\n  }\n\n   function soldToDistributor(uint _upc) public {\n  // // Call modifier to check if upc has passed previous supply chain stage\n  // Made(_upc);\n  // Call modifier to verify caller of this function\n  \n    // Update the appropriate fields\n    medicines[_upc].medicineState = State.Soldtodistributor;\n   // string memory history = medicinehistory[_upc];\n    //history = history + \" packed by manufacturer on date____\";\n    //medicinehistory[_upc] = history;\n    // Emit the appropriate event\n    emit Soldtodistributor(_upc);\n  }\n\n\n\n\n function shippedByManufacturer(uint _upc) public {\n  // // Call modifier to check if upc has passed previous supply chain stage\n  // Made(_upc);\n  // Call modifier to verify caller of this function\n  \n    // Update the appropriate fields\n    medicines[_upc].medicineState = State.shippedbymanufacturer;\n   // string memory history = medicinehistory[_upc];\n    //history = history + \" packed by manufacturer on date____\";\n    //medicinehistory[_upc] = history;\n    // Emit the appropriate event\n    emit shippedbymanufacturer(_upc);\n  }\n\n  //distributor controlled functions\n\n  function RecievedDistributor(uint _upc) public {\n  // // Call modifier to check if upc has passed previous supply chain stage\n  // Made(_upc);\n  // Call modifier to verify caller of this function\n  \n    // Update the appropriate fields\n    medicines[_upc].medicineState = State.RecievedDistributor;\n   // string memory history = medicinehistory[_upc];\n    //history = history + \" packed by manufacturer on date____\";\n    //medicinehistory[_upc] = history;\n    // Emit the appropriate event\n    emit recievedDistributor(_upc);\n  }\n  function SoldtoPharma(uint _upc) public {\n  // // Call modifier to check if upc has passed previous supply chain stage\n  // Made(_upc);\n  // Call modifier to verify caller of this function\n  \n    // Update the appropriate fields\n    medicines[_upc].medicineState = State.SoldtoPharma;\n   // string memory history = medicinehistory[_upc];\n    //history = history + \" packed by manufacturer on date____\";\n    //medicinehistory[_upc] = history;\n    // Emit the appropriate event\n    emit soldtoPharma(_upc);\n  }\n  function ShippedtoPharma(uint _upc) public {\n  // // Call modifier to check if upc has passed previous supply chain stage\n  // Made(_upc);\n  // Call modifier to verify caller of this function\n  \n    // Update the appropriate fields\n    medicines[_upc].medicineState = State.ShippedtoPharma;\n   // string memory history = medicinehistory[_upc];\n    //history = history + \" packed by manufacturer on date____\";\n    //medicinehistory[_upc] = history;\n    // Emit the appropriate event\n    emit shippedtoPharma(_upc);\n  }\n\n\n  //Pharmacist functions \n\n  function Recieved_Pharma(uint _upc) public {\n  // // Call modifier to check if upc has passed previous supply chain stage\n  // Made(_upc);\n  // Call modifier to verify caller of this function\n  \n    // Update the appropriate fields\n    medicines[_upc].medicineState = State.RecievedPharma;\n   // string memory history = medicinehistory[_upc];\n    //history = history + \" packed by manufacturer on date____\";\n    //medicinehistory[_upc] = history;\n    // Emit the appropriate event\n    emit recievedpharma(_upc);\n  }\n  function Sold_to_Patient(uint _upc) public {\n  // // Call modifier to check if upc has passed previous supply chain stage\n  // Made(_upc);\n  // Call modifier to verify caller of this function\n  \n    // Update the appropriate fields\n    medicines[_upc].medicineState = State.SoldtoPatient;\n   // string memory history = medicinehistory[_upc];\n    //history = history + \" packed by manufacturer on date____\";\n    //medicinehistory[_upc] = history;\n    // Emit the appropriate event\n    emit soldtopatient(_upc);\n  }\n  function Shipped_to_Patient(uint _upc) public {\n  // // Call modifier to check if upc has passed previous supply chain stage\n  // Made(_upc);\n  // Call modifier to verify caller of this function\n  \n    // Update the appropriate fields\n    medicines[_upc].medicineState = State.ShippedtoPatient;\n   // string memory history = medicinehistory[_upc];\n    //history = history + \" packed by manufacturer on date____\";\n    //medicinehistory[_upc] = history;\n    // Emit the appropriate event\n    emit shippedtopatient(_upc);\n  }\n\n\n\n  function fetchstate(uint _upc) public view returns (State _medicineState){\n    return (\n      medicines[_upc].medicineState\n      );\n  }\n\n  function fetchMedicine(uint _upc) public view returns (uint upc_ , address ownerid , string memory manufacturername, string memory Latitude , string memory Longitude,string memory factoryinfo , string memory notes){\n    return(\n          _upc,\n          medicines[_upc].ownerID,\n          medicines[_upc].originFactoryName,\n          medicines[_upc].originFactoryLatitude,\n          medicines[_upc].originFactoryLongitude,\n          medicines[_upc].originFactoryInformation,\n          medicines[_upc].medicineNotes\n    );\n  }\n\n}\n",
  "sourcePath": "C:/Users/remove/try_v1/contracts/SimpleStorage.sol",
  "compiler": {
    "name": "solc",
    "version": "0.5.0+commit.1d4f565a.Emscripten.clang"
  },
  "schemaVersion": "3.0.1",
  "updatedAt": "2021-12-02T12:04:42.926Z",
  "devdoc": {
    "methods": {}
  },
  "userdoc": {
    "methods": {}
  }
}