{
  "contractName": "SimpleStorage",
  "abi": [
    {
      "constant": true,
      "inputs": [
        {
          "name": "account",
          "type": "address"
        }
      ],
      "name": "isManufacturer",
      "outputs": [
        {
          "name": "",
          "type": "bool"
        }
      ],
      "payable": false,
      "stateMutability": "view",
      "type": "function",
      "signature": "0x17d4a491"
    },
    {
      "constant": false,
      "inputs": [],
      "name": "renouncePharmacist",
      "outputs": [],
      "payable": false,
      "stateMutability": "nonpayable",
      "type": "function",
      "signature": "0x5ae63247"
    },
    {
      "constant": false,
      "inputs": [
        {
          "name": "account",
          "type": "address"
        }
      ],
      "name": "addManufacturer",
      "outputs": [],
      "payable": false,
      "stateMutability": "nonpayable",
      "type": "function",
      "signature": "0x5f8a5afa"
    },
    {
      "constant": false,
      "inputs": [],
      "name": "renounceDistributor",
      "outputs": [],
      "payable": false,
      "stateMutability": "nonpayable",
      "type": "function",
      "signature": "0x644241db"
    },
    {
      "constant": false,
      "inputs": [
        {
          "name": "account",
          "type": "address"
        }
      ],
      "name": "addPatient",
      "outputs": [],
      "payable": false,
      "stateMutability": "nonpayable",
      "type": "function",
      "signature": "0x6d263ceb"
    },
    {
      "constant": false,
      "inputs": [
        {
          "name": "account",
          "type": "address"
        }
      ],
      "name": "addDistributor",
      "outputs": [],
      "payable": false,
      "stateMutability": "nonpayable",
      "type": "function",
      "signature": "0x7250e224"
    },
    {
      "constant": false,
      "inputs": [],
      "name": "renouncePatient",
      "outputs": [],
      "payable": false,
      "stateMutability": "nonpayable",
      "type": "function",
      "signature": "0x81a07c36"
    },
    {
      "constant": true,
      "inputs": [
        {
          "name": "account",
          "type": "address"
        }
      ],
      "name": "isPharmacist",
      "outputs": [
        {
          "name": "",
          "type": "bool"
        }
      ],
      "payable": false,
      "stateMutability": "view",
      "type": "function",
      "signature": "0x82946ee2"
    },
    {
      "constant": true,
      "inputs": [
        {
          "name": "account",
          "type": "address"
        }
      ],
      "name": "isDistributor",
      "outputs": [
        {
          "name": "",
          "type": "bool"
        }
      ],
      "payable": false,
      "stateMutability": "view",
      "type": "function",
      "signature": "0x8f0c86fa"
    },
    {
      "constant": true,
      "inputs": [
        {
          "name": "account",
          "type": "address"
        }
      ],
      "name": "isPatient",
      "outputs": [
        {
          "name": "",
          "type": "bool"
        }
      ],
      "payable": false,
      "stateMutability": "view",
      "type": "function",
      "signature": "0x8f9c79ed"
    },
    {
      "constant": false,
      "inputs": [
        {
          "name": "account",
          "type": "address"
        }
      ],
      "name": "_addManufacturer",
      "outputs": [],
      "payable": false,
      "stateMutability": "nonpayable",
      "type": "function",
      "signature": "0x95f91fe4"
    },
    {
      "constant": false,
      "inputs": [
        {
          "name": "account",
          "type": "address"
        }
      ],
      "name": "addPharmacist",
      "outputs": [],
      "payable": false,
      "stateMutability": "nonpayable",
      "type": "function",
      "signature": "0xc09e2693"
    },
    {
      "constant": false,
      "inputs": [],
      "name": "renounceManufacturer",
      "outputs": [],
      "payable": false,
      "stateMutability": "nonpayable",
      "type": "function",
      "signature": "0xde07f34e"
    },
    {
      "anonymous": false,
      "inputs": [
        {
          "indexed": false,
          "name": "upc",
          "type": "uint256"
        }
      ],
      "name": "Made",
      "type": "event",
      "signature": "0xeb8109592a383473c76afa62041a6dbabac0ca80d859bbdffb13c5a70c454b90"
    },
    {
      "anonymous": false,
      "inputs": [
        {
          "indexed": false,
          "name": "upc",
          "type": "uint256"
        }
      ],
      "name": "Packed",
      "type": "event",
      "signature": "0x9b3b66e2380b690bae22c73ef1428fb0c91e72fe14a4b6defa13035214187aff"
    },
    {
      "anonymous": false,
      "inputs": [
        {
          "indexed": false,
          "name": "upc",
          "type": "uint256"
        }
      ],
      "name": "ForSale",
      "type": "event",
      "signature": "0xa96ae0fc3224ebd79eebfe54bd130cc9cb94416cddd1f2386115e00b72532468"
    },
    {
      "anonymous": false,
      "inputs": [
        {
          "indexed": false,
          "name": "upc",
          "type": "uint256"
        }
      ],
      "name": "Soldtodistributor",
      "type": "event",
      "signature": "0xbf196506b2f00aa0ddfe8eb41c3c9ccfddcc58a5142960f08f9131afa7908496"
    },
    {
      "anonymous": false,
      "inputs": [
        {
          "indexed": false,
          "name": "upc",
          "type": "uint256"
        }
      ],
      "name": "shippedbymanufacturer",
      "type": "event",
      "signature": "0xf5fba10cdde0743e9e1a1208d61a8f3bea78c1dc743844aef4501affa3efd151"
    },
    {
      "anonymous": false,
      "inputs": [
        {
          "indexed": false,
          "name": "upc",
          "type": "uint256"
        }
      ],
      "name": "recievedDistributor",
      "type": "event",
      "signature": "0x1e93508ab5b39bf9f45afa406d4ce6117c21b48d5b79372f9e599ce66210cda2"
    },
    {
      "anonymous": false,
      "inputs": [
        {
          "indexed": false,
          "name": "upc",
          "type": "uint256"
        }
      ],
      "name": "soldtoPharma",
      "type": "event",
      "signature": "0xd27cf9eb13fb50222e8ff27788988edb150171b58e49b33f165418d0eb0253eb"
    },
    {
      "anonymous": false,
      "inputs": [
        {
          "indexed": false,
          "name": "upc",
          "type": "uint256"
        }
      ],
      "name": "shippedtoPharma",
      "type": "event",
      "signature": "0x94d498cff24e232da4c3ed3ce9547d37faee065ef6fe670586828a6e3ccf8a53"
    },
    {
      "anonymous": false,
      "inputs": [
        {
          "indexed": false,
          "name": "upc",
          "type": "uint256"
        }
      ],
      "name": "recievedpharma",
      "type": "event",
      "signature": "0x73d6827c08a640a6959426f0ee26c7bb964902de8446b4ca6bca213740bf262f"
    },
    {
      "anonymous": false,
      "inputs": [
        {
          "indexed": false,
          "name": "upc",
          "type": "uint256"
        }
      ],
      "name": "soldtopatient",
      "type": "event",
      "signature": "0x616dfa0fd1e8003e293d0d707897c48415f6acadc960e3a8239f70841bc98c5b"
    },
    {
      "anonymous": false,
      "inputs": [
        {
          "indexed": false,
          "name": "upc",
          "type": "uint256"
        }
      ],
      "name": "shippedtopatient",
      "type": "event",
      "signature": "0xb4cdacdf11ca5dc03f3ddd7b53e92ed9d205e79bf7c06a3f4b514b084a17bb5d"
    },
    {
      "anonymous": false,
      "inputs": [
        {
          "indexed": false,
          "name": "upc",
          "type": "uint256"
        }
      ],
      "name": "Purchased",
      "type": "event",
      "signature": "0x653d56639fee6b566a5c804764e9689de38645f0b733df89a36a1b7b42173dd8"
    },
    {
      "anonymous": false,
      "inputs": [
        {
          "indexed": true,
          "name": "account",
          "type": "address"
        }
      ],
      "name": "DistributorAdded",
      "type": "event",
      "signature": "0xddbf200aa634dc3fb81cfd68583dd1040d1c751d335e1d86b631bde3e977fea8"
    },
    {
      "anonymous": false,
      "inputs": [
        {
          "indexed": true,
          "name": "account",
          "type": "address"
        }
      ],
      "name": "DistributorRemoved",
      "type": "event",
      "signature": "0x126174f6cf49c81cdb4a9214c6b8f037bef55b4ec31e4fc776cea2a1c8a88d59"
    },
    {
      "anonymous": false,
      "inputs": [
        {
          "indexed": true,
          "name": "account",
          "type": "address"
        }
      ],
      "name": "ManufacturerAdded",
      "type": "event",
      "signature": "0x561138658ca49a8540dc70dcfe64c9026c1c5b9344642242dd6562970f9c1278"
    },
    {
      "anonymous": false,
      "inputs": [
        {
          "indexed": true,
          "name": "account",
          "type": "address"
        }
      ],
      "name": "ManufacturerRemoved",
      "type": "event",
      "signature": "0x2fed5abf6a80d6dfe30b4895481b2fc5d7dce5f8f7b931832f4a2947d5040c7f"
    },
    {
      "anonymous": false,
      "inputs": [
        {
          "indexed": true,
          "name": "account",
          "type": "address"
        }
      ],
      "name": "PatientAdded",
      "type": "event",
      "signature": "0xa58cff07db0adda3ab7a40bd2f18ab57210bf38391a52ffd2e8eee6b8bdec71a"
    },
    {
      "anonymous": false,
      "inputs": [
        {
          "indexed": true,
          "name": "account",
          "type": "address"
        }
      ],
      "name": "PatientRemoved",
      "type": "event",
      "signature": "0x053a4badf166f01c4b02f6bcb71d2d67734470d0866282e291e73001aa25c769"
    },
    {
      "anonymous": false,
      "inputs": [
        {
          "indexed": true,
          "name": "account",
          "type": "address"
        }
      ],
      "name": "PharmacistAdded",
      "type": "event",
      "signature": "0x5a4264410853372bdd7255ebc9624cb523fc039cd6f9f1855165194738125f63"
    },
    {
      "anonymous": false,
      "inputs": [
        {
          "indexed": true,
          "name": "account",
          "type": "address"
        }
      ],
      "name": "PharmacistRemoved",
      "type": "event",
      "signature": "0x9d17ec7e57a5118cf27abf33370bcc6f007c27a9706ab4cc473a76fe552447d2"
    },
    {
      "constant": false,
      "inputs": [
        {
          "name": "_upc",
          "type": "uint256"
        },
        {
          "name": "_originManufacturerID",
          "type": "address"
        },
        {
          "name": "_originFactoryName",
          "type": "string"
        },
        {
          "name": "_originFactoryInformation",
          "type": "string"
        },
        {
          "name": "_originFactoryLatitude",
          "type": "string"
        },
        {
          "name": "_originFactoryLongitude",
          "type": "string"
        },
        {
          "name": "_medicineNotes",
          "type": "string"
        },
        {
          "name": "_history",
          "type": "string"
        }
      ],
      "name": "makeMedicine",
      "outputs": [],
      "payable": false,
      "stateMutability": "nonpayable",
      "type": "function",
      "signature": "0x318c5036"
    },
    {
      "constant": false,
      "inputs": [
        {
          "name": "_upc",
          "type": "uint256"
        },
        {
          "name": "_history",
          "type": "string"
        }
      ],
      "name": "packMedicine",
      "outputs": [],
      "payable": false,
      "stateMutability": "nonpayable",
      "type": "function",
      "signature": "0x70b184da"
    },
    {
      "constant": false,
      "inputs": [
        {
          "name": "_upc",
          "type": "uint256"
        },
        {
          "name": "_history",
          "type": "string"
        }
      ],
      "name": "forSale_bymanuf",
      "outputs": [],
      "payable": false,
      "stateMutability": "nonpayable",
      "type": "function",
      "signature": "0x9e1a2f30"
    },
    {
      "constant": false,
      "inputs": [
        {
          "name": "_upc",
          "type": "uint256"
        },
        {
          "name": "_history",
          "type": "string"
        }
      ],
      "name": "soldToDistributor",
      "outputs": [],
      "payable": false,
      "stateMutability": "nonpayable",
      "type": "function",
      "signature": "0x4ab7e29d"
    },
    {
      "constant": false,
      "inputs": [
        {
          "name": "_upc",
          "type": "uint256"
        },
        {
          "name": "_history",
          "type": "string"
        }
      ],
      "name": "shippedByManufacturer",
      "outputs": [],
      "payable": false,
      "stateMutability": "nonpayable",
      "type": "function",
      "signature": "0xd759283a"
    },
    {
      "constant": false,
      "inputs": [
        {
          "name": "_upc",
          "type": "uint256"
        },
        {
          "name": "_name",
          "type": "string"
        },
        {
          "name": "_long",
          "type": "string"
        },
        {
          "name": "_lat",
          "type": "string"
        },
        {
          "name": "_address",
          "type": "address"
        },
        {
          "name": "_history",
          "type": "string"
        }
      ],
      "name": "RecievedDistributor",
      "outputs": [],
      "payable": false,
      "stateMutability": "nonpayable",
      "type": "function",
      "signature": "0xe4f4aa2a"
    },
    {
      "constant": false,
      "inputs": [
        {
          "name": "_upc",
          "type": "uint256"
        },
        {
          "name": "_history",
          "type": "string"
        }
      ],
      "name": "SoldtoPharma",
      "outputs": [],
      "payable": false,
      "stateMutability": "nonpayable",
      "type": "function",
      "signature": "0x8c2891ce"
    },
    {
      "constant": false,
      "inputs": [
        {
          "name": "_upc",
          "type": "uint256"
        },
        {
          "name": "_history",
          "type": "string"
        }
      ],
      "name": "ShippedtoPharma",
      "outputs": [],
      "payable": false,
      "stateMutability": "nonpayable",
      "type": "function",
      "signature": "0x8f5d97f1"
    },
    {
      "constant": false,
      "inputs": [
        {
          "name": "_upc",
          "type": "uint256"
        },
        {
          "name": "_name",
          "type": "string"
        },
        {
          "name": "_long",
          "type": "string"
        },
        {
          "name": "_lat",
          "type": "string"
        },
        {
          "name": "_address",
          "type": "address"
        },
        {
          "name": "_history",
          "type": "string"
        }
      ],
      "name": "Recieved_Pharma",
      "outputs": [],
      "payable": false,
      "stateMutability": "nonpayable",
      "type": "function",
      "signature": "0x898513e4"
    },
    {
      "constant": false,
      "inputs": [
        {
          "name": "_upc",
          "type": "uint256"
        },
        {
          "name": "_history",
          "type": "string"
        }
      ],
      "name": "Sold_to_Patient",
      "outputs": [],
      "payable": false,
      "stateMutability": "nonpayable",
      "type": "function",
      "signature": "0xd1c6a24d"
    },
    {
      "constant": false,
      "inputs": [
        {
          "name": "_upc",
          "type": "uint256"
        },
        {
          "name": "_history",
          "type": "string"
        }
      ],
      "name": "Shipped_to_Patient",
      "outputs": [],
      "payable": false,
      "stateMutability": "nonpayable",
      "type": "function",
      "signature": "0x3e2d5e2b"
    },
    {
      "constant": true,
      "inputs": [
        {
          "name": "_upc",
          "type": "uint256"
        }
      ],
      "name": "fetchstate",
      "outputs": [
        {
          "name": "_medicineState",
          "type": "uint8"
        },
        {
          "name": "_history",
          "type": "string"
        }
      ],
      "payable": false,
      "stateMutability": "view",
      "type": "function",
      "signature": "0xdbdf8b75"
    },
    {
      "constant": true,
      "inputs": [
        {
          "name": "_upc",
          "type": "uint256"
        }
      ],
      "name": "fetchMedicine",
      "outputs": [
        {
          "name": "upc_",
          "type": "uint256"
        },
        {
          "name": "ownerid",
          "type": "address"
        },
        {
          "name": "manufacturername",
          "type": "string"
        },
        {
          "name": "Latitude",
          "type": "string"
        },
        {
          "name": "Longitude",
          "type": "string"
        },
        {
          "name": "factoryinfo",
          "type": "string"
        },
        {
          "name": "notes",
          "type": "string"
        }
      ],
      "payable": false,
      "stateMutability": "view",
      "type": "function",
      "signature": "0x4fa75b7c"
    }
  ],
  "bytecode": "0x60806040526200001e3362000072640100000000026401000000009004565b6200003833620000d9640100000000026401000000009004565b620000523362000140640100000000026401000000009004565b6200006c33620001a7640100000000026401000000009004565b62000366565b620000936000826200020e64010000000002620039f4176401000000009004565b8073ffffffffffffffffffffffffffffffffffffffff167f5a4264410853372bdd7255ebc9624cb523fc039cd6f9f1855165194738125f6360405160405180910390a250565b620000fa6001826200020e64010000000002620039f4176401000000009004565b8073ffffffffffffffffffffffffffffffffffffffff167fa58cff07db0adda3ab7a40bd2f18ab57210bf38391a52ffd2e8eee6b8bdec71a60405160405180910390a250565b620001616002826200020e64010000000002620039f4176401000000009004565b8073ffffffffffffffffffffffffffffffffffffffff167f561138658ca49a8540dc70dcfe64c9026c1c5b9344642242dd6562970f9c127860405160405180910390a250565b620001c86003826200020e64010000000002620039f4176401000000009004565b8073ffffffffffffffffffffffffffffffffffffffff167fddbf200aa634dc3fb81cfd68583dd1040d1c751d335e1d86b631bde3e977fea860405160405180910390a250565b600073ffffffffffffffffffffffffffffffffffffffff168173ffffffffffffffffffffffffffffffffffffffff16141515156200024b57600080fd5b620002668282620002d1640100000000026401000000009004565b1515156200027357600080fd5b60018260000160008373ffffffffffffffffffffffffffffffffffffffff1673ffffffffffffffffffffffffffffffffffffffff16815260200190815260200160002060006101000a81548160ff0219169083151502179055505050565b60008073ffffffffffffffffffffffffffffffffffffffff168273ffffffffffffffffffffffffffffffffffffffff16141515156200030f57600080fd5b8260000160008373ffffffffffffffffffffffffffffffffffffffff1673ffffffffffffffffffffffffffffffffffffffff16815260200190815260200160002060009054906101000a900460ff16905092915050565b613e6080620003766000396000f3fe608060405260043610610154576000357c0100000000000000000000000000000000000000000000000000000000900463ffffffff16806317d4a49114610159578063318c5036146101c25780633e2d5e2b146105a85780634ab7e29d1461067a5780634fa75b7c1461074c5780635ae63247146109ea5780635f8a5afa14610a01578063644241db14610a525780636d263ceb14610a6957806370b184da14610aba5780637250e22414610b8c57806381a07c3614610bdd57806382946ee214610bf4578063898513e414610c5d5780638c2891ce14610f145780638f0c86fa14610fe65780638f5d97f11461104f5780638f9c79ed1461112157806395f91fe41461118a5780639e1a2f30146111db578063c09e2693146112ad578063d1c6a24d146112fe578063d759283a146113d0578063dbdf8b75146114a2578063de07f34e1461156b578063e4f4aa2a14611582575b600080fd5b34801561016557600080fd5b506101a86004803603602081101561017c57600080fd5b81019080803573ffffffffffffffffffffffffffffffffffffffff169060200190929190505050611839565b604051808215151515815260200191505060405180910390f35b3480156101ce57600080fd5b506105a660048036036101008110156101e657600080fd5b8101908080359060200190929190803573ffffffffffffffffffffffffffffffffffffffff1690602001909291908035906020019064010000000081111561022d57600080fd5b82018360208201111561023f57600080fd5b8035906020019184600183028401116401000000008311171561026157600080fd5b91908080601f016020809104026020016040519081016040528093929190818152602001838380828437600081840152601f19601f820116905080830192505050505050509192919290803590602001906401000000008111156102c457600080fd5b8201836020820111156102d657600080fd5b803590602001918460018302840111640100000000831117156102f857600080fd5b91908080601f016020809104026020016040519081016040528093929190818152602001838380828437600081840152601f19601f8201169050808301925050505050505091929192908035906020019064010000000081111561035b57600080fd5b82018360208201111561036d57600080fd5b8035906020019184600183028401116401000000008311171561038f57600080fd5b91908080601f016020809104026020016040519081016040528093929190818152602001838380828437600081840152601f19601f820116905080830192505050505050509192919290803590602001906401000000008111156103f257600080fd5b82018360208201111561040457600080fd5b8035906020019184600183028401116401000000008311171561042657600080fd5b91908080601f016020809104026020016040519081016040528093929190818152602001838380828437600081840152601f19601f8201169050808301925050505050505091929192908035906020019064010000000081111561048957600080fd5b82018360208201111561049b57600080fd5b803590602001918460018302840111640100000000831117156104bd57600080fd5b91908080601f016020809104026020016040519081016040528093929190818152602001838380828437600081840152601f19601f8201169050808301925050505050505091929192908035906020019064010000000081111561052057600080fd5b82018360208201111561053257600080fd5b8035906020019184600183028401116401000000008311171561055457600080fd5b91908080601f016020809104026020016040519081016040528093929190818152602001838380828437600081840152601f19601f82011690508083019250505050505050919291929050505061184d565b005b3480156105b457600080fd5b50610678600480360360408110156105cb57600080fd5b8101908080359060200190929190803590602001906401000000008111156105f257600080fd5b82018360208201111561060457600080fd5b8035906020019184600183028401116401000000008311171561062657600080fd5b91908080601f016020809104026020016040519081016040528093929190818152602001838380828437600081840152601f19601f820116905080830192505050505050509192919290505050611e0f565b005b34801561068657600080fd5b5061074a6004803603604081101561069d57600080fd5b8101908080359060200190929190803590602001906401000000008111156106c457600080fd5b8201836020820111156106d657600080fd5b803590602001918460018302840111640100000000831117156106f857600080fd5b91908080601f016020809104026020016040519081016040528093929190818152602001838380828437600081840152601f19601f820116905080830192505050505050509192919290505050611fc8565b005b34801561075857600080fd5b506107856004803603602081101561076f57600080fd5b8101908080359060200190929190505050612181565b604051808881526020018773ffffffffffffffffffffffffffffffffffffffff1673ffffffffffffffffffffffffffffffffffffffff168152602001806020018060200180602001806020018060200186810386528b818151815260200191508051906020019080838360005b8381101561080d5780820151818401526020810190506107f2565b50505050905090810190601f16801561083a5780820380516001836020036101000a031916815260200191505b5086810385528a818151815260200191508051906020019080838360005b83811015610873578082015181840152602081019050610858565b50505050905090810190601f1680156108a05780820380516001836020036101000a031916815260200191505b50868103845289818151815260200191508051906020019080838360005b838110156108d95780820151818401526020810190506108be565b50505050905090810190601f1680156109065780820380516001836020036101000a031916815260200191505b50868103835288818151815260200191508051906020019080838360005b8381101561093f578082015181840152602081019050610924565b50505050905090810190601f16801561096c5780820380516001836020036101000a031916815260200191505b50868103825287818151815260200191508051906020019080838360005b838110156109a557808201518184015260208101905061098a565b50505050905090810190601f1680156109d25780820380516001836020036101000a031916815260200191505b509c5050505050505050505050505060405180910390f35b3480156109f657600080fd5b506109ff61256b565b005b348015610a0d57600080fd5b50610a5060048036036020811015610a2457600080fd5b81019080803573ffffffffffffffffffffffffffffffffffffffff169060200190929190505050612576565b005b348015610a5e57600080fd5b50610a67612582565b005b348015610a7557600080fd5b50610ab860048036036020811015610a8c57600080fd5b81019080803573ffffffffffffffffffffffffffffffffffffffff16906020019092919050505061258d565b005b348015610ac657600080fd5b50610b8a60048036036040811015610add57600080fd5b810190808035906020019092919080359060200190640100000000811115610b0457600080fd5b820183602082011115610b1657600080fd5b80359060200191846001830284011164010000000083111715610b3857600080fd5b91908080601f016020809104026020016040519081016040528093929190818152602001838380828437600081840152601f19601f8201169050808301925050505050505091929192905050506125ad565b005b348015610b9857600080fd5b50610bdb60048036036020811015610baf57600080fd5b81019080803573ffffffffffffffffffffffffffffffffffffffff169060200190929190505050612766565b005b348015610be957600080fd5b50610bf2612786565b005b348015610c0057600080fd5b50610c4360048036036020811015610c1757600080fd5b81019080803573ffffffffffffffffffffffffffffffffffffffff169060200190929190505050612791565b604051808215151515815260200191505060405180910390f35b348015610c6957600080fd5b50610f12600480360360c0811015610c8057600080fd5b810190808035906020019092919080359060200190640100000000811115610ca757600080fd5b820183602082011115610cb957600080fd5b80359060200191846001830284011164010000000083111715610cdb57600080fd5b91908080601f016020809104026020016040519081016040528093929190818152602001838380828437600081840152601f19601f82011690508083019250505050505050919291929080359060200190640100000000811115610d3e57600080fd5b820183602082011115610d5057600080fd5b80359060200191846001830284011164010000000083111715610d7257600080fd5b91908080601f016020809104026020016040519081016040528093929190818152602001838380828437600081840152601f19601f82011690508083019250505050505050919291929080359060200190640100000000811115610dd557600080fd5b820183602082011115610de757600080fd5b80359060200191846001830284011164010000000083111715610e0957600080fd5b91908080601f016020809104026020016040519081016040528093929190818152602001838380828437600081840152601f19601f820116905080830192505050505050509192919290803573ffffffffffffffffffffffffffffffffffffffff16906020019092919080359060200190640100000000811115610e8c57600080fd5b820183602082011115610e9e57600080fd5b80359060200191846001830284011164010000000083111715610ec057600080fd5b91908080601f016020809104026020016040519081016040528093929190818152602001838380828437600081840152601f19601f8201169050808301925050505050505091929192905050506127a5565b005b348015610f2057600080fd5b50610fe460048036036040811015610f3757600080fd5b810190808035906020019092919080359060200190640100000000811115610f5e57600080fd5b820183602082011115610f7057600080fd5b80359060200191846001830284011164010000000083111715610f9257600080fd5b91908080601f016020809104026020016040519081016040528093929190818152602001838380828437600081840152601f19601f820116905080830192505050505050509192919290505050612a38565b005b348015610ff257600080fd5b506110356004803603602081101561100957600080fd5b81019080803573ffffffffffffffffffffffffffffffffffffffff169060200190929190505050612bf1565b604051808215151515815260200191505060405180910390f35b34801561105b57600080fd5b5061111f6004803603604081101561107257600080fd5b81019080803590602001909291908035906020019064010000000081111561109957600080fd5b8201836020820111156110ab57600080fd5b803590602001918460018302840111640100000000831117156110cd57600080fd5b91908080601f016020809104026020016040519081016040528093929190818152602001838380828437600081840152601f19601f820116905080830192505050505050509192919290505050612c05565b005b34801561112d57600080fd5b506111706004803603602081101561114457600080fd5b81019080803573ffffffffffffffffffffffffffffffffffffffff169060200190929190505050612dbe565b604051808215151515815260200191505060405180910390f35b34801561119657600080fd5b506111d9600480360360208110156111ad57600080fd5b81019080803573ffffffffffffffffffffffffffffffffffffffff169060200190929190505050612dd2565b005b3480156111e757600080fd5b506112ab600480360360408110156111fe57600080fd5b81019080803590602001909291908035906020019064010000000081111561122557600080fd5b82018360208201111561123757600080fd5b8035906020019184600183028401116401000000008311171561125957600080fd5b91908080601f016020809104026020016040519081016040528093929190818152602001838380828437600081840152601f19601f820116905080830192505050505050509192919290505050612e23565b005b3480156112b957600080fd5b506112fc600480360360208110156112d057600080fd5b81019080803573ffffffffffffffffffffffffffffffffffffffff169060200190929190505050612fdc565b005b34801561130a57600080fd5b506113ce6004803603604081101561132157600080fd5b81019080803590602001909291908035906020019064010000000081111561134857600080fd5b82018360208201111561135a57600080fd5b8035906020019184600183028401116401000000008311171561137c57600080fd5b91908080601f016020809104026020016040519081016040528093929190818152602001838380828437600081840152601f19601f820116905080830192505050505050509192919290505050612ffc565b005b3480156113dc57600080fd5b506114a0600480360360408110156113f357600080fd5b81019080803590602001909291908035906020019064010000000081111561141a57600080fd5b82018360208201111561142c57600080fd5b8035906020019184600183028401116401000000008311171561144e57600080fd5b91908080601f016020809104026020016040519081016040528093929190818152602001838380828437600081840152601f19601f8201169050808301925050505050505091929192905050506131b5565b005b3480156114ae57600080fd5b506114db600480360360208110156114c557600080fd5b810190808035906020019092919050505061336d565b6040518083600a8111156114eb57fe5b60ff16815260200180602001828103825283818151815260200191508051906020019080838360005b8381101561152f578082015181840152602081019050611514565b50505050905090810190601f16801561155c5780820380516001836020036101000a031916815260200191505b50935050505060405180910390f35b34801561157757600080fd5b50611580613461565b005b34801561158e57600080fd5b50611837600480360360c08110156115a557600080fd5b8101908080359060200190929190803590602001906401000000008111156115cc57600080fd5b8201836020820111156115de57600080fd5b8035906020019184600183028401116401000000008311171561160057600080fd5b91908080601f016020809104026020016040519081016040528093929190818152602001838380828437600081840152601f19601f8201169050808301925050505050505091929192908035906020019064010000000081111561166357600080fd5b82018360208201111561167557600080fd5b8035906020019184600183028401116401000000008311171561169757600080fd5b91908080601f016020809104026020016040519081016040528093929190818152602001838380828437600081840152601f19601f820116905080830192505050505050509192919290803590602001906401000000008111156116fa57600080fd5b82018360208201111561170c57600080fd5b8035906020019184600183028401116401000000008311171561172e57600080fd5b91908080601f016020809104026020016040519081016040528093929190818152602001838380828437600081840152601f19601f820116905080830192505050505050509192919290803573ffffffffffffffffffffffffffffffffffffffff169060200190929190803590602001906401000000008111156117b157600080fd5b8201836020820111156117c357600080fd5b803590602001918460018302840111640100000000831117156117e557600080fd5b91908080601f016020809104026020016040519081016040528093929190818152602001838380828437600081840152601f19601f82011690508083019250505050505050919291929050505061346c565b005b60006118466002836136ff565b9050919050565b61185633611839565b151561186157600080fd5b611869613bf5565b6102a06040519081016040528060016008540181526020018a81526020018973ffffffffffffffffffffffffffffffffffffffff1681526020018973ffffffffffffffffffffffffffffffffffffffff1681526020018881526020018781526020018681526020018581526020018a600854018152602001848152602001600081526020016000600a8111156118fb57fe5b8152602001600073ffffffffffffffffffffffffffffffffffffffff168152602001600073ffffffffffffffffffffffffffffffffffffffff168152602001600073ffffffffffffffffffffffffffffffffffffffff1681526020016040805190810160405280600181526020017f200000000000000000000000000000000000000000000000000000000000000081525081526020016040805190810160405280600181526020017f200000000000000000000000000000000000000000000000000000000000000081525081526020016040805190810160405280600181526020017f200000000000000000000000000000000000000000000000000000000000000081525081526020016040805190810160405280600181526020017f200000000000000000000000000000000000000000000000000000000000000081525081526020016040805190810160405280600181526020017f200000000000000000000000000000000000000000000000000000000000000081525081526020016040805190810160405280600181526020017f2000000000000000000000000000000000000000000000000000000000000000815250815250905080600460008b8152602001908152602001600020600082015181600001556020820151816001015560408201518160020160006101000a81548173ffffffffffffffffffffffffffffffffffffffff021916908373ffffffffffffffffffffffffffffffffffffffff16021790555060608201518160030160006101000a81548173ffffffffffffffffffffffffffffffffffffffff021916908373ffffffffffffffffffffffffffffffffffffffff1602179055506080820151816004019080519060200190611b8b929190613d0f565b5060a0820151816005019080519060200190611ba8929190613d0f565b5060c0820151816006019080519060200190611bc5929190613d0f565b5060e0820151816007019080519060200190611be2929190613d0f565b506101008201518160080155610120820151816009019080519060200190611c0b929190613d0f565b5061014082015181600a015561016082015181600b0160006101000a81548160ff0219169083600a811115611c3c57fe5b021790555061018082015181600b0160016101000a81548173ffffffffffffffffffffffffffffffffffffffff021916908373ffffffffffffffffffffffffffffffffffffffff1602179055506101a082015181600c0160006101000a81548173ffffffffffffffffffffffffffffffffffffffff021916908373ffffffffffffffffffffffffffffffffffffffff1602179055506101c082015181600d0160006101000a81548173ffffffffffffffffffffffffffffffffffffffff021916908373ffffffffffffffffffffffffffffffffffffffff1602179055506101e082015181600e019080519060200190611d36929190613d0f565b5061020082015181600f019080519060200190611d54929190613d0f565b50610220820151816010019080519060200190611d72929190613d0f565b50610240820151816011019080519060200190611d90929190613d0f565b50610260820151816012019080519060200190611dae929190613d0f565b50610280820151816013019080519060200190611dcc929190613d0f565b5090505081600560008b81526020019081526020016000209080519060200190611df7929190613d8f565b50600160085401600881905550505050505050505050565b816009600a811115611e1d57fe5b60046000838152602001908152602001600020600b0160009054906101000a900460ff16600a811115611e4c57fe5b141515611e5857600080fd5b611e6133612791565b1515611e6c57600080fd5b600a60046000858152602001908152602001600020600b0160006101000a81548160ff0219169083600a811115611e9f57fe5b02179055506060600560008581526020019081526020016000208054600181600116156101000203166002900480601f016020809104026020016040519081016040528092919081815260200182805460018160011615610100020316600290048015611f4d5780601f10611f2257610100808354040283529160200191611f4d565b820191906000526020600020905b815481529060010190602001808311611f3057829003601f168201915b505050505090506060611f608285613793565b905080600560008781526020019081526020016000209080519060200190611f89929190613d8f565b507fb4cdacdf11ca5dc03f3ddd7b53e92ed9d205e79bf7c06a3f4b514b084a17bb5d856040518082815260200191505060405180910390a15050505050565b816002600a811115611fd657fe5b60046000838152602001908152602001600020600b0160009054906101000a900460ff16600a81111561200557fe5b14151561201157600080fd5b61201a33611839565b151561202557600080fd5b600360046000858152602001908152602001600020600b0160006101000a81548160ff0219169083600a81111561205857fe5b02179055506060600560008581526020019081526020016000208054600181600116156101000203166002900480601f0160208091040260200160405190810160405280929190818152602001828054600181600116156101000203166002900480156121065780601f106120db57610100808354040283529160200191612106565b820191906000526020600020905b8154815290600101906020018083116120e957829003601f168201915b5050505050905060606121198285613793565b905080600560008781526020019081526020016000209080519060200190612142929190613d8f565b507fbf196506b2f00aa0ddfe8eb41c3c9ccfddcc58a5142960f08f9131afa7908496856040518082815260200191505060405180910390a15050505050565b600080606080606080606061219533612dbe565b15156121a057600080fd5b87600460008a815260200190815260200160002060020160009054906101000a900473ffffffffffffffffffffffffffffffffffffffff16600460008b8152602001908152602001600020600401600460008c8152602001908152602001600020600601600460008d8152602001908152602001600020600701600460008e8152602001908152602001600020600501600460008f8152602001908152602001600020600901848054600181600116156101000203166002900480601f0160208091040260200160405190810160405280929190818152602001828054600181600116156101000203166002900480156122db5780601f106122b0576101008083540402835291602001916122db565b820191906000526020600020905b8154815290600101906020018083116122be57829003601f168201915b50505050509450838054600181600116156101000203166002900480601f0160208091040260200160405190810160405280929190818152602001828054600181600116156101000203166002900480156123775780601f1061234c57610100808354040283529160200191612377565b820191906000526020600020905b81548152906001019060200180831161235a57829003601f168201915b50505050509350828054600181600116156101000203166002900480601f0160208091040260200160405190810160405280929190818152602001828054600181600116156101000203166002900480156124135780601f106123e857610100808354040283529160200191612413565b820191906000526020600020905b8154815290600101906020018083116123f657829003601f168201915b50505050509250818054600181600116156101000203166002900480601f0160208091040260200160405190810160405280929190818152602001828054600181600116156101000203166002900480156124af5780601f10612484576101008083540402835291602001916124af565b820191906000526020600020905b81548152906001019060200180831161249257829003601f168201915b50505050509150808054600181600116156101000203166002900480601f01602080910402602001604051908101604052809291908181526020018280546001816001161561010002031660029004801561254b5780601f106125205761010080835404028352916020019161254b565b820191906000526020600020905b81548152906001019060200180831161252e57829003601f168201915b505050505090509650965096509650965096509650919395979092949650565b6125743361385f565b565b61257f81612dd2565b50565b61258b336138b0565b565b61259633612dbe565b15156125a157600080fd5b6125aa81613901565b50565b816000600a8111156125bb57fe5b60046000838152602001908152602001600020600b0160009054906101000a900460ff16600a8111156125ea57fe5b1415156125f657600080fd5b6125ff33611839565b151561260a57600080fd5b600160046000858152602001908152602001600020600b0160006101000a81548160ff0219169083600a81111561263d57fe5b02179055506060600560008581526020019081526020016000208054600181600116156101000203166002900480601f0160208091040260200160405190810160405280929190818152602001828054600181600116156101000203166002900480156126eb5780601f106126c0576101008083540402835291602001916126eb565b820191906000526020600020905b8154815290600101906020018083116126ce57829003601f168201915b5050505050905060606126fe8285613793565b905080600560008781526020019081526020016000209080519060200190612727929190613d8f565b507f9b3b66e2380b690bae22c73ef1428fb0c91e72fe14a4b6defa13035214187aff856040518082815260200191505060405180910390a15050505050565b61276f33612bf1565b151561277a57600080fd5b61278381613952565b50565b61278f336139a3565b565b600061279e6000836136ff565b9050919050565b856007600a8111156127b357fe5b60046000838152602001908152602001600020600b0160009054906101000a900460ff16600a8111156127e257fe5b1415156127ee57600080fd5b6127f733612791565b151561280257600080fd5b600860046000898152602001908152602001600020600b0160006101000a81548160ff0219169083600a81111561283557fe5b02179055508560046000898152602001908152602001600020600f019080519060200190612864929190613d8f565b508460046000898152602001908152602001600020601301908051906020019061288f929190613d8f565b50836004600089815260200190815260200160002060120190805190602001906128ba929190613d8f565b508260046000898152602001908152602001600020600c0160006101000a81548173ffffffffffffffffffffffffffffffffffffffff021916908373ffffffffffffffffffffffffffffffffffffffff1602179055506060600560008981526020019081526020016000208054600181600116156101000203166002900480601f0160208091040260200160405190810160405280929190818152602001828054600181600116156101000203166002900480156129b95780601f1061298e576101008083540402835291602001916129b9565b820191906000526020600020905b81548152906001019060200180831161299c57829003601f168201915b5050505050905060606129cc8285613793565b905080600560008b815260200190815260200160002090805190602001906129f5929190613d8f565b507f73d6827c08a640a6959426f0ee26c7bb964902de8446b4ca6bca213740bf262f896040518082815260200191505060405180910390a1505050505050505050565b816005600a811115612a4657fe5b60046000838152602001908152602001600020600b0160009054906101000a900460ff16600a811115612a7557fe5b141515612a8157600080fd5b612a8a33612bf1565b1515612a9557600080fd5b600660046000858152602001908152602001600020600b0160006101000a81548160ff0219169083600a811115612ac857fe5b02179055506060600560008581526020019081526020016000208054600181600116156101000203166002900480601f016020809104026020016040519081016040528092919081815260200182805460018160011615610100020316600290048015612b765780601f10612b4b57610100808354040283529160200191612b76565b820191906000526020600020905b815481529060010190602001808311612b5957829003601f168201915b505050505090506060612b898285613793565b905080600560008781526020019081526020016000209080519060200190612bb2929190613d8f565b507fd27cf9eb13fb50222e8ff27788988edb150171b58e49b33f165418d0eb0253eb856040518082815260200191505060405180910390a15050505050565b6000612bfe6003836136ff565b9050919050565b816006600a811115612c1357fe5b60046000838152602001908152602001600020600b0160009054906101000a900460ff16600a811115612c4257fe5b141515612c4e57600080fd5b612c5733612bf1565b1515612c6257600080fd5b600760046000858152602001908152602001600020600b0160006101000a81548160ff0219169083600a811115612c9557fe5b02179055506060600560008581526020019081526020016000208054600181600116156101000203166002900480601f016020809104026020016040519081016040528092919081815260200182805460018160011615610100020316600290048015612d435780601f10612d1857610100808354040283529160200191612d43565b820191906000526020600020905b815481529060010190602001808311612d2657829003601f168201915b505050505090506060612d568285613793565b905080600560008781526020019081526020016000209080519060200190612d7f929190613d8f565b507f94d498cff24e232da4c3ed3ce9547d37faee065ef6fe670586828a6e3ccf8a53856040518082815260200191505060405180910390a15050505050565b6000612dcb6001836136ff565b9050919050565b612ddd6002826139f4565b8073ffffffffffffffffffffffffffffffffffffffff167f561138658ca49a8540dc70dcfe64c9026c1c5b9344642242dd6562970f9c127860405160405180910390a250565b816001600a811115612e3157fe5b60046000838152602001908152602001600020600b0160009054906101000a900460ff16600a811115612e6057fe5b141515612e6c57600080fd5b612e7533611839565b1515612e8057600080fd5b600260046000858152602001908152602001600020600b0160006101000a81548160ff0219169083600a811115612eb357fe5b02179055506060600560008581526020019081526020016000208054600181600116156101000203166002900480601f016020809104026020016040519081016040528092919081815260200182805460018160011615610100020316600290048015612f615780601f10612f3657610100808354040283529160200191612f61565b820191906000526020600020905b815481529060010190602001808311612f4457829003601f168201915b505050505090506060612f748285613793565b905080600560008781526020019081526020016000209080519060200190612f9d929190613d8f565b507fa96ae0fc3224ebd79eebfe54bd130cc9cb94416cddd1f2386115e00b72532468856040518082815260200191505060405180910390a15050505050565b612fe533612791565b1515612ff057600080fd5b612ff981613aa4565b50565b816008600a81111561300a57fe5b60046000838152602001908152602001600020600b0160009054906101000a900460ff16600a81111561303957fe5b14151561304557600080fd5b61304e33612791565b151561305957600080fd5b600960046000858152602001908152602001600020600b0160006101000a81548160ff0219169083600a81111561308c57fe5b02179055506060600560008581526020019081526020016000208054600181600116156101000203166002900480601f01602080910402602001604051908101604052809291908181526020018280546001816001161561010002031660029004801561313a5780601f1061310f5761010080835404028352916020019161313a565b820191906000526020600020905b81548152906001019060200180831161311d57829003601f168201915b50505050509050606061314d8285613793565b905080600560008781526020019081526020016000209080519060200190613176929190613d8f565b507f616dfa0fd1e8003e293d0d707897c48415f6acadc960e3a8239f70841bc98c5b856040518082815260200191505060405180910390a15050505050565b816003600a8111156131c357fe5b60046000838152602001908152602001600020600b0160009054906101000a900460ff16600a8111156131f257fe5b1415156131fe57600080fd5b61320733611839565b151561321257600080fd5b6004806000858152602001908152602001600020600b0160006101000a81548160ff0219169083600a81111561324457fe5b02179055506060600560008581526020019081526020016000208054600181600116156101000203166002900480601f0160208091040260200160405190810160405280929190818152602001828054600181600116156101000203166002900480156132f25780601f106132c7576101008083540402835291602001916132f2565b820191906000526020600020905b8154815290600101906020018083116132d557829003601f168201915b5050505050905060606133058285613793565b90508060056000878152602001908152602001600020908051906020019061332e929190613d8f565b507ff5fba10cdde0743e9e1a1208d61a8f3bea78c1dc743844aef4501affa3efd151856040518082815260200191505060405180910390a15050505050565b6000606061337a33612dbe565b151561338557600080fd5b60046000848152602001908152602001600020600b0160009054906101000a900460ff1660056000858152602001908152602001600020808054600181600116156101000203166002900480601f0160208091040260200160405190810160405280929190818152602001828054600181600116156101000203166002900480156134515780601f1061342657610100808354040283529160200191613451565b820191906000526020600020905b81548152906001019060200180831161343457829003601f168201915b5050505050905091509150915091565b61346a33613af5565b565b856004600a81111561347a57fe5b60046000838152602001908152602001600020600b0160009054906101000a900460ff16600a8111156134a957fe5b1415156134b557600080fd5b6134be33612bf1565b15156134c957600080fd5b600560046000898152602001908152602001600020600b0160006101000a81548160ff0219169083600a8111156134fc57fe5b02179055508560046000898152602001908152602001600020600e01908051906020019061352b929190613d8f565b5084600460008981526020019081526020016000206011019080519060200190613556929190613d8f565b5083600460008981526020019081526020016000206010019080519060200190613581929190613d8f565b508260046000898152602001908152602001600020600b0160016101000a81548173ffffffffffffffffffffffffffffffffffffffff021916908373ffffffffffffffffffffffffffffffffffffffff1602179055506060600560008981526020019081526020016000208054600181600116156101000203166002900480601f0160208091040260200160405190810160405280929190818152602001828054600181600116156101000203166002900480156136805780601f1061365557610100808354040283529160200191613680565b820191906000526020600020905b81548152906001019060200180831161366357829003601f168201915b5050505050905060606136938285613793565b905080600560008b815260200190815260200160002090805190602001906136bc929190613d8f565b507f1e93508ab5b39bf9f45afa406d4ce6117c21b48d5b79372f9e599ce66210cda2896040518082815260200191505060405180910390a1505050505050505050565b60008073ffffffffffffffffffffffffffffffffffffffff168273ffffffffffffffffffffffffffffffffffffffff161415151561373c57600080fd5b8260000160008373ffffffffffffffffffffffffffffffffffffffff1673ffffffffffffffffffffffffffffffffffffffff16815260200190815260200160002060009054906101000a900460ff16905092915050565b606082826040516020018083805190602001908083835b6020831015156137cf57805182526020820191506020810190506020830392506137aa565b6001836020036101000a03801982511681845116808217855250505050505090500182805190602001908083835b60208310151561382257805182526020820191506020810190506020830392506137fd565b6001836020036101000a03801982511681845116808217855250505050505090500192505050604051602081830303815290604052905092915050565b61386a600082613b46565b8073ffffffffffffffffffffffffffffffffffffffff167f9d17ec7e57a5118cf27abf33370bcc6f007c27a9706ab4cc473a76fe552447d260405160405180910390a250565b6138bb600382613b46565b8073ffffffffffffffffffffffffffffffffffffffff167f126174f6cf49c81cdb4a9214c6b8f037bef55b4ec31e4fc776cea2a1c8a88d5960405160405180910390a250565b61390c6001826139f4565b8073ffffffffffffffffffffffffffffffffffffffff167fa58cff07db0adda3ab7a40bd2f18ab57210bf38391a52ffd2e8eee6b8bdec71a60405160405180910390a250565b61395d6003826139f4565b8073ffffffffffffffffffffffffffffffffffffffff167fddbf200aa634dc3fb81cfd68583dd1040d1c751d335e1d86b631bde3e977fea860405160405180910390a250565b6139ae600182613b46565b8073ffffffffffffffffffffffffffffffffffffffff167f053a4badf166f01c4b02f6bcb71d2d67734470d0866282e291e73001aa25c76960405160405180910390a250565b600073ffffffffffffffffffffffffffffffffffffffff168173ffffffffffffffffffffffffffffffffffffffff1614151515613a3057600080fd5b613a3a82826136ff565b151515613a4657600080fd5b60018260000160008373ffffffffffffffffffffffffffffffffffffffff1673ffffffffffffffffffffffffffffffffffffffff16815260200190815260200160002060006101000a81548160ff0219169083151502179055505050565b613aaf6000826139f4565b8073ffffffffffffffffffffffffffffffffffffffff167f5a4264410853372bdd7255ebc9624cb523fc039cd6f9f1855165194738125f6360405160405180910390a250565b613b00600282613b46565b8073ffffffffffffffffffffffffffffffffffffffff167f2fed5abf6a80d6dfe30b4895481b2fc5d7dce5f8f7b931832f4a2947d5040c7f60405160405180910390a250565b600073ffffffffffffffffffffffffffffffffffffffff168173ffffffffffffffffffffffffffffffffffffffff1614151515613b8257600080fd5b613b8c82826136ff565b1515613b9757600080fd5b60008260000160008373ffffffffffffffffffffffffffffffffffffffff1673ffffffffffffffffffffffffffffffffffffffff16815260200190815260200160002060006101000a81548160ff0219169083151502179055505050565b6102a0604051908101604052806000815260200160008152602001600073ffffffffffffffffffffffffffffffffffffffff168152602001600073ffffffffffffffffffffffffffffffffffffffff168152602001606081526020016060815260200160608152602001606081526020016000815260200160608152602001600081526020016000600a811115613c8857fe5b8152602001600073ffffffffffffffffffffffffffffffffffffffff168152602001600073ffffffffffffffffffffffffffffffffffffffff168152602001600073ffffffffffffffffffffffffffffffffffffffff1681526020016060815260200160608152602001606081526020016060815260200160608152602001606081525090565b828054600181600116156101000203166002900490600052602060002090601f016020900481019282601f10613d5057805160ff1916838001178555613d7e565b82800160010185558215613d7e579182015b82811115613d7d578251825591602001919060010190613d62565b5b509050613d8b9190613e0f565b5090565b828054600181600116156101000203166002900490600052602060002090601f016020900481019282601f10613dd057805160ff1916838001178555613dfe565b82800160010185558215613dfe579182015b82811115613dfd578251825591602001919060010190613de2565b5b509050613e0b9190613e0f565b5090565b613e3191905b80821115613e2d576000816000905550600101613e15565b5090565b9056fea165627a7a72305820b4f8f84542cb843aa3f90f96110b526ece8257836cd6975b2943d5a1d344491e0029",
  "source": "// SPDX-License-Identifier: MIT\r\npragma solidity >=0.4.21 <0.7.0;\r\nimport \"./Roles.sol\";\r\nimport \"./DistributorRole.sol\";\r\nimport \"./ManufacturerRole.sol\";\r\nimport \"./PatientRole.sol\";\r\nimport \"./PharmacistRole.sol\";\r\n\r\n\r\n\r\ncontract SimpleStorage is PharmacistRole, PatientRole,ManufacturerRole , DistributorRole  {\r\n\r\n  //debugging functions\r\n\r\n  \r\n\r\n\r\n  //basic functions\r\n\r\n\r\n\r\n\r\n    function append(string memory a, string memory b) internal pure returns (string memory s) {\r\n\r\n    return string(abi.encodePacked(a, b));\r\n\r\n}\r\n\r\n\r\n\r\n\r\n\r\n  \r\n\r\n\r\n  \r\n  mapping (uint => Medicine) medicines;\r\n  mapping (uint => string ) medicinehistory ; \r\n\r\n  address owner;\r\n\r\n  // Define a variable called 'upc' for Universal Product Code (UPC)\r\n  uint  upc;\r\n\r\n  // Define a variable called 'sku' for Stock Keeping Unit (SKU)\r\n  uint  sku;\r\n\r\n  //manufacturer events\r\n  event Made(uint upc);\r\n  event Packed(uint upc);\r\n  event ForSale(uint upc);\r\n  event Soldtodistributor(uint upc);\r\n  event shippedbymanufacturer(uint upc);\r\n  //distributor events\r\n  event recievedDistributor(uint upc);\r\n  event soldtoPharma(uint upc);\r\n  event shippedtoPharma(uint upc);\r\n  //pharma events\r\n  event recievedpharma(uint upc);\r\n  event soldtopatient(uint upc);\r\n  event shippedtopatient(uint upc);\r\n  //Patientt event \r\n  event Purchased(uint upc);\r\n\r\n    // Define enum 'State' with the following values:\r\n  enum State \r\n  { \r\n    //manufacturer states\r\n    Made,       // 0\r\n    Packed,     // 1\r\n    ForSale,    // 2\r\n    Soldtodistributor, //3\r\n    shippedbymanufacturer,//4\r\n    //distributor states\r\n    RecievedDistributor, //5\r\n    SoldtoPharma, //6\r\n    ShippedtoPharma,  //7\r\n    //Pharmacist\r\n    RecievedPharma, //8\r\n    SoldtoPatient , //9\r\n    ShippedtoPatient //10\r\n\r\n\r\n\r\n  }\r\n\r\n   struct Medicine {\r\n    uint    sku;  // Stock Keeping Unit (SKU)\r\n    uint    upc; // Universal Product Code (UPC), generated by the Manufacturer, goes on the package, can be verified by the Patient\r\n    address ownerID;  // Metamask-Ethereum address of the current owner as the medicine moves through 8 stages\r\n    address originManufacturerID; // Metamask-Ethereum address of the Manufacturer\r\n    string  originFactoryName; // Manufacturer Name\r\n    string  originFactoryInformation;  // Manufacturer Information\r\n    string  originFactoryLatitude; // Factory Latitude\r\n    string  originFactoryLongitude;  // Factory Longitude\r\n    uint    medicineID;  // Product ID potentially a combination of upc + sku\r\n    string  medicineNotes; // Product Notes\r\n    uint    medicinePrice; // Product Price\r\n    State   medicineState;  // Product State as represented in the enum above \r\n    address distributorID;  // Metamask-Ethereum address of the Distributor\r\n    address pharmacistID; // Metamask-Ethereum address of the Pharmacist\r\n    address patientID; // Metamask-Ethereum address of the Patient\r\n    string DistName;\r\n    string PharamaName;\r\n    string  DistLatitude; // Factory Latitude\r\n    string  DistLongitude;  // Factory Longitude\r\n    string  PharmaLatitude; // Factory Latitude\r\n    string  PharmaLongitude;  // Factory Longitude\r\n  }\r\n\r\n  //modifiers for previous checking state\r\n  // Define a modifier that checks if an medicine.state of a upc is Made\r\n  modifier made(uint _upc) {\r\n    require(medicines[_upc].medicineState == State.Made);\r\n    _;\r\n  }\r\n  modifier packed(uint _upc) {\r\n    require(medicines[_upc].medicineState == State.Packed);\r\n    _;\r\n  }\r\n  modifier fsale(uint _upc) {\r\n    require(medicines[_upc].medicineState == State.ForSale);\r\n    _;\r\n  }\r\n  modifier soldtod(uint _upc) {\r\n    require(medicines[_upc].medicineState == State.Soldtodistributor);\r\n    _;\r\n  }\r\n  modifier shippedbym(uint _upc) {\r\n    require(medicines[_upc].medicineState == State.shippedbymanufacturer);\r\n    _;\r\n  }\r\n  modifier recivedD(uint _upc) {\r\n    require(medicines[_upc].medicineState == State.RecievedDistributor);\r\n    _;\r\n  }\r\n  modifier soldtoph(uint _upc) {\r\n    require(medicines[_upc].medicineState == State.SoldtoPharma);\r\n    _;\r\n  }\r\n  modifier shippedtoph(uint _upc) {\r\n    require(medicines[_upc].medicineState == State.ShippedtoPharma);\r\n    _;\r\n  }\r\n  modifier recivedPh(uint _upc) {\r\n    require(medicines[_upc].medicineState == State.RecievedPharma);\r\n    _;\r\n  }\r\n  modifier soldtop(uint _upc) {\r\n    require(medicines[_upc].medicineState == State.SoldtoPatient);\r\n    _;\r\n  }\r\n  modifier shippedtop(uint _upc) {\r\n    require(medicines[_upc].medicineState == State.ShippedtoPatient);\r\n    _;\r\n  }\r\n\r\n\r\n\r\n\r\n  function makeMedicine(uint _upc, address _originManufacturerID, string memory _originFactoryName, string memory _originFactoryInformation, string  memory _originFactoryLatitude, string  memory _originFactoryLongitude, string  memory _medicineNotes, string memory _history) public  onlyManufacturer {\r\n    // Add the new medicine as part of medicines\r\n    Medicine memory temp_medicine = Medicine({\r\n      sku:sku + 1,\r\n      upc:_upc,\r\n      ownerID:_originManufacturerID,\r\n      originManufacturerID:_originManufacturerID,\r\n      originFactoryName:_originFactoryName,\r\n      originFactoryInformation:_originFactoryInformation,\r\n      originFactoryLatitude:_originFactoryLatitude,\r\n      originFactoryLongitude:_originFactoryLongitude,\r\n      medicineID:sku+_upc,\r\n      medicineNotes:_medicineNotes,\r\n      medicineState:State.Made,\r\n      medicinePrice:0,\r\n      distributorID:address(0),\r\n      pharmacistID:address(0),\r\n      patientID:address(0),\r\n      DistName: \" \",\r\n      PharamaName :\" \",\r\n      DistLongitude : \" \",\r\n      DistLatitude : \" \",\r\n      PharmaLatitude : \" \",\r\n      PharmaLongitude  : \" \"\r\n\r\n      });\r\n\r\n\r\n    //string storage initial_history=\"This med is made by date will be passed by frontend\" ;\r\n    medicines[_upc] = temp_medicine;\r\n    medicinehistory[_upc]  =_history;\r\n   // Increment sku\r\n    sku = sku + 1;\r\n    // Emit the appropriate event\r\n\r\n     \r\n  }\r\n  // function makeMedicine(uint _upc,uint _price ,string memory _name) public {\r\n  //     Medicine memory temp_medicine = Medicine({\r\n  //         upc : _upc,\r\n  //         price : _price,\r\n  //         name : _name\r\n  //     });\r\n  //     medicines[_upc] = temp_medicine;\r\n\r\n  // }\r\n\r\n  //manufacturer sub events\r\n\r\n  function packMedicine(uint _upc,string memory _history) public made(_upc) onlyManufacturer {\r\n  // // Call modifier to check if upc has passed previous supply chain stage\r\n  // Made(_upc);\r\n  // Call modifier to verify caller of this function\r\n  \r\n    // Update the appropriate fields\r\n    medicines[_upc].medicineState = State.Packed;\r\n    // string memory prevhis = medicinehistory[_upc];\r\n    //string  memory t1= concatenate(prevhis,_history);\r\n     string memory prevhis = medicinehistory[_upc];\r\n     string memory temp =  append(prevhis,_history);\r\n     medicinehistory[_upc]= temp;\r\n\r\n\r\n\r\n   // string memory history = medicinehistory[_upc];\r\n    //history = history + \" packed by manufacturer on date____\";\r\n    //medicinehistory[_upc] = history;\r\n    // Emit the appropriate event\r\n    emit Packed(_upc);\r\n  }\r\n\r\n   function forSale_bymanuf(uint _upc,string memory _history) public  packed(_upc) onlyManufacturer{\r\n  // // Call modifier to check if upc has passed previous supply chain stage\r\n  // Made(_upc);\r\n  // Call modifier to verify caller of this function\r\n  \r\n    // Update the appropriate fields\r\n    medicines[_upc].medicineState = State.ForSale;\r\n   // string memory history = medicinehistory[_upc];\r\n    //history = history + \" packed by manufacturer on date____\";\r\n    //medicinehistory[_upc] = history;\r\n    \r\n    string memory prevhis = medicinehistory[_upc];\r\n     string memory temp =  append(prevhis,_history);\r\n     medicinehistory[_upc]= temp;\r\n    // Emit the appropriate event\r\n\r\n    emit ForSale(_upc);\r\n  }\r\n\r\n   function soldToDistributor(uint _upc,string memory _history) public fsale(_upc) onlyManufacturer{\r\n  // // Call modifier to check if upc has passed previous supply chain stage\r\n  // Made(_upc);\r\n  // Call modifier to verify caller of this function\r\n  \r\n    // Update the appropriate fields\r\n    medicines[_upc].medicineState = State.Soldtodistributor;\r\n   // string memory history = medicinehistory[_upc];\r\n    //history = history + \" packed by manufacturer on date____\";\r\n    //medicinehistory[_upc] = history;\r\n    string memory prevhis = medicinehistory[_upc];\r\n     string memory temp =  append(prevhis,_history);\r\n     medicinehistory[_upc]= temp;\r\n    // Emit the appropriate event\r\n    emit Soldtodistributor(_upc);\r\n  }\r\n\r\n\r\n\r\n\r\n function shippedByManufacturer(uint _upc,string memory _history) public soldtod(_upc) onlyManufacturer{\r\n  // // Call modifier to check if upc has passed previous supply chain stage\r\n  // Made(_upc);\r\n  // Call modifier to verify caller of this function\r\n  \r\n    // Update the appropriate fields\r\n    medicines[_upc].medicineState = State.shippedbymanufacturer;\r\n   // string memory history = medicinehistory[_upc];\r\n    //history = history + \" packed by manufacturer on date____\";\r\n    //medicinehistory[_upc] = history;\r\n    // Emit the appropriate event\r\n    string memory prevhis = medicinehistory[_upc];\r\n     string memory temp =  append(prevhis,_history);\r\n     medicinehistory[_upc]= temp;\r\n    emit shippedbymanufacturer(_upc);\r\n  }\r\n\r\n  //distributor controlled functions\r\n\r\n  function RecievedDistributor(uint _upc,string memory _name,string memory _long,string memory _lat,address _address,string memory _history) public shippedbym(_upc) onlyDistributor{\r\n  // // Call modifier to check if upc has passed previous supply chain stage\r\n  // Made(_upc);\r\n  // Call modifier to verify caller of this function\r\n  \r\n    // Update the appropriate fields\r\n      medicines[_upc].medicineState = State.RecievedDistributor;\r\n      medicines[_upc].DistName = _name;\r\n      medicines[_upc].DistLongitude = _long;\r\n      medicines[_upc].DistLatitude = _lat;\r\n      medicines[_upc].distributorID = _address;\r\n   // string memory history = medicinehistory[_upc];\r\n    //history = history + \" packed by manufacturer on date____\";\r\n    //medicinehistory[_upc] = history;\r\n    string memory prevhis = medicinehistory[_upc];\r\n     string memory temp =  append(prevhis,_history);\r\n     medicinehistory[_upc]= temp;\r\n    // Emit the appropriate event\r\n    emit recievedDistributor(_upc);\r\n  }\r\n  function SoldtoPharma(uint _upc , string memory _history) public recivedD(_upc) onlyDistributor{\r\n  // // Call modifier to check if upc has passed previous supply chain stage\r\n  // Made(_upc);\r\n  // Call modifier to verify caller of this function\r\n  \r\n    // Update the appropriate fields\r\n    medicines[_upc].medicineState = State.SoldtoPharma;\r\n   // string memory history = medicinehistory[_upc];\r\n    //history = history + \" packed by manufacturer on date____\";\r\n    //medicinehistory[_upc] = history;\r\n    string memory prevhis = medicinehistory[_upc];\r\n     string memory temp =  append(prevhis,_history);\r\n     medicinehistory[_upc]= temp;\r\n    // Emit the appropriate event\r\n    emit soldtoPharma(_upc);\r\n  }\r\n  function ShippedtoPharma(uint _upc, string memory _history) public soldtoph(_upc) onlyDistributor{\r\n  // // Call modifier to check if upc has passed previous supply chain stage\r\n  // Made(_upc);\r\n  // Call modifier to verify caller of this function\r\n  \r\n    // Update the appropriate fields\r\n    medicines[_upc].medicineState = State.ShippedtoPharma;\r\n   // string memory history = medicinehistory[_upc];\r\n    //history = history + \" packed by manufacturer on date____\";\r\n    //medicinehistory[_upc] = history;\r\n    string memory prevhis = medicinehistory[_upc];\r\n     string memory temp =  append(prevhis,_history);\r\n     medicinehistory[_upc]= temp;\r\n    // Emit the appropriate event\r\n    emit shippedtoPharma(_upc);\r\n  }\r\n\r\n\r\n  //Pharmacist functions \r\n\r\n  function Recieved_Pharma(uint _upc,string memory _name,string memory _long,string memory _lat,address _address,string memory _history) public shippedtoph(_upc) onlyPharmacist{\r\n  // // Call modifier to check if upc has passed previous supply chain stage\r\n  // Made(_upc);\r\n  // Call modifier to verify caller of this function\r\n  \r\n    // Update the appropriate fields\r\n    medicines[_upc].medicineState = State.RecievedPharma;\r\n    medicines[_upc].PharamaName = _name;\r\n      medicines[_upc].PharmaLongitude= _long;\r\n      medicines[_upc].PharmaLatitude = _lat;\r\n      medicines[_upc].pharmacistID = _address;\r\n   // string memory history = medicinehistory[_upc];\r\n    //history = history + \" packed by manufacturer on date____\";\r\n    //medicinehistory[_upc] = history;\r\n     string memory prevhis = medicinehistory[_upc];\r\n     string memory temp =  append(prevhis,_history);\r\n     medicinehistory[_upc]= temp;\r\n    \r\n    // Emit the appropriate event\r\n    emit recievedpharma(_upc);\r\n  }\r\n  function Sold_to_Patient(uint _upc,string memory _history) public recivedPh(_upc) onlyPharmacist{\r\n  // // Call modifier to check if upc has passed previous supply chain stage\r\n  // Made(_upc);\r\n  // Call modifier to verify caller of this function\r\n  \r\n    // Update the appropriate fields\r\n    medicines[_upc].medicineState = State.SoldtoPatient;\r\n   // string memory history = medicinehistory[_upc];\r\n    //history = history + \" packed by manufacturer on date____\";\r\n    //medicinehistory[_upc] = history;\r\n     string memory prevhis = medicinehistory[_upc];\r\n     string memory temp =  append(prevhis,_history);\r\n     medicinehistory[_upc]= temp;\r\n    // Emit the appropriate event\r\n    emit soldtopatient(_upc);\r\n  }\r\n  function Shipped_to_Patient(uint _upc,string memory _history) public soldtop(_upc) onlyPharmacist{\r\n  // // Call modifier to check if upc has passed previous supply chain stage\r\n  // Made(_upc);\r\n  // Call modifier to verify caller of this function\r\n  \r\n    // Update the appropriate fields\r\n    medicines[_upc].medicineState = State.ShippedtoPatient;\r\n   // string memory history = medicinehistory[_upc];\r\n    //history = history + \" packed by manufacturer on date____\";\r\n    //medicinehistory[_upc] = history;\r\n     string memory prevhis = medicinehistory[_upc];\r\n     string memory temp =  append(prevhis,_history);\r\n     medicinehistory[_upc]= temp;\r\n    // Emit the appropriate event\r\n    emit shippedtopatient(_upc);\r\n  }\r\n\r\n\r\n\r\n  function fetchstate(uint _upc) public view onlyPatient returns (State _medicineState,string memory _history) {\r\n    return (\r\n      medicines[_upc].medicineState,\r\n      medicinehistory[_upc]\r\n      );\r\n  }\r\n\r\n  function fetchMedicine(uint _upc) public view onlyPatient returns (uint upc_ , address ownerid , string memory manufacturername, string memory Latitude , string memory Longitude,string memory factoryinfo , string memory notes) {\r\n    return(\r\n          _upc,\r\n          medicines[_upc].ownerID,\r\n          medicines[_upc].originFactoryName,\r\n          medicines[_upc].originFactoryLatitude,\r\n          medicines[_upc].originFactoryLongitude,\r\n          medicines[_upc].originFactoryInformation,\r\n          medicines[_upc].medicineNotes\r\n    );\r\n  }\r\n\r\n}\r\n",
  "sourcePath": "C:/Users/remove/Capstone_final/contracts/SimpleStorage.sol",
  "compiler": {
    "name": "solc",
    "version": "0.5.0+commit.1d4f565a.Emscripten.clang"
  },
  "schemaVersion": "3.0.1",
  "updatedAt": "2021-12-11T13:15:49.353Z",
  "devdoc": {
    "methods": {}
  },
  "userdoc": {
    "methods": {}
  }
}