{
  "contractName": "SimpleStorage",
  "abi": [
    {
      "constant": true,
      "inputs": [
        {
          "name": "account",
          "type": "address"
        }
      ],
      "name": "isManufacturer",
      "outputs": [
        {
          "name": "",
          "type": "bool"
        }
      ],
      "payable": false,
      "stateMutability": "view",
      "type": "function",
      "signature": "0x17d4a491"
    },
    {
      "constant": false,
      "inputs": [],
      "name": "renouncePharmacist",
      "outputs": [],
      "payable": false,
      "stateMutability": "nonpayable",
      "type": "function",
      "signature": "0x5ae63247"
    },
    {
      "constant": false,
      "inputs": [
        {
          "name": "account",
          "type": "address"
        }
      ],
      "name": "addManufacturer",
      "outputs": [],
      "payable": false,
      "stateMutability": "nonpayable",
      "type": "function",
      "signature": "0x5f8a5afa"
    },
    {
      "constant": false,
      "inputs": [],
      "name": "renounceDistributor",
      "outputs": [],
      "payable": false,
      "stateMutability": "nonpayable",
      "type": "function",
      "signature": "0x644241db"
    },
    {
      "constant": false,
      "inputs": [
        {
          "name": "account",
          "type": "address"
        }
      ],
      "name": "addPatient",
      "outputs": [],
      "payable": false,
      "stateMutability": "nonpayable",
      "type": "function",
      "signature": "0x6d263ceb"
    },
    {
      "constant": false,
      "inputs": [
        {
          "name": "account",
          "type": "address"
        }
      ],
      "name": "addDistributor",
      "outputs": [],
      "payable": false,
      "stateMutability": "nonpayable",
      "type": "function",
      "signature": "0x7250e224"
    },
    {
      "constant": false,
      "inputs": [],
      "name": "renouncePatient",
      "outputs": [],
      "payable": false,
      "stateMutability": "nonpayable",
      "type": "function",
      "signature": "0x81a07c36"
    },
    {
      "constant": true,
      "inputs": [
        {
          "name": "account",
          "type": "address"
        }
      ],
      "name": "isPharmacist",
      "outputs": [
        {
          "name": "",
          "type": "bool"
        }
      ],
      "payable": false,
      "stateMutability": "view",
      "type": "function",
      "signature": "0x82946ee2"
    },
    {
      "constant": true,
      "inputs": [
        {
          "name": "account",
          "type": "address"
        }
      ],
      "name": "isDistributor",
      "outputs": [
        {
          "name": "",
          "type": "bool"
        }
      ],
      "payable": false,
      "stateMutability": "view",
      "type": "function",
      "signature": "0x8f0c86fa"
    },
    {
      "constant": true,
      "inputs": [
        {
          "name": "account",
          "type": "address"
        }
      ],
      "name": "isPatient",
      "outputs": [
        {
          "name": "",
          "type": "bool"
        }
      ],
      "payable": false,
      "stateMutability": "view",
      "type": "function",
      "signature": "0x8f9c79ed"
    },
    {
      "constant": false,
      "inputs": [
        {
          "name": "account",
          "type": "address"
        }
      ],
      "name": "_addManufacturer",
      "outputs": [],
      "payable": false,
      "stateMutability": "nonpayable",
      "type": "function",
      "signature": "0x95f91fe4"
    },
    {
      "constant": false,
      "inputs": [
        {
          "name": "account",
          "type": "address"
        }
      ],
      "name": "addPharmacist",
      "outputs": [],
      "payable": false,
      "stateMutability": "nonpayable",
      "type": "function",
      "signature": "0xc09e2693"
    },
    {
      "constant": false,
      "inputs": [],
      "name": "renounceManufacturer",
      "outputs": [],
      "payable": false,
      "stateMutability": "nonpayable",
      "type": "function",
      "signature": "0xde07f34e"
    },
    {
      "anonymous": false,
      "inputs": [
        {
          "indexed": false,
          "name": "upc",
          "type": "uint256"
        }
      ],
      "name": "Made",
      "type": "event",
      "signature": "0xeb8109592a383473c76afa62041a6dbabac0ca80d859bbdffb13c5a70c454b90"
    },
    {
      "anonymous": false,
      "inputs": [
        {
          "indexed": false,
          "name": "upc",
          "type": "uint256"
        }
      ],
      "name": "Packed",
      "type": "event",
      "signature": "0x9b3b66e2380b690bae22c73ef1428fb0c91e72fe14a4b6defa13035214187aff"
    },
    {
      "anonymous": false,
      "inputs": [
        {
          "indexed": false,
          "name": "upc",
          "type": "uint256"
        }
      ],
      "name": "ForSale",
      "type": "event",
      "signature": "0xa96ae0fc3224ebd79eebfe54bd130cc9cb94416cddd1f2386115e00b72532468"
    },
    {
      "anonymous": false,
      "inputs": [
        {
          "indexed": false,
          "name": "upc",
          "type": "uint256"
        }
      ],
      "name": "Soldtodistributor",
      "type": "event",
      "signature": "0xbf196506b2f00aa0ddfe8eb41c3c9ccfddcc58a5142960f08f9131afa7908496"
    },
    {
      "anonymous": false,
      "inputs": [
        {
          "indexed": false,
          "name": "upc",
          "type": "uint256"
        }
      ],
      "name": "shippedbymanufacturer",
      "type": "event",
      "signature": "0xf5fba10cdde0743e9e1a1208d61a8f3bea78c1dc743844aef4501affa3efd151"
    },
    {
      "anonymous": false,
      "inputs": [
        {
          "indexed": false,
          "name": "upc",
          "type": "uint256"
        }
      ],
      "name": "recievedDistributor",
      "type": "event",
      "signature": "0x1e93508ab5b39bf9f45afa406d4ce6117c21b48d5b79372f9e599ce66210cda2"
    },
    {
      "anonymous": false,
      "inputs": [
        {
          "indexed": false,
          "name": "upc",
          "type": "uint256"
        }
      ],
      "name": "soldtoPharma",
      "type": "event",
      "signature": "0xd27cf9eb13fb50222e8ff27788988edb150171b58e49b33f165418d0eb0253eb"
    },
    {
      "anonymous": false,
      "inputs": [
        {
          "indexed": false,
          "name": "upc",
          "type": "uint256"
        }
      ],
      "name": "shippedtoPharma",
      "type": "event",
      "signature": "0x94d498cff24e232da4c3ed3ce9547d37faee065ef6fe670586828a6e3ccf8a53"
    },
    {
      "anonymous": false,
      "inputs": [
        {
          "indexed": false,
          "name": "upc",
          "type": "uint256"
        }
      ],
      "name": "recievedpharma",
      "type": "event",
      "signature": "0x73d6827c08a640a6959426f0ee26c7bb964902de8446b4ca6bca213740bf262f"
    },
    {
      "anonymous": false,
      "inputs": [
        {
          "indexed": false,
          "name": "upc",
          "type": "uint256"
        }
      ],
      "name": "soldtopatient",
      "type": "event",
      "signature": "0x616dfa0fd1e8003e293d0d707897c48415f6acadc960e3a8239f70841bc98c5b"
    },
    {
      "anonymous": false,
      "inputs": [
        {
          "indexed": false,
          "name": "upc",
          "type": "uint256"
        }
      ],
      "name": "shippedtopatient",
      "type": "event",
      "signature": "0xb4cdacdf11ca5dc03f3ddd7b53e92ed9d205e79bf7c06a3f4b514b084a17bb5d"
    },
    {
      "anonymous": false,
      "inputs": [
        {
          "indexed": false,
          "name": "upc",
          "type": "uint256"
        }
      ],
      "name": "Purchased",
      "type": "event",
      "signature": "0x653d56639fee6b566a5c804764e9689de38645f0b733df89a36a1b7b42173dd8"
    },
    {
      "anonymous": false,
      "inputs": [
        {
          "indexed": true,
          "name": "account",
          "type": "address"
        }
      ],
      "name": "DistributorAdded",
      "type": "event",
      "signature": "0xddbf200aa634dc3fb81cfd68583dd1040d1c751d335e1d86b631bde3e977fea8"
    },
    {
      "anonymous": false,
      "inputs": [
        {
          "indexed": true,
          "name": "account",
          "type": "address"
        }
      ],
      "name": "DistributorRemoved",
      "type": "event",
      "signature": "0x126174f6cf49c81cdb4a9214c6b8f037bef55b4ec31e4fc776cea2a1c8a88d59"
    },
    {
      "anonymous": false,
      "inputs": [
        {
          "indexed": true,
          "name": "account",
          "type": "address"
        }
      ],
      "name": "ManufacturerAdded",
      "type": "event",
      "signature": "0x561138658ca49a8540dc70dcfe64c9026c1c5b9344642242dd6562970f9c1278"
    },
    {
      "anonymous": false,
      "inputs": [
        {
          "indexed": true,
          "name": "account",
          "type": "address"
        }
      ],
      "name": "ManufacturerRemoved",
      "type": "event",
      "signature": "0x2fed5abf6a80d6dfe30b4895481b2fc5d7dce5f8f7b931832f4a2947d5040c7f"
    },
    {
      "anonymous": false,
      "inputs": [
        {
          "indexed": true,
          "name": "account",
          "type": "address"
        }
      ],
      "name": "PatientAdded",
      "type": "event",
      "signature": "0xa58cff07db0adda3ab7a40bd2f18ab57210bf38391a52ffd2e8eee6b8bdec71a"
    },
    {
      "anonymous": false,
      "inputs": [
        {
          "indexed": true,
          "name": "account",
          "type": "address"
        }
      ],
      "name": "PatientRemoved",
      "type": "event",
      "signature": "0x053a4badf166f01c4b02f6bcb71d2d67734470d0866282e291e73001aa25c769"
    },
    {
      "anonymous": false,
      "inputs": [
        {
          "indexed": true,
          "name": "account",
          "type": "address"
        }
      ],
      "name": "PharmacistAdded",
      "type": "event",
      "signature": "0x5a4264410853372bdd7255ebc9624cb523fc039cd6f9f1855165194738125f63"
    },
    {
      "anonymous": false,
      "inputs": [
        {
          "indexed": true,
          "name": "account",
          "type": "address"
        }
      ],
      "name": "PharmacistRemoved",
      "type": "event",
      "signature": "0x9d17ec7e57a5118cf27abf33370bcc6f007c27a9706ab4cc473a76fe552447d2"
    },
    {
      "constant": false,
      "inputs": [
        {
          "name": "_add",
          "type": "address"
        }
      ],
      "name": "checker",
      "outputs": [],
      "payable": false,
      "stateMutability": "nonpayable",
      "type": "function",
      "signature": "0x016c683c"
    },
    {
      "constant": false,
      "inputs": [
        {
          "name": "_upc",
          "type": "uint256"
        },
        {
          "name": "_originManufacturerID",
          "type": "address"
        },
        {
          "name": "_originFactoryName",
          "type": "string"
        },
        {
          "name": "_originFactoryInformation",
          "type": "string"
        },
        {
          "name": "_originFactoryLatitude",
          "type": "string"
        },
        {
          "name": "_originFactoryLongitude",
          "type": "string"
        },
        {
          "name": "_medicineNotes",
          "type": "string"
        },
        {
          "name": "_history",
          "type": "string"
        }
      ],
      "name": "makeMedicine",
      "outputs": [],
      "payable": false,
      "stateMutability": "nonpayable",
      "type": "function",
      "signature": "0x318c5036"
    },
    {
      "constant": false,
      "inputs": [
        {
          "name": "_upc",
          "type": "uint256"
        },
        {
          "name": "_history",
          "type": "string"
        }
      ],
      "name": "packMedicine",
      "outputs": [],
      "payable": false,
      "stateMutability": "nonpayable",
      "type": "function",
      "signature": "0x70b184da"
    },
    {
      "constant": false,
      "inputs": [
        {
          "name": "_upc",
          "type": "uint256"
        },
        {
          "name": "_history",
          "type": "string"
        }
      ],
      "name": "forSale_bymanuf",
      "outputs": [],
      "payable": false,
      "stateMutability": "nonpayable",
      "type": "function",
      "signature": "0x9e1a2f30"
    },
    {
      "constant": false,
      "inputs": [
        {
          "name": "_upc",
          "type": "uint256"
        },
        {
          "name": "_history",
          "type": "string"
        }
      ],
      "name": "soldToDistributor",
      "outputs": [],
      "payable": false,
      "stateMutability": "nonpayable",
      "type": "function",
      "signature": "0x4ab7e29d"
    },
    {
      "constant": false,
      "inputs": [
        {
          "name": "_upc",
          "type": "uint256"
        },
        {
          "name": "_history",
          "type": "string"
        }
      ],
      "name": "shippedByManufacturer",
      "outputs": [],
      "payable": false,
      "stateMutability": "nonpayable",
      "type": "function",
      "signature": "0xd759283a"
    },
    {
      "constant": false,
      "inputs": [
        {
          "name": "_upc",
          "type": "uint256"
        },
        {
          "name": "_name",
          "type": "string"
        },
        {
          "name": "_long",
          "type": "string"
        },
        {
          "name": "_lat",
          "type": "string"
        },
        {
          "name": "_address",
          "type": "address"
        },
        {
          "name": "_history",
          "type": "string"
        }
      ],
      "name": "RecievedDistributor",
      "outputs": [],
      "payable": false,
      "stateMutability": "nonpayable",
      "type": "function",
      "signature": "0xe4f4aa2a"
    },
    {
      "constant": false,
      "inputs": [
        {
          "name": "_upc",
          "type": "uint256"
        },
        {
          "name": "_history",
          "type": "string"
        }
      ],
      "name": "SoldtoPharma",
      "outputs": [],
      "payable": false,
      "stateMutability": "nonpayable",
      "type": "function",
      "signature": "0x8c2891ce"
    },
    {
      "constant": false,
      "inputs": [
        {
          "name": "_upc",
          "type": "uint256"
        },
        {
          "name": "_history",
          "type": "string"
        }
      ],
      "name": "ShippedtoPharma",
      "outputs": [],
      "payable": false,
      "stateMutability": "nonpayable",
      "type": "function",
      "signature": "0x8f5d97f1"
    },
    {
      "constant": false,
      "inputs": [
        {
          "name": "_upc",
          "type": "uint256"
        },
        {
          "name": "_name",
          "type": "string"
        },
        {
          "name": "_long",
          "type": "string"
        },
        {
          "name": "_lat",
          "type": "string"
        },
        {
          "name": "_address",
          "type": "address"
        },
        {
          "name": "_history",
          "type": "string"
        }
      ],
      "name": "Recieved_Pharma",
      "outputs": [],
      "payable": false,
      "stateMutability": "nonpayable",
      "type": "function",
      "signature": "0x898513e4"
    },
    {
      "constant": false,
      "inputs": [
        {
          "name": "_upc",
          "type": "uint256"
        },
        {
          "name": "_history",
          "type": "string"
        }
      ],
      "name": "Sold_to_Patient",
      "outputs": [],
      "payable": false,
      "stateMutability": "nonpayable",
      "type": "function",
      "signature": "0xd1c6a24d"
    },
    {
      "constant": false,
      "inputs": [
        {
          "name": "_upc",
          "type": "uint256"
        },
        {
          "name": "_history",
          "type": "string"
        }
      ],
      "name": "Shipped_to_Patient",
      "outputs": [],
      "payable": false,
      "stateMutability": "nonpayable",
      "type": "function",
      "signature": "0x3e2d5e2b"
    },
    {
      "constant": true,
      "inputs": [
        {
          "name": "_upc",
          "type": "uint256"
        }
      ],
      "name": "fetchstate",
      "outputs": [
        {
          "name": "_medicineState",
          "type": "uint8"
        },
        {
          "name": "_history",
          "type": "string"
        }
      ],
      "payable": false,
      "stateMutability": "view",
      "type": "function",
      "signature": "0xdbdf8b75"
    },
    {
      "constant": true,
      "inputs": [
        {
          "name": "_upc",
          "type": "uint256"
        }
      ],
      "name": "fetchMedicine",
      "outputs": [
        {
          "name": "upc_",
          "type": "uint256"
        },
        {
          "name": "ownerid",
          "type": "address"
        },
        {
          "name": "manufacturername",
          "type": "string"
        },
        {
          "name": "Latitude",
          "type": "string"
        },
        {
          "name": "Longitude",
          "type": "string"
        },
        {
          "name": "factoryinfo",
          "type": "string"
        },
        {
          "name": "notes",
          "type": "string"
        }
      ],
      "payable": false,
      "stateMutability": "view",
      "type": "function",
      "signature": "0x4fa75b7c"
    }
  ],
  "bytecode": "0x60806040526200001e3362000072640100000000026401000000009004565b6200003833620000d9640100000000026401000000009004565b620000523362000140640100000000026401000000009004565b6200006c33620001a7640100000000026401000000009004565b62000366565b620000936000826200020e6401000000000262003688176401000000009004565b8073ffffffffffffffffffffffffffffffffffffffff167f5a4264410853372bdd7255ebc9624cb523fc039cd6f9f1855165194738125f6360405160405180910390a250565b620000fa6001826200020e6401000000000262003688176401000000009004565b8073ffffffffffffffffffffffffffffffffffffffff167fa58cff07db0adda3ab7a40bd2f18ab57210bf38391a52ffd2e8eee6b8bdec71a60405160405180910390a250565b620001616002826200020e6401000000000262003688176401000000009004565b8073ffffffffffffffffffffffffffffffffffffffff167f561138658ca49a8540dc70dcfe64c9026c1c5b9344642242dd6562970f9c127860405160405180910390a250565b620001c86003826200020e6401000000000262003688176401000000009004565b8073ffffffffffffffffffffffffffffffffffffffff167fddbf200aa634dc3fb81cfd68583dd1040d1c751d335e1d86b631bde3e977fea860405160405180910390a250565b600073ffffffffffffffffffffffffffffffffffffffff168173ffffffffffffffffffffffffffffffffffffffff16141515156200024b57600080fd5b620002668282620002d1640100000000026401000000009004565b1515156200027357600080fd5b60018260000160008373ffffffffffffffffffffffffffffffffffffffff1673ffffffffffffffffffffffffffffffffffffffff16815260200190815260200160002060006101000a81548160ff0219169083151502179055505050565b60008073ffffffffffffffffffffffffffffffffffffffff168273ffffffffffffffffffffffffffffffffffffffff16141515156200030f57600080fd5b8260000160008373ffffffffffffffffffffffffffffffffffffffff1673ffffffffffffffffffffffffffffffffffffffff16815260200190815260200160002060009054906101000a900460ff16905092915050565b613af480620003766000396000f3fe60806040526004361061015f576000357c0100000000000000000000000000000000000000000000000000000000900463ffffffff168063016c683c1461016457806317d4a491146101b5578063318c50361461021e5780633e2d5e2b146106045780634ab7e29d146106d65780634fa75b7c146107a85780635ae6324714610a465780635f8a5afa14610a5d578063644241db14610aae5780636d263ceb14610ac557806370b184da14610b165780637250e22414610be857806381a07c3614610c3957806382946ee214610c50578063898513e414610cb95780638c2891ce14610f705780638f0c86fa146110425780638f5d97f1146110ab5780638f9c79ed1461117d57806395f91fe4146111e65780639e1a2f3014611237578063c09e269314611309578063d1c6a24d1461135a578063d759283a1461142c578063dbdf8b75146114fe578063de07f34e146115c7578063e4f4aa2a146115de575b600080fd5b34801561017057600080fd5b506101b36004803603602081101561018757600080fd5b81019080803573ffffffffffffffffffffffffffffffffffffffff169060200190929190505050611895565b005b3480156101c157600080fd5b50610204600480360360208110156101d857600080fd5b81019080803573ffffffffffffffffffffffffffffffffffffffff1690602001909291905050506118a1565b604051808215151515815260200191505060405180910390f35b34801561022a57600080fd5b50610602600480360361010081101561024257600080fd5b8101908080359060200190929190803573ffffffffffffffffffffffffffffffffffffffff1690602001909291908035906020019064010000000081111561028957600080fd5b82018360208201111561029b57600080fd5b803590602001918460018302840111640100000000831117156102bd57600080fd5b91908080601f016020809104026020016040519081016040528093929190818152602001838380828437600081840152601f19601f8201169050808301925050505050505091929192908035906020019064010000000081111561032057600080fd5b82018360208201111561033257600080fd5b8035906020019184600183028401116401000000008311171561035457600080fd5b91908080601f016020809104026020016040519081016040528093929190818152602001838380828437600081840152601f19601f820116905080830192505050505050509192919290803590602001906401000000008111156103b757600080fd5b8201836020820111156103c957600080fd5b803590602001918460018302840111640100000000831117156103eb57600080fd5b91908080601f016020809104026020016040519081016040528093929190818152602001838380828437600081840152601f19601f8201169050808301925050505050505091929192908035906020019064010000000081111561044e57600080fd5b82018360208201111561046057600080fd5b8035906020019184600183028401116401000000008311171561048257600080fd5b91908080601f016020809104026020016040519081016040528093929190818152602001838380828437600081840152601f19601f820116905080830192505050505050509192919290803590602001906401000000008111156104e557600080fd5b8201836020820111156104f757600080fd5b8035906020019184600183028401116401000000008311171561051957600080fd5b91908080601f016020809104026020016040519081016040528093929190818152602001838380828437600081840152601f19601f8201169050808301925050505050505091929192908035906020019064010000000081111561057c57600080fd5b82018360208201111561058e57600080fd5b803590602001918460018302840111640100000000831117156105b057600080fd5b91908080601f016020809104026020016040519081016040528093929190818152602001838380828437600081840152601f19601f8201169050808301925050505050505091929192905050506118b5565b005b34801561061057600080fd5b506106d46004803603604081101561062757600080fd5b81019080803590602001909291908035906020019064010000000081111561064e57600080fd5b82018360208201111561066057600080fd5b8035906020019184600183028401116401000000008311171561068257600080fd5b91908080601f016020809104026020016040519081016040528093929190818152602001838380828437600081840152601f19601f820116905080830192505050505050509192919290505050611e77565b005b3480156106e257600080fd5b506107a6600480360360408110156106f957600080fd5b81019080803590602001909291908035906020019064010000000081111561072057600080fd5b82018360208201111561073257600080fd5b8035906020019184600183028401116401000000008311171561075457600080fd5b91908080601f016020809104026020016040519081016040528093929190818152602001838380828437600081840152601f19601f820116905080830192505050505050509192919290505050611fd2565b005b3480156107b457600080fd5b506107e1600480360360208110156107cb57600080fd5b810190808035906020019092919050505061212d565b604051808881526020018773ffffffffffffffffffffffffffffffffffffffff1673ffffffffffffffffffffffffffffffffffffffff168152602001806020018060200180602001806020018060200186810386528b818151815260200191508051906020019080838360005b8381101561086957808201518184015260208101905061084e565b50505050905090810190601f1680156108965780820380516001836020036101000a031916815260200191505b5086810385528a818151815260200191508051906020019080838360005b838110156108cf5780820151818401526020810190506108b4565b50505050905090810190601f1680156108fc5780820380516001836020036101000a031916815260200191505b50868103845289818151815260200191508051906020019080838360005b8381101561093557808201518184015260208101905061091a565b50505050905090810190601f1680156109625780820380516001836020036101000a031916815260200191505b50868103835288818151815260200191508051906020019080838360005b8381101561099b578082015181840152602081019050610980565b50505050905090810190601f1680156109c85780820380516001836020036101000a031916815260200191505b50868103825287818151815260200191508051906020019080838360005b83811015610a015780820151818401526020810190506109e6565b50505050905090810190601f168015610a2e5780820380516001836020036101000a031916815260200191505b509c5050505050505050505050505060405180910390f35b348015610a5257600080fd5b50610a5b612503565b005b348015610a6957600080fd5b50610aac60048036036020811015610a8057600080fd5b81019080803573ffffffffffffffffffffffffffffffffffffffff16906020019092919050505061250e565b005b348015610aba57600080fd5b50610ac361251a565b005b348015610ad157600080fd5b50610b1460048036036020811015610ae857600080fd5b81019080803573ffffffffffffffffffffffffffffffffffffffff169060200190929190505050612525565b005b348015610b2257600080fd5b50610be660048036036040811015610b3957600080fd5b810190808035906020019092919080359060200190640100000000811115610b6057600080fd5b820183602082011115610b7257600080fd5b80359060200191846001830284011164010000000083111715610b9457600080fd5b91908080601f016020809104026020016040519081016040528093929190818152602001838380828437600081840152601f19601f820116905080830192505050505050509192919290505050612545565b005b348015610bf457600080fd5b50610c3760048036036020811015610c0b57600080fd5b81019080803573ffffffffffffffffffffffffffffffffffffffff1690602001909291905050506126a0565b005b348015610c4557600080fd5b50610c4e6126c0565b005b348015610c5c57600080fd5b50610c9f60048036036020811015610c7357600080fd5b81019080803573ffffffffffffffffffffffffffffffffffffffff1690602001909291905050506126cb565b604051808215151515815260200191505060405180910390f35b348015610cc557600080fd5b50610f6e600480360360c0811015610cdc57600080fd5b810190808035906020019092919080359060200190640100000000811115610d0357600080fd5b820183602082011115610d1557600080fd5b80359060200191846001830284011164010000000083111715610d3757600080fd5b91908080601f016020809104026020016040519081016040528093929190818152602001838380828437600081840152601f19601f82011690508083019250505050505050919291929080359060200190640100000000811115610d9a57600080fd5b820183602082011115610dac57600080fd5b80359060200191846001830284011164010000000083111715610dce57600080fd5b91908080601f016020809104026020016040519081016040528093929190818152602001838380828437600081840152601f19601f82011690508083019250505050505050919291929080359060200190640100000000811115610e3157600080fd5b820183602082011115610e4357600080fd5b80359060200191846001830284011164010000000083111715610e6557600080fd5b91908080601f016020809104026020016040519081016040528093929190818152602001838380828437600081840152601f19601f820116905080830192505050505050509192919290803573ffffffffffffffffffffffffffffffffffffffff16906020019092919080359060200190640100000000811115610ee857600080fd5b820183602082011115610efa57600080fd5b80359060200191846001830284011164010000000083111715610f1c57600080fd5b91908080601f016020809104026020016040519081016040528093929190818152602001838380828437600081840152601f19601f8201169050808301925050505050505091929192905050506126df565b005b348015610f7c57600080fd5b5061104060048036036040811015610f9357600080fd5b810190808035906020019092919080359060200190640100000000811115610fba57600080fd5b820183602082011115610fcc57600080fd5b80359060200191846001830284011164010000000083111715610fee57600080fd5b91908080601f016020809104026020016040519081016040528093929190818152602001838380828437600081840152601f19601f820116905080830192505050505050509192919290505050612914565b005b34801561104e57600080fd5b506110916004803603602081101561106557600080fd5b81019080803573ffffffffffffffffffffffffffffffffffffffff169060200190929190505050612a6f565b604051808215151515815260200191505060405180910390f35b3480156110b757600080fd5b5061117b600480360360408110156110ce57600080fd5b8101908080359060200190929190803590602001906401000000008111156110f557600080fd5b82018360208201111561110757600080fd5b8035906020019184600183028401116401000000008311171561112957600080fd5b91908080601f016020809104026020016040519081016040528093929190818152602001838380828437600081840152601f19601f820116905080830192505050505050509192919290505050612a83565b005b34801561118957600080fd5b506111cc600480360360208110156111a057600080fd5b81019080803573ffffffffffffffffffffffffffffffffffffffff169060200190929190505050612bde565b604051808215151515815260200191505060405180910390f35b3480156111f257600080fd5b506112356004803603602081101561120957600080fd5b81019080803573ffffffffffffffffffffffffffffffffffffffff169060200190929190505050612bf2565b005b34801561124357600080fd5b506113076004803603604081101561125a57600080fd5b81019080803590602001909291908035906020019064010000000081111561128157600080fd5b82018360208201111561129357600080fd5b803590602001918460018302840111640100000000831117156112b557600080fd5b91908080601f016020809104026020016040519081016040528093929190818152602001838380828437600081840152601f19601f820116905080830192505050505050509192919290505050612c43565b005b34801561131557600080fd5b506113586004803603602081101561132c57600080fd5b81019080803573ffffffffffffffffffffffffffffffffffffffff169060200190929190505050612d9e565b005b34801561136657600080fd5b5061142a6004803603604081101561137d57600080fd5b8101908080359060200190929190803590602001906401000000008111156113a457600080fd5b8201836020820111156113b657600080fd5b803590602001918460018302840111640100000000831117156113d857600080fd5b91908080601f016020809104026020016040519081016040528093929190818152602001838380828437600081840152601f19601f820116905080830192505050505050509192919290505050612dbe565b005b34801561143857600080fd5b506114fc6004803603604081101561144f57600080fd5b81019080803590602001909291908035906020019064010000000081111561147657600080fd5b82018360208201111561148857600080fd5b803590602001918460018302840111640100000000831117156114aa57600080fd5b91908080601f016020809104026020016040519081016040528093929190818152602001838380828437600081840152601f19601f820116905080830192505050505050509192919290505050612f19565b005b34801561150a57600080fd5b506115376004803603602081101561152157600080fd5b8101908080359060200190929190505050613073565b6040518083600a81111561154757fe5b60ff16815260200180602001828103825283818151815260200191508051906020019080838360005b8381101561158b578082015181840152602081019050611570565b50505050905090810190601f1680156115b85780820380516001836020036101000a031916815260200191505b50935050505060405180910390f35b3480156115d357600080fd5b506115dc613153565b005b3480156115ea57600080fd5b50611893600480360360c081101561160157600080fd5b81019080803590602001909291908035906020019064010000000081111561162857600080fd5b82018360208201111561163a57600080fd5b8035906020019184600183028401116401000000008311171561165c57600080fd5b91908080601f016020809104026020016040519081016040528093929190818152602001838380828437600081840152601f19601f820116905080830192505050505050509192919290803590602001906401000000008111156116bf57600080fd5b8201836020820111156116d157600080fd5b803590602001918460018302840111640100000000831117156116f357600080fd5b91908080601f016020809104026020016040519081016040528093929190818152602001838380828437600081840152601f19601f8201169050808301925050505050505091929192908035906020019064010000000081111561175657600080fd5b82018360208201111561176857600080fd5b8035906020019184600183028401116401000000008311171561178a57600080fd5b91908080601f016020809104026020016040519081016040528093929190818152602001838380828437600081840152601f19601f820116905080830192505050505050509192919290803573ffffffffffffffffffffffffffffffffffffffff1690602001909291908035906020019064010000000081111561180d57600080fd5b82018360208201111561181f57600080fd5b8035906020019184600183028401116401000000008311171561184157600080fd5b91908080601f016020809104026020016040519081016040528093929190818152602001838380828437600081840152601f19601f82011690508083019250505050505050919291929050505061315e565b005b61189e81612bf2565b50565b60006118ae600283613393565b9050919050565b6118be336118a1565b15156118c957600080fd5b6118d1613889565b6102a06040519081016040528060016008540181526020018a81526020018973ffffffffffffffffffffffffffffffffffffffff1681526020018973ffffffffffffffffffffffffffffffffffffffff1681526020018881526020018781526020018681526020018581526020018a600854018152602001848152602001600081526020016000600a81111561196357fe5b8152602001600073ffffffffffffffffffffffffffffffffffffffff168152602001600073ffffffffffffffffffffffffffffffffffffffff168152602001600073ffffffffffffffffffffffffffffffffffffffff1681526020016040805190810160405280600181526020017f200000000000000000000000000000000000000000000000000000000000000081525081526020016040805190810160405280600181526020017f200000000000000000000000000000000000000000000000000000000000000081525081526020016040805190810160405280600181526020017f200000000000000000000000000000000000000000000000000000000000000081525081526020016040805190810160405280600181526020017f200000000000000000000000000000000000000000000000000000000000000081525081526020016040805190810160405280600181526020017f200000000000000000000000000000000000000000000000000000000000000081525081526020016040805190810160405280600181526020017f2000000000000000000000000000000000000000000000000000000000000000815250815250905080600460008b8152602001908152602001600020600082015181600001556020820151816001015560408201518160020160006101000a81548173ffffffffffffffffffffffffffffffffffffffff021916908373ffffffffffffffffffffffffffffffffffffffff16021790555060608201518160030160006101000a81548173ffffffffffffffffffffffffffffffffffffffff021916908373ffffffffffffffffffffffffffffffffffffffff1602179055506080820151816004019080519060200190611bf39291906139a3565b5060a0820151816005019080519060200190611c109291906139a3565b5060c0820151816006019080519060200190611c2d9291906139a3565b5060e0820151816007019080519060200190611c4a9291906139a3565b506101008201518160080155610120820151816009019080519060200190611c739291906139a3565b5061014082015181600a015561016082015181600b0160006101000a81548160ff0219169083600a811115611ca457fe5b021790555061018082015181600b0160016101000a81548173ffffffffffffffffffffffffffffffffffffffff021916908373ffffffffffffffffffffffffffffffffffffffff1602179055506101a082015181600c0160006101000a81548173ffffffffffffffffffffffffffffffffffffffff021916908373ffffffffffffffffffffffffffffffffffffffff1602179055506101c082015181600d0160006101000a81548173ffffffffffffffffffffffffffffffffffffffff021916908373ffffffffffffffffffffffffffffffffffffffff1602179055506101e082015181600e019080519060200190611d9e9291906139a3565b5061020082015181600f019080519060200190611dbc9291906139a3565b50610220820151816010019080519060200190611dda9291906139a3565b50610240820151816011019080519060200190611df89291906139a3565b50610260820151816012019080519060200190611e169291906139a3565b50610280820151816013019080519060200190611e349291906139a3565b5090505081600560008b81526020019081526020016000209080519060200190611e5f929190613a23565b50600160085401600881905550505050505050505050565b600a60046000848152602001908152602001600020600b0160006101000a81548160ff0219169083600a811115611eaa57fe5b02179055506060600560008481526020019081526020016000208054600181600116156101000203166002900480601f016020809104026020016040519081016040528092919081815260200182805460018160011615610100020316600290048015611f585780601f10611f2d57610100808354040283529160200191611f58565b820191906000526020600020905b815481529060010190602001808311611f3b57829003601f168201915b505050505090506060611f6b8284613427565b905080600560008681526020019081526020016000209080519060200190611f94929190613a23565b507fb4cdacdf11ca5dc03f3ddd7b53e92ed9d205e79bf7c06a3f4b514b084a17bb5d846040518082815260200191505060405180910390a150505050565b600360046000848152602001908152602001600020600b0160006101000a81548160ff0219169083600a81111561200557fe5b02179055506060600560008481526020019081526020016000208054600181600116156101000203166002900480601f0160208091040260200160405190810160405280929190818152602001828054600181600116156101000203166002900480156120b35780601f10612088576101008083540402835291602001916120b3565b820191906000526020600020905b81548152906001019060200180831161209657829003601f168201915b5050505050905060606120c68284613427565b9050806005600086815260200190815260200160002090805190602001906120ef929190613a23565b507fbf196506b2f00aa0ddfe8eb41c3c9ccfddcc58a5142960f08f9131afa7908496846040518082815260200191505060405180910390a150505050565b600080606080606080606087600460008a815260200190815260200160002060020160009054906101000a900473ffffffffffffffffffffffffffffffffffffffff16600460008b8152602001908152602001600020600401600460008c8152602001908152602001600020600601600460008d8152602001908152602001600020600701600460008e8152602001908152602001600020600501600460008f8152602001908152602001600020600901848054600181600116156101000203166002900480601f0160208091040260200160405190810160405280929190818152602001828054600181600116156101000203166002900480156122735780601f1061224857610100808354040283529160200191612273565b820191906000526020600020905b81548152906001019060200180831161225657829003601f168201915b50505050509450838054600181600116156101000203166002900480601f01602080910402602001604051908101604052809291908181526020018280546001816001161561010002031660029004801561230f5780601f106122e45761010080835404028352916020019161230f565b820191906000526020600020905b8154815290600101906020018083116122f257829003601f168201915b50505050509350828054600181600116156101000203166002900480601f0160208091040260200160405190810160405280929190818152602001828054600181600116156101000203166002900480156123ab5780601f10612380576101008083540402835291602001916123ab565b820191906000526020600020905b81548152906001019060200180831161238e57829003601f168201915b50505050509250818054600181600116156101000203166002900480601f0160208091040260200160405190810160405280929190818152602001828054600181600116156101000203166002900480156124475780601f1061241c57610100808354040283529160200191612447565b820191906000526020600020905b81548152906001019060200180831161242a57829003601f168201915b50505050509150808054600181600116156101000203166002900480601f0160208091040260200160405190810160405280929190818152602001828054600181600116156101000203166002900480156124e35780601f106124b8576101008083540402835291602001916124e3565b820191906000526020600020905b8154815290600101906020018083116124c657829003601f168201915b505050505090509650965096509650965096509650919395979092949650565b61250c336134f3565b565b61251781612bf2565b50565b61252333613544565b565b61252e33612bde565b151561253957600080fd5b61254281613595565b50565b600160046000848152602001908152602001600020600b0160006101000a81548160ff0219169083600a81111561257857fe5b02179055506060600560008481526020019081526020016000208054600181600116156101000203166002900480601f0160208091040260200160405190810160405280929190818152602001828054600181600116156101000203166002900480156126265780601f106125fb57610100808354040283529160200191612626565b820191906000526020600020905b81548152906001019060200180831161260957829003601f168201915b5050505050905060606126398284613427565b905080600560008681526020019081526020016000209080519060200190612662929190613a23565b507f9b3b66e2380b690bae22c73ef1428fb0c91e72fe14a4b6defa13035214187aff846040518082815260200191505060405180910390a150505050565b6126a933612a6f565b15156126b457600080fd5b6126bd816135e6565b50565b6126c933613637565b565b60006126d8600083613393565b9050919050565b600860046000888152602001908152602001600020600b0160006101000a81548160ff0219169083600a81111561271257fe5b02179055508460046000888152602001908152602001600020600f019080519060200190612741929190613a23565b508360046000888152602001908152602001600020601301908051906020019061276c929190613a23565b5082600460008881526020019081526020016000206012019080519060200190612797929190613a23565b508160046000888152602001908152602001600020600c0160006101000a81548173ffffffffffffffffffffffffffffffffffffffff021916908373ffffffffffffffffffffffffffffffffffffffff1602179055506060600560008881526020019081526020016000208054600181600116156101000203166002900480601f0160208091040260200160405190810160405280929190818152602001828054600181600116156101000203166002900480156128965780601f1061286b57610100808354040283529160200191612896565b820191906000526020600020905b81548152906001019060200180831161287957829003601f168201915b5050505050905060606128a98284613427565b905080600560008a815260200190815260200160002090805190602001906128d2929190613a23565b507f73d6827c08a640a6959426f0ee26c7bb964902de8446b4ca6bca213740bf262f886040518082815260200191505060405180910390a15050505050505050565b600660046000848152602001908152602001600020600b0160006101000a81548160ff0219169083600a81111561294757fe5b02179055506060600560008481526020019081526020016000208054600181600116156101000203166002900480601f0160208091040260200160405190810160405280929190818152602001828054600181600116156101000203166002900480156129f55780601f106129ca576101008083540402835291602001916129f5565b820191906000526020600020905b8154815290600101906020018083116129d857829003601f168201915b505050505090506060612a088284613427565b905080600560008681526020019081526020016000209080519060200190612a31929190613a23565b507fd27cf9eb13fb50222e8ff27788988edb150171b58e49b33f165418d0eb0253eb846040518082815260200191505060405180910390a150505050565b6000612a7c600383613393565b9050919050565b600760046000848152602001908152602001600020600b0160006101000a81548160ff0219169083600a811115612ab657fe5b02179055506060600560008481526020019081526020016000208054600181600116156101000203166002900480601f016020809104026020016040519081016040528092919081815260200182805460018160011615610100020316600290048015612b645780601f10612b3957610100808354040283529160200191612b64565b820191906000526020600020905b815481529060010190602001808311612b4757829003601f168201915b505050505090506060612b778284613427565b905080600560008681526020019081526020016000209080519060200190612ba0929190613a23565b507f94d498cff24e232da4c3ed3ce9547d37faee065ef6fe670586828a6e3ccf8a53846040518082815260200191505060405180910390a150505050565b6000612beb600183613393565b9050919050565b612bfd600282613688565b8073ffffffffffffffffffffffffffffffffffffffff167f561138658ca49a8540dc70dcfe64c9026c1c5b9344642242dd6562970f9c127860405160405180910390a250565b600260046000848152602001908152602001600020600b0160006101000a81548160ff0219169083600a811115612c7657fe5b02179055506060600560008481526020019081526020016000208054600181600116156101000203166002900480601f016020809104026020016040519081016040528092919081815260200182805460018160011615610100020316600290048015612d245780601f10612cf957610100808354040283529160200191612d24565b820191906000526020600020905b815481529060010190602001808311612d0757829003601f168201915b505050505090506060612d378284613427565b905080600560008681526020019081526020016000209080519060200190612d60929190613a23565b507fa96ae0fc3224ebd79eebfe54bd130cc9cb94416cddd1f2386115e00b72532468846040518082815260200191505060405180910390a150505050565b612da7336126cb565b1515612db257600080fd5b612dbb81613738565b50565b600960046000848152602001908152602001600020600b0160006101000a81548160ff0219169083600a811115612df157fe5b02179055506060600560008481526020019081526020016000208054600181600116156101000203166002900480601f016020809104026020016040519081016040528092919081815260200182805460018160011615610100020316600290048015612e9f5780601f10612e7457610100808354040283529160200191612e9f565b820191906000526020600020905b815481529060010190602001808311612e8257829003601f168201915b505050505090506060612eb28284613427565b905080600560008681526020019081526020016000209080519060200190612edb929190613a23565b507f616dfa0fd1e8003e293d0d707897c48415f6acadc960e3a8239f70841bc98c5b846040518082815260200191505060405180910390a150505050565b6004806000848152602001908152602001600020600b0160006101000a81548160ff0219169083600a811115612f4b57fe5b02179055506060600560008481526020019081526020016000208054600181600116156101000203166002900480601f016020809104026020016040519081016040528092919081815260200182805460018160011615610100020316600290048015612ff95780601f10612fce57610100808354040283529160200191612ff9565b820191906000526020600020905b815481529060010190602001808311612fdc57829003601f168201915b50505050509050606061300c8284613427565b905080600560008681526020019081526020016000209080519060200190613035929190613a23565b507ff5fba10cdde0743e9e1a1208d61a8f3bea78c1dc743844aef4501affa3efd151846040518082815260200191505060405180910390a150505050565b6000606060046000848152602001908152602001600020600b0160009054906101000a900460ff1660056000858152602001908152602001600020808054600181600116156101000203166002900480601f0160208091040260200160405190810160405280929190818152602001828054600181600116156101000203166002900480156131435780601f1061311857610100808354040283529160200191613143565b820191906000526020600020905b81548152906001019060200180831161312657829003601f168201915b5050505050905091509150915091565b61315c33613789565b565b600560046000888152602001908152602001600020600b0160006101000a81548160ff0219169083600a81111561319157fe5b02179055508460046000888152602001908152602001600020600e0190805190602001906131c0929190613a23565b50836004600088815260200190815260200160002060110190805190602001906131eb929190613a23565b5082600460008881526020019081526020016000206010019080519060200190613216929190613a23565b508160046000888152602001908152602001600020600b0160016101000a81548173ffffffffffffffffffffffffffffffffffffffff021916908373ffffffffffffffffffffffffffffffffffffffff1602179055506060600560008881526020019081526020016000208054600181600116156101000203166002900480601f0160208091040260200160405190810160405280929190818152602001828054600181600116156101000203166002900480156133155780601f106132ea57610100808354040283529160200191613315565b820191906000526020600020905b8154815290600101906020018083116132f857829003601f168201915b5050505050905060606133288284613427565b905080600560008a81526020019081526020016000209080519060200190613351929190613a23565b507f1e93508ab5b39bf9f45afa406d4ce6117c21b48d5b79372f9e599ce66210cda2886040518082815260200191505060405180910390a15050505050505050565b60008073ffffffffffffffffffffffffffffffffffffffff168273ffffffffffffffffffffffffffffffffffffffff16141515156133d057600080fd5b8260000160008373ffffffffffffffffffffffffffffffffffffffff1673ffffffffffffffffffffffffffffffffffffffff16815260200190815260200160002060009054906101000a900460ff16905092915050565b606082826040516020018083805190602001908083835b602083101515613463578051825260208201915060208101905060208303925061343e565b6001836020036101000a03801982511681845116808217855250505050505090500182805190602001908083835b6020831015156134b65780518252602082019150602081019050602083039250613491565b6001836020036101000a03801982511681845116808217855250505050505090500192505050604051602081830303815290604052905092915050565b6134fe6000826137da565b8073ffffffffffffffffffffffffffffffffffffffff167f9d17ec7e57a5118cf27abf33370bcc6f007c27a9706ab4cc473a76fe552447d260405160405180910390a250565b61354f6003826137da565b8073ffffffffffffffffffffffffffffffffffffffff167f126174f6cf49c81cdb4a9214c6b8f037bef55b4ec31e4fc776cea2a1c8a88d5960405160405180910390a250565b6135a0600182613688565b8073ffffffffffffffffffffffffffffffffffffffff167fa58cff07db0adda3ab7a40bd2f18ab57210bf38391a52ffd2e8eee6b8bdec71a60405160405180910390a250565b6135f1600382613688565b8073ffffffffffffffffffffffffffffffffffffffff167fddbf200aa634dc3fb81cfd68583dd1040d1c751d335e1d86b631bde3e977fea860405160405180910390a250565b6136426001826137da565b8073ffffffffffffffffffffffffffffffffffffffff167f053a4badf166f01c4b02f6bcb71d2d67734470d0866282e291e73001aa25c76960405160405180910390a250565b600073ffffffffffffffffffffffffffffffffffffffff168173ffffffffffffffffffffffffffffffffffffffff16141515156136c457600080fd5b6136ce8282613393565b1515156136da57600080fd5b60018260000160008373ffffffffffffffffffffffffffffffffffffffff1673ffffffffffffffffffffffffffffffffffffffff16815260200190815260200160002060006101000a81548160ff0219169083151502179055505050565b613743600082613688565b8073ffffffffffffffffffffffffffffffffffffffff167f5a4264410853372bdd7255ebc9624cb523fc039cd6f9f1855165194738125f6360405160405180910390a250565b6137946002826137da565b8073ffffffffffffffffffffffffffffffffffffffff167f2fed5abf6a80d6dfe30b4895481b2fc5d7dce5f8f7b931832f4a2947d5040c7f60405160405180910390a250565b600073ffffffffffffffffffffffffffffffffffffffff168173ffffffffffffffffffffffffffffffffffffffff161415151561381657600080fd5b6138208282613393565b151561382b57600080fd5b60008260000160008373ffffffffffffffffffffffffffffffffffffffff1673ffffffffffffffffffffffffffffffffffffffff16815260200190815260200160002060006101000a81548160ff0219169083151502179055505050565b6102a0604051908101604052806000815260200160008152602001600073ffffffffffffffffffffffffffffffffffffffff168152602001600073ffffffffffffffffffffffffffffffffffffffff168152602001606081526020016060815260200160608152602001606081526020016000815260200160608152602001600081526020016000600a81111561391c57fe5b8152602001600073ffffffffffffffffffffffffffffffffffffffff168152602001600073ffffffffffffffffffffffffffffffffffffffff168152602001600073ffffffffffffffffffffffffffffffffffffffff1681526020016060815260200160608152602001606081526020016060815260200160608152602001606081525090565b828054600181600116156101000203166002900490600052602060002090601f016020900481019282601f106139e457805160ff1916838001178555613a12565b82800160010185558215613a12579182015b82811115613a115782518255916020019190600101906139f6565b5b509050613a1f9190613aa3565b5090565b828054600181600116156101000203166002900490600052602060002090601f016020900481019282601f10613a6457805160ff1916838001178555613a92565b82800160010185558215613a92579182015b82811115613a91578251825591602001919060010190613a76565b5b509050613a9f9190613aa3565b5090565b613ac591905b80821115613ac1576000816000905550600101613aa9565b5090565b9056fea165627a7a72305820024c5245c770f48f2c01f5ce65e915fc03ea4ebe6d73f703027aed81c621850d0029",
  "source": "// SPDX-License-Identifier: MIT\r\npragma solidity >=0.4.21 <0.7.0;\r\nimport \"./Roles.sol\";\r\nimport \"./DistributorRole.sol\";\r\nimport \"./ManufacturerRole.sol\";\r\nimport \"./PatientRole.sol\";\r\nimport \"./PharmacistRole.sol\";\r\n\r\n\r\n\r\ncontract SimpleStorage is PharmacistRole, PatientRole, ManufacturerRole, DistributorRole  {\r\n\r\n  //debugging functions\r\n\r\n  function checker(address _add) public {\r\n       _addManufacturer(_add);\r\n  }\r\n\r\n\r\n  //basic functions\r\n\r\n\r\n\r\n\r\n    function append(string memory a, string memory b) internal pure returns (string memory s) {\r\n\r\n    return string(abi.encodePacked(a, b));\r\n\r\n}\r\n\r\n\r\n\r\n\r\n\r\n  \r\n\r\n\r\n  \r\n  mapping (uint => Medicine) medicines;\r\n  mapping (uint => string ) medicinehistory ; \r\n\r\n  address owner;\r\n\r\n  // Define a variable called 'upc' for Universal Product Code (UPC)\r\n  uint  upc;\r\n\r\n  // Define a variable called 'sku' for Stock Keeping Unit (SKU)\r\n  uint  sku;\r\n\r\n  //manufacturer events\r\n  event Made(uint upc);\r\n  event Packed(uint upc);\r\n  event ForSale(uint upc);\r\n  event Soldtodistributor(uint upc);\r\n  event shippedbymanufacturer(uint upc);\r\n  //distributor events\r\n  event recievedDistributor(uint upc);\r\n  event soldtoPharma(uint upc);\r\n  event shippedtoPharma(uint upc);\r\n  //pharma events\r\n  event recievedpharma(uint upc);\r\n  event soldtopatient(uint upc);\r\n  event shippedtopatient(uint upc);\r\n  //Patientt event \r\n  event Purchased(uint upc);\r\n\r\n    // Define enum 'State' with the following values:\r\n  enum State \r\n  { \r\n    //manufacturer states\r\n    Made,       // 0\r\n    Packed,     // 1\r\n    ForSale,    // 2\r\n    Soldtodistributor, //3\r\n    shippedbymanufacturer,//4\r\n    //distributor states\r\n    RecievedDistributor, //5\r\n    SoldtoPharma, //6\r\n    ShippedtoPharma,  //7\r\n    //Pharmacist\r\n    RecievedPharma, //8\r\n    SoldtoPatient , //9\r\n    ShippedtoPatient //10\r\n\r\n\r\n\r\n  }\r\n\r\n   struct Medicine {\r\n    uint    sku;  // Stock Keeping Unit (SKU)\r\n    uint    upc; // Universal Product Code (UPC), generated by the Manufacturer, goes on the package, can be verified by the Patient\r\n    address ownerID;  // Metamask-Ethereum address of the current owner as the medicine moves through 8 stages\r\n    address originManufacturerID; // Metamask-Ethereum address of the Manufacturer\r\n    string  originFactoryName; // Manufacturer Name\r\n    string  originFactoryInformation;  // Manufacturer Information\r\n    string  originFactoryLatitude; // Factory Latitude\r\n    string  originFactoryLongitude;  // Factory Longitude\r\n    uint    medicineID;  // Product ID potentially a combination of upc + sku\r\n    string  medicineNotes; // Product Notes\r\n    uint    medicinePrice; // Product Price\r\n    State   medicineState;  // Product State as represented in the enum above\r\n    \r\n    address distributorID;  // Metamask-Ethereum address of the Distributor\r\n    address pharmacistID; // Metamask-Ethereum address of the Pharmacist\r\n    address patientID; // Metamask-Ethereum address of the Patient\r\n    string DistName;\r\n    string PharamaName;\r\n    string  DistLatitude; // Factory Latitude\r\n    string  DistLongitude;  // Factory Longitude\r\n    string  PharmaLatitude; // Factory Latitude\r\n    string  PharmaLongitude;  // Factory Longitude\r\n  }\r\n\r\n\r\n  function makeMedicine(uint _upc, address _originManufacturerID, string memory _originFactoryName, string memory _originFactoryInformation, string  memory _originFactoryLatitude, string  memory _originFactoryLongitude, string  memory _medicineNotes, string memory _history) public onlyManufacturer {\r\n    // Add the new medicine as part of medicines\r\n    Medicine memory temp_medicine = Medicine({\r\n      sku:sku + 1,\r\n      upc:_upc,\r\n      ownerID:_originManufacturerID,\r\n      originManufacturerID:_originManufacturerID,\r\n      originFactoryName:_originFactoryName,\r\n      originFactoryInformation:_originFactoryInformation,\r\n      originFactoryLatitude:_originFactoryLatitude,\r\n      originFactoryLongitude:_originFactoryLongitude,\r\n      medicineID:sku+_upc,\r\n      medicineNotes:_medicineNotes,\r\n      medicineState:State.Made,\r\n      medicinePrice:0,\r\n      distributorID:address(0),\r\n      pharmacistID:address(0),\r\n      patientID:address(0),\r\n      DistName: \" \",\r\n      PharamaName :\" \",\r\n      DistLongitude : \" \",\r\n      DistLatitude : \" \",\r\n      PharmaLatitude : \" \",\r\n      PharmaLongitude  : \" \"\r\n\r\n      });\r\n\r\n\r\n    //string storage initial_history=\"This med is made by date will be passed by frontend\" ;\r\n    medicines[_upc] = temp_medicine;\r\n    medicinehistory[_upc]  =_history;\r\n\r\n// uint    sku;  // Stock Keeping Unit (SKU)\r\n//     uint    upc; // Universal Product Code (UPC), generated by the Manufacturer, goes on the package, can be verified by the Patient\r\n//     address ownerID;  // Metamask-Ethereum address of the current owner as the medicine moves through 8 stages\r\n//     address originManufacturerID; // Metamask-Ethereum address of the Manufacturer\r\n//     string  originFactoryName; // Manufacturer Name\r\n//     string  originFactoryInformation;  // Manufacturer Information\r\n//     string  originFactoryLatitude; // Factory Latitude\r\n//     string  originFactoryLongitude;  // Factory Longitude\r\n//     uint    medicineID;  // Product ID potentially a combination of upc + sku\r\n//     string  medicineNotes; // Product Notes\r\n//     uint    medicinePrice; // Product Price\r\n//     State   medicineState;  // Product State as represented in the enum above\r\n//     address distributorID;  // Metamask-Ethereum address of the Distributor\r\n//     address pharmacistID; // Metamask-Ethereum address of the Pharmacist\r\n//     address patientID; // Metamask-Ethereum address of the Patient\r\n\r\n\r\n\r\n\r\n    // Increment sku\r\n    sku = sku + 1;\r\n    // Emit the appropriate event\r\n\r\n     \r\n  }\r\n  // function makeMedicine(uint _upc,uint _price ,string memory _name) public {\r\n  //     Medicine memory temp_medicine = Medicine({\r\n  //         upc : _upc,\r\n  //         price : _price,\r\n  //         name : _name\r\n  //     });\r\n  //     medicines[_upc] = temp_medicine;\r\n\r\n  // }\r\n\r\n  //manufacturer sub events\r\n\r\n  function packMedicine(uint _upc,string memory _history) public {\r\n  // // Call modifier to check if upc has passed previous supply chain stage\r\n  // Made(_upc);\r\n  // Call modifier to verify caller of this function\r\n  \r\n    // Update the appropriate fields\r\n    medicines[_upc].medicineState = State.Packed;\r\n    // string memory prevhis = medicinehistory[_upc];\r\n    //string  memory t1= concatenate(prevhis,_history);\r\n     string memory prevhis = medicinehistory[_upc];\r\n     string memory temp =  append(prevhis,_history);\r\n     medicinehistory[_upc]= temp;\r\n\r\n\r\n\r\n   // string memory history = medicinehistory[_upc];\r\n    //history = history + \" packed by manufacturer on date____\";\r\n    //medicinehistory[_upc] = history;\r\n    // Emit the appropriate event\r\n    emit Packed(_upc);\r\n  }\r\n\r\n   function forSale_bymanuf(uint _upc,string memory _history) public {\r\n  // // Call modifier to check if upc has passed previous supply chain stage\r\n  // Made(_upc);\r\n  // Call modifier to verify caller of this function\r\n  \r\n    // Update the appropriate fields\r\n    medicines[_upc].medicineState = State.ForSale;\r\n   // string memory history = medicinehistory[_upc];\r\n    //history = history + \" packed by manufacturer on date____\";\r\n    //medicinehistory[_upc] = history;\r\n    \r\n    string memory prevhis = medicinehistory[_upc];\r\n     string memory temp =  append(prevhis,_history);\r\n     medicinehistory[_upc]= temp;\r\n    // Emit the appropriate event\r\n\r\n    emit ForSale(_upc);\r\n  }\r\n\r\n   function soldToDistributor(uint _upc,string memory _history) public {\r\n  // // Call modifier to check if upc has passed previous supply chain stage\r\n  // Made(_upc);\r\n  // Call modifier to verify caller of this function\r\n  \r\n    // Update the appropriate fields\r\n    medicines[_upc].medicineState = State.Soldtodistributor;\r\n   // string memory history = medicinehistory[_upc];\r\n    //history = history + \" packed by manufacturer on date____\";\r\n    //medicinehistory[_upc] = history;\r\n    string memory prevhis = medicinehistory[_upc];\r\n     string memory temp =  append(prevhis,_history);\r\n     medicinehistory[_upc]= temp;\r\n    // Emit the appropriate event\r\n    emit Soldtodistributor(_upc);\r\n  }\r\n\r\n\r\n\r\n\r\n function shippedByManufacturer(uint _upc,string memory _history) public {\r\n  // // Call modifier to check if upc has passed previous supply chain stage\r\n  // Made(_upc);\r\n  // Call modifier to verify caller of this function\r\n  \r\n    // Update the appropriate fields\r\n    medicines[_upc].medicineState = State.shippedbymanufacturer;\r\n   // string memory history = medicinehistory[_upc];\r\n    //history = history + \" packed by manufacturer on date____\";\r\n    //medicinehistory[_upc] = history;\r\n    // Emit the appropriate event\r\n    string memory prevhis = medicinehistory[_upc];\r\n     string memory temp =  append(prevhis,_history);\r\n     medicinehistory[_upc]= temp;\r\n    emit shippedbymanufacturer(_upc);\r\n  }\r\n\r\n  //distributor controlled functions\r\n\r\n  function RecievedDistributor(uint _upc,string memory _name,string memory _long,string memory _lat,address _address,string memory _history) public {\r\n  // // Call modifier to check if upc has passed previous supply chain stage\r\n  // Made(_upc);\r\n  // Call modifier to verify caller of this function\r\n  \r\n    // Update the appropriate fields\r\n      medicines[_upc].medicineState = State.RecievedDistributor;\r\n      medicines[_upc].DistName = _name;\r\n      medicines[_upc].DistLongitude = _long;\r\n      medicines[_upc].DistLatitude = _lat;\r\n      medicines[_upc].distributorID = _address;\r\n   // string memory history = medicinehistory[_upc];\r\n    //history = history + \" packed by manufacturer on date____\";\r\n    //medicinehistory[_upc] = history;\r\n    string memory prevhis = medicinehistory[_upc];\r\n     string memory temp =  append(prevhis,_history);\r\n     medicinehistory[_upc]= temp;\r\n    // Emit the appropriate event\r\n    emit recievedDistributor(_upc);\r\n  }\r\n  function SoldtoPharma(uint _upc , string memory _history) public {\r\n  // // Call modifier to check if upc has passed previous supply chain stage\r\n  // Made(_upc);\r\n  // Call modifier to verify caller of this function\r\n  \r\n    // Update the appropriate fields\r\n    medicines[_upc].medicineState = State.SoldtoPharma;\r\n   // string memory history = medicinehistory[_upc];\r\n    //history = history + \" packed by manufacturer on date____\";\r\n    //medicinehistory[_upc] = history;\r\n    string memory prevhis = medicinehistory[_upc];\r\n     string memory temp =  append(prevhis,_history);\r\n     medicinehistory[_upc]= temp;\r\n    // Emit the appropriate event\r\n    emit soldtoPharma(_upc);\r\n  }\r\n  function ShippedtoPharma(uint _upc, string memory _history) public {\r\n  // // Call modifier to check if upc has passed previous supply chain stage\r\n  // Made(_upc);\r\n  // Call modifier to verify caller of this function\r\n  \r\n    // Update the appropriate fields\r\n    medicines[_upc].medicineState = State.ShippedtoPharma;\r\n   // string memory history = medicinehistory[_upc];\r\n    //history = history + \" packed by manufacturer on date____\";\r\n    //medicinehistory[_upc] = history;\r\n    string memory prevhis = medicinehistory[_upc];\r\n     string memory temp =  append(prevhis,_history);\r\n     medicinehistory[_upc]= temp;\r\n    // Emit the appropriate event\r\n    emit shippedtoPharma(_upc);\r\n  }\r\n\r\n\r\n  //Pharmacist functions \r\n\r\n  function Recieved_Pharma(uint _upc,string memory _name,string memory _long,string memory _lat,address _address,string memory _history) public {\r\n  // // Call modifier to check if upc has passed previous supply chain stage\r\n  // Made(_upc);\r\n  // Call modifier to verify caller of this function\r\n  \r\n    // Update the appropriate fields\r\n    medicines[_upc].medicineState = State.RecievedPharma;\r\n    medicines[_upc].PharamaName = _name;\r\n      medicines[_upc].PharmaLongitude= _long;\r\n      medicines[_upc].PharmaLatitude = _lat;\r\n      medicines[_upc].pharmacistID = _address;\r\n   // string memory history = medicinehistory[_upc];\r\n    //history = history + \" packed by manufacturer on date____\";\r\n    //medicinehistory[_upc] = history;\r\n     string memory prevhis = medicinehistory[_upc];\r\n     string memory temp =  append(prevhis,_history);\r\n     medicinehistory[_upc]= temp;\r\n    \r\n    // Emit the appropriate event\r\n    emit recievedpharma(_upc);\r\n  }\r\n  function Sold_to_Patient(uint _upc,string memory _history) public {\r\n  // // Call modifier to check if upc has passed previous supply chain stage\r\n  // Made(_upc);\r\n  // Call modifier to verify caller of this function\r\n  \r\n    // Update the appropriate fields\r\n    medicines[_upc].medicineState = State.SoldtoPatient;\r\n   // string memory history = medicinehistory[_upc];\r\n    //history = history + \" packed by manufacturer on date____\";\r\n    //medicinehistory[_upc] = history;\r\n     string memory prevhis = medicinehistory[_upc];\r\n     string memory temp =  append(prevhis,_history);\r\n     medicinehistory[_upc]= temp;\r\n    // Emit the appropriate event\r\n    emit soldtopatient(_upc);\r\n  }\r\n  function Shipped_to_Patient(uint _upc,string memory _history) public {\r\n  // // Call modifier to check if upc has passed previous supply chain stage\r\n  // Made(_upc);\r\n  // Call modifier to verify caller of this function\r\n  \r\n    // Update the appropriate fields\r\n    medicines[_upc].medicineState = State.ShippedtoPatient;\r\n   // string memory history = medicinehistory[_upc];\r\n    //history = history + \" packed by manufacturer on date____\";\r\n    //medicinehistory[_upc] = history;\r\n     string memory prevhis = medicinehistory[_upc];\r\n     string memory temp =  append(prevhis,_history);\r\n     medicinehistory[_upc]= temp;\r\n    // Emit the appropriate event\r\n    emit shippedtopatient(_upc);\r\n  }\r\n\r\n\r\n\r\n  function fetchstate(uint _upc) public view returns (State _medicineState,string memory _history){\r\n    return (\r\n      medicines[_upc].medicineState,\r\n      medicinehistory[_upc]\r\n      );\r\n  }\r\n\r\n  function fetchMedicine(uint _upc) public view returns (uint upc_ , address ownerid , string memory manufacturername, string memory Latitude , string memory Longitude,string memory factoryinfo , string memory notes){\r\n    return(\r\n          _upc,\r\n          medicines[_upc].ownerID,\r\n          medicines[_upc].originFactoryName,\r\n          medicines[_upc].originFactoryLatitude,\r\n          medicines[_upc].originFactoryLongitude,\r\n          medicines[_upc].originFactoryInformation,\r\n          medicines[_upc].medicineNotes\r\n    );\r\n  }\r\n\r\n}\r\n",
  "sourcePath": "C:/Users/remove/Capstone_final/contracts/SimpleStorage.sol",
  "compiler": {
    "name": "solc",
    "version": "0.5.0+commit.1d4f565a.Emscripten.clang"
  },
  "schemaVersion": "3.0.1",
  "updatedAt": "2021-12-10T13:54:06.271Z",
  "devdoc": {
    "methods": {}
  },
  "userdoc": {
    "methods": {}
  }
}