{
  "contractName": "SimpleStorage",
  "abi": [
    {
      "constant": true,
      "inputs": [
        {
          "name": "account",
          "type": "address"
        }
      ],
      "name": "isManufacturer",
      "outputs": [
        {
          "name": "",
          "type": "bool"
        }
      ],
      "payable": false,
      "stateMutability": "view",
      "type": "function",
      "signature": "0x17d4a491"
    },
    {
      "constant": false,
      "inputs": [],
      "name": "renouncePharmacist",
      "outputs": [],
      "payable": false,
      "stateMutability": "nonpayable",
      "type": "function",
      "signature": "0x5ae63247"
    },
    {
      "constant": false,
      "inputs": [
        {
          "name": "account",
          "type": "address"
        }
      ],
      "name": "addManufacturer",
      "outputs": [],
      "payable": false,
      "stateMutability": "nonpayable",
      "type": "function",
      "signature": "0x5f8a5afa"
    },
    {
      "constant": false,
      "inputs": [],
      "name": "renounceDistributor",
      "outputs": [],
      "payable": false,
      "stateMutability": "nonpayable",
      "type": "function",
      "signature": "0x644241db"
    },
    {
      "constant": false,
      "inputs": [
        {
          "name": "account",
          "type": "address"
        }
      ],
      "name": "addPatient",
      "outputs": [],
      "payable": false,
      "stateMutability": "nonpayable",
      "type": "function",
      "signature": "0x6d263ceb"
    },
    {
      "constant": false,
      "inputs": [
        {
          "name": "account",
          "type": "address"
        }
      ],
      "name": "addDistributor",
      "outputs": [],
      "payable": false,
      "stateMutability": "nonpayable",
      "type": "function",
      "signature": "0x7250e224"
    },
    {
      "constant": false,
      "inputs": [],
      "name": "renouncePatient",
      "outputs": [],
      "payable": false,
      "stateMutability": "nonpayable",
      "type": "function",
      "signature": "0x81a07c36"
    },
    {
      "constant": true,
      "inputs": [
        {
          "name": "account",
          "type": "address"
        }
      ],
      "name": "isPharmacist",
      "outputs": [
        {
          "name": "",
          "type": "bool"
        }
      ],
      "payable": false,
      "stateMutability": "view",
      "type": "function",
      "signature": "0x82946ee2"
    },
    {
      "constant": true,
      "inputs": [
        {
          "name": "account",
          "type": "address"
        }
      ],
      "name": "isDistributor",
      "outputs": [
        {
          "name": "",
          "type": "bool"
        }
      ],
      "payable": false,
      "stateMutability": "view",
      "type": "function",
      "signature": "0x8f0c86fa"
    },
    {
      "constant": true,
      "inputs": [
        {
          "name": "account",
          "type": "address"
        }
      ],
      "name": "isPatient",
      "outputs": [
        {
          "name": "",
          "type": "bool"
        }
      ],
      "payable": false,
      "stateMutability": "view",
      "type": "function",
      "signature": "0x8f9c79ed"
    },
    {
      "constant": false,
      "inputs": [
        {
          "name": "account",
          "type": "address"
        }
      ],
      "name": "_addManufacturer",
      "outputs": [],
      "payable": false,
      "stateMutability": "nonpayable",
      "type": "function",
      "signature": "0x95f91fe4"
    },
    {
      "constant": false,
      "inputs": [
        {
          "name": "account",
          "type": "address"
        }
      ],
      "name": "addPharmacist",
      "outputs": [],
      "payable": false,
      "stateMutability": "nonpayable",
      "type": "function",
      "signature": "0xc09e2693"
    },
    {
      "constant": false,
      "inputs": [],
      "name": "renounceManufacturer",
      "outputs": [],
      "payable": false,
      "stateMutability": "nonpayable",
      "type": "function",
      "signature": "0xde07f34e"
    },
    {
      "anonymous": false,
      "inputs": [
        {
          "indexed": false,
          "name": "upc",
          "type": "uint256"
        }
      ],
      "name": "Made",
      "type": "event",
      "signature": "0xeb8109592a383473c76afa62041a6dbabac0ca80d859bbdffb13c5a70c454b90"
    },
    {
      "anonymous": false,
      "inputs": [
        {
          "indexed": false,
          "name": "upc",
          "type": "uint256"
        }
      ],
      "name": "Packed",
      "type": "event",
      "signature": "0x9b3b66e2380b690bae22c73ef1428fb0c91e72fe14a4b6defa13035214187aff"
    },
    {
      "anonymous": false,
      "inputs": [
        {
          "indexed": false,
          "name": "upc",
          "type": "uint256"
        }
      ],
      "name": "ForSale",
      "type": "event",
      "signature": "0xa96ae0fc3224ebd79eebfe54bd130cc9cb94416cddd1f2386115e00b72532468"
    },
    {
      "anonymous": false,
      "inputs": [
        {
          "indexed": false,
          "name": "upc",
          "type": "uint256"
        }
      ],
      "name": "Soldtodistributor",
      "type": "event",
      "signature": "0xbf196506b2f00aa0ddfe8eb41c3c9ccfddcc58a5142960f08f9131afa7908496"
    },
    {
      "anonymous": false,
      "inputs": [
        {
          "indexed": false,
          "name": "upc",
          "type": "uint256"
        }
      ],
      "name": "shippedbymanufacturer",
      "type": "event",
      "signature": "0xf5fba10cdde0743e9e1a1208d61a8f3bea78c1dc743844aef4501affa3efd151"
    },
    {
      "anonymous": false,
      "inputs": [
        {
          "indexed": false,
          "name": "upc",
          "type": "uint256"
        }
      ],
      "name": "recievedDistributor",
      "type": "event",
      "signature": "0x1e93508ab5b39bf9f45afa406d4ce6117c21b48d5b79372f9e599ce66210cda2"
    },
    {
      "anonymous": false,
      "inputs": [
        {
          "indexed": false,
          "name": "upc",
          "type": "uint256"
        }
      ],
      "name": "soldtoPharma",
      "type": "event",
      "signature": "0xd27cf9eb13fb50222e8ff27788988edb150171b58e49b33f165418d0eb0253eb"
    },
    {
      "anonymous": false,
      "inputs": [
        {
          "indexed": false,
          "name": "upc",
          "type": "uint256"
        }
      ],
      "name": "shippedtoPharma",
      "type": "event",
      "signature": "0x94d498cff24e232da4c3ed3ce9547d37faee065ef6fe670586828a6e3ccf8a53"
    },
    {
      "anonymous": false,
      "inputs": [
        {
          "indexed": false,
          "name": "upc",
          "type": "uint256"
        }
      ],
      "name": "recievedpharma",
      "type": "event",
      "signature": "0x73d6827c08a640a6959426f0ee26c7bb964902de8446b4ca6bca213740bf262f"
    },
    {
      "anonymous": false,
      "inputs": [
        {
          "indexed": false,
          "name": "upc",
          "type": "uint256"
        }
      ],
      "name": "soldtopatient",
      "type": "event",
      "signature": "0x616dfa0fd1e8003e293d0d707897c48415f6acadc960e3a8239f70841bc98c5b"
    },
    {
      "anonymous": false,
      "inputs": [
        {
          "indexed": false,
          "name": "upc",
          "type": "uint256"
        }
      ],
      "name": "shippedtopatient",
      "type": "event",
      "signature": "0xb4cdacdf11ca5dc03f3ddd7b53e92ed9d205e79bf7c06a3f4b514b084a17bb5d"
    },
    {
      "anonymous": false,
      "inputs": [
        {
          "indexed": false,
          "name": "upc",
          "type": "uint256"
        }
      ],
      "name": "Purchased",
      "type": "event",
      "signature": "0x653d56639fee6b566a5c804764e9689de38645f0b733df89a36a1b7b42173dd8"
    },
    {
      "anonymous": false,
      "inputs": [
        {
          "indexed": true,
          "name": "account",
          "type": "address"
        }
      ],
      "name": "DistributorAdded",
      "type": "event",
      "signature": "0xddbf200aa634dc3fb81cfd68583dd1040d1c751d335e1d86b631bde3e977fea8"
    },
    {
      "anonymous": false,
      "inputs": [
        {
          "indexed": true,
          "name": "account",
          "type": "address"
        }
      ],
      "name": "DistributorRemoved",
      "type": "event",
      "signature": "0x126174f6cf49c81cdb4a9214c6b8f037bef55b4ec31e4fc776cea2a1c8a88d59"
    },
    {
      "anonymous": false,
      "inputs": [
        {
          "indexed": true,
          "name": "account",
          "type": "address"
        }
      ],
      "name": "ManufacturerAdded",
      "type": "event",
      "signature": "0x561138658ca49a8540dc70dcfe64c9026c1c5b9344642242dd6562970f9c1278"
    },
    {
      "anonymous": false,
      "inputs": [
        {
          "indexed": true,
          "name": "account",
          "type": "address"
        }
      ],
      "name": "ManufacturerRemoved",
      "type": "event",
      "signature": "0x2fed5abf6a80d6dfe30b4895481b2fc5d7dce5f8f7b931832f4a2947d5040c7f"
    },
    {
      "anonymous": false,
      "inputs": [
        {
          "indexed": true,
          "name": "account",
          "type": "address"
        }
      ],
      "name": "PatientAdded",
      "type": "event",
      "signature": "0xa58cff07db0adda3ab7a40bd2f18ab57210bf38391a52ffd2e8eee6b8bdec71a"
    },
    {
      "anonymous": false,
      "inputs": [
        {
          "indexed": true,
          "name": "account",
          "type": "address"
        }
      ],
      "name": "PatientRemoved",
      "type": "event",
      "signature": "0x053a4badf166f01c4b02f6bcb71d2d67734470d0866282e291e73001aa25c769"
    },
    {
      "anonymous": false,
      "inputs": [
        {
          "indexed": true,
          "name": "account",
          "type": "address"
        }
      ],
      "name": "PharmacistAdded",
      "type": "event",
      "signature": "0x5a4264410853372bdd7255ebc9624cb523fc039cd6f9f1855165194738125f63"
    },
    {
      "anonymous": false,
      "inputs": [
        {
          "indexed": true,
          "name": "account",
          "type": "address"
        }
      ],
      "name": "PharmacistRemoved",
      "type": "event",
      "signature": "0x9d17ec7e57a5118cf27abf33370bcc6f007c27a9706ab4cc473a76fe552447d2"
    },
    {
      "constant": false,
      "inputs": [
        {
          "name": "_upc",
          "type": "uint256"
        },
        {
          "name": "_originManufacturerID",
          "type": "address"
        },
        {
          "name": "_originFactoryName",
          "type": "string"
        },
        {
          "name": "_originFactoryInformation",
          "type": "string"
        },
        {
          "name": "_originFactoryLatitude",
          "type": "string"
        },
        {
          "name": "_originFactoryLongitude",
          "type": "string"
        },
        {
          "name": "_medicineNotes",
          "type": "string"
        },
        {
          "name": "_history",
          "type": "string"
        }
      ],
      "name": "makeMedicine",
      "outputs": [],
      "payable": false,
      "stateMutability": "nonpayable",
      "type": "function",
      "signature": "0x318c5036"
    },
    {
      "constant": false,
      "inputs": [
        {
          "name": "_upc",
          "type": "uint256"
        },
        {
          "name": "_history",
          "type": "string"
        }
      ],
      "name": "packMedicine",
      "outputs": [],
      "payable": false,
      "stateMutability": "nonpayable",
      "type": "function",
      "signature": "0x70b184da"
    },
    {
      "constant": false,
      "inputs": [
        {
          "name": "_upc",
          "type": "uint256"
        },
        {
          "name": "_history",
          "type": "string"
        }
      ],
      "name": "forSale_bymanuf",
      "outputs": [],
      "payable": false,
      "stateMutability": "nonpayable",
      "type": "function",
      "signature": "0x9e1a2f30"
    },
    {
      "constant": false,
      "inputs": [
        {
          "name": "_upc",
          "type": "uint256"
        },
        {
          "name": "_history",
          "type": "string"
        }
      ],
      "name": "soldToDistributor",
      "outputs": [],
      "payable": false,
      "stateMutability": "nonpayable",
      "type": "function",
      "signature": "0x4ab7e29d"
    },
    {
      "constant": false,
      "inputs": [
        {
          "name": "_upc",
          "type": "uint256"
        },
        {
          "name": "_history",
          "type": "string"
        }
      ],
      "name": "shippedByManufacturer",
      "outputs": [],
      "payable": false,
      "stateMutability": "nonpayable",
      "type": "function",
      "signature": "0xd759283a"
    },
    {
      "constant": false,
      "inputs": [
        {
          "name": "_upc",
          "type": "uint256"
        },
        {
          "name": "_name",
          "type": "string"
        },
        {
          "name": "_long",
          "type": "string"
        },
        {
          "name": "_lat",
          "type": "string"
        },
        {
          "name": "_address",
          "type": "address"
        },
        {
          "name": "_history",
          "type": "string"
        }
      ],
      "name": "RecievedDistributor",
      "outputs": [],
      "payable": false,
      "stateMutability": "nonpayable",
      "type": "function",
      "signature": "0xe4f4aa2a"
    },
    {
      "constant": false,
      "inputs": [
        {
          "name": "_upc",
          "type": "uint256"
        },
        {
          "name": "_history",
          "type": "string"
        }
      ],
      "name": "SoldtoPharma",
      "outputs": [],
      "payable": false,
      "stateMutability": "nonpayable",
      "type": "function",
      "signature": "0x8c2891ce"
    },
    {
      "constant": false,
      "inputs": [
        {
          "name": "_upc",
          "type": "uint256"
        },
        {
          "name": "_history",
          "type": "string"
        }
      ],
      "name": "ShippedtoPharma",
      "outputs": [],
      "payable": false,
      "stateMutability": "nonpayable",
      "type": "function",
      "signature": "0x8f5d97f1"
    },
    {
      "constant": false,
      "inputs": [
        {
          "name": "_upc",
          "type": "uint256"
        },
        {
          "name": "_name",
          "type": "string"
        },
        {
          "name": "_long",
          "type": "string"
        },
        {
          "name": "_lat",
          "type": "string"
        },
        {
          "name": "_address",
          "type": "address"
        },
        {
          "name": "_history",
          "type": "string"
        }
      ],
      "name": "Recieved_Pharma",
      "outputs": [],
      "payable": false,
      "stateMutability": "nonpayable",
      "type": "function",
      "signature": "0x898513e4"
    },
    {
      "constant": false,
      "inputs": [
        {
          "name": "_upc",
          "type": "uint256"
        },
        {
          "name": "_history",
          "type": "string"
        }
      ],
      "name": "Sold_to_Patient",
      "outputs": [],
      "payable": false,
      "stateMutability": "nonpayable",
      "type": "function",
      "signature": "0xd1c6a24d"
    },
    {
      "constant": false,
      "inputs": [
        {
          "name": "_upc",
          "type": "uint256"
        },
        {
          "name": "_history",
          "type": "string"
        }
      ],
      "name": "Shipped_to_Patient",
      "outputs": [],
      "payable": false,
      "stateMutability": "nonpayable",
      "type": "function",
      "signature": "0x3e2d5e2b"
    },
    {
      "constant": true,
      "inputs": [
        {
          "name": "_upc",
          "type": "uint256"
        }
      ],
      "name": "fetchstate",
      "outputs": [
        {
          "name": "_medicineState",
          "type": "uint8"
        },
        {
          "name": "_history",
          "type": "string"
        }
      ],
      "payable": false,
      "stateMutability": "view",
      "type": "function",
      "signature": "0xdbdf8b75"
    },
    {
      "constant": true,
      "inputs": [
        {
          "name": "_upc",
          "type": "uint256"
        }
      ],
      "name": "fetchCordinates",
      "outputs": [
        {
          "name": "manfcodlat",
          "type": "string"
        },
        {
          "name": "manfcodlong",
          "type": "string"
        },
        {
          "name": "distcodlat",
          "type": "string"
        },
        {
          "name": "distcodlong",
          "type": "string"
        },
        {
          "name": "phcodlat",
          "type": "string"
        },
        {
          "name": "phcodlong",
          "type": "string"
        }
      ],
      "payable": false,
      "stateMutability": "view",
      "type": "function",
      "signature": "0xf3a12307"
    },
    {
      "constant": true,
      "inputs": [
        {
          "name": "_upc",
          "type": "uint256"
        }
      ],
      "name": "fetchMedicine",
      "outputs": [
        {
          "name": "upc_",
          "type": "uint256"
        },
        {
          "name": "ownerid",
          "type": "address"
        },
        {
          "name": "manufacturername",
          "type": "string"
        },
        {
          "name": "Latitude",
          "type": "string"
        },
        {
          "name": "Longitude",
          "type": "string"
        },
        {
          "name": "factoryinfo",
          "type": "string"
        },
        {
          "name": "notes",
          "type": "string"
        }
      ],
      "payable": false,
      "stateMutability": "view",
      "type": "function",
      "signature": "0x4fa75b7c"
    }
  ],
  "bytecode": "0x60806040526200001e3362000072640100000000026401000000009004565b6200003833620000d9640100000000026401000000009004565b620000523362000140640100000000026401000000009004565b6200006c33620001a7640100000000026401000000009004565b62000366565b620000936000826200020e640100000000026200412d176401000000009004565b8073ffffffffffffffffffffffffffffffffffffffff167f5a4264410853372bdd7255ebc9624cb523fc039cd6f9f1855165194738125f6360405160405180910390a250565b620000fa6001826200020e640100000000026200412d176401000000009004565b8073ffffffffffffffffffffffffffffffffffffffff167fa58cff07db0adda3ab7a40bd2f18ab57210bf38391a52ffd2e8eee6b8bdec71a60405160405180910390a250565b620001616002826200020e640100000000026200412d176401000000009004565b8073ffffffffffffffffffffffffffffffffffffffff167f561138658ca49a8540dc70dcfe64c9026c1c5b9344642242dd6562970f9c127860405160405180910390a250565b620001c86003826200020e640100000000026200412d176401000000009004565b8073ffffffffffffffffffffffffffffffffffffffff167fddbf200aa634dc3fb81cfd68583dd1040d1c751d335e1d86b631bde3e977fea860405160405180910390a250565b600073ffffffffffffffffffffffffffffffffffffffff168173ffffffffffffffffffffffffffffffffffffffff16141515156200024b57600080fd5b620002668282620002d1640100000000026401000000009004565b1515156200027357600080fd5b60018260000160008373ffffffffffffffffffffffffffffffffffffffff1673ffffffffffffffffffffffffffffffffffffffff16815260200190815260200160002060006101000a81548160ff0219169083151502179055505050565b60008073ffffffffffffffffffffffffffffffffffffffff168273ffffffffffffffffffffffffffffffffffffffff16141515156200030f57600080fd5b8260000160008373ffffffffffffffffffffffffffffffffffffffff1673ffffffffffffffffffffffffffffffffffffffff16815260200190815260200160002060009054906101000a900460ff16905092915050565b61459980620003766000396000f3fe60806040526004361061015f576000357c0100000000000000000000000000000000000000000000000000000000900463ffffffff16806317d4a49114610164578063318c5036146101cd5780633e2d5e2b146105b35780634ab7e29d146106855780634fa75b7c146107575780635ae63247146109f55780635f8a5afa14610a0c578063644241db14610a5d5780636d263ceb14610a7457806370b184da14610ac55780637250e22414610b9757806381a07c3614610be857806382946ee214610bff578063898513e414610c685780638c2891ce14610f1f5780638f0c86fa14610ff15780638f5d97f11461105a5780638f9c79ed1461112c57806395f91fe4146111955780639e1a2f30146111e6578063c09e2693146112b8578063d1c6a24d14611309578063d759283a146113db578063dbdf8b75146114ad578063de07f34e14611576578063e4f4aa2a1461158d578063f3a1230714611844575b600080fd5b34801561017057600080fd5b506101b36004803603602081101561018757600080fd5b81019080803573ffffffffffffffffffffffffffffffffffffffff169060200190929190505050611b14565b604051808215151515815260200191505060405180910390f35b3480156101d957600080fd5b506105b160048036036101008110156101f157600080fd5b8101908080359060200190929190803573ffffffffffffffffffffffffffffffffffffffff1690602001909291908035906020019064010000000081111561023857600080fd5b82018360208201111561024a57600080fd5b8035906020019184600183028401116401000000008311171561026c57600080fd5b91908080601f016020809104026020016040519081016040528093929190818152602001838380828437600081840152601f19601f820116905080830192505050505050509192919290803590602001906401000000008111156102cf57600080fd5b8201836020820111156102e157600080fd5b8035906020019184600183028401116401000000008311171561030357600080fd5b91908080601f016020809104026020016040519081016040528093929190818152602001838380828437600081840152601f19601f8201169050808301925050505050505091929192908035906020019064010000000081111561036657600080fd5b82018360208201111561037857600080fd5b8035906020019184600183028401116401000000008311171561039a57600080fd5b91908080601f016020809104026020016040519081016040528093929190818152602001838380828437600081840152601f19601f820116905080830192505050505050509192919290803590602001906401000000008111156103fd57600080fd5b82018360208201111561040f57600080fd5b8035906020019184600183028401116401000000008311171561043157600080fd5b91908080601f016020809104026020016040519081016040528093929190818152602001838380828437600081840152601f19601f8201169050808301925050505050505091929192908035906020019064010000000081111561049457600080fd5b8201836020820111156104a657600080fd5b803590602001918460018302840111640100000000831117156104c857600080fd5b91908080601f016020809104026020016040519081016040528093929190818152602001838380828437600081840152601f19601f8201169050808301925050505050505091929192908035906020019064010000000081111561052b57600080fd5b82018360208201111561053d57600080fd5b8035906020019184600183028401116401000000008311171561055f57600080fd5b91908080601f016020809104026020016040519081016040528093929190818152602001838380828437600081840152601f19601f820116905080830192505050505050509192919290505050611b28565b005b3480156105bf57600080fd5b50610683600480360360408110156105d657600080fd5b8101908080359060200190929190803590602001906401000000008111156105fd57600080fd5b82018360208201111561060f57600080fd5b8035906020019184600183028401116401000000008311171561063157600080fd5b91908080601f016020809104026020016040519081016040528093929190818152602001838380828437600081840152601f19601f8201169050808301925050505050505091929192905050506120ea565b005b34801561069157600080fd5b50610755600480360360408110156106a857600080fd5b8101908080359060200190929190803590602001906401000000008111156106cf57600080fd5b8201836020820111156106e157600080fd5b8035906020019184600183028401116401000000008311171561070357600080fd5b91908080601f016020809104026020016040519081016040528093929190818152602001838380828437600081840152601f19601f8201169050808301925050505050505091929192905050506122a3565b005b34801561076357600080fd5b506107906004803603602081101561077a57600080fd5b810190808035906020019092919050505061245c565b604051808881526020018773ffffffffffffffffffffffffffffffffffffffff1673ffffffffffffffffffffffffffffffffffffffff168152602001806020018060200180602001806020018060200186810386528b818151815260200191508051906020019080838360005b838110156108185780820151818401526020810190506107fd565b50505050905090810190601f1680156108455780820380516001836020036101000a031916815260200191505b5086810385528a818151815260200191508051906020019080838360005b8381101561087e578082015181840152602081019050610863565b50505050905090810190601f1680156108ab5780820380516001836020036101000a031916815260200191505b50868103845289818151815260200191508051906020019080838360005b838110156108e45780820151818401526020810190506108c9565b50505050905090810190601f1680156109115780820380516001836020036101000a031916815260200191505b50868103835288818151815260200191508051906020019080838360005b8381101561094a57808201518184015260208101905061092f565b50505050905090810190601f1680156109775780820380516001836020036101000a031916815260200191505b50868103825287818151815260200191508051906020019080838360005b838110156109b0578082015181840152602081019050610995565b50505050905090810190601f1680156109dd5780820380516001836020036101000a031916815260200191505b509c5050505050505050505050505060405180910390f35b348015610a0157600080fd5b50610a0a612846565b005b348015610a1857600080fd5b50610a5b60048036036020811015610a2f57600080fd5b81019080803573ffffffffffffffffffffffffffffffffffffffff169060200190929190505050612851565b005b348015610a6957600080fd5b50610a7261285d565b005b348015610a8057600080fd5b50610ac360048036036020811015610a9757600080fd5b81019080803573ffffffffffffffffffffffffffffffffffffffff169060200190929190505050612868565b005b348015610ad157600080fd5b50610b9560048036036040811015610ae857600080fd5b810190808035906020019092919080359060200190640100000000811115610b0f57600080fd5b820183602082011115610b2157600080fd5b80359060200191846001830284011164010000000083111715610b4357600080fd5b91908080601f016020809104026020016040519081016040528093929190818152602001838380828437600081840152601f19601f820116905080830192505050505050509192919290505050612888565b005b348015610ba357600080fd5b50610be660048036036020811015610bba57600080fd5b81019080803573ffffffffffffffffffffffffffffffffffffffff169060200190929190505050612a41565b005b348015610bf457600080fd5b50610bfd612a61565b005b348015610c0b57600080fd5b50610c4e60048036036020811015610c2257600080fd5b81019080803573ffffffffffffffffffffffffffffffffffffffff169060200190929190505050612a6c565b604051808215151515815260200191505060405180910390f35b348015610c7457600080fd5b50610f1d600480360360c0811015610c8b57600080fd5b810190808035906020019092919080359060200190640100000000811115610cb257600080fd5b820183602082011115610cc457600080fd5b80359060200191846001830284011164010000000083111715610ce657600080fd5b91908080601f016020809104026020016040519081016040528093929190818152602001838380828437600081840152601f19601f82011690508083019250505050505050919291929080359060200190640100000000811115610d4957600080fd5b820183602082011115610d5b57600080fd5b80359060200191846001830284011164010000000083111715610d7d57600080fd5b91908080601f016020809104026020016040519081016040528093929190818152602001838380828437600081840152601f19601f82011690508083019250505050505050919291929080359060200190640100000000811115610de057600080fd5b820183602082011115610df257600080fd5b80359060200191846001830284011164010000000083111715610e1457600080fd5b91908080601f016020809104026020016040519081016040528093929190818152602001838380828437600081840152601f19601f820116905080830192505050505050509192919290803573ffffffffffffffffffffffffffffffffffffffff16906020019092919080359060200190640100000000811115610e9757600080fd5b820183602082011115610ea957600080fd5b80359060200191846001830284011164010000000083111715610ecb57600080fd5b91908080601f016020809104026020016040519081016040528093929190818152602001838380828437600081840152601f19601f820116905080830192505050505050509192919290505050612a80565b005b348015610f2b57600080fd5b50610fef60048036036040811015610f4257600080fd5b810190808035906020019092919080359060200190640100000000811115610f6957600080fd5b820183602082011115610f7b57600080fd5b80359060200191846001830284011164010000000083111715610f9d57600080fd5b91908080601f016020809104026020016040519081016040528093929190818152602001838380828437600081840152601f19601f820116905080830192505050505050509192919290505050612d13565b005b348015610ffd57600080fd5b506110406004803603602081101561101457600080fd5b81019080803573ffffffffffffffffffffffffffffffffffffffff169060200190929190505050612ecc565b604051808215151515815260200191505060405180910390f35b34801561106657600080fd5b5061112a6004803603604081101561107d57600080fd5b8101908080359060200190929190803590602001906401000000008111156110a457600080fd5b8201836020820111156110b657600080fd5b803590602001918460018302840111640100000000831117156110d857600080fd5b91908080601f016020809104026020016040519081016040528093929190818152602001838380828437600081840152601f19601f820116905080830192505050505050509192919290505050612ee0565b005b34801561113857600080fd5b5061117b6004803603602081101561114f57600080fd5b81019080803573ffffffffffffffffffffffffffffffffffffffff169060200190929190505050613099565b604051808215151515815260200191505060405180910390f35b3480156111a157600080fd5b506111e4600480360360208110156111b857600080fd5b81019080803573ffffffffffffffffffffffffffffffffffffffff1690602001909291905050506130ad565b005b3480156111f257600080fd5b506112b66004803603604081101561120957600080fd5b81019080803590602001909291908035906020019064010000000081111561123057600080fd5b82018360208201111561124257600080fd5b8035906020019184600183028401116401000000008311171561126457600080fd5b91908080601f016020809104026020016040519081016040528093929190818152602001838380828437600081840152601f19601f8201169050808301925050505050505091929192905050506130fe565b005b3480156112c457600080fd5b50611307600480360360208110156112db57600080fd5b81019080803573ffffffffffffffffffffffffffffffffffffffff1690602001909291905050506132b7565b005b34801561131557600080fd5b506113d96004803603604081101561132c57600080fd5b81019080803590602001909291908035906020019064010000000081111561135357600080fd5b82018360208201111561136557600080fd5b8035906020019184600183028401116401000000008311171561138757600080fd5b91908080601f016020809104026020016040519081016040528093929190818152602001838380828437600081840152601f19601f8201169050808301925050505050505091929192905050506132d7565b005b3480156113e757600080fd5b506114ab600480360360408110156113fe57600080fd5b81019080803590602001909291908035906020019064010000000081111561142557600080fd5b82018360208201111561143757600080fd5b8035906020019184600183028401116401000000008311171561145957600080fd5b91908080601f016020809104026020016040519081016040528093929190818152602001838380828437600081840152601f19601f820116905080830192505050505050509192919290505050613490565b005b3480156114b957600080fd5b506114e6600480360360208110156114d057600080fd5b8101908080359060200190929190505050613648565b6040518083600a8111156114f657fe5b60ff16815260200180602001828103825283818151815260200191508051906020019080838360005b8381101561153a57808201518184015260208101905061151f565b50505050905090810190601f1680156115675780820380516001836020036101000a031916815260200191505b50935050505060405180910390f35b34801561158257600080fd5b5061158b61373c565b005b34801561159957600080fd5b50611842600480360360c08110156115b057600080fd5b8101908080359060200190929190803590602001906401000000008111156115d757600080fd5b8201836020820111156115e957600080fd5b8035906020019184600183028401116401000000008311171561160b57600080fd5b91908080601f016020809104026020016040519081016040528093929190818152602001838380828437600081840152601f19601f8201169050808301925050505050505091929192908035906020019064010000000081111561166e57600080fd5b82018360208201111561168057600080fd5b803590602001918460018302840111640100000000831117156116a257600080fd5b91908080601f016020809104026020016040519081016040528093929190818152602001838380828437600081840152601f19601f8201169050808301925050505050505091929192908035906020019064010000000081111561170557600080fd5b82018360208201111561171757600080fd5b8035906020019184600183028401116401000000008311171561173957600080fd5b91908080601f016020809104026020016040519081016040528093929190818152602001838380828437600081840152601f19601f820116905080830192505050505050509192919290803573ffffffffffffffffffffffffffffffffffffffff169060200190929190803590602001906401000000008111156117bc57600080fd5b8201836020820111156117ce57600080fd5b803590602001918460018302840111640100000000831117156117f057600080fd5b91908080601f016020809104026020016040519081016040528093929190818152602001838380828437600081840152601f19601f820116905080830192505050505050509192919290505050613747565b005b34801561185057600080fd5b5061187d6004803603602081101561186757600080fd5b81019080803590602001909291905050506139da565b6040518080602001806020018060200180602001806020018060200187810387528d818151815260200191508051906020019080838360005b838110156118d15780820151818401526020810190506118b6565b50505050905090810190601f1680156118fe5780820380516001836020036101000a031916815260200191505b5087810386528c818151815260200191508051906020019080838360005b8381101561193757808201518184015260208101905061191c565b50505050905090810190601f1680156119645780820380516001836020036101000a031916815260200191505b5087810385528b818151815260200191508051906020019080838360005b8381101561199d578082015181840152602081019050611982565b50505050905090810190601f1680156119ca5780820380516001836020036101000a031916815260200191505b5087810384528a818151815260200191508051906020019080838360005b83811015611a035780820151818401526020810190506119e8565b50505050905090810190601f168015611a305780820380516001836020036101000a031916815260200191505b50878103835289818151815260200191508051906020019080838360005b83811015611a69578082015181840152602081019050611a4e565b50505050905090810190601f168015611a965780820380516001836020036101000a031916815260200191505b50878103825288818151815260200191508051906020019080838360005b83811015611acf578082015181840152602081019050611ab4565b50505050905090810190601f168015611afc5780820380516001836020036101000a031916815260200191505b509c5050505050505050505050505060405180910390f35b6000611b21600283613e38565b9050919050565b611b3133611b14565b1515611b3c57600080fd5b611b4461432e565b6102a06040519081016040528060016008540181526020018a81526020018973ffffffffffffffffffffffffffffffffffffffff1681526020018973ffffffffffffffffffffffffffffffffffffffff1681526020018881526020018781526020018681526020018581526020018a600854018152602001848152602001600081526020016000600a811115611bd657fe5b8152602001600073ffffffffffffffffffffffffffffffffffffffff168152602001600073ffffffffffffffffffffffffffffffffffffffff168152602001600073ffffffffffffffffffffffffffffffffffffffff1681526020016040805190810160405280600181526020017f200000000000000000000000000000000000000000000000000000000000000081525081526020016040805190810160405280600181526020017f200000000000000000000000000000000000000000000000000000000000000081525081526020016040805190810160405280600181526020017f200000000000000000000000000000000000000000000000000000000000000081525081526020016040805190810160405280600181526020017f200000000000000000000000000000000000000000000000000000000000000081525081526020016040805190810160405280600181526020017f200000000000000000000000000000000000000000000000000000000000000081525081526020016040805190810160405280600181526020017f2000000000000000000000000000000000000000000000000000000000000000815250815250905080600460008b8152602001908152602001600020600082015181600001556020820151816001015560408201518160020160006101000a81548173ffffffffffffffffffffffffffffffffffffffff021916908373ffffffffffffffffffffffffffffffffffffffff16021790555060608201518160030160006101000a81548173ffffffffffffffffffffffffffffffffffffffff021916908373ffffffffffffffffffffffffffffffffffffffff1602179055506080820151816004019080519060200190611e66929190614448565b5060a0820151816005019080519060200190611e83929190614448565b5060c0820151816006019080519060200190611ea0929190614448565b5060e0820151816007019080519060200190611ebd929190614448565b506101008201518160080155610120820151816009019080519060200190611ee6929190614448565b5061014082015181600a015561016082015181600b0160006101000a81548160ff0219169083600a811115611f1757fe5b021790555061018082015181600b0160016101000a81548173ffffffffffffffffffffffffffffffffffffffff021916908373ffffffffffffffffffffffffffffffffffffffff1602179055506101a082015181600c0160006101000a81548173ffffffffffffffffffffffffffffffffffffffff021916908373ffffffffffffffffffffffffffffffffffffffff1602179055506101c082015181600d0160006101000a81548173ffffffffffffffffffffffffffffffffffffffff021916908373ffffffffffffffffffffffffffffffffffffffff1602179055506101e082015181600e019080519060200190612011929190614448565b5061020082015181600f01908051906020019061202f929190614448565b5061022082015181601001908051906020019061204d929190614448565b5061024082015181601101908051906020019061206b929190614448565b50610260820151816012019080519060200190612089929190614448565b506102808201518160130190805190602001906120a7929190614448565b5090505081600560008b815260200190815260200160002090805190602001906120d29291906144c8565b50600160085401600881905550505050505050505050565b816009600a8111156120f857fe5b60046000838152602001908152602001600020600b0160009054906101000a900460ff16600a81111561212757fe5b14151561213357600080fd5b61213c33612a6c565b151561214757600080fd5b600a60046000858152602001908152602001600020600b0160006101000a81548160ff0219169083600a81111561217a57fe5b02179055506060600560008581526020019081526020016000208054600181600116156101000203166002900480601f0160208091040260200160405190810160405280929190818152602001828054600181600116156101000203166002900480156122285780601f106121fd57610100808354040283529160200191612228565b820191906000526020600020905b81548152906001019060200180831161220b57829003601f168201915b50505050509050606061223b8285613ecc565b9050806005600087815260200190815260200160002090805190602001906122649291906144c8565b507fb4cdacdf11ca5dc03f3ddd7b53e92ed9d205e79bf7c06a3f4b514b084a17bb5d856040518082815260200191505060405180910390a15050505050565b816002600a8111156122b157fe5b60046000838152602001908152602001600020600b0160009054906101000a900460ff16600a8111156122e057fe5b1415156122ec57600080fd5b6122f533611b14565b151561230057600080fd5b600360046000858152602001908152602001600020600b0160006101000a81548160ff0219169083600a81111561233357fe5b02179055506060600560008581526020019081526020016000208054600181600116156101000203166002900480601f0160208091040260200160405190810160405280929190818152602001828054600181600116156101000203166002900480156123e15780601f106123b6576101008083540402835291602001916123e1565b820191906000526020600020905b8154815290600101906020018083116123c457829003601f168201915b5050505050905060606123f48285613ecc565b90508060056000878152602001908152602001600020908051906020019061241d9291906144c8565b507fbf196506b2f00aa0ddfe8eb41c3c9ccfddcc58a5142960f08f9131afa7908496856040518082815260200191505060405180910390a15050505050565b600080606080606080606061247033613099565b151561247b57600080fd5b87600460008a815260200190815260200160002060020160009054906101000a900473ffffffffffffffffffffffffffffffffffffffff16600460008b8152602001908152602001600020600401600460008c8152602001908152602001600020600601600460008d8152602001908152602001600020600701600460008e8152602001908152602001600020600501600460008f8152602001908152602001600020600901848054600181600116156101000203166002900480601f0160208091040260200160405190810160405280929190818152602001828054600181600116156101000203166002900480156125b65780601f1061258b576101008083540402835291602001916125b6565b820191906000526020600020905b81548152906001019060200180831161259957829003601f168201915b50505050509450838054600181600116156101000203166002900480601f0160208091040260200160405190810160405280929190818152602001828054600181600116156101000203166002900480156126525780601f1061262757610100808354040283529160200191612652565b820191906000526020600020905b81548152906001019060200180831161263557829003601f168201915b50505050509350828054600181600116156101000203166002900480601f0160208091040260200160405190810160405280929190818152602001828054600181600116156101000203166002900480156126ee5780601f106126c3576101008083540402835291602001916126ee565b820191906000526020600020905b8154815290600101906020018083116126d157829003601f168201915b50505050509250818054600181600116156101000203166002900480601f01602080910402602001604051908101604052809291908181526020018280546001816001161561010002031660029004801561278a5780601f1061275f5761010080835404028352916020019161278a565b820191906000526020600020905b81548152906001019060200180831161276d57829003601f168201915b50505050509150808054600181600116156101000203166002900480601f0160208091040260200160405190810160405280929190818152602001828054600181600116156101000203166002900480156128265780601f106127fb57610100808354040283529160200191612826565b820191906000526020600020905b81548152906001019060200180831161280957829003601f168201915b505050505090509650965096509650965096509650919395979092949650565b61284f33613f98565b565b61285a816130ad565b50565b61286633613fe9565b565b61287133613099565b151561287c57600080fd5b6128858161403a565b50565b816000600a81111561289657fe5b60046000838152602001908152602001600020600b0160009054906101000a900460ff16600a8111156128c557fe5b1415156128d157600080fd5b6128da33611b14565b15156128e557600080fd5b600160046000858152602001908152602001600020600b0160006101000a81548160ff0219169083600a81111561291857fe5b02179055506060600560008581526020019081526020016000208054600181600116156101000203166002900480601f0160208091040260200160405190810160405280929190818152602001828054600181600116156101000203166002900480156129c65780601f1061299b576101008083540402835291602001916129c6565b820191906000526020600020905b8154815290600101906020018083116129a957829003601f168201915b5050505050905060606129d98285613ecc565b905080600560008781526020019081526020016000209080519060200190612a029291906144c8565b507f9b3b66e2380b690bae22c73ef1428fb0c91e72fe14a4b6defa13035214187aff856040518082815260200191505060405180910390a15050505050565b612a4a33612ecc565b1515612a5557600080fd5b612a5e8161408b565b50565b612a6a336140dc565b565b6000612a79600083613e38565b9050919050565b856007600a811115612a8e57fe5b60046000838152602001908152602001600020600b0160009054906101000a900460ff16600a811115612abd57fe5b141515612ac957600080fd5b612ad233612a6c565b1515612add57600080fd5b600860046000898152602001908152602001600020600b0160006101000a81548160ff0219169083600a811115612b1057fe5b02179055508560046000898152602001908152602001600020600f019080519060200190612b3f9291906144c8565b5084600460008981526020019081526020016000206013019080519060200190612b6a9291906144c8565b5083600460008981526020019081526020016000206012019080519060200190612b959291906144c8565b508260046000898152602001908152602001600020600c0160006101000a81548173ffffffffffffffffffffffffffffffffffffffff021916908373ffffffffffffffffffffffffffffffffffffffff1602179055506060600560008981526020019081526020016000208054600181600116156101000203166002900480601f016020809104026020016040519081016040528092919081815260200182805460018160011615610100020316600290048015612c945780601f10612c6957610100808354040283529160200191612c94565b820191906000526020600020905b815481529060010190602001808311612c7757829003601f168201915b505050505090506060612ca78285613ecc565b905080600560008b81526020019081526020016000209080519060200190612cd09291906144c8565b507f73d6827c08a640a6959426f0ee26c7bb964902de8446b4ca6bca213740bf262f896040518082815260200191505060405180910390a1505050505050505050565b816005600a811115612d2157fe5b60046000838152602001908152602001600020600b0160009054906101000a900460ff16600a811115612d5057fe5b141515612d5c57600080fd5b612d6533612ecc565b1515612d7057600080fd5b600660046000858152602001908152602001600020600b0160006101000a81548160ff0219169083600a811115612da357fe5b02179055506060600560008581526020019081526020016000208054600181600116156101000203166002900480601f016020809104026020016040519081016040528092919081815260200182805460018160011615610100020316600290048015612e515780601f10612e2657610100808354040283529160200191612e51565b820191906000526020600020905b815481529060010190602001808311612e3457829003601f168201915b505050505090506060612e648285613ecc565b905080600560008781526020019081526020016000209080519060200190612e8d9291906144c8565b507fd27cf9eb13fb50222e8ff27788988edb150171b58e49b33f165418d0eb0253eb856040518082815260200191505060405180910390a15050505050565b6000612ed9600383613e38565b9050919050565b816006600a811115612eee57fe5b60046000838152602001908152602001600020600b0160009054906101000a900460ff16600a811115612f1d57fe5b141515612f2957600080fd5b612f3233612ecc565b1515612f3d57600080fd5b600760046000858152602001908152602001600020600b0160006101000a81548160ff0219169083600a811115612f7057fe5b02179055506060600560008581526020019081526020016000208054600181600116156101000203166002900480601f01602080910402602001604051908101604052809291908181526020018280546001816001161561010002031660029004801561301e5780601f10612ff35761010080835404028352916020019161301e565b820191906000526020600020905b81548152906001019060200180831161300157829003601f168201915b5050505050905060606130318285613ecc565b90508060056000878152602001908152602001600020908051906020019061305a9291906144c8565b507f94d498cff24e232da4c3ed3ce9547d37faee065ef6fe670586828a6e3ccf8a53856040518082815260200191505060405180910390a15050505050565b60006130a6600183613e38565b9050919050565b6130b860028261412d565b8073ffffffffffffffffffffffffffffffffffffffff167f561138658ca49a8540dc70dcfe64c9026c1c5b9344642242dd6562970f9c127860405160405180910390a250565b816001600a81111561310c57fe5b60046000838152602001908152602001600020600b0160009054906101000a900460ff16600a81111561313b57fe5b14151561314757600080fd5b61315033611b14565b151561315b57600080fd5b600260046000858152602001908152602001600020600b0160006101000a81548160ff0219169083600a81111561318e57fe5b02179055506060600560008581526020019081526020016000208054600181600116156101000203166002900480601f01602080910402602001604051908101604052809291908181526020018280546001816001161561010002031660029004801561323c5780601f106132115761010080835404028352916020019161323c565b820191906000526020600020905b81548152906001019060200180831161321f57829003601f168201915b50505050509050606061324f8285613ecc565b9050806005600087815260200190815260200160002090805190602001906132789291906144c8565b507fa96ae0fc3224ebd79eebfe54bd130cc9cb94416cddd1f2386115e00b72532468856040518082815260200191505060405180910390a15050505050565b6132c033612a6c565b15156132cb57600080fd5b6132d4816141dd565b50565b816008600a8111156132e557fe5b60046000838152602001908152602001600020600b0160009054906101000a900460ff16600a81111561331457fe5b14151561332057600080fd5b61332933612a6c565b151561333457600080fd5b600960046000858152602001908152602001600020600b0160006101000a81548160ff0219169083600a81111561336757fe5b02179055506060600560008581526020019081526020016000208054600181600116156101000203166002900480601f0160208091040260200160405190810160405280929190818152602001828054600181600116156101000203166002900480156134155780601f106133ea57610100808354040283529160200191613415565b820191906000526020600020905b8154815290600101906020018083116133f857829003601f168201915b5050505050905060606134288285613ecc565b9050806005600087815260200190815260200160002090805190602001906134519291906144c8565b507f616dfa0fd1e8003e293d0d707897c48415f6acadc960e3a8239f70841bc98c5b856040518082815260200191505060405180910390a15050505050565b816003600a81111561349e57fe5b60046000838152602001908152602001600020600b0160009054906101000a900460ff16600a8111156134cd57fe5b1415156134d957600080fd5b6134e233611b14565b15156134ed57600080fd5b6004806000858152602001908152602001600020600b0160006101000a81548160ff0219169083600a81111561351f57fe5b02179055506060600560008581526020019081526020016000208054600181600116156101000203166002900480601f0160208091040260200160405190810160405280929190818152602001828054600181600116156101000203166002900480156135cd5780601f106135a2576101008083540402835291602001916135cd565b820191906000526020600020905b8154815290600101906020018083116135b057829003601f168201915b5050505050905060606135e08285613ecc565b9050806005600087815260200190815260200160002090805190602001906136099291906144c8565b507ff5fba10cdde0743e9e1a1208d61a8f3bea78c1dc743844aef4501affa3efd151856040518082815260200191505060405180910390a15050505050565b6000606061365533613099565b151561366057600080fd5b60046000848152602001908152602001600020600b0160009054906101000a900460ff1660056000858152602001908152602001600020808054600181600116156101000203166002900480601f01602080910402602001604051908101604052809291908181526020018280546001816001161561010002031660029004801561372c5780601f106137015761010080835404028352916020019161372c565b820191906000526020600020905b81548152906001019060200180831161370f57829003601f168201915b5050505050905091509150915091565b6137453361422e565b565b856004600a81111561375557fe5b60046000838152602001908152602001600020600b0160009054906101000a900460ff16600a81111561378457fe5b14151561379057600080fd5b61379933612ecc565b15156137a457600080fd5b600560046000898152602001908152602001600020600b0160006101000a81548160ff0219169083600a8111156137d757fe5b02179055508560046000898152602001908152602001600020600e0190805190602001906138069291906144c8565b50846004600089815260200190815260200160002060110190805190602001906138319291906144c8565b508360046000898152602001908152602001600020601001908051906020019061385c9291906144c8565b508260046000898152602001908152602001600020600b0160016101000a81548173ffffffffffffffffffffffffffffffffffffffff021916908373ffffffffffffffffffffffffffffffffffffffff1602179055506060600560008981526020019081526020016000208054600181600116156101000203166002900480601f01602080910402602001604051908101604052809291908181526020018280546001816001161561010002031660029004801561395b5780601f106139305761010080835404028352916020019161395b565b820191906000526020600020905b81548152906001019060200180831161393e57829003601f168201915b50505050509050606061396e8285613ecc565b905080600560008b815260200190815260200160002090805190602001906139979291906144c8565b507f1e93508ab5b39bf9f45afa406d4ce6117c21b48d5b79372f9e599ce66210cda2896040518082815260200191505060405180910390a1505050505050505050565b6060806060806060806139ec33613099565b15156139f757600080fd5b6004600088815260200190815260200160002060060160046000898152602001908152602001600020600701600460008a8152602001908152602001600020601001600460008b8152602001908152602001600020601101600460008c8152602001908152602001600020601201600460008d8152602001908152602001600020601301858054600181600116156101000203166002900480601f016020809104026020016040519081016040528092919081815260200182805460018160011615610100020316600290048015613b105780601f10613ae557610100808354040283529160200191613b10565b820191906000526020600020905b815481529060010190602001808311613af357829003601f168201915b50505050509550848054600181600116156101000203166002900480601f016020809104026020016040519081016040528092919081815260200182805460018160011615610100020316600290048015613bac5780601f10613b8157610100808354040283529160200191613bac565b820191906000526020600020905b815481529060010190602001808311613b8f57829003601f168201915b50505050509450838054600181600116156101000203166002900480601f016020809104026020016040519081016040528092919081815260200182805460018160011615610100020316600290048015613c485780601f10613c1d57610100808354040283529160200191613c48565b820191906000526020600020905b815481529060010190602001808311613c2b57829003601f168201915b50505050509350828054600181600116156101000203166002900480601f016020809104026020016040519081016040528092919081815260200182805460018160011615610100020316600290048015613ce45780601f10613cb957610100808354040283529160200191613ce4565b820191906000526020600020905b815481529060010190602001808311613cc757829003601f168201915b50505050509250818054600181600116156101000203166002900480601f016020809104026020016040519081016040528092919081815260200182805460018160011615610100020316600290048015613d805780601f10613d5557610100808354040283529160200191613d80565b820191906000526020600020905b815481529060010190602001808311613d6357829003601f168201915b50505050509150808054600181600116156101000203166002900480601f016020809104026020016040519081016040528092919081815260200182805460018160011615610100020316600290048015613e1c5780601f10613df157610100808354040283529160200191613e1c565b820191906000526020600020905b815481529060010190602001808311613dff57829003601f168201915b5050505050905095509550955095509550955091939550919395565b60008073ffffffffffffffffffffffffffffffffffffffff168273ffffffffffffffffffffffffffffffffffffffff1614151515613e7557600080fd5b8260000160008373ffffffffffffffffffffffffffffffffffffffff1673ffffffffffffffffffffffffffffffffffffffff16815260200190815260200160002060009054906101000a900460ff16905092915050565b606082826040516020018083805190602001908083835b602083101515613f085780518252602082019150602081019050602083039250613ee3565b6001836020036101000a03801982511681845116808217855250505050505090500182805190602001908083835b602083101515613f5b5780518252602082019150602081019050602083039250613f36565b6001836020036101000a03801982511681845116808217855250505050505090500192505050604051602081830303815290604052905092915050565b613fa360008261427f565b8073ffffffffffffffffffffffffffffffffffffffff167f9d17ec7e57a5118cf27abf33370bcc6f007c27a9706ab4cc473a76fe552447d260405160405180910390a250565b613ff460038261427f565b8073ffffffffffffffffffffffffffffffffffffffff167f126174f6cf49c81cdb4a9214c6b8f037bef55b4ec31e4fc776cea2a1c8a88d5960405160405180910390a250565b61404560018261412d565b8073ffffffffffffffffffffffffffffffffffffffff167fa58cff07db0adda3ab7a40bd2f18ab57210bf38391a52ffd2e8eee6b8bdec71a60405160405180910390a250565b61409660038261412d565b8073ffffffffffffffffffffffffffffffffffffffff167fddbf200aa634dc3fb81cfd68583dd1040d1c751d335e1d86b631bde3e977fea860405160405180910390a250565b6140e760018261427f565b8073ffffffffffffffffffffffffffffffffffffffff167f053a4badf166f01c4b02f6bcb71d2d67734470d0866282e291e73001aa25c76960405160405180910390a250565b600073ffffffffffffffffffffffffffffffffffffffff168173ffffffffffffffffffffffffffffffffffffffff161415151561416957600080fd5b6141738282613e38565b15151561417f57600080fd5b60018260000160008373ffffffffffffffffffffffffffffffffffffffff1673ffffffffffffffffffffffffffffffffffffffff16815260200190815260200160002060006101000a81548160ff0219169083151502179055505050565b6141e860008261412d565b8073ffffffffffffffffffffffffffffffffffffffff167f5a4264410853372bdd7255ebc9624cb523fc039cd6f9f1855165194738125f6360405160405180910390a250565b61423960028261427f565b8073ffffffffffffffffffffffffffffffffffffffff167f2fed5abf6a80d6dfe30b4895481b2fc5d7dce5f8f7b931832f4a2947d5040c7f60405160405180910390a250565b600073ffffffffffffffffffffffffffffffffffffffff168173ffffffffffffffffffffffffffffffffffffffff16141515156142bb57600080fd5b6142c58282613e38565b15156142d057600080fd5b60008260000160008373ffffffffffffffffffffffffffffffffffffffff1673ffffffffffffffffffffffffffffffffffffffff16815260200190815260200160002060006101000a81548160ff0219169083151502179055505050565b6102a0604051908101604052806000815260200160008152602001600073ffffffffffffffffffffffffffffffffffffffff168152602001600073ffffffffffffffffffffffffffffffffffffffff168152602001606081526020016060815260200160608152602001606081526020016000815260200160608152602001600081526020016000600a8111156143c157fe5b8152602001600073ffffffffffffffffffffffffffffffffffffffff168152602001600073ffffffffffffffffffffffffffffffffffffffff168152602001600073ffffffffffffffffffffffffffffffffffffffff1681526020016060815260200160608152602001606081526020016060815260200160608152602001606081525090565b828054600181600116156101000203166002900490600052602060002090601f016020900481019282601f1061448957805160ff19168380011785556144b7565b828001600101855582156144b7579182015b828111156144b657825182559160200191906001019061449b565b5b5090506144c49190614548565b5090565b828054600181600116156101000203166002900490600052602060002090601f016020900481019282601f1061450957805160ff1916838001178555614537565b82800160010185558215614537579182015b8281111561453657825182559160200191906001019061451b565b5b5090506145449190614548565b5090565b61456a91905b8082111561456657600081600090555060010161454e565b5090565b9056fea165627a7a7230582018c9dcb737a73a6d7e6fec9751d081a5f91a84b565cea9049bf4dffdfbeafccb0029",
  "source": "// SPDX-License-Identifier: MIT\r\npragma solidity >=0.4.21 <0.7.0;\r\nimport \"./Roles.sol\";\r\nimport \"./DistributorRole.sol\";\r\nimport \"./ManufacturerRole.sol\";\r\nimport \"./PatientRole.sol\";\r\nimport \"./PharmacistRole.sol\";\r\n\r\n\r\n\r\ncontract SimpleStorage is PharmacistRole, PatientRole,ManufacturerRole , DistributorRole  {\r\n\r\n  //debugging functions\r\n\r\n  \r\n\r\n\r\n  //basic functions\r\n\r\n\r\n\r\n\r\n    function append(string memory a, string memory b) internal pure returns (string memory s) {\r\n\r\n    return string(abi.encodePacked(a, b));\r\n\r\n}\r\n\r\n\r\n\r\n\r\n\r\n  \r\n\r\n\r\n  \r\n  mapping (uint => Medicine) medicines;\r\n  mapping (uint => string ) medicinehistory ; \r\n\r\n  address owner;\r\n\r\n  // Define a variable called 'upc' for Universal Product Code (UPC)\r\n  uint  upc;\r\n\r\n  // Define a variable called 'sku' for Stock Keeping Unit (SKU)\r\n  uint  sku;\r\n\r\n  //manufacturer events\r\n  event Made(uint upc);\r\n  event Packed(uint upc);\r\n  event ForSale(uint upc);\r\n  event Soldtodistributor(uint upc);\r\n  event shippedbymanufacturer(uint upc);\r\n  //distributor events\r\n  event recievedDistributor(uint upc);\r\n  event soldtoPharma(uint upc);\r\n  event shippedtoPharma(uint upc);\r\n  //pharma events\r\n  event recievedpharma(uint upc);\r\n  event soldtopatient(uint upc);\r\n  event shippedtopatient(uint upc);\r\n  //Patientt event \r\n  event Purchased(uint upc);\r\n\r\n    // Define enum 'State' with the following values:\r\n  enum State \r\n  { \r\n    //manufacturer states\r\n    Made,       // 0\r\n    Packed,     // 1\r\n    ForSale,    // 2\r\n    Soldtodistributor, //3\r\n    shippedbymanufacturer,//4\r\n    //distributor states\r\n    RecievedDistributor, //5\r\n    SoldtoPharma, //6\r\n    ShippedtoPharma,  //7\r\n    //Pharmacist\r\n    RecievedPharma, //8\r\n    SoldtoPatient , //9\r\n    ShippedtoPatient //10\r\n\r\n\r\n\r\n  }\r\n\r\n   struct Medicine {\r\n    uint    sku;  // Stock Keeping Unit (SKU)\r\n    uint    upc; // Universal Product Code (UPC), generated by the Manufacturer, goes on the package, can be verified by the Patient\r\n    address ownerID;  // Metamask-Ethereum address of the current owner as the medicine moves through 8 stages\r\n    address originManufacturerID; // Metamask-Ethereum address of the Manufacturer\r\n    string  originFactoryName; // Manufacturer Name\r\n    string  originFactoryInformation;  // Manufacturer Information\r\n    string  originFactoryLatitude; // Factory Latitude\r\n    string  originFactoryLongitude;  // Factory Longitude\r\n    uint    medicineID;  // Product ID potentially a combination of upc + sku\r\n    string  medicineNotes; // Product Notes\r\n    uint    medicinePrice; // Product Price\r\n    State   medicineState;  // Product State as represented in the enum above \r\n    address distributorID;  // Metamask-Ethereum address of the Distributor\r\n    address pharmacistID; // Metamask-Ethereum address of the Pharmacist\r\n    address patientID; // Metamask-Ethereum address of the Patient\r\n    string DistName;\r\n    string PharamaName;\r\n    string  DistLatitude; // Factory Latitude\r\n    string  DistLongitude;  // Factory Longitude\r\n    string  PharmaLatitude; // Factory Latitude\r\n    string  PharmaLongitude;  // Factory Longitude\r\n  }\r\n\r\n  //modifiers for previous checking state\r\n  // Define a modifier that checks if an medicine.state of a upc is Made\r\n  modifier made(uint _upc) {\r\n    require(medicines[_upc].medicineState == State.Made);\r\n    _;\r\n  }\r\n  modifier packed(uint _upc) {\r\n    require(medicines[_upc].medicineState == State.Packed);\r\n    _;\r\n  }\r\n  modifier fsale(uint _upc) {\r\n    require(medicines[_upc].medicineState == State.ForSale);\r\n    _;\r\n  }\r\n  modifier soldtod(uint _upc) {\r\n    require(medicines[_upc].medicineState == State.Soldtodistributor);\r\n    _;\r\n  }\r\n  modifier shippedbym(uint _upc) {\r\n    require(medicines[_upc].medicineState == State.shippedbymanufacturer);\r\n    _;\r\n  }\r\n  modifier recivedD(uint _upc) {\r\n    require(medicines[_upc].medicineState == State.RecievedDistributor);\r\n    _;\r\n  }\r\n  modifier soldtoph(uint _upc) {\r\n    require(medicines[_upc].medicineState == State.SoldtoPharma);\r\n    _;\r\n  }\r\n  modifier shippedtoph(uint _upc) {\r\n    require(medicines[_upc].medicineState == State.ShippedtoPharma);\r\n    _;\r\n  }\r\n  modifier recivedPh(uint _upc) {\r\n    require(medicines[_upc].medicineState == State.RecievedPharma);\r\n    _;\r\n  }\r\n  modifier soldtop(uint _upc) {\r\n    require(medicines[_upc].medicineState == State.SoldtoPatient);\r\n    _;\r\n  }\r\n  modifier shippedtop(uint _upc) {\r\n    require(medicines[_upc].medicineState == State.ShippedtoPatient);\r\n    _;\r\n  }\r\n\r\n\r\n\r\n\r\n  function makeMedicine(uint _upc, address _originManufacturerID, string memory _originFactoryName, string memory _originFactoryInformation, string  memory _originFactoryLatitude, string  memory _originFactoryLongitude, string  memory _medicineNotes, string memory _history) public  onlyManufacturer {\r\n    // Add the new medicine as part of medicines\r\n    Medicine memory temp_medicine = Medicine({\r\n      sku:sku + 1,\r\n      upc:_upc,\r\n      ownerID:_originManufacturerID,\r\n      originManufacturerID:_originManufacturerID,\r\n      originFactoryName:_originFactoryName,\r\n      originFactoryInformation:_originFactoryInformation,\r\n      originFactoryLatitude:_originFactoryLatitude,\r\n      originFactoryLongitude:_originFactoryLongitude,\r\n      medicineID:sku+_upc,\r\n      medicineNotes:_medicineNotes,\r\n      medicineState:State.Made,\r\n      medicinePrice:0,\r\n      distributorID:address(0),\r\n      pharmacistID:address(0),\r\n      patientID:address(0),\r\n      DistName: \" \",\r\n      PharamaName :\" \",\r\n      DistLongitude : \" \",\r\n      DistLatitude : \" \",\r\n      PharmaLatitude : \" \",\r\n      PharmaLongitude  : \" \"\r\n\r\n      });\r\n\r\n\r\n    //string storage initial_history=\"This med is made by date will be passed by frontend\" ;\r\n    medicines[_upc] = temp_medicine;\r\n    medicinehistory[_upc]  =_history;\r\n   // Increment sku\r\n    sku = sku + 1;\r\n    // Emit the appropriate event\r\n\r\n     \r\n  }\r\n  // function makeMedicine(uint _upc,uint _price ,string memory _name) public {\r\n  //     Medicine memory temp_medicine = Medicine({\r\n  //         upc : _upc,\r\n  //         price : _price,\r\n  //         name : _name\r\n  //     });\r\n  //     medicines[_upc] = temp_medicine;\r\n\r\n  // }\r\n\r\n  //manufacturer sub events\r\n\r\n  function packMedicine(uint _upc,string memory _history) public made(_upc) onlyManufacturer {\r\n  // // Call modifier to check if upc has passed previous supply chain stage\r\n  // Made(_upc);\r\n  // Call modifier to verify caller of this function\r\n  \r\n    // Update the appropriate fields\r\n    medicines[_upc].medicineState = State.Packed;\r\n    // string memory prevhis = medicinehistory[_upc];\r\n    //string  memory t1= concatenate(prevhis,_history);\r\n     string memory prevhis = medicinehistory[_upc];\r\n     string memory temp =  append(prevhis,_history);\r\n     medicinehistory[_upc]= temp;\r\n\r\n\r\n\r\n   // string memory history = medicinehistory[_upc];\r\n    //history = history + \" packed by manufacturer on date____\";\r\n    //medicinehistory[_upc] = history;\r\n    // Emit the appropriate event\r\n    emit Packed(_upc);\r\n  }\r\n\r\n   function forSale_bymanuf(uint _upc,string memory _history) public  packed(_upc) onlyManufacturer{\r\n  // // Call modifier to check if upc has passed previous supply chain stage\r\n  // Made(_upc);\r\n  // Call modifier to verify caller of this function\r\n  \r\n    // Update the appropriate fields\r\n    medicines[_upc].medicineState = State.ForSale;\r\n   // string memory history = medicinehistory[_upc];\r\n    //history = history + \" packed by manufacturer on date____\";\r\n    //medicinehistory[_upc] = history;\r\n    \r\n    string memory prevhis = medicinehistory[_upc];\r\n     string memory temp =  append(prevhis,_history);\r\n     medicinehistory[_upc]= temp;\r\n    // Emit the appropriate event\r\n\r\n    emit ForSale(_upc);\r\n  }\r\n\r\n   function soldToDistributor(uint _upc,string memory _history) public fsale(_upc) onlyManufacturer{\r\n  // // Call modifier to check if upc has passed previous supply chain stage\r\n  // Made(_upc);\r\n  // Call modifier to verify caller of this function\r\n  \r\n    // Update the appropriate fields\r\n    medicines[_upc].medicineState = State.Soldtodistributor;\r\n   // string memory history = medicinehistory[_upc];\r\n    //history = history + \" packed by manufacturer on date____\";\r\n    //medicinehistory[_upc] = history;\r\n    string memory prevhis = medicinehistory[_upc];\r\n     string memory temp =  append(prevhis,_history);\r\n     medicinehistory[_upc]= temp;\r\n    // Emit the appropriate event\r\n    emit Soldtodistributor(_upc);\r\n  }\r\n\r\n\r\n\r\n\r\n function shippedByManufacturer(uint _upc,string memory _history) public soldtod(_upc) onlyManufacturer{\r\n  // // Call modifier to check if upc has passed previous supply chain stage\r\n  // Made(_upc);\r\n  // Call modifier to verify caller of this function\r\n  \r\n    // Update the appropriate fields\r\n    medicines[_upc].medicineState = State.shippedbymanufacturer;\r\n   // string memory history = medicinehistory[_upc];\r\n    //history = history + \" packed by manufacturer on date____\";\r\n    //medicinehistory[_upc] = history;\r\n    // Emit the appropriate event\r\n    string memory prevhis = medicinehistory[_upc];\r\n     string memory temp =  append(prevhis,_history);\r\n     medicinehistory[_upc]= temp;\r\n    emit shippedbymanufacturer(_upc);\r\n  }\r\n\r\n  //distributor controlled functions\r\n\r\n  function RecievedDistributor(uint _upc,string memory _name,string memory _long,string memory _lat,address _address,string memory _history) public shippedbym(_upc) onlyDistributor{\r\n  // // Call modifier to check if upc has passed previous supply chain stage\r\n  // Made(_upc);\r\n  // Call modifier to verify caller of this function\r\n  \r\n    // Update the appropriate fields\r\n      medicines[_upc].medicineState = State.RecievedDistributor;\r\n      medicines[_upc].DistName = _name;\r\n      medicines[_upc].DistLongitude = _long;\r\n      medicines[_upc].DistLatitude = _lat;\r\n      medicines[_upc].distributorID = _address;\r\n   // string memory history = medicinehistory[_upc];\r\n    //history = history + \" packed by manufacturer on date____\";\r\n    //medicinehistory[_upc] = history;\r\n    string memory prevhis = medicinehistory[_upc];\r\n     string memory temp =  append(prevhis,_history);\r\n     medicinehistory[_upc]= temp;\r\n    // Emit the appropriate event\r\n    emit recievedDistributor(_upc);\r\n  }\r\n  function SoldtoPharma(uint _upc , string memory _history) public recivedD(_upc) onlyDistributor{\r\n  // // Call modifier to check if upc has passed previous supply chain stage\r\n  // Made(_upc);\r\n  // Call modifier to verify caller of this function\r\n  \r\n    // Update the appropriate fields\r\n    medicines[_upc].medicineState = State.SoldtoPharma;\r\n   // string memory history = medicinehistory[_upc];\r\n    //history = history + \" packed by manufacturer on date____\";\r\n    //medicinehistory[_upc] = history;\r\n    string memory prevhis = medicinehistory[_upc];\r\n     string memory temp =  append(prevhis,_history);\r\n     medicinehistory[_upc]= temp;\r\n    // Emit the appropriate event\r\n    emit soldtoPharma(_upc);\r\n  }\r\n  function ShippedtoPharma(uint _upc, string memory _history) public soldtoph(_upc) onlyDistributor{\r\n  // // Call modifier to check if upc has passed previous supply chain stage\r\n  // Made(_upc);\r\n  // Call modifier to verify caller of this function\r\n  \r\n    // Update the appropriate fields\r\n    medicines[_upc].medicineState = State.ShippedtoPharma;\r\n   // string memory history = medicinehistory[_upc];\r\n    //history = history + \" packed by manufacturer on date____\";\r\n    //medicinehistory[_upc] = history;\r\n    string memory prevhis = medicinehistory[_upc];\r\n     string memory temp =  append(prevhis,_history);\r\n     medicinehistory[_upc]= temp;\r\n    // Emit the appropriate event\r\n    emit shippedtoPharma(_upc);\r\n  }\r\n\r\n\r\n  //Pharmacist functions \r\n\r\n  function Recieved_Pharma(uint _upc,string memory _name,string memory _long,string memory _lat,address _address,string memory _history) public shippedtoph(_upc) onlyPharmacist{\r\n  // // Call modifier to check if upc has passed previous supply chain stage\r\n  // Made(_upc);\r\n  // Call modifier to verify caller of this function\r\n  \r\n    // Update the appropriate fields\r\n    medicines[_upc].medicineState = State.RecievedPharma;\r\n    medicines[_upc].PharamaName = _name;\r\n      medicines[_upc].PharmaLongitude= _long;\r\n      medicines[_upc].PharmaLatitude = _lat;\r\n      medicines[_upc].pharmacistID = _address;\r\n   // string memory history = medicinehistory[_upc];\r\n    //history = history + \" packed by manufacturer on date____\";\r\n    //medicinehistory[_upc] = history;\r\n     string memory prevhis = medicinehistory[_upc];\r\n     string memory temp =  append(prevhis,_history);\r\n     medicinehistory[_upc]= temp;\r\n    \r\n    // Emit the appropriate event\r\n    emit recievedpharma(_upc);\r\n  }\r\n  function Sold_to_Patient(uint _upc,string memory _history) public recivedPh(_upc) onlyPharmacist{\r\n  // // Call modifier to check if upc has passed previous supply chain stage\r\n  // Made(_upc);\r\n  // Call modifier to verify caller of this function\r\n  \r\n    // Update the appropriate fields\r\n    medicines[_upc].medicineState = State.SoldtoPatient;\r\n   // string memory history = medicinehistory[_upc];\r\n    //history = history + \" packed by manufacturer on date____\";\r\n    //medicinehistory[_upc] = history;\r\n     string memory prevhis = medicinehistory[_upc];\r\n     string memory temp =  append(prevhis,_history);\r\n     medicinehistory[_upc]= temp;\r\n    // Emit the appropriate event\r\n    emit soldtopatient(_upc);\r\n  }\r\n  function Shipped_to_Patient(uint _upc,string memory _history) public soldtop(_upc) onlyPharmacist{\r\n  // // Call modifier to check if upc has passed previous supply chain stage\r\n  // Made(_upc);\r\n  // Call modifier to verify caller of this function\r\n  \r\n    // Update the appropriate fields\r\n    medicines[_upc].medicineState = State.ShippedtoPatient;\r\n   // string memory history = medicinehistory[_upc];\r\n    //history = history + \" packed by manufacturer on date____\";\r\n    //medicinehistory[_upc] = history;\r\n     string memory prevhis = medicinehistory[_upc];\r\n     string memory temp =  append(prevhis,_history);\r\n     medicinehistory[_upc]= temp;\r\n    // Emit the appropriate event\r\n    emit shippedtopatient(_upc);\r\n  }\r\n\r\n\r\n\r\n  function fetchstate(uint _upc) public view onlyPatient returns (State _medicineState,string memory _history) {\r\n    return (\r\n      medicines[_upc].medicineState,\r\n      medicinehistory[_upc]\r\n      );\r\n  }\r\n\r\n   function fetchCordinates(uint _upc) public view onlyPatient returns (string memory manfcodlat,string memory manfcodlong,string memory distcodlat,string memory distcodlong,string memory phcodlat,string memory phcodlong) {\r\n    return (\r\n      medicines[_upc].originFactoryLatitude,\r\n      medicines[_upc].originFactoryLongitude,\r\n      medicines[_upc].DistLatitude,\r\n      medicines[_upc].DistLongitude,\r\n      medicines[_upc].PharmaLatitude,\r\n      medicines[_upc].PharmaLongitude\r\n      );\r\n  }\r\n\r\n  \r\n\r\n  function fetchMedicine(uint _upc) public view onlyPatient returns (uint upc_ , address ownerid , string memory manufacturername, string memory Latitude , string memory Longitude,string memory factoryinfo , string memory notes) {\r\n    return(\r\n          _upc,\r\n          medicines[_upc].ownerID,\r\n          medicines[_upc].originFactoryName,\r\n          medicines[_upc].originFactoryLatitude,\r\n          medicines[_upc].originFactoryLongitude,\r\n          medicines[_upc].originFactoryInformation,\r\n          medicines[_upc].medicineNotes\r\n    );\r\n  }\r\n\r\n}\r\n",
  "sourcePath": "C:/Users/remove/Capstone_final/contracts/SimpleStorage.sol",
  "compiler": {
    "name": "solc",
    "version": "0.5.0+commit.1d4f565a.Emscripten.clang"
  },
  "schemaVersion": "3.0.1",
  "updatedAt": "2021-12-12T12:47:01.162Z",
  "devdoc": {
    "methods": {}
  },
  "userdoc": {
    "methods": {}
  }
}