{
  "contractName": "SimpleStorage",
  "abi": [
    {
      "anonymous": false,
      "inputs": [
        {
          "indexed": false,
          "internalType": "uint256",
          "name": "upc",
          "type": "uint256"
        }
      ],
      "name": "ForSale",
      "type": "event"
    },
    {
      "anonymous": false,
      "inputs": [
        {
          "indexed": false,
          "internalType": "uint256",
          "name": "upc",
          "type": "uint256"
        }
      ],
      "name": "Made",
      "type": "event"
    },
    {
      "anonymous": false,
      "inputs": [
        {
          "indexed": false,
          "internalType": "uint256",
          "name": "upc",
          "type": "uint256"
        }
      ],
      "name": "Packed",
      "type": "event"
    },
    {
      "anonymous": false,
      "inputs": [
        {
          "indexed": false,
          "internalType": "uint256",
          "name": "upc",
          "type": "uint256"
        }
      ],
      "name": "Purchased",
      "type": "event"
    },
    {
      "anonymous": false,
      "inputs": [
        {
          "indexed": false,
          "internalType": "uint256",
          "name": "upc",
          "type": "uint256"
        }
      ],
      "name": "Soldtodistributor",
      "type": "event"
    },
    {
      "anonymous": false,
      "inputs": [
        {
          "indexed": false,
          "internalType": "uint256",
          "name": "upc",
          "type": "uint256"
        }
      ],
      "name": "recievedDistributor",
      "type": "event"
    },
    {
      "anonymous": false,
      "inputs": [
        {
          "indexed": false,
          "internalType": "uint256",
          "name": "upc",
          "type": "uint256"
        }
      ],
      "name": "recievedpharma",
      "type": "event"
    },
    {
      "anonymous": false,
      "inputs": [
        {
          "indexed": false,
          "internalType": "uint256",
          "name": "upc",
          "type": "uint256"
        }
      ],
      "name": "shippedbymanufacturer",
      "type": "event"
    },
    {
      "anonymous": false,
      "inputs": [
        {
          "indexed": false,
          "internalType": "uint256",
          "name": "upc",
          "type": "uint256"
        }
      ],
      "name": "shippedtoPharma",
      "type": "event"
    },
    {
      "anonymous": false,
      "inputs": [
        {
          "indexed": false,
          "internalType": "uint256",
          "name": "upc",
          "type": "uint256"
        }
      ],
      "name": "shippedtopatient",
      "type": "event"
    },
    {
      "anonymous": false,
      "inputs": [
        {
          "indexed": false,
          "internalType": "uint256",
          "name": "upc",
          "type": "uint256"
        }
      ],
      "name": "soldtoPharma",
      "type": "event"
    },
    {
      "anonymous": false,
      "inputs": [
        {
          "indexed": false,
          "internalType": "uint256",
          "name": "upc",
          "type": "uint256"
        }
      ],
      "name": "soldtopatient",
      "type": "event"
    },
    {
      "constant": false,
      "inputs": [
        {
          "internalType": "uint256",
          "name": "_upc",
          "type": "uint256"
        },
        {
          "internalType": "address",
          "name": "_originManufacturerID",
          "type": "address"
        },
        {
          "internalType": "string",
          "name": "_originFactoryName",
          "type": "string"
        },
        {
          "internalType": "string",
          "name": "_originFactoryInformation",
          "type": "string"
        },
        {
          "internalType": "string",
          "name": "_originFactoryLatitude",
          "type": "string"
        },
        {
          "internalType": "string",
          "name": "_originFactoryLongitude",
          "type": "string"
        },
        {
          "internalType": "string",
          "name": "_medicineNotes",
          "type": "string"
        },
        {
          "internalType": "string",
          "name": "_history",
          "type": "string"
        }
      ],
      "name": "makeMedicine",
      "outputs": [],
      "payable": false,
      "stateMutability": "nonpayable",
      "type": "function"
    },
    {
      "constant": false,
      "inputs": [
        {
          "internalType": "uint256",
          "name": "_upc",
          "type": "uint256"
        },
        {
          "internalType": "string",
          "name": "_history",
          "type": "string"
        }
      ],
      "name": "packMedicine",
      "outputs": [],
      "payable": false,
      "stateMutability": "nonpayable",
      "type": "function"
    },
    {
      "constant": false,
      "inputs": [
        {
          "internalType": "uint256",
          "name": "_upc",
          "type": "uint256"
        },
        {
          "internalType": "string",
          "name": "_history",
          "type": "string"
        }
      ],
      "name": "forSale_bymanuf",
      "outputs": [],
      "payable": false,
      "stateMutability": "nonpayable",
      "type": "function"
    },
    {
      "constant": false,
      "inputs": [
        {
          "internalType": "uint256",
          "name": "_upc",
          "type": "uint256"
        },
        {
          "internalType": "string",
          "name": "_history",
          "type": "string"
        }
      ],
      "name": "soldToDistributor",
      "outputs": [],
      "payable": false,
      "stateMutability": "nonpayable",
      "type": "function"
    },
    {
      "constant": false,
      "inputs": [
        {
          "internalType": "uint256",
          "name": "_upc",
          "type": "uint256"
        },
        {
          "internalType": "string",
          "name": "_history",
          "type": "string"
        }
      ],
      "name": "shippedByManufacturer",
      "outputs": [],
      "payable": false,
      "stateMutability": "nonpayable",
      "type": "function"
    },
    {
      "constant": false,
      "inputs": [
        {
          "internalType": "uint256",
          "name": "_upc",
          "type": "uint256"
        },
        {
          "internalType": "string",
          "name": "_history",
          "type": "string"
        }
      ],
      "name": "RecievedDistributor",
      "outputs": [],
      "payable": false,
      "stateMutability": "nonpayable",
      "type": "function"
    },
    {
      "constant": false,
      "inputs": [
        {
          "internalType": "uint256",
          "name": "_upc",
          "type": "uint256"
        },
        {
          "internalType": "string",
          "name": "_history",
          "type": "string"
        }
      ],
      "name": "SoldtoPharma",
      "outputs": [],
      "payable": false,
      "stateMutability": "nonpayable",
      "type": "function"
    },
    {
      "constant": false,
      "inputs": [
        {
          "internalType": "uint256",
          "name": "_upc",
          "type": "uint256"
        },
        {
          "internalType": "string",
          "name": "_history",
          "type": "string"
        }
      ],
      "name": "ShippedtoPharma",
      "outputs": [],
      "payable": false,
      "stateMutability": "nonpayable",
      "type": "function"
    },
    {
      "constant": false,
      "inputs": [
        {
          "internalType": "uint256",
          "name": "_upc",
          "type": "uint256"
        },
        {
          "internalType": "string",
          "name": "_history",
          "type": "string"
        }
      ],
      "name": "Recieved_Pharma",
      "outputs": [],
      "payable": false,
      "stateMutability": "nonpayable",
      "type": "function"
    },
    {
      "constant": false,
      "inputs": [
        {
          "internalType": "uint256",
          "name": "_upc",
          "type": "uint256"
        },
        {
          "internalType": "string",
          "name": "_history",
          "type": "string"
        }
      ],
      "name": "Sold_to_Patient",
      "outputs": [],
      "payable": false,
      "stateMutability": "nonpayable",
      "type": "function"
    },
    {
      "constant": false,
      "inputs": [
        {
          "internalType": "uint256",
          "name": "_upc",
          "type": "uint256"
        },
        {
          "internalType": "string",
          "name": "_history",
          "type": "string"
        }
      ],
      "name": "Shipped_to_Patient",
      "outputs": [],
      "payable": false,
      "stateMutability": "nonpayable",
      "type": "function"
    },
    {
      "constant": true,
      "inputs": [
        {
          "internalType": "uint256",
          "name": "_upc",
          "type": "uint256"
        }
      ],
      "name": "fetchstate",
      "outputs": [
        {
          "internalType": "enum SimpleStorage.State",
          "name": "_medicineState",
          "type": "uint8"
        },
        {
          "internalType": "string",
          "name": "_history",
          "type": "string"
        }
      ],
      "payable": false,
      "stateMutability": "view",
      "type": "function"
    },
    {
      "constant": true,
      "inputs": [
        {
          "internalType": "uint256",
          "name": "_upc",
          "type": "uint256"
        }
      ],
      "name": "fetchMedicine",
      "outputs": [
        {
          "internalType": "uint256",
          "name": "upc_",
          "type": "uint256"
        },
        {
          "internalType": "address",
          "name": "ownerid",
          "type": "address"
        },
        {
          "internalType": "string",
          "name": "manufacturername",
          "type": "string"
        },
        {
          "internalType": "string",
          "name": "Latitude",
          "type": "string"
        },
        {
          "internalType": "string",
          "name": "Longitude",
          "type": "string"
        },
        {
          "internalType": "string",
          "name": "factoryinfo",
          "type": "string"
        },
        {
          "internalType": "string",
          "name": "notes",
          "type": "string"
        }
      ],
      "payable": false,
      "stateMutability": "view",
      "type": "function"
    }
  ],
  "bytecode": "0x608060405234801561001057600080fd5b50612886806100206000396000f3fe608060405234801561001057600080fd5b50600436106100cf5760003560e01c80638f5d97f11161008c578063d1c6a24d11610066578063d1c6a24d14610ca1578063d759283a14610d66578063dbdf8b7514610e2b578063e0cbb35e14610ee7576100cf565b80638f5d97f114610a525780639e1a2f3014610b17578063d08b536c14610bdc576100cf565b8063318c5036146100d45780633e2d5e2b146104ad5780634ab7e29d146105725780634fa75b7c1461063757806370b184da146108c85780638c2891ce1461098d575b600080fd5b6104ab60048036036101008110156100eb57600080fd5b8101908080359060200190929190803573ffffffffffffffffffffffffffffffffffffffff1690602001909291908035906020019064010000000081111561013257600080fd5b82018360208201111561014457600080fd5b8035906020019184600183028401116401000000008311171561016657600080fd5b91908080601f016020809104026020016040519081016040528093929190818152602001838380828437600081840152601f19601f820116905080830192505050505050509192919290803590602001906401000000008111156101c957600080fd5b8201836020820111156101db57600080fd5b803590602001918460018302840111640100000000831117156101fd57600080fd5b91908080601f016020809104026020016040519081016040528093929190818152602001838380828437600081840152601f19601f8201169050808301925050505050505091929192908035906020019064010000000081111561026057600080fd5b82018360208201111561027257600080fd5b8035906020019184600183028401116401000000008311171561029457600080fd5b91908080601f016020809104026020016040519081016040528093929190818152602001838380828437600081840152601f19601f820116905080830192505050505050509192919290803590602001906401000000008111156102f757600080fd5b82018360208201111561030957600080fd5b8035906020019184600183028401116401000000008311171561032b57600080fd5b91908080601f016020809104026020016040519081016040528093929190818152602001838380828437600081840152601f19601f8201169050808301925050505050505091929192908035906020019064010000000081111561038e57600080fd5b8201836020820111156103a057600080fd5b803590602001918460018302840111640100000000831117156103c257600080fd5b91908080601f016020809104026020016040519081016040528093929190818152602001838380828437600081840152601f19601f8201169050808301925050505050505091929192908035906020019064010000000081111561042557600080fd5b82018360208201111561043757600080fd5b8035906020019184600183028401116401000000008311171561045957600080fd5b91908080601f016020809104026020016040519081016040528093929190818152602001838380828437600081840152601f19601f820116905080830192505050505050509192919290505050610fac565b005b610570600480360360408110156104c357600080fd5b8101908080359060200190929190803590602001906401000000008111156104ea57600080fd5b8201836020820111156104fc57600080fd5b8035906020019184600183028401116401000000008311171561051e57600080fd5b91908080601f016020809104026020016040519081016040528093929190818152602001838380828437600081840152601f19601f820116905080830192505050505050509192919290505050611342565b005b6106356004803603604081101561058857600080fd5b8101908080359060200190929190803590602001906401000000008111156105af57600080fd5b8201836020820111156105c157600080fd5b803590602001918460018302840111640100000000831117156105e357600080fd5b91908080601f016020809104026020016040519081016040528093929190818152602001838380828437600081840152601f19601f82011690508083019250505050505050919291929050505061149c565b005b6106636004803603602081101561064d57600080fd5b81019080803590602001909291905050506115f6565b604051808881526020018773ffffffffffffffffffffffffffffffffffffffff1673ffffffffffffffffffffffffffffffffffffffff168152602001806020018060200180602001806020018060200186810386528b818151815260200191508051906020019080838360005b838110156106eb5780820151818401526020810190506106d0565b50505050905090810190601f1680156107185780820380516001836020036101000a031916815260200191505b5086810385528a818151815260200191508051906020019080838360005b83811015610751578082015181840152602081019050610736565b50505050905090810190601f16801561077e5780820380516001836020036101000a031916815260200191505b50868103845289818151815260200191508051906020019080838360005b838110156107b757808201518184015260208101905061079c565b50505050905090810190601f1680156107e45780820380516001836020036101000a031916815260200191505b50868103835288818151815260200191508051906020019080838360005b8381101561081d578082015181840152602081019050610802565b50505050905090810190601f16801561084a5780820380516001836020036101000a031916815260200191505b50868103825287818151815260200191508051906020019080838360005b83811015610883578082015181840152602081019050610868565b50505050905090810190601f1680156108b05780820380516001836020036101000a031916815260200191505b509c5050505050505050505050505060405180910390f35b61098b600480360360408110156108de57600080fd5b81019080803590602001909291908035906020019064010000000081111561090557600080fd5b82018360208201111561091757600080fd5b8035906020019184600183028401116401000000008311171561093957600080fd5b91908080601f016020809104026020016040519081016040528093929190818152602001838380828437600081840152601f19601f8201169050808301925050505050505091929192905050506119c6565b005b610a50600480360360408110156109a357600080fd5b8101908080359060200190929190803590602001906401000000008111156109ca57600080fd5b8201836020820111156109dc57600080fd5b803590602001918460018302840111640100000000831117156109fe57600080fd5b91908080601f016020809104026020016040519081016040528093929190818152602001838380828437600081840152601f19601f820116905080830192505050505050509192919290505050611b20565b005b610b1560048036036040811015610a6857600080fd5b810190808035906020019092919080359060200190640100000000811115610a8f57600080fd5b820183602082011115610aa157600080fd5b80359060200191846001830284011164010000000083111715610ac357600080fd5b91908080601f016020809104026020016040519081016040528093929190818152602001838380828437600081840152601f19601f820116905080830192505050505050509192919290505050611c7a565b005b610bda60048036036040811015610b2d57600080fd5b810190808035906020019092919080359060200190640100000000811115610b5457600080fd5b820183602082011115610b6657600080fd5b80359060200191846001830284011164010000000083111715610b8857600080fd5b91908080601f016020809104026020016040519081016040528093929190818152602001838380828437600081840152601f19601f820116905080830192505050505050509192919290505050611dd4565b005b610c9f60048036036040811015610bf257600080fd5b810190808035906020019092919080359060200190640100000000811115610c1957600080fd5b820183602082011115610c2b57600080fd5b80359060200191846001830284011164010000000083111715610c4d57600080fd5b91908080601f016020809104026020016040519081016040528093929190818152602001838380828437600081840152601f19601f820116905080830192505050505050509192919290505050611f2e565b005b610d6460048036036040811015610cb757600080fd5b810190808035906020019092919080359060200190640100000000811115610cde57600080fd5b820183602082011115610cf057600080fd5b80359060200191846001830284011164010000000083111715610d1257600080fd5b91908080601f016020809104026020016040519081016040528093929190818152602001838380828437600081840152601f19601f820116905080830192505050505050509192919290505050612088565b005b610e2960048036036040811015610d7c57600080fd5b810190808035906020019092919080359060200190640100000000811115610da357600080fd5b820183602082011115610db557600080fd5b80359060200191846001830284011164010000000083111715610dd757600080fd5b91908080601f016020809104026020016040519081016040528093929190818152602001838380828437600081840152601f19601f8201169050808301925050505050505091929192905050506121e2565b005b610e5760048036036020811015610e4157600080fd5b810190808035906020019092919050505061233c565b6040518083600a811115610e6757fe5b60ff16815260200180602001828103825283818151815260200191508051906020019080838360005b83811015610eab578082015181840152602081019050610e90565b50505050905090810190601f168015610ed85780820380516001836020036101000a031916815260200191505b50935050505060405180910390f35b610faa60048036036040811015610efd57600080fd5b810190808035906020019092919080359060200190640100000000811115610f2457600080fd5b820183602082011115610f3657600080fd5b80359060200191846001830284011164010000000083111715610f5857600080fd5b91908080601f016020809104026020016040519081016040528093929190818152602001838380828437600081840152601f19601f82011690508083019250505050505050919291929050505061241b565b005b610fb461263d565b604051806101e0016040528060016004540181526020018a81526020018973ffffffffffffffffffffffffffffffffffffffff1681526020018973ffffffffffffffffffffffffffffffffffffffff1681526020018881526020018781526020018681526020018581526020018a600454018152602001848152602001600081526020016000600a81111561104557fe5b8152602001600073ffffffffffffffffffffffffffffffffffffffff168152602001600073ffffffffffffffffffffffffffffffffffffffff168152602001600073ffffffffffffffffffffffffffffffffffffffff168152509050806000808b8152602001908152602001600020600082015181600001556020820151816001015560408201518160020160006101000a81548173ffffffffffffffffffffffffffffffffffffffff021916908373ffffffffffffffffffffffffffffffffffffffff16021790555060608201518160030160006101000a81548173ffffffffffffffffffffffffffffffffffffffff021916908373ffffffffffffffffffffffffffffffffffffffff160217905550608082015181600401908051906020019061117292919061272c565b5060a082015181600501908051906020019061118f92919061272c565b5060c08201518160060190805190602001906111ac92919061272c565b5060e08201518160070190805190602001906111c992919061272c565b5061010082015181600801556101208201518160090190805190602001906111f292919061272c565b5061014082015181600a015561016082015181600b0160006101000a81548160ff0219169083600a81111561122357fe5b021790555061018082015181600b0160016101000a81548173ffffffffffffffffffffffffffffffffffffffff021916908373ffffffffffffffffffffffffffffffffffffffff1602179055506101a082015181600c0160006101000a81548173ffffffffffffffffffffffffffffffffffffffff021916908373ffffffffffffffffffffffffffffffffffffffff1602179055506101c082015181600d0160006101000a81548173ffffffffffffffffffffffffffffffffffffffff021916908373ffffffffffffffffffffffffffffffffffffffff16021790555090505081600160008b8152602001908152602001600020908051906020019061132a9291906127ac565b50600160045401600481905550505050505050505050565b600a600080848152602001908152602001600020600b0160006101000a81548160ff0219169083600a81111561137457fe5b02179055506060600160008481526020019081526020016000208054600181600116156101000203166002900480601f0160208091040260200160405190810160405280929190818152602001828054600181600116156101000203166002900480156114225780601f106113f757610100808354040283529160200191611422565b820191906000526020600020905b81548152906001019060200180831161140557829003601f168201915b5050505050905060606114358284612575565b90508060016000868152602001908152602001600020908051906020019061145e9291906127ac565b507fb4cdacdf11ca5dc03f3ddd7b53e92ed9d205e79bf7c06a3f4b514b084a17bb5d846040518082815260200191505060405180910390a150505050565b6003600080848152602001908152602001600020600b0160006101000a81548160ff0219169083600a8111156114ce57fe5b02179055506060600160008481526020019081526020016000208054600181600116156101000203166002900480601f01602080910402602001604051908101604052809291908181526020018280546001816001161561010002031660029004801561157c5780601f106115515761010080835404028352916020019161157c565b820191906000526020600020905b81548152906001019060200180831161155f57829003601f168201915b50505050509050606061158f8284612575565b9050806001600086815260200190815260200160002090805190602001906115b89291906127ac565b507fbf196506b2f00aa0ddfe8eb41c3c9ccfddcc58a5142960f08f9131afa7908496846040518082815260200191505060405180910390a150505050565b6000806060806060806060876000808a815260200190815260200160002060020160009054906101000a900473ffffffffffffffffffffffffffffffffffffffff166000808b81526020019081526020016000206004016000808c81526020019081526020016000206006016000808d81526020019081526020016000206007016000808e81526020019081526020016000206005016000808f8152602001908152602001600020600901848054600181600116156101000203166002900480601f0160208091040260200160405190810160405280929190818152602001828054600181600116156101000203166002900480156117365780601f1061170b57610100808354040283529160200191611736565b820191906000526020600020905b81548152906001019060200180831161171957829003601f168201915b50505050509450838054600181600116156101000203166002900480601f0160208091040260200160405190810160405280929190818152602001828054600181600116156101000203166002900480156117d25780601f106117a7576101008083540402835291602001916117d2565b820191906000526020600020905b8154815290600101906020018083116117b557829003601f168201915b50505050509350828054600181600116156101000203166002900480601f01602080910402602001604051908101604052809291908181526020018280546001816001161561010002031660029004801561186e5780601f106118435761010080835404028352916020019161186e565b820191906000526020600020905b81548152906001019060200180831161185157829003601f168201915b50505050509250818054600181600116156101000203166002900480601f01602080910402602001604051908101604052809291908181526020018280546001816001161561010002031660029004801561190a5780601f106118df5761010080835404028352916020019161190a565b820191906000526020600020905b8154815290600101906020018083116118ed57829003601f168201915b50505050509150808054600181600116156101000203166002900480601f0160208091040260200160405190810160405280929190818152602001828054600181600116156101000203166002900480156119a65780601f1061197b576101008083540402835291602001916119a6565b820191906000526020600020905b81548152906001019060200180831161198957829003601f168201915b505050505090509650965096509650965096509650919395979092949650565b6001600080848152602001908152602001600020600b0160006101000a81548160ff0219169083600a8111156119f857fe5b02179055506060600160008481526020019081526020016000208054600181600116156101000203166002900480601f016020809104026020016040519081016040528092919081815260200182805460018160011615610100020316600290048015611aa65780601f10611a7b57610100808354040283529160200191611aa6565b820191906000526020600020905b815481529060010190602001808311611a8957829003601f168201915b505050505090506060611ab98284612575565b905080600160008681526020019081526020016000209080519060200190611ae29291906127ac565b507f9b3b66e2380b690bae22c73ef1428fb0c91e72fe14a4b6defa13035214187aff846040518082815260200191505060405180910390a150505050565b6006600080848152602001908152602001600020600b0160006101000a81548160ff0219169083600a811115611b5257fe5b02179055506060600160008481526020019081526020016000208054600181600116156101000203166002900480601f016020809104026020016040519081016040528092919081815260200182805460018160011615610100020316600290048015611c005780601f10611bd557610100808354040283529160200191611c00565b820191906000526020600020905b815481529060010190602001808311611be357829003601f168201915b505050505090506060611c138284612575565b905080600160008681526020019081526020016000209080519060200190611c3c9291906127ac565b507fd27cf9eb13fb50222e8ff27788988edb150171b58e49b33f165418d0eb0253eb846040518082815260200191505060405180910390a150505050565b6007600080848152602001908152602001600020600b0160006101000a81548160ff0219169083600a811115611cac57fe5b02179055506060600160008481526020019081526020016000208054600181600116156101000203166002900480601f016020809104026020016040519081016040528092919081815260200182805460018160011615610100020316600290048015611d5a5780601f10611d2f57610100808354040283529160200191611d5a565b820191906000526020600020905b815481529060010190602001808311611d3d57829003601f168201915b505050505090506060611d6d8284612575565b905080600160008681526020019081526020016000209080519060200190611d969291906127ac565b507f94d498cff24e232da4c3ed3ce9547d37faee065ef6fe670586828a6e3ccf8a53846040518082815260200191505060405180910390a150505050565b6002600080848152602001908152602001600020600b0160006101000a81548160ff0219169083600a811115611e0657fe5b02179055506060600160008481526020019081526020016000208054600181600116156101000203166002900480601f016020809104026020016040519081016040528092919081815260200182805460018160011615610100020316600290048015611eb45780601f10611e8957610100808354040283529160200191611eb4565b820191906000526020600020905b815481529060010190602001808311611e9757829003601f168201915b505050505090506060611ec78284612575565b905080600160008681526020019081526020016000209080519060200190611ef09291906127ac565b507fa96ae0fc3224ebd79eebfe54bd130cc9cb94416cddd1f2386115e00b72532468846040518082815260200191505060405180910390a150505050565b6005600080848152602001908152602001600020600b0160006101000a81548160ff0219169083600a811115611f6057fe5b02179055506060600160008481526020019081526020016000208054600181600116156101000203166002900480601f01602080910402602001604051908101604052809291908181526020018280546001816001161561010002031660029004801561200e5780601f10611fe35761010080835404028352916020019161200e565b820191906000526020600020905b815481529060010190602001808311611ff157829003601f168201915b5050505050905060606120218284612575565b90508060016000868152602001908152602001600020908051906020019061204a9291906127ac565b507f1e93508ab5b39bf9f45afa406d4ce6117c21b48d5b79372f9e599ce66210cda2846040518082815260200191505060405180910390a150505050565b6009600080848152602001908152602001600020600b0160006101000a81548160ff0219169083600a8111156120ba57fe5b02179055506060600160008481526020019081526020016000208054600181600116156101000203166002900480601f0160208091040260200160405190810160405280929190818152602001828054600181600116156101000203166002900480156121685780601f1061213d57610100808354040283529160200191612168565b820191906000526020600020905b81548152906001019060200180831161214b57829003601f168201915b50505050509050606061217b8284612575565b9050806001600086815260200190815260200160002090805190602001906121a49291906127ac565b507f616dfa0fd1e8003e293d0d707897c48415f6acadc960e3a8239f70841bc98c5b846040518082815260200191505060405180910390a150505050565b6004600080848152602001908152602001600020600b0160006101000a81548160ff0219169083600a81111561221457fe5b02179055506060600160008481526020019081526020016000208054600181600116156101000203166002900480601f0160208091040260200160405190810160405280929190818152602001828054600181600116156101000203166002900480156122c25780601f10612297576101008083540402835291602001916122c2565b820191906000526020600020905b8154815290600101906020018083116122a557829003601f168201915b5050505050905060606122d58284612575565b9050806001600086815260200190815260200160002090805190602001906122fe9291906127ac565b507ff5fba10cdde0743e9e1a1208d61a8f3bea78c1dc743844aef4501affa3efd151846040518082815260200191505060405180910390a150505050565b60006060600080848152602001908152602001600020600b0160009054906101000a900460ff1660016000858152602001908152602001600020808054600181600116156101000203166002900480601f01602080910402602001604051908101604052809291908181526020018280546001816001161561010002031660029004801561240b5780601f106123e05761010080835404028352916020019161240b565b820191906000526020600020905b8154815290600101906020018083116123ee57829003601f168201915b5050505050905091509150915091565b6008600080848152602001908152602001600020600b0160006101000a81548160ff0219169083600a81111561244d57fe5b02179055506060600160008481526020019081526020016000208054600181600116156101000203166002900480601f0160208091040260200160405190810160405280929190818152602001828054600181600116156101000203166002900480156124fb5780601f106124d0576101008083540402835291602001916124fb565b820191906000526020600020905b8154815290600101906020018083116124de57829003601f168201915b50505050509050606061250e8284612575565b9050806001600086815260200190815260200160002090805190602001906125379291906127ac565b507f73d6827c08a640a6959426f0ee26c7bb964902de8446b4ca6bca213740bf262f846040518082815260200191505060405180910390a150505050565b606082826040516020018083805190602001908083835b602083106125af578051825260208201915060208101905060208303925061258c565b6001836020036101000a03801982511681845116808217855250505050505090500182805190602001908083835b6020831061260057805182526020820191506020810190506020830392506125dd565b6001836020036101000a03801982511681845116808217855250505050505090500192505050604051602081830303815290604052905092915050565b604051806101e001604052806000815260200160008152602001600073ffffffffffffffffffffffffffffffffffffffff168152602001600073ffffffffffffffffffffffffffffffffffffffff168152602001606081526020016060815260200160608152602001606081526020016000815260200160608152602001600081526020016000600a8111156126cf57fe5b8152602001600073ffffffffffffffffffffffffffffffffffffffff168152602001600073ffffffffffffffffffffffffffffffffffffffff168152602001600073ffffffffffffffffffffffffffffffffffffffff1681525090565b828054600181600116156101000203166002900490600052602060002090601f016020900481019282601f1061276d57805160ff191683800117855561279b565b8280016001018555821561279b579182015b8281111561279a57825182559160200191906001019061277f565b5b5090506127a8919061282c565b5090565b828054600181600116156101000203166002900490600052602060002090601f016020900481019282601f106127ed57805160ff191683800117855561281b565b8280016001018555821561281b579182015b8281111561281a5782518255916020019190600101906127ff565b5b509050612828919061282c565b5090565b61284e91905b8082111561284a576000816000905550600101612832565b5090565b9056fea265627a7a7231582056275547009c65054183186e0130575347ed8fb7b8a54e9d39888880c1237e6264736f6c63430005100032",
  "source": "// SPDX-License-Identifier: MIT\r\npragma solidity >=0.4.21 <0.7.0;\r\n\r\ncontract SimpleStorage {\r\n\r\n\r\n\r\n  //basic functions\r\n\r\n\r\n\r\n\r\n    function append(string memory a, string memory b) internal pure returns (string memory s) {\r\n\r\n    return string(abi.encodePacked(a, b));\r\n\r\n}\r\n\r\n\r\n\r\n\r\n\r\n\r\n\r\n\r\n  \r\n  mapping (uint => Medicine) medicines;\r\n  mapping (uint => string ) medicinehistory ; \r\n\r\n  address owner;\r\n\r\n  // Define a variable called 'upc' for Universal Product Code (UPC)\r\n  uint  upc;\r\n\r\n  // Define a variable called 'sku' for Stock Keeping Unit (SKU)\r\n  uint  sku;\r\n\r\n  //manufacturer events\r\n  event Made(uint upc);\r\n  event Packed(uint upc);\r\n  event ForSale(uint upc);\r\n  event Soldtodistributor(uint upc);\r\n  event shippedbymanufacturer(uint upc);\r\n  //distributor events\r\n  event recievedDistributor(uint upc);\r\n  event soldtoPharma(uint upc);\r\n  event shippedtoPharma(uint upc);\r\n  //pharma events\r\n  event recievedpharma(uint upc);\r\n  event soldtopatient(uint upc);\r\n  event shippedtopatient(uint upc);\r\n  //Patientt event \r\n  event Purchased(uint upc);\r\n\r\n    // Define enum 'State' with the following values:\r\n  enum State \r\n  { \r\n    //manufacturer states\r\n    Made,       // 0\r\n    Packed,     // 1\r\n    ForSale,    // 2\r\n    Soldtodistributor, //3\r\n    shippedbymanufacturer,//4\r\n    //distributor states\r\n    RecievedDistributor, //5\r\n    SoldtoPharma, //6\r\n    ShippedtoPharma,  //7\r\n    //Pharmacist\r\n    RecievedPharma, //8\r\n    SoldtoPatient , //9\r\n    ShippedtoPatient //10\r\n\r\n\r\n\r\n  }\r\n\r\n   struct Medicine {\r\n    uint    sku;  // Stock Keeping Unit (SKU)\r\n    uint    upc; // Universal Product Code (UPC), generated by the Manufacturer, goes on the package, can be verified by the Patient\r\n    address ownerID;  // Metamask-Ethereum address of the current owner as the medicine moves through 8 stages\r\n    address originManufacturerID; // Metamask-Ethereum address of the Manufacturer\r\n    string  originFactoryName; // Manufacturer Name\r\n    string  originFactoryInformation;  // Manufacturer Information\r\n    string  originFactoryLatitude; // Factory Latitude\r\n    string  originFactoryLongitude;  // Factory Longitude\r\n    uint    medicineID;  // Product ID potentially a combination of upc + sku\r\n    string  medicineNotes; // Product Notes\r\n    uint    medicinePrice; // Product Price\r\n    State   medicineState;  // Product State as represented in the enum above\r\n    address distributorID;  // Metamask-Ethereum address of the Distributor\r\n    address pharmacistID; // Metamask-Ethereum address of the Pharmacist\r\n    address patientID; // Metamask-Ethereum address of the Patient\r\n  }\r\n\r\n\r\n  function makeMedicine(uint _upc, address _originManufacturerID, string memory _originFactoryName, string memory _originFactoryInformation, string  memory _originFactoryLatitude, string  memory _originFactoryLongitude, string  memory _medicineNotes, string memory _history) public\r\n  \r\n\r\n\r\n  {\r\n    // Add the new medicine as part of medicines\r\n    Medicine memory temp_medicine = Medicine({\r\n      sku:sku + 1,\r\n      upc:_upc,\r\n      ownerID:_originManufacturerID,\r\n      originManufacturerID:_originManufacturerID,\r\n      originFactoryName:_originFactoryName,\r\n      originFactoryInformation:_originFactoryInformation,\r\n      originFactoryLatitude:_originFactoryLatitude,\r\n      originFactoryLongitude:_originFactoryLongitude,\r\n      medicineID:sku+_upc,\r\n      medicineNotes:_medicineNotes,\r\n      medicineState:State.Made,\r\n      medicinePrice:0,\r\n      distributorID:address(0),\r\n      pharmacistID:address(0),\r\n      patientID:address(0)\r\n\r\n      });\r\n    //string storage initial_history=\"This med is made by date will be passed by frontend\" ;\r\n    medicines[_upc] = temp_medicine;\r\n    medicinehistory[_upc]  =_history;\r\n\r\n// uint    sku;  // Stock Keeping Unit (SKU)\r\n//     uint    upc; // Universal Product Code (UPC), generated by the Manufacturer, goes on the package, can be verified by the Patient\r\n//     address ownerID;  // Metamask-Ethereum address of the current owner as the medicine moves through 8 stages\r\n//     address originManufacturerID; // Metamask-Ethereum address of the Manufacturer\r\n//     string  originFactoryName; // Manufacturer Name\r\n//     string  originFactoryInformation;  // Manufacturer Information\r\n//     string  originFactoryLatitude; // Factory Latitude\r\n//     string  originFactoryLongitude;  // Factory Longitude\r\n//     uint    medicineID;  // Product ID potentially a combination of upc + sku\r\n//     string  medicineNotes; // Product Notes\r\n//     uint    medicinePrice; // Product Price\r\n//     State   medicineState;  // Product State as represented in the enum above\r\n//     address distributorID;  // Metamask-Ethereum address of the Distributor\r\n//     address pharmacistID; // Metamask-Ethereum address of the Pharmacist\r\n//     address patientID; // Metamask-Ethereum address of the Patient\r\n\r\n\r\n\r\n\r\n    // Increment sku\r\n    sku = sku + 1;\r\n    // Emit the appropriate event\r\n\r\n     \r\n  }\r\n  // function makeMedicine(uint _upc,uint _price ,string memory _name) public {\r\n  //     Medicine memory temp_medicine = Medicine({\r\n  //         upc : _upc,\r\n  //         price : _price,\r\n  //         name : _name\r\n  //     });\r\n  //     medicines[_upc] = temp_medicine;\r\n\r\n  // }\r\n\r\n  //manufacturer sub events\r\n\r\n  function packMedicine(uint _upc,string memory _history) public {\r\n  // // Call modifier to check if upc has passed previous supply chain stage\r\n  // Made(_upc);\r\n  // Call modifier to verify caller of this function\r\n  \r\n    // Update the appropriate fields\r\n    medicines[_upc].medicineState = State.Packed;\r\n    // string memory prevhis = medicinehistory[_upc];\r\n    //string  memory t1= concatenate(prevhis,_history);\r\n     string memory prevhis = medicinehistory[_upc];\r\n     string memory temp =  append(prevhis,_history);\r\n     medicinehistory[_upc]= temp;\r\n\r\n\r\n\r\n   // string memory history = medicinehistory[_upc];\r\n    //history = history + \" packed by manufacturer on date____\";\r\n    //medicinehistory[_upc] = history;\r\n    // Emit the appropriate event\r\n    emit Packed(_upc);\r\n  }\r\n\r\n   function forSale_bymanuf(uint _upc,string memory _history) public {\r\n  // // Call modifier to check if upc has passed previous supply chain stage\r\n  // Made(_upc);\r\n  // Call modifier to verify caller of this function\r\n  \r\n    // Update the appropriate fields\r\n    medicines[_upc].medicineState = State.ForSale;\r\n   // string memory history = medicinehistory[_upc];\r\n    //history = history + \" packed by manufacturer on date____\";\r\n    //medicinehistory[_upc] = history;\r\n    \r\n    string memory prevhis = medicinehistory[_upc];\r\n     string memory temp =  append(prevhis,_history);\r\n     medicinehistory[_upc]= temp;\r\n    // Emit the appropriate event\r\n\r\n    emit ForSale(_upc);\r\n  }\r\n\r\n   function soldToDistributor(uint _upc,string memory _history) public {\r\n  // // Call modifier to check if upc has passed previous supply chain stage\r\n  // Made(_upc);\r\n  // Call modifier to verify caller of this function\r\n  \r\n    // Update the appropriate fields\r\n    medicines[_upc].medicineState = State.Soldtodistributor;\r\n   // string memory history = medicinehistory[_upc];\r\n    //history = history + \" packed by manufacturer on date____\";\r\n    //medicinehistory[_upc] = history;\r\n    string memory prevhis = medicinehistory[_upc];\r\n     string memory temp =  append(prevhis,_history);\r\n     medicinehistory[_upc]= temp;\r\n    // Emit the appropriate event\r\n    emit Soldtodistributor(_upc);\r\n  }\r\n\r\n\r\n\r\n\r\n function shippedByManufacturer(uint _upc,string memory _history) public {\r\n  // // Call modifier to check if upc has passed previous supply chain stage\r\n  // Made(_upc);\r\n  // Call modifier to verify caller of this function\r\n  \r\n    // Update the appropriate fields\r\n    medicines[_upc].medicineState = State.shippedbymanufacturer;\r\n   // string memory history = medicinehistory[_upc];\r\n    //history = history + \" packed by manufacturer on date____\";\r\n    //medicinehistory[_upc] = history;\r\n    // Emit the appropriate event\r\n    string memory prevhis = medicinehistory[_upc];\r\n     string memory temp =  append(prevhis,_history);\r\n     medicinehistory[_upc]= temp;\r\n    emit shippedbymanufacturer(_upc);\r\n  }\r\n\r\n  //distributor controlled functions\r\n\r\n  function RecievedDistributor(uint _upc,string memory _history) public {\r\n  // // Call modifier to check if upc has passed previous supply chain stage\r\n  // Made(_upc);\r\n  // Call modifier to verify caller of this function\r\n  \r\n    // Update the appropriate fields\r\n    medicines[_upc].medicineState = State.RecievedDistributor;\r\n   // string memory history = medicinehistory[_upc];\r\n    //history = history + \" packed by manufacturer on date____\";\r\n    //medicinehistory[_upc] = history;\r\n    string memory prevhis = medicinehistory[_upc];\r\n     string memory temp =  append(prevhis,_history);\r\n     medicinehistory[_upc]= temp;\r\n    // Emit the appropriate event\r\n    emit recievedDistributor(_upc);\r\n  }\r\n  function SoldtoPharma(uint _upc,string memory _history) public {\r\n  // // Call modifier to check if upc has passed previous supply chain stage\r\n  // Made(_upc);\r\n  // Call modifier to verify caller of this function\r\n  \r\n    // Update the appropriate fields\r\n    medicines[_upc].medicineState = State.SoldtoPharma;\r\n   // string memory history = medicinehistory[_upc];\r\n    //history = history + \" packed by manufacturer on date____\";\r\n    //medicinehistory[_upc] = history;\r\n    string memory prevhis = medicinehistory[_upc];\r\n     string memory temp =  append(prevhis,_history);\r\n     medicinehistory[_upc]= temp;\r\n    // Emit the appropriate event\r\n    emit soldtoPharma(_upc);\r\n  }\r\n  function ShippedtoPharma(uint _upc,string memory _history) public {\r\n  // // Call modifier to check if upc has passed previous supply chain stage\r\n  // Made(_upc);\r\n  // Call modifier to verify caller of this function\r\n  \r\n    // Update the appropriate fields\r\n    medicines[_upc].medicineState = State.ShippedtoPharma;\r\n   // string memory history = medicinehistory[_upc];\r\n    //history = history + \" packed by manufacturer on date____\";\r\n    //medicinehistory[_upc] = history;\r\n    string memory prevhis = medicinehistory[_upc];\r\n     string memory temp =  append(prevhis,_history);\r\n     medicinehistory[_upc]= temp;\r\n    // Emit the appropriate event\r\n    emit shippedtoPharma(_upc);\r\n  }\r\n\r\n\r\n  //Pharmacist functions \r\n\r\n  function Recieved_Pharma(uint _upc,string memory _history) public {\r\n  // // Call modifier to check if upc has passed previous supply chain stage\r\n  // Made(_upc);\r\n  // Call modifier to verify caller of this function\r\n  \r\n    // Update the appropriate fields\r\n    medicines[_upc].medicineState = State.RecievedPharma;\r\n   // string memory history = medicinehistory[_upc];\r\n    //history = history + \" packed by manufacturer on date____\";\r\n    //medicinehistory[_upc] = history;\r\n     string memory prevhis = medicinehistory[_upc];\r\n     string memory temp =  append(prevhis,_history);\r\n     medicinehistory[_upc]= temp;\r\n    \r\n    // Emit the appropriate event\r\n    emit recievedpharma(_upc);\r\n  }\r\n  function Sold_to_Patient(uint _upc,string memory _history) public {\r\n  // // Call modifier to check if upc has passed previous supply chain stage\r\n  // Made(_upc);\r\n  // Call modifier to verify caller of this function\r\n  \r\n    // Update the appropriate fields\r\n    medicines[_upc].medicineState = State.SoldtoPatient;\r\n   // string memory history = medicinehistory[_upc];\r\n    //history = history + \" packed by manufacturer on date____\";\r\n    //medicinehistory[_upc] = history;\r\n     string memory prevhis = medicinehistory[_upc];\r\n     string memory temp =  append(prevhis,_history);\r\n     medicinehistory[_upc]= temp;\r\n    // Emit the appropriate event\r\n    emit soldtopatient(_upc);\r\n  }\r\n  function Shipped_to_Patient(uint _upc,string memory _history) public {\r\n  // // Call modifier to check if upc has passed previous supply chain stage\r\n  // Made(_upc);\r\n  // Call modifier to verify caller of this function\r\n  \r\n    // Update the appropriate fields\r\n    medicines[_upc].medicineState = State.ShippedtoPatient;\r\n   // string memory history = medicinehistory[_upc];\r\n    //history = history + \" packed by manufacturer on date____\";\r\n    //medicinehistory[_upc] = history;\r\n     string memory prevhis = medicinehistory[_upc];\r\n     string memory temp =  append(prevhis,_history);\r\n     medicinehistory[_upc]= temp;\r\n    // Emit the appropriate event\r\n    emit shippedtopatient(_upc);\r\n  }\r\n\r\n\r\n\r\n  function fetchstate(uint _upc) public view returns (State _medicineState,string memory _history){\r\n    return (\r\n      medicines[_upc].medicineState,\r\n      medicinehistory[_upc]\r\n      );\r\n  }\r\n\r\n  function fetchMedicine(uint _upc) public view returns (uint upc_ , address ownerid , string memory manufacturername, string memory Latitude , string memory Longitude,string memory factoryinfo , string memory notes){\r\n    return(\r\n          _upc,\r\n          medicines[_upc].ownerID,\r\n          medicines[_upc].originFactoryName,\r\n          medicines[_upc].originFactoryLatitude,\r\n          medicines[_upc].originFactoryLongitude,\r\n          medicines[_upc].originFactoryInformation,\r\n          medicines[_upc].medicineNotes\r\n    );\r\n  }\r\n\r\n}\r\n",
  "sourcePath": "D:\\projects\\blockchain\\Capstone_final\\contracts\\SimpleStorage.sol",
  "compiler": {
    "name": "solc",
    "version": "0.5.16+commit.9c3226ce.Emscripten.clang"
  },
  "schemaVersion": "3.0.23",
  "updatedAt": "2021-12-03T18:35:21.323Z",
  "networkType": "ethereum",
  "devdoc": {
    "methods": {}
  },
  "userdoc": {
    "methods": {}
  }
}