{
  "contractName": "SimpleStorage",
  "abi": [
    {
      "anonymous": false,
      "inputs": [
        {
          "indexed": false,
          "name": "upc",
          "type": "uint256"
        }
      ],
      "name": "Made",
      "type": "event",
      "signature": "0xeb8109592a383473c76afa62041a6dbabac0ca80d859bbdffb13c5a70c454b90"
    },
    {
      "anonymous": false,
      "inputs": [
        {
          "indexed": false,
          "name": "upc",
          "type": "uint256"
        }
      ],
      "name": "Packed",
      "type": "event",
      "signature": "0x9b3b66e2380b690bae22c73ef1428fb0c91e72fe14a4b6defa13035214187aff"
    },
    {
      "anonymous": false,
      "inputs": [
        {
          "indexed": false,
          "name": "upc",
          "type": "uint256"
        }
      ],
      "name": "ForSale",
      "type": "event",
      "signature": "0xa96ae0fc3224ebd79eebfe54bd130cc9cb94416cddd1f2386115e00b72532468"
    },
    {
      "anonymous": false,
      "inputs": [
        {
          "indexed": false,
          "name": "upc",
          "type": "uint256"
        }
      ],
      "name": "Sold",
      "type": "event",
      "signature": "0x92f64ca637d023f354075a4be751b169c1a8a9ccb6d33cdd0cb3520543995727"
    },
    {
      "anonymous": false,
      "inputs": [
        {
          "indexed": false,
          "name": "upc",
          "type": "uint256"
        }
      ],
      "name": "Shipped",
      "type": "event",
      "signature": "0xf00b9a5725b80c54016f42114f6ed7792d22eecb116011c4afac29c57bef6c95"
    },
    {
      "anonymous": false,
      "inputs": [
        {
          "indexed": false,
          "name": "upc",
          "type": "uint256"
        }
      ],
      "name": "Received",
      "type": "event",
      "signature": "0xa8142743f8f70a4c26f3691cf4ed59718381fb2f18070ec52be1f1022d855557"
    },
    {
      "anonymous": false,
      "inputs": [
        {
          "indexed": false,
          "name": "upc",
          "type": "uint256"
        }
      ],
      "name": "Purchased",
      "type": "event",
      "signature": "0x653d56639fee6b566a5c804764e9689de38645f0b733df89a36a1b7b42173dd8"
    },
    {
      "constant": false,
      "inputs": [
        {
          "name": "_upc",
          "type": "uint256"
        },
        {
          "name": "_originManufacturerID",
          "type": "address"
        },
        {
          "name": "_originFactoryName",
          "type": "string"
        },
        {
          "name": "_originFactoryInformation",
          "type": "string"
        },
        {
          "name": "_originFactoryLatitude",
          "type": "string"
        },
        {
          "name": "_originFactoryLongitude",
          "type": "string"
        },
        {
          "name": "_medicineNotes",
          "type": "string"
        }
      ],
      "name": "makeMedicine",
      "outputs": [],
      "payable": false,
      "stateMutability": "nonpayable",
      "type": "function",
      "signature": "0xab77f959"
    },
    {
      "constant": false,
      "inputs": [
        {
          "name": "_upc",
          "type": "uint256"
        }
      ],
      "name": "packMedicine",
      "outputs": [],
      "payable": false,
      "stateMutability": "nonpayable",
      "type": "function",
      "signature": "0x3b7e1e86"
    },
    {
      "constant": true,
      "inputs": [
        {
          "name": "_upc",
          "type": "uint256"
        }
      ],
      "name": "fetchstate",
      "outputs": [
        {
          "name": "_medicineState",
          "type": "uint8"
        }
      ],
      "payable": false,
      "stateMutability": "view",
      "type": "function",
      "signature": "0xdbdf8b75"
    },
    {
      "constant": true,
      "inputs": [
        {
          "name": "_upc",
          "type": "uint256"
        }
      ],
      "name": "fetchMedicine",
      "outputs": [
        {
          "name": "upc_",
          "type": "uint256"
        },
        {
          "name": "ownerid",
          "type": "address"
        },
        {
          "name": "manufacturername",
          "type": "string"
        },
        {
          "name": "Latitude",
          "type": "string"
        },
        {
          "name": "Longitude",
          "type": "string"
        },
        {
          "name": "factoryinfo",
          "type": "string"
        },
        {
          "name": "notes",
          "type": "string"
        }
      ],
      "payable": false,
      "stateMutability": "view",
      "type": "function",
      "signature": "0x4fa75b7c"
    }
  ],
  "bytecode": "0x608060405234801561001057600080fd5b50611087806100206000396000f3fe608060405260043610610062576000357c0100000000000000000000000000000000000000000000000000000000900463ffffffff1680633b7e1e86146100675780634fa75b7c146100a2578063ab77f95914610340578063dbdf8b751461068e575b600080fd5b34801561007357600080fd5b506100a06004803603602081101561008a57600080fd5b81019080803590602001909291905050506106eb565b005b3480156100ae57600080fd5b506100db600480360360208110156100c557600080fd5b810190808035906020019092919050505061075c565b604051808881526020018773ffffffffffffffffffffffffffffffffffffffff1673ffffffffffffffffffffffffffffffffffffffff168152602001806020018060200180602001806020018060200186810386528b818151815260200191508051906020019080838360005b83811015610163578082015181840152602081019050610148565b50505050905090810190601f1680156101905780820380516001836020036101000a031916815260200191505b5086810385528a818151815260200191508051906020019080838360005b838110156101c95780820151818401526020810190506101ae565b50505050905090810190601f1680156101f65780820380516001836020036101000a031916815260200191505b50868103845289818151815260200191508051906020019080838360005b8381101561022f578082015181840152602081019050610214565b50505050905090810190601f16801561025c5780820380516001836020036101000a031916815260200191505b50868103835288818151815260200191508051906020019080838360005b8381101561029557808201518184015260208101905061027a565b50505050905090810190601f1680156102c25780820380516001836020036101000a031916815260200191505b50868103825287818151815260200191508051906020019080838360005b838110156102fb5780820151818401526020810190506102e0565b50505050905090810190601f1680156103285780820380516001836020036101000a031916815260200191505b509c5050505050505050505050505060405180910390f35b34801561034c57600080fd5b5061068c600480360360e081101561036357600080fd5b8101908080359060200190929190803573ffffffffffffffffffffffffffffffffffffffff169060200190929190803590602001906401000000008111156103aa57600080fd5b8201836020820111156103bc57600080fd5b803590602001918460018302840111640100000000831117156103de57600080fd5b91908080601f016020809104026020016040519081016040528093929190818152602001838380828437600081840152601f19601f8201169050808301925050505050505091929192908035906020019064010000000081111561044157600080fd5b82018360208201111561045357600080fd5b8035906020019184600183028401116401000000008311171561047557600080fd5b91908080601f016020809104026020016040519081016040528093929190818152602001838380828437600081840152601f19601f820116905080830192505050505050509192919290803590602001906401000000008111156104d857600080fd5b8201836020820111156104ea57600080fd5b8035906020019184600183028401116401000000008311171561050c57600080fd5b91908080601f016020809104026020016040519081016040528093929190818152602001838380828437600081840152601f19601f8201169050808301925050505050505091929192908035906020019064010000000081111561056f57600080fd5b82018360208201111561058157600080fd5b803590602001918460018302840111640100000000831117156105a357600080fd5b91908080601f016020809104026020016040519081016040528093929190818152602001838380828437600081840152601f19601f8201169050808301925050505050505091929192908035906020019064010000000081111561060657600080fd5b82018360208201111561061857600080fd5b8035906020019184600183028401116401000000008311171561063a57600080fd5b91908080601f016020809104026020016040519081016040528093929190818152602001838380828437600081840152601f19601f820116905080830192505050505050509192919290505050610b2c565b005b34801561069a57600080fd5b506106c7600480360360208110156106b157600080fd5b8101908080359060200190929190505050610e9a565b604051808260068111156106d757fe5b60ff16815260200191505060405180910390f35b6001600080838152602001908152602001600020600b0160006101000a81548160ff0219169083600681111561071d57fe5b02179055507f9b3b66e2380b690bae22c73ef1428fb0c91e72fe14a4b6defa13035214187aff816040518082815260200191505060405180910390a150565b6000806060806060806060876000808a815260200190815260200160002060020160009054906101000a900473ffffffffffffffffffffffffffffffffffffffff166000808b81526020019081526020016000206004016000808c81526020019081526020016000206006016000808d81526020019081526020016000206007016000808e81526020019081526020016000206005016000808f8152602001908152602001600020600901848054600181600116156101000203166002900480601f01602080910402602001604051908101604052809291908181526020018280546001816001161561010002031660029004801561089c5780601f106108715761010080835404028352916020019161089c565b820191906000526020600020905b81548152906001019060200180831161087f57829003601f168201915b50505050509450838054600181600116156101000203166002900480601f0160208091040260200160405190810160405280929190818152602001828054600181600116156101000203166002900480156109385780601f1061090d57610100808354040283529160200191610938565b820191906000526020600020905b81548152906001019060200180831161091b57829003601f168201915b50505050509350828054600181600116156101000203166002900480601f0160208091040260200160405190810160405280929190818152602001828054600181600116156101000203166002900480156109d45780601f106109a9576101008083540402835291602001916109d4565b820191906000526020600020905b8154815290600101906020018083116109b757829003601f168201915b50505050509250818054600181600116156101000203166002900480601f016020809104026020016040519081016040528092919081815260200182805460018160011615610100020316600290048015610a705780601f10610a4557610100808354040283529160200191610a70565b820191906000526020600020905b815481529060010190602001808311610a5357829003601f168201915b50505050509150808054600181600116156101000203166002900480601f016020809104026020016040519081016040528092919081815260200182805460018160011615610100020316600290048015610b0c5780601f10610ae157610100808354040283529160200191610b0c565b820191906000526020600020905b815481529060010190602001808311610aef57829003601f168201915b505050505090509650965096509650965096509650919395979092949650565b610b34610ec6565b6101e06040519081016040528060016004540181526020018981526020018873ffffffffffffffffffffffffffffffffffffffff1681526020018873ffffffffffffffffffffffffffffffffffffffff168152602001878152602001868152602001858152602001848152602001896004540181526020018381526020016000815260200160006006811115610bc657fe5b8152602001600073ffffffffffffffffffffffffffffffffffffffff168152602001600073ffffffffffffffffffffffffffffffffffffffff168152602001600073ffffffffffffffffffffffffffffffffffffffff168152509050806000808a8152602001908152602001600020600082015181600001556020820151816001015560408201518160020160006101000a81548173ffffffffffffffffffffffffffffffffffffffff021916908373ffffffffffffffffffffffffffffffffffffffff16021790555060608201518160030160006101000a81548173ffffffffffffffffffffffffffffffffffffffff021916908373ffffffffffffffffffffffffffffffffffffffff1602179055506080820151816004019080519060200190610cf3929190610fb6565b5060a0820151816005019080519060200190610d10929190610fb6565b5060c0820151816006019080519060200190610d2d929190610fb6565b5060e0820151816007019080519060200190610d4a929190610fb6565b506101008201518160080155610120820151816009019080519060200190610d73929190610fb6565b5061014082015181600a015561016082015181600b0160006101000a81548160ff02191690836006811115610da457fe5b021790555061018082015181600b0160016101000a81548173ffffffffffffffffffffffffffffffffffffffff021916908373ffffffffffffffffffffffffffffffffffffffff1602179055506101a082015181600c0160006101000a81548173ffffffffffffffffffffffffffffffffffffffff021916908373ffffffffffffffffffffffffffffffffffffffff1602179055506101c082015181600d0160006101000a81548173ffffffffffffffffffffffffffffffffffffffff021916908373ffffffffffffffffffffffffffffffffffffffff1602179055509050506001600454016004819055505050505050505050565b6000806000838152602001908152602001600020600b0160009054906101000a900460ff169050919050565b6101e0604051908101604052806000815260200160008152602001600073ffffffffffffffffffffffffffffffffffffffff168152602001600073ffffffffffffffffffffffffffffffffffffffff1681526020016060815260200160608152602001606081526020016060815260200160008152602001606081526020016000815260200160006006811115610f5957fe5b8152602001600073ffffffffffffffffffffffffffffffffffffffff168152602001600073ffffffffffffffffffffffffffffffffffffffff168152602001600073ffffffffffffffffffffffffffffffffffffffff1681525090565b828054600181600116156101000203166002900490600052602060002090601f016020900481019282601f10610ff757805160ff1916838001178555611025565b82800160010185558215611025579182015b82811115611024578251825591602001919060010190611009565b5b5090506110329190611036565b5090565b61105891905b8082111561105457600081600090555060010161103c565b5090565b9056fea165627a7a72305820908064e4db5d7a84a08f1518a15fe05b6d2c1048bd8bfa1f5b84f9b1d01b116c0029",
  "source": "// SPDX-License-Identifier: MIT\npragma solidity >=0.4.21 <0.7.0;\n\ncontract SimpleStorage {\n  \n  mapping (uint => Medicine) medicines;\n  mapping (uint => string ) medicinehistory ; \n\n  address owner;\n\n  // Define a variable called 'upc' for Universal Product Code (UPC)\n  uint  upc;\n\n  // Define a variable called 'sku' for Stock Keeping Unit (SKU)\n  uint  sku;\n\n\n  event Made(uint upc);\n  event Packed(uint upc);\n  event ForSale(uint upc);\n  event Sold(uint upc);\n  event Shipped(uint upc);\n  event Received(uint upc);\n  event Purchased(uint upc);\n\n    // Define enum 'State' with the following values:\n  enum State \n  { \n    Made,       // 0\n    Packed,     // 1\n    ForSale,    // 2\n    Sold,       // 3\n    Shipped,    // 4\n    Received,   // 5\n    Purchased   // 6\n  }\n\n   struct Medicine {\n    uint    sku;  // Stock Keeping Unit (SKU)\n    uint    upc; // Universal Product Code (UPC), generated by the Manufacturer, goes on the package, can be verified by the Patient\n    address ownerID;  // Metamask-Ethereum address of the current owner as the medicine moves through 8 stages\n    address originManufacturerID; // Metamask-Ethereum address of the Manufacturer\n    string  originFactoryName; // Manufacturer Name\n    string  originFactoryInformation;  // Manufacturer Information\n    string  originFactoryLatitude; // Factory Latitude\n    string  originFactoryLongitude;  // Factory Longitude\n    uint    medicineID;  // Product ID potentially a combination of upc + sku\n    string  medicineNotes; // Product Notes\n    uint    medicinePrice; // Product Price\n    State   medicineState;  // Product State as represented in the enum above\n    address distributorID;  // Metamask-Ethereum address of the Distributor\n    address pharmacistID; // Metamask-Ethereum address of the Pharmacist\n    address patientID; // Metamask-Ethereum address of the Patient\n  }\n\n\n  function makeMedicine(uint _upc, address _originManufacturerID, string memory _originFactoryName, string memory _originFactoryInformation, string  memory _originFactoryLatitude, string  memory _originFactoryLongitude, string  memory _medicineNotes) public\n  \n\n\n  {\n    // Add the new medicine as part of medicines\n    Medicine memory temp_medicine = Medicine({\n      sku:sku + 1,\n      upc:_upc,\n      ownerID:_originManufacturerID,\n      originManufacturerID:_originManufacturerID,\n      originFactoryName:_originFactoryName,\n      originFactoryInformation:_originFactoryInformation,\n      originFactoryLatitude:_originFactoryLatitude,\n      originFactoryLongitude:_originFactoryLongitude,\n      medicineID:sku+_upc,\n      medicineNotes:_medicineNotes,\n      medicineState:State.Made,\n      medicinePrice:0,\n      distributorID:address(0),\n      pharmacistID:address(0),\n      patientID:address(0)\n\n      });\n    //string storage initial_history=\"This med is made by date will be passed by frontend\" ;\n    medicines[_upc] = temp_medicine;\n    //medicinehistory[_upc]  =initial_history;\n\n// uint    sku;  // Stock Keeping Unit (SKU)\n//     uint    upc; // Universal Product Code (UPC), generated by the Manufacturer, goes on the package, can be verified by the Patient\n//     address ownerID;  // Metamask-Ethereum address of the current owner as the medicine moves through 8 stages\n//     address originManufacturerID; // Metamask-Ethereum address of the Manufacturer\n//     string  originFactoryName; // Manufacturer Name\n//     string  originFactoryInformation;  // Manufacturer Information\n//     string  originFactoryLatitude; // Factory Latitude\n//     string  originFactoryLongitude;  // Factory Longitude\n//     uint    medicineID;  // Product ID potentially a combination of upc + sku\n//     string  medicineNotes; // Product Notes\n//     uint    medicinePrice; // Product Price\n//     State   medicineState;  // Product State as represented in the enum above\n//     address distributorID;  // Metamask-Ethereum address of the Distributor\n//     address pharmacistID; // Metamask-Ethereum address of the Pharmacist\n//     address patientID; // Metamask-Ethereum address of the Patient\n\n\n\n\n    // Increment sku\n    sku = sku + 1;\n    // Emit the appropriate event\n\n     \n  }\n  // function makeMedicine(uint _upc,uint _price ,string memory _name) public {\n  //     Medicine memory temp_medicine = Medicine({\n  //         upc : _upc,\n  //         price : _price,\n  //         name : _name\n  //     });\n  //     medicines[_upc] = temp_medicine;\n\n  // }\n\n\n  function packMedicine(uint _upc) public {\n  // // Call modifier to check if upc has passed previous supply chain stage\n  // Made(_upc);\n  // Call modifier to verify caller of this function\n  \n    // Update the appropriate fields\n    medicines[_upc].medicineState = State.Packed;\n   // string memory history = medicinehistory[_upc];\n    //history = history + \" packed by manufacturer on date____\";\n    //medicinehistory[_upc] = history;\n    // Emit the appropriate event\n    emit Packed(_upc);\n  }\n\n\n  function fetchstate(uint _upc) public view returns (State _medicineState){\n    return (\n      medicines[_upc].medicineState\n      );\n  }\n\n  function fetchMedicine(uint _upc) public view returns (uint upc_ , address ownerid , string memory manufacturername, string memory Latitude , string memory Longitude,string memory factoryinfo , string memory notes){\n    return(\n          _upc,\n          medicines[_upc].ownerID,\n          medicines[_upc].originFactoryName,\n          medicines[_upc].originFactoryLatitude,\n          medicines[_upc].originFactoryLongitude,\n          medicines[_upc].originFactoryInformation,\n          medicines[_upc].medicineNotes\n    );\n  }\n\n}\n",
  "sourcePath": "C:/Users/remove/try_v1/contracts/SimpleStorage.sol",
  "compiler": {
    "name": "solc",
    "version": "0.5.0+commit.1d4f565a.Emscripten.clang"
  },
  "schemaVersion": "3.0.1",
  "updatedAt": "2021-12-01T15:12:34.632Z",
  "devdoc": {
    "methods": {}
  },
  "userdoc": {
    "methods": {}
  }
}