{
  "contractName": "SimpleStorage",
  "abi": [
    {
      "anonymous": false,
      "inputs": [
        {
          "indexed": false,
          "name": "upc",
          "type": "uint256"
        }
      ],
      "name": "Made",
      "type": "event",
      "signature": "0xeb8109592a383473c76afa62041a6dbabac0ca80d859bbdffb13c5a70c454b90"
    },
    {
      "anonymous": false,
      "inputs": [
        {
          "indexed": false,
          "name": "upc",
          "type": "uint256"
        }
      ],
      "name": "Packed",
      "type": "event",
      "signature": "0x9b3b66e2380b690bae22c73ef1428fb0c91e72fe14a4b6defa13035214187aff"
    },
    {
      "anonymous": false,
      "inputs": [
        {
          "indexed": false,
          "name": "upc",
          "type": "uint256"
        }
      ],
      "name": "ForSale",
      "type": "event",
      "signature": "0xa96ae0fc3224ebd79eebfe54bd130cc9cb94416cddd1f2386115e00b72532468"
    },
    {
      "anonymous": false,
      "inputs": [
        {
          "indexed": false,
          "name": "upc",
          "type": "uint256"
        }
      ],
      "name": "Soldtodistributor",
      "type": "event",
      "signature": "0xbf196506b2f00aa0ddfe8eb41c3c9ccfddcc58a5142960f08f9131afa7908496"
    },
    {
      "anonymous": false,
      "inputs": [
        {
          "indexed": false,
          "name": "upc",
          "type": "uint256"
        }
      ],
      "name": "shippedbymanufacturer",
      "type": "event",
      "signature": "0xf5fba10cdde0743e9e1a1208d61a8f3bea78c1dc743844aef4501affa3efd151"
    },
    {
      "anonymous": false,
      "inputs": [
        {
          "indexed": false,
          "name": "upc",
          "type": "uint256"
        }
      ],
      "name": "recievedDistributor",
      "type": "event",
      "signature": "0x1e93508ab5b39bf9f45afa406d4ce6117c21b48d5b79372f9e599ce66210cda2"
    },
    {
      "anonymous": false,
      "inputs": [
        {
          "indexed": false,
          "name": "upc",
          "type": "uint256"
        }
      ],
      "name": "soldtoPharma",
      "type": "event",
      "signature": "0xd27cf9eb13fb50222e8ff27788988edb150171b58e49b33f165418d0eb0253eb"
    },
    {
      "anonymous": false,
      "inputs": [
        {
          "indexed": false,
          "name": "upc",
          "type": "uint256"
        }
      ],
      "name": "shippedtoPharma",
      "type": "event",
      "signature": "0x94d498cff24e232da4c3ed3ce9547d37faee065ef6fe670586828a6e3ccf8a53"
    },
    {
      "anonymous": false,
      "inputs": [
        {
          "indexed": false,
          "name": "upc",
          "type": "uint256"
        }
      ],
      "name": "recievedpharma",
      "type": "event",
      "signature": "0x73d6827c08a640a6959426f0ee26c7bb964902de8446b4ca6bca213740bf262f"
    },
    {
      "anonymous": false,
      "inputs": [
        {
          "indexed": false,
          "name": "upc",
          "type": "uint256"
        }
      ],
      "name": "soldtopatient",
      "type": "event",
      "signature": "0x616dfa0fd1e8003e293d0d707897c48415f6acadc960e3a8239f70841bc98c5b"
    },
    {
      "anonymous": false,
      "inputs": [
        {
          "indexed": false,
          "name": "upc",
          "type": "uint256"
        }
      ],
      "name": "shippedtopatient",
      "type": "event",
      "signature": "0xb4cdacdf11ca5dc03f3ddd7b53e92ed9d205e79bf7c06a3f4b514b084a17bb5d"
    },
    {
      "anonymous": false,
      "inputs": [
        {
          "indexed": false,
          "name": "upc",
          "type": "uint256"
        }
      ],
      "name": "Purchased",
      "type": "event",
      "signature": "0x653d56639fee6b566a5c804764e9689de38645f0b733df89a36a1b7b42173dd8"
    },
    {
      "constant": false,
      "inputs": [
        {
          "name": "_upc",
          "type": "uint256"
        },
        {
          "name": "_originManufacturerID",
          "type": "address"
        },
        {
          "name": "_originFactoryName",
          "type": "string"
        },
        {
          "name": "_originFactoryInformation",
          "type": "string"
        },
        {
          "name": "_originFactoryLatitude",
          "type": "string"
        },
        {
          "name": "_originFactoryLongitude",
          "type": "string"
        },
        {
          "name": "_medicineNotes",
          "type": "string"
        },
        {
          "name": "_history",
          "type": "string"
        }
      ],
      "name": "makeMedicine",
      "outputs": [],
      "payable": false,
      "stateMutability": "nonpayable",
      "type": "function",
      "signature": "0x318c5036"
    },
    {
      "constant": false,
      "inputs": [
        {
          "name": "_upc",
          "type": "uint256"
        },
        {
          "name": "_history",
          "type": "string"
        }
      ],
      "name": "packMedicine",
      "outputs": [],
      "payable": false,
      "stateMutability": "nonpayable",
      "type": "function",
      "signature": "0x70b184da"
    },
    {
      "constant": false,
      "inputs": [
        {
          "name": "_upc",
          "type": "uint256"
        },
        {
          "name": "_history",
          "type": "string"
        }
      ],
      "name": "forSale_bymanuf",
      "outputs": [],
      "payable": false,
      "stateMutability": "nonpayable",
      "type": "function",
      "signature": "0x9e1a2f30"
    },
    {
      "constant": false,
      "inputs": [
        {
          "name": "_upc",
          "type": "uint256"
        },
        {
          "name": "_history",
          "type": "string"
        }
      ],
      "name": "soldToDistributor",
      "outputs": [],
      "payable": false,
      "stateMutability": "nonpayable",
      "type": "function",
      "signature": "0x4ab7e29d"
    },
    {
      "constant": false,
      "inputs": [
        {
          "name": "_upc",
          "type": "uint256"
        },
        {
          "name": "_history",
          "type": "string"
        }
      ],
      "name": "shippedByManufacturer",
      "outputs": [],
      "payable": false,
      "stateMutability": "nonpayable",
      "type": "function",
      "signature": "0xd759283a"
    },
    {
      "constant": false,
      "inputs": [
        {
          "name": "_upc",
          "type": "uint256"
        },
        {
          "name": "_history",
          "type": "string"
        }
      ],
      "name": "RecievedDistributor",
      "outputs": [],
      "payable": false,
      "stateMutability": "nonpayable",
      "type": "function",
      "signature": "0xd08b536c"
    },
    {
      "constant": false,
      "inputs": [
        {
          "name": "_upc",
          "type": "uint256"
        },
        {
          "name": "_history",
          "type": "string"
        }
      ],
      "name": "SoldtoPharma",
      "outputs": [],
      "payable": false,
      "stateMutability": "nonpayable",
      "type": "function",
      "signature": "0x8c2891ce"
    },
    {
      "constant": false,
      "inputs": [
        {
          "name": "_upc",
          "type": "uint256"
        },
        {
          "name": "_history",
          "type": "string"
        }
      ],
      "name": "ShippedtoPharma",
      "outputs": [],
      "payable": false,
      "stateMutability": "nonpayable",
      "type": "function",
      "signature": "0x8f5d97f1"
    },
    {
      "constant": false,
      "inputs": [
        {
          "name": "_upc",
          "type": "uint256"
        },
        {
          "name": "_history",
          "type": "string"
        }
      ],
      "name": "Recieved_Pharma",
      "outputs": [],
      "payable": false,
      "stateMutability": "nonpayable",
      "type": "function",
      "signature": "0xe0cbb35e"
    },
    {
      "constant": false,
      "inputs": [
        {
          "name": "_upc",
          "type": "uint256"
        },
        {
          "name": "_history",
          "type": "string"
        }
      ],
      "name": "Sold_to_Patient",
      "outputs": [],
      "payable": false,
      "stateMutability": "nonpayable",
      "type": "function",
      "signature": "0xd1c6a24d"
    },
    {
      "constant": false,
      "inputs": [
        {
          "name": "_upc",
          "type": "uint256"
        },
        {
          "name": "_history",
          "type": "string"
        }
      ],
      "name": "Shipped_to_Patient",
      "outputs": [],
      "payable": false,
      "stateMutability": "nonpayable",
      "type": "function",
      "signature": "0x3e2d5e2b"
    },
    {
      "constant": true,
      "inputs": [
        {
          "name": "_upc",
          "type": "uint256"
        }
      ],
      "name": "fetchstate",
      "outputs": [
        {
          "name": "_medicineState",
          "type": "uint8"
        },
        {
          "name": "_history",
          "type": "string"
        }
      ],
      "payable": false,
      "stateMutability": "view",
      "type": "function",
      "signature": "0xdbdf8b75"
    },
    {
      "constant": true,
      "inputs": [
        {
          "name": "_upc",
          "type": "uint256"
        }
      ],
      "name": "fetchMedicine",
      "outputs": [
        {
          "name": "upc_",
          "type": "uint256"
        },
        {
          "name": "ownerid",
          "type": "address"
        },
        {
          "name": "manufacturername",
          "type": "string"
        },
        {
          "name": "Latitude",
          "type": "string"
        },
        {
          "name": "Longitude",
          "type": "string"
        },
        {
          "name": "factoryinfo",
          "type": "string"
        },
        {
          "name": "notes",
          "type": "string"
        }
      ],
      "payable": false,
      "stateMutability": "view",
      "type": "function",
      "signature": "0x4fa75b7c"
    }
  ],
  "bytecode": "0x608060405234801561001057600080fd5b50612922806100206000396000f3fe6080604052600436106100c5576000357c0100000000000000000000000000000000000000000000000000000000900463ffffffff168063318c5036146100ca5780633e2d5e2b146104b05780634ab7e29d146105825780634fa75b7c1461065457806370b184da146108f25780638c2891ce146109c45780638f5d97f114610a965780639e1a2f3014610b68578063d08b536c14610c3a578063d1c6a24d14610d0c578063d759283a14610dde578063dbdf8b7514610eb0578063e0cbb35e14610f79575b600080fd5b3480156100d657600080fd5b506104ae60048036036101008110156100ee57600080fd5b8101908080359060200190929190803573ffffffffffffffffffffffffffffffffffffffff1690602001909291908035906020019064010000000081111561013557600080fd5b82018360208201111561014757600080fd5b8035906020019184600183028401116401000000008311171561016957600080fd5b91908080601f016020809104026020016040519081016040528093929190818152602001838380828437600081840152601f19601f820116905080830192505050505050509192919290803590602001906401000000008111156101cc57600080fd5b8201836020820111156101de57600080fd5b8035906020019184600183028401116401000000008311171561020057600080fd5b91908080601f016020809104026020016040519081016040528093929190818152602001838380828437600081840152601f19601f8201169050808301925050505050505091929192908035906020019064010000000081111561026357600080fd5b82018360208201111561027557600080fd5b8035906020019184600183028401116401000000008311171561029757600080fd5b91908080601f016020809104026020016040519081016040528093929190818152602001838380828437600081840152601f19601f820116905080830192505050505050509192919290803590602001906401000000008111156102fa57600080fd5b82018360208201111561030c57600080fd5b8035906020019184600183028401116401000000008311171561032e57600080fd5b91908080601f016020809104026020016040519081016040528093929190818152602001838380828437600081840152601f19601f8201169050808301925050505050505091929192908035906020019064010000000081111561039157600080fd5b8201836020820111156103a357600080fd5b803590602001918460018302840111640100000000831117156103c557600080fd5b91908080601f016020809104026020016040519081016040528093929190818152602001838380828437600081840152601f19601f8201169050808301925050505050505091929192908035906020019064010000000081111561042857600080fd5b82018360208201111561043a57600080fd5b8035906020019184600183028401116401000000008311171561045c57600080fd5b91908080601f016020809104026020016040519081016040528093929190818152602001838380828437600081840152601f19601f82011690508083019250505050505050919291929050505061104b565b005b3480156104bc57600080fd5b50610580600480360360408110156104d357600080fd5b8101908080359060200190929190803590602001906401000000008111156104fa57600080fd5b82018360208201111561050c57600080fd5b8035906020019184600183028401116401000000008311171561052e57600080fd5b91908080601f016020809104026020016040519081016040528093929190818152602001838380828437600081840152601f19601f8201169050808301925050505050505091929192905050506113e2565b005b34801561058e57600080fd5b50610652600480360360408110156105a557600080fd5b8101908080359060200190929190803590602001906401000000008111156105cc57600080fd5b8201836020820111156105de57600080fd5b8035906020019184600183028401116401000000008311171561060057600080fd5b91908080601f016020809104026020016040519081016040528093929190818152602001838380828437600081840152601f19601f82011690508083019250505050505050919291929050505061153c565b005b34801561066057600080fd5b5061068d6004803603602081101561067757600080fd5b8101908080359060200190929190505050611696565b604051808881526020018773ffffffffffffffffffffffffffffffffffffffff1673ffffffffffffffffffffffffffffffffffffffff168152602001806020018060200180602001806020018060200186810386528b818151815260200191508051906020019080838360005b838110156107155780820151818401526020810190506106fa565b50505050905090810190601f1680156107425780820380516001836020036101000a031916815260200191505b5086810385528a818151815260200191508051906020019080838360005b8381101561077b578082015181840152602081019050610760565b50505050905090810190601f1680156107a85780820380516001836020036101000a031916815260200191505b50868103845289818151815260200191508051906020019080838360005b838110156107e15780820151818401526020810190506107c6565b50505050905090810190601f16801561080e5780820380516001836020036101000a031916815260200191505b50868103835288818151815260200191508051906020019080838360005b8381101561084757808201518184015260208101905061082c565b50505050905090810190601f1680156108745780820380516001836020036101000a031916815260200191505b50868103825287818151815260200191508051906020019080838360005b838110156108ad578082015181840152602081019050610892565b50505050905090810190601f1680156108da5780820380516001836020036101000a031916815260200191505b509c5050505050505050505050505060405180910390f35b3480156108fe57600080fd5b506109c26004803603604081101561091557600080fd5b81019080803590602001909291908035906020019064010000000081111561093c57600080fd5b82018360208201111561094e57600080fd5b8035906020019184600183028401116401000000008311171561097057600080fd5b91908080601f016020809104026020016040519081016040528093929190818152602001838380828437600081840152601f19601f820116905080830192505050505050509192919290505050611a66565b005b3480156109d057600080fd5b50610a94600480360360408110156109e757600080fd5b810190808035906020019092919080359060200190640100000000811115610a0e57600080fd5b820183602082011115610a2057600080fd5b80359060200191846001830284011164010000000083111715610a4257600080fd5b91908080601f016020809104026020016040519081016040528093929190818152602001838380828437600081840152601f19601f820116905080830192505050505050509192919290505050611bc0565b005b348015610aa257600080fd5b50610b6660048036036040811015610ab957600080fd5b810190808035906020019092919080359060200190640100000000811115610ae057600080fd5b820183602082011115610af257600080fd5b80359060200191846001830284011164010000000083111715610b1457600080fd5b91908080601f016020809104026020016040519081016040528093929190818152602001838380828437600081840152601f19601f820116905080830192505050505050509192919290505050611d1a565b005b348015610b7457600080fd5b50610c3860048036036040811015610b8b57600080fd5b810190808035906020019092919080359060200190640100000000811115610bb257600080fd5b820183602082011115610bc457600080fd5b80359060200191846001830284011164010000000083111715610be657600080fd5b91908080601f016020809104026020016040519081016040528093929190818152602001838380828437600081840152601f19601f820116905080830192505050505050509192919290505050611e74565b005b348015610c4657600080fd5b50610d0a60048036036040811015610c5d57600080fd5b810190808035906020019092919080359060200190640100000000811115610c8457600080fd5b820183602082011115610c9657600080fd5b80359060200191846001830284011164010000000083111715610cb857600080fd5b91908080601f016020809104026020016040519081016040528093929190818152602001838380828437600081840152601f19601f820116905080830192505050505050509192919290505050611fce565b005b348015610d1857600080fd5b50610ddc60048036036040811015610d2f57600080fd5b810190808035906020019092919080359060200190640100000000811115610d5657600080fd5b820183602082011115610d6857600080fd5b80359060200191846001830284011164010000000083111715610d8a57600080fd5b91908080601f016020809104026020016040519081016040528093929190818152602001838380828437600081840152601f19601f820116905080830192505050505050509192919290505050612128565b005b348015610dea57600080fd5b50610eae60048036036040811015610e0157600080fd5b810190808035906020019092919080359060200190640100000000811115610e2857600080fd5b820183602082011115610e3a57600080fd5b80359060200191846001830284011164010000000083111715610e5c57600080fd5b91908080601f016020809104026020016040519081016040528093929190818152602001838380828437600081840152601f19601f820116905080830192505050505050509192919290505050612282565b005b348015610ebc57600080fd5b50610ee960048036036020811015610ed357600080fd5b81019080803590602001909291905050506123dc565b6040518083600a811115610ef957fe5b60ff16815260200180602001828103825283818151815260200191508051906020019080838360005b83811015610f3d578082015181840152602081019050610f22565b50505050905090810190601f168015610f6a5780820380516001836020036101000a031916815260200191505b50935050505060405180910390f35b348015610f8557600080fd5b5061104960048036036040811015610f9c57600080fd5b810190808035906020019092919080359060200190640100000000811115610fc357600080fd5b820183602082011115610fd557600080fd5b80359060200191846001830284011164010000000083111715610ff757600080fd5b91908080601f016020809104026020016040519081016040528093929190818152602001838380828437600081840152601f19601f8201169050808301925050505050505091929192905050506124bb565b005b6110536126e1565b6101e06040519081016040528060016004540181526020018a81526020018973ffffffffffffffffffffffffffffffffffffffff1681526020018973ffffffffffffffffffffffffffffffffffffffff1681526020018881526020018781526020018681526020018581526020018a600454018152602001848152602001600081526020016000600a8111156110e557fe5b8152602001600073ffffffffffffffffffffffffffffffffffffffff168152602001600073ffffffffffffffffffffffffffffffffffffffff168152602001600073ffffffffffffffffffffffffffffffffffffffff168152509050806000808b8152602001908152602001600020600082015181600001556020820151816001015560408201518160020160006101000a81548173ffffffffffffffffffffffffffffffffffffffff021916908373ffffffffffffffffffffffffffffffffffffffff16021790555060608201518160030160006101000a81548173ffffffffffffffffffffffffffffffffffffffff021916908373ffffffffffffffffffffffffffffffffffffffff16021790555060808201518160040190805190602001906112129291906127d1565b5060a082015181600501908051906020019061122f9291906127d1565b5060c082015181600601908051906020019061124c9291906127d1565b5060e08201518160070190805190602001906112699291906127d1565b5061010082015181600801556101208201518160090190805190602001906112929291906127d1565b5061014082015181600a015561016082015181600b0160006101000a81548160ff0219169083600a8111156112c357fe5b021790555061018082015181600b0160016101000a81548173ffffffffffffffffffffffffffffffffffffffff021916908373ffffffffffffffffffffffffffffffffffffffff1602179055506101a082015181600c0160006101000a81548173ffffffffffffffffffffffffffffffffffffffff021916908373ffffffffffffffffffffffffffffffffffffffff1602179055506101c082015181600d0160006101000a81548173ffffffffffffffffffffffffffffffffffffffff021916908373ffffffffffffffffffffffffffffffffffffffff16021790555090505081600160008b815260200190815260200160002090805190602001906113ca929190612851565b50600160045401600481905550505050505050505050565b600a600080848152602001908152602001600020600b0160006101000a81548160ff0219169083600a81111561141457fe5b02179055506060600160008481526020019081526020016000208054600181600116156101000203166002900480601f0160208091040260200160405190810160405280929190818152602001828054600181600116156101000203166002900480156114c25780601f10611497576101008083540402835291602001916114c2565b820191906000526020600020905b8154815290600101906020018083116114a557829003601f168201915b5050505050905060606114d58284612615565b9050806001600086815260200190815260200160002090805190602001906114fe929190612851565b507fb4cdacdf11ca5dc03f3ddd7b53e92ed9d205e79bf7c06a3f4b514b084a17bb5d846040518082815260200191505060405180910390a150505050565b6003600080848152602001908152602001600020600b0160006101000a81548160ff0219169083600a81111561156e57fe5b02179055506060600160008481526020019081526020016000208054600181600116156101000203166002900480601f01602080910402602001604051908101604052809291908181526020018280546001816001161561010002031660029004801561161c5780601f106115f15761010080835404028352916020019161161c565b820191906000526020600020905b8154815290600101906020018083116115ff57829003601f168201915b50505050509050606061162f8284612615565b905080600160008681526020019081526020016000209080519060200190611658929190612851565b507fbf196506b2f00aa0ddfe8eb41c3c9ccfddcc58a5142960f08f9131afa7908496846040518082815260200191505060405180910390a150505050565b6000806060806060806060876000808a815260200190815260200160002060020160009054906101000a900473ffffffffffffffffffffffffffffffffffffffff166000808b81526020019081526020016000206004016000808c81526020019081526020016000206006016000808d81526020019081526020016000206007016000808e81526020019081526020016000206005016000808f8152602001908152602001600020600901848054600181600116156101000203166002900480601f0160208091040260200160405190810160405280929190818152602001828054600181600116156101000203166002900480156117d65780601f106117ab576101008083540402835291602001916117d6565b820191906000526020600020905b8154815290600101906020018083116117b957829003601f168201915b50505050509450838054600181600116156101000203166002900480601f0160208091040260200160405190810160405280929190818152602001828054600181600116156101000203166002900480156118725780601f1061184757610100808354040283529160200191611872565b820191906000526020600020905b81548152906001019060200180831161185557829003601f168201915b50505050509350828054600181600116156101000203166002900480601f01602080910402602001604051908101604052809291908181526020018280546001816001161561010002031660029004801561190e5780601f106118e35761010080835404028352916020019161190e565b820191906000526020600020905b8154815290600101906020018083116118f157829003601f168201915b50505050509250818054600181600116156101000203166002900480601f0160208091040260200160405190810160405280929190818152602001828054600181600116156101000203166002900480156119aa5780601f1061197f576101008083540402835291602001916119aa565b820191906000526020600020905b81548152906001019060200180831161198d57829003601f168201915b50505050509150808054600181600116156101000203166002900480601f016020809104026020016040519081016040528092919081815260200182805460018160011615610100020316600290048015611a465780601f10611a1b57610100808354040283529160200191611a46565b820191906000526020600020905b815481529060010190602001808311611a2957829003601f168201915b505050505090509650965096509650965096509650919395979092949650565b6001600080848152602001908152602001600020600b0160006101000a81548160ff0219169083600a811115611a9857fe5b02179055506060600160008481526020019081526020016000208054600181600116156101000203166002900480601f016020809104026020016040519081016040528092919081815260200182805460018160011615610100020316600290048015611b465780601f10611b1b57610100808354040283529160200191611b46565b820191906000526020600020905b815481529060010190602001808311611b2957829003601f168201915b505050505090506060611b598284612615565b905080600160008681526020019081526020016000209080519060200190611b82929190612851565b507f9b3b66e2380b690bae22c73ef1428fb0c91e72fe14a4b6defa13035214187aff846040518082815260200191505060405180910390a150505050565b6006600080848152602001908152602001600020600b0160006101000a81548160ff0219169083600a811115611bf257fe5b02179055506060600160008481526020019081526020016000208054600181600116156101000203166002900480601f016020809104026020016040519081016040528092919081815260200182805460018160011615610100020316600290048015611ca05780601f10611c7557610100808354040283529160200191611ca0565b820191906000526020600020905b815481529060010190602001808311611c8357829003601f168201915b505050505090506060611cb38284612615565b905080600160008681526020019081526020016000209080519060200190611cdc929190612851565b507fd27cf9eb13fb50222e8ff27788988edb150171b58e49b33f165418d0eb0253eb846040518082815260200191505060405180910390a150505050565b6007600080848152602001908152602001600020600b0160006101000a81548160ff0219169083600a811115611d4c57fe5b02179055506060600160008481526020019081526020016000208054600181600116156101000203166002900480601f016020809104026020016040519081016040528092919081815260200182805460018160011615610100020316600290048015611dfa5780601f10611dcf57610100808354040283529160200191611dfa565b820191906000526020600020905b815481529060010190602001808311611ddd57829003601f168201915b505050505090506060611e0d8284612615565b905080600160008681526020019081526020016000209080519060200190611e36929190612851565b507f94d498cff24e232da4c3ed3ce9547d37faee065ef6fe670586828a6e3ccf8a53846040518082815260200191505060405180910390a150505050565b6002600080848152602001908152602001600020600b0160006101000a81548160ff0219169083600a811115611ea657fe5b02179055506060600160008481526020019081526020016000208054600181600116156101000203166002900480601f016020809104026020016040519081016040528092919081815260200182805460018160011615610100020316600290048015611f545780601f10611f2957610100808354040283529160200191611f54565b820191906000526020600020905b815481529060010190602001808311611f3757829003601f168201915b505050505090506060611f678284612615565b905080600160008681526020019081526020016000209080519060200190611f90929190612851565b507fa96ae0fc3224ebd79eebfe54bd130cc9cb94416cddd1f2386115e00b72532468846040518082815260200191505060405180910390a150505050565b6005600080848152602001908152602001600020600b0160006101000a81548160ff0219169083600a81111561200057fe5b02179055506060600160008481526020019081526020016000208054600181600116156101000203166002900480601f0160208091040260200160405190810160405280929190818152602001828054600181600116156101000203166002900480156120ae5780601f10612083576101008083540402835291602001916120ae565b820191906000526020600020905b81548152906001019060200180831161209157829003601f168201915b5050505050905060606120c18284612615565b9050806001600086815260200190815260200160002090805190602001906120ea929190612851565b507f1e93508ab5b39bf9f45afa406d4ce6117c21b48d5b79372f9e599ce66210cda2846040518082815260200191505060405180910390a150505050565b6009600080848152602001908152602001600020600b0160006101000a81548160ff0219169083600a81111561215a57fe5b02179055506060600160008481526020019081526020016000208054600181600116156101000203166002900480601f0160208091040260200160405190810160405280929190818152602001828054600181600116156101000203166002900480156122085780601f106121dd57610100808354040283529160200191612208565b820191906000526020600020905b8154815290600101906020018083116121eb57829003601f168201915b50505050509050606061221b8284612615565b905080600160008681526020019081526020016000209080519060200190612244929190612851565b507f616dfa0fd1e8003e293d0d707897c48415f6acadc960e3a8239f70841bc98c5b846040518082815260200191505060405180910390a150505050565b6004600080848152602001908152602001600020600b0160006101000a81548160ff0219169083600a8111156122b457fe5b02179055506060600160008481526020019081526020016000208054600181600116156101000203166002900480601f0160208091040260200160405190810160405280929190818152602001828054600181600116156101000203166002900480156123625780601f1061233757610100808354040283529160200191612362565b820191906000526020600020905b81548152906001019060200180831161234557829003601f168201915b5050505050905060606123758284612615565b90508060016000868152602001908152602001600020908051906020019061239e929190612851565b507ff5fba10cdde0743e9e1a1208d61a8f3bea78c1dc743844aef4501affa3efd151846040518082815260200191505060405180910390a150505050565b60006060600080848152602001908152602001600020600b0160009054906101000a900460ff1660016000858152602001908152602001600020808054600181600116156101000203166002900480601f0160208091040260200160405190810160405280929190818152602001828054600181600116156101000203166002900480156124ab5780601f10612480576101008083540402835291602001916124ab565b820191906000526020600020905b81548152906001019060200180831161248e57829003601f168201915b5050505050905091509150915091565b6008600080848152602001908152602001600020600b0160006101000a81548160ff0219169083600a8111156124ed57fe5b02179055506060600160008481526020019081526020016000208054600181600116156101000203166002900480601f01602080910402602001604051908101604052809291908181526020018280546001816001161561010002031660029004801561259b5780601f106125705761010080835404028352916020019161259b565b820191906000526020600020905b81548152906001019060200180831161257e57829003601f168201915b5050505050905060606125ae8284612615565b9050806001600086815260200190815260200160002090805190602001906125d7929190612851565b507f73d6827c08a640a6959426f0ee26c7bb964902de8446b4ca6bca213740bf262f846040518082815260200191505060405180910390a150505050565b606082826040516020018083805190602001908083835b602083101515612651578051825260208201915060208101905060208303925061262c565b6001836020036101000a03801982511681845116808217855250505050505090500182805190602001908083835b6020831015156126a4578051825260208201915060208101905060208303925061267f565b6001836020036101000a03801982511681845116808217855250505050505090500192505050604051602081830303815290604052905092915050565b6101e0604051908101604052806000815260200160008152602001600073ffffffffffffffffffffffffffffffffffffffff168152602001600073ffffffffffffffffffffffffffffffffffffffff168152602001606081526020016060815260200160608152602001606081526020016000815260200160608152602001600081526020016000600a81111561277457fe5b8152602001600073ffffffffffffffffffffffffffffffffffffffff168152602001600073ffffffffffffffffffffffffffffffffffffffff168152602001600073ffffffffffffffffffffffffffffffffffffffff1681525090565b828054600181600116156101000203166002900490600052602060002090601f016020900481019282601f1061281257805160ff1916838001178555612840565b82800160010185558215612840579182015b8281111561283f578251825591602001919060010190612824565b5b50905061284d91906128d1565b5090565b828054600181600116156101000203166002900490600052602060002090601f016020900481019282601f1061289257805160ff19168380011785556128c0565b828001600101855582156128c0579182015b828111156128bf5782518255916020019190600101906128a4565b5b5090506128cd91906128d1565b5090565b6128f391905b808211156128ef5760008160009055506001016128d7565b5090565b9056fea165627a7a72305820ca2e554fc05e2f213e51678653471e8d6e2f117c793c85f9cb5cc0fc9ec7ca5c0029",
  "source": "// SPDX-License-Identifier: MIT\npragma solidity >=0.4.21 <0.7.0;\n\ncontract SimpleStorage {\n\n\n\n  //basic functions\n\n\n\n\n    function append(string memory a, string memory b) internal pure returns (string memory s) {\n\n    return string(abi.encodePacked(a, b));\n\n}\n\n\n\n\n\n\n\n\n  \n  mapping (uint => Medicine) medicines;\n  mapping (uint => string ) medicinehistory ; \n\n  address owner;\n\n  // Define a variable called 'upc' for Universal Product Code (UPC)\n  uint  upc;\n\n  // Define a variable called 'sku' for Stock Keeping Unit (SKU)\n  uint  sku;\n\n  //manufacturer events\n  event Made(uint upc);\n  event Packed(uint upc);\n  event ForSale(uint upc);\n  event Soldtodistributor(uint upc);\n  event shippedbymanufacturer(uint upc);\n  //distributor events\n  event recievedDistributor(uint upc);\n  event soldtoPharma(uint upc);\n  event shippedtoPharma(uint upc);\n  //pharma events\n  event recievedpharma(uint upc);\n  event soldtopatient(uint upc);\n  event shippedtopatient(uint upc);\n  //Patientt event \n  event Purchased(uint upc);\n\n    // Define enum 'State' with the following values:\n  enum State \n  { \n    //manufacturer states\n    Made,       // 0\n    Packed,     // 1\n    ForSale,    // 2\n    Soldtodistributor, //3\n    shippedbymanufacturer,//4\n    //distributor states\n    RecievedDistributor, //5\n    SoldtoPharma, //6\n    ShippedtoPharma,  //7\n    //Pharmacist\n    RecievedPharma, //8\n    SoldtoPatient , //9\n    ShippedtoPatient //10\n\n\n\n  }\n\n   struct Medicine {\n    uint    sku;  // Stock Keeping Unit (SKU)\n    uint    upc; // Universal Product Code (UPC), generated by the Manufacturer, goes on the package, can be verified by the Patient\n    address ownerID;  // Metamask-Ethereum address of the current owner as the medicine moves through 8 stages\n    address originManufacturerID; // Metamask-Ethereum address of the Manufacturer\n    string  originFactoryName; // Manufacturer Name\n    string  originFactoryInformation;  // Manufacturer Information\n    string  originFactoryLatitude; // Factory Latitude\n    string  originFactoryLongitude;  // Factory Longitude\n    uint    medicineID;  // Product ID potentially a combination of upc + sku\n    string  medicineNotes; // Product Notes\n    uint    medicinePrice; // Product Price\n    State   medicineState;  // Product State as represented in the enum above\n    address distributorID;  // Metamask-Ethereum address of the Distributor\n    address pharmacistID; // Metamask-Ethereum address of the Pharmacist\n    address patientID; // Metamask-Ethereum address of the Patient\n  }\n\n\n  function makeMedicine(uint _upc, address _originManufacturerID, string memory _originFactoryName, string memory _originFactoryInformation, string  memory _originFactoryLatitude, string  memory _originFactoryLongitude, string  memory _medicineNotes, string memory _history) public\n  \n\n\n  {\n    // Add the new medicine as part of medicines\n    Medicine memory temp_medicine = Medicine({\n      sku:sku + 1,\n      upc:_upc,\n      ownerID:_originManufacturerID,\n      originManufacturerID:_originManufacturerID,\n      originFactoryName:_originFactoryName,\n      originFactoryInformation:_originFactoryInformation,\n      originFactoryLatitude:_originFactoryLatitude,\n      originFactoryLongitude:_originFactoryLongitude,\n      medicineID:sku+_upc,\n      medicineNotes:_medicineNotes,\n      medicineState:State.Made,\n      medicinePrice:0,\n      distributorID:address(0),\n      pharmacistID:address(0),\n      patientID:address(0)\n\n      });\n    //string storage initial_history=\"This med is made by date will be passed by frontend\" ;\n    medicines[_upc] = temp_medicine;\n    medicinehistory[_upc]  =_history;\n\n// uint    sku;  // Stock Keeping Unit (SKU)\n//     uint    upc; // Universal Product Code (UPC), generated by the Manufacturer, goes on the package, can be verified by the Patient\n//     address ownerID;  // Metamask-Ethereum address of the current owner as the medicine moves through 8 stages\n//     address originManufacturerID; // Metamask-Ethereum address of the Manufacturer\n//     string  originFactoryName; // Manufacturer Name\n//     string  originFactoryInformation;  // Manufacturer Information\n//     string  originFactoryLatitude; // Factory Latitude\n//     string  originFactoryLongitude;  // Factory Longitude\n//     uint    medicineID;  // Product ID potentially a combination of upc + sku\n//     string  medicineNotes; // Product Notes\n//     uint    medicinePrice; // Product Price\n//     State   medicineState;  // Product State as represented in the enum above\n//     address distributorID;  // Metamask-Ethereum address of the Distributor\n//     address pharmacistID; // Metamask-Ethereum address of the Pharmacist\n//     address patientID; // Metamask-Ethereum address of the Patient\n\n\n\n\n    // Increment sku\n    sku = sku + 1;\n    // Emit the appropriate event\n\n     \n  }\n  // function makeMedicine(uint _upc,uint _price ,string memory _name) public {\n  //     Medicine memory temp_medicine = Medicine({\n  //         upc : _upc,\n  //         price : _price,\n  //         name : _name\n  //     });\n  //     medicines[_upc] = temp_medicine;\n\n  // }\n\n  //manufacturer sub events\n\n  function packMedicine(uint _upc,string memory _history) public {\n  // // Call modifier to check if upc has passed previous supply chain stage\n  // Made(_upc);\n  // Call modifier to verify caller of this function\n  \n    // Update the appropriate fields\n    medicines[_upc].medicineState = State.Packed;\n    // string memory prevhis = medicinehistory[_upc];\n    //string  memory t1= concatenate(prevhis,_history);\n     string memory prevhis = medicinehistory[_upc];\n     string memory temp =  append(prevhis,_history);\n     medicinehistory[_upc]= temp;\n\n\n\n   // string memory history = medicinehistory[_upc];\n    //history = history + \" packed by manufacturer on date____\";\n    //medicinehistory[_upc] = history;\n    // Emit the appropriate event\n    emit Packed(_upc);\n  }\n\n   function forSale_bymanuf(uint _upc,string memory _history) public {\n  // // Call modifier to check if upc has passed previous supply chain stage\n  // Made(_upc);\n  // Call modifier to verify caller of this function\n  \n    // Update the appropriate fields\n    medicines[_upc].medicineState = State.ForSale;\n   // string memory history = medicinehistory[_upc];\n    //history = history + \" packed by manufacturer on date____\";\n    //medicinehistory[_upc] = history;\n    \n    string memory prevhis = medicinehistory[_upc];\n     string memory temp =  append(prevhis,_history);\n     medicinehistory[_upc]= temp;\n    // Emit the appropriate event\n\n    emit ForSale(_upc);\n  }\n\n   function soldToDistributor(uint _upc,string memory _history) public {\n  // // Call modifier to check if upc has passed previous supply chain stage\n  // Made(_upc);\n  // Call modifier to verify caller of this function\n  \n    // Update the appropriate fields\n    medicines[_upc].medicineState = State.Soldtodistributor;\n   // string memory history = medicinehistory[_upc];\n    //history = history + \" packed by manufacturer on date____\";\n    //medicinehistory[_upc] = history;\n    string memory prevhis = medicinehistory[_upc];\n     string memory temp =  append(prevhis,_history);\n     medicinehistory[_upc]= temp;\n    // Emit the appropriate event\n    emit Soldtodistributor(_upc);\n  }\n\n\n\n\n function shippedByManufacturer(uint _upc,string memory _history) public {\n  // // Call modifier to check if upc has passed previous supply chain stage\n  // Made(_upc);\n  // Call modifier to verify caller of this function\n  \n    // Update the appropriate fields\n    medicines[_upc].medicineState = State.shippedbymanufacturer;\n   // string memory history = medicinehistory[_upc];\n    //history = history + \" packed by manufacturer on date____\";\n    //medicinehistory[_upc] = history;\n    // Emit the appropriate event\n    string memory prevhis = medicinehistory[_upc];\n     string memory temp =  append(prevhis,_history);\n     medicinehistory[_upc]= temp;\n    emit shippedbymanufacturer(_upc);\n  }\n\n  //distributor controlled functions\n\n  function RecievedDistributor(uint _upc,string memory _history) public {\n  // // Call modifier to check if upc has passed previous supply chain stage\n  // Made(_upc);\n  // Call modifier to verify caller of this function\n  \n    // Update the appropriate fields\n    medicines[_upc].medicineState = State.RecievedDistributor;\n   // string memory history = medicinehistory[_upc];\n    //history = history + \" packed by manufacturer on date____\";\n    //medicinehistory[_upc] = history;\n    string memory prevhis = medicinehistory[_upc];\n     string memory temp =  append(prevhis,_history);\n     medicinehistory[_upc]= temp;\n    // Emit the appropriate event\n    emit recievedDistributor(_upc);\n  }\n  function SoldtoPharma(uint _upc,string memory _history) public {\n  // // Call modifier to check if upc has passed previous supply chain stage\n  // Made(_upc);\n  // Call modifier to verify caller of this function\n  \n    // Update the appropriate fields\n    medicines[_upc].medicineState = State.SoldtoPharma;\n   // string memory history = medicinehistory[_upc];\n    //history = history + \" packed by manufacturer on date____\";\n    //medicinehistory[_upc] = history;\n    string memory prevhis = medicinehistory[_upc];\n     string memory temp =  append(prevhis,_history);\n     medicinehistory[_upc]= temp;\n    // Emit the appropriate event\n    emit soldtoPharma(_upc);\n  }\n  function ShippedtoPharma(uint _upc,string memory _history) public {\n  // // Call modifier to check if upc has passed previous supply chain stage\n  // Made(_upc);\n  // Call modifier to verify caller of this function\n  \n    // Update the appropriate fields\n    medicines[_upc].medicineState = State.ShippedtoPharma;\n   // string memory history = medicinehistory[_upc];\n    //history = history + \" packed by manufacturer on date____\";\n    //medicinehistory[_upc] = history;\n    string memory prevhis = medicinehistory[_upc];\n     string memory temp =  append(prevhis,_history);\n     medicinehistory[_upc]= temp;\n    // Emit the appropriate event\n    emit shippedtoPharma(_upc);\n  }\n\n\n  //Pharmacist functions \n\n  function Recieved_Pharma(uint _upc,string memory _history) public {\n  // // Call modifier to check if upc has passed previous supply chain stage\n  // Made(_upc);\n  // Call modifier to verify caller of this function\n  \n    // Update the appropriate fields\n    medicines[_upc].medicineState = State.RecievedPharma;\n   // string memory history = medicinehistory[_upc];\n    //history = history + \" packed by manufacturer on date____\";\n    //medicinehistory[_upc] = history;\n     string memory prevhis = medicinehistory[_upc];\n     string memory temp =  append(prevhis,_history);\n     medicinehistory[_upc]= temp;\n    \n    // Emit the appropriate event\n    emit recievedpharma(_upc);\n  }\n  function Sold_to_Patient(uint _upc,string memory _history) public {\n  // // Call modifier to check if upc has passed previous supply chain stage\n  // Made(_upc);\n  // Call modifier to verify caller of this function\n  \n    // Update the appropriate fields\n    medicines[_upc].medicineState = State.SoldtoPatient;\n   // string memory history = medicinehistory[_upc];\n    //history = history + \" packed by manufacturer on date____\";\n    //medicinehistory[_upc] = history;\n     string memory prevhis = medicinehistory[_upc];\n     string memory temp =  append(prevhis,_history);\n     medicinehistory[_upc]= temp;\n    // Emit the appropriate event\n    emit soldtopatient(_upc);\n  }\n  function Shipped_to_Patient(uint _upc,string memory _history) public {\n  // // Call modifier to check if upc has passed previous supply chain stage\n  // Made(_upc);\n  // Call modifier to verify caller of this function\n  \n    // Update the appropriate fields\n    medicines[_upc].medicineState = State.ShippedtoPatient;\n   // string memory history = medicinehistory[_upc];\n    //history = history + \" packed by manufacturer on date____\";\n    //medicinehistory[_upc] = history;\n     string memory prevhis = medicinehistory[_upc];\n     string memory temp =  append(prevhis,_history);\n     medicinehistory[_upc]= temp;\n    // Emit the appropriate event\n    emit shippedtopatient(_upc);\n  }\n\n\n\n  function fetchstate(uint _upc) public view returns (State _medicineState,string memory _history){\n    return (\n      medicines[_upc].medicineState,\n      medicinehistory[_upc]\n      );\n  }\n\n  function fetchMedicine(uint _upc) public view returns (uint upc_ , address ownerid , string memory manufacturername, string memory Latitude , string memory Longitude,string memory factoryinfo , string memory notes){\n    return(\n          _upc,\n          medicines[_upc].ownerID,\n          medicines[_upc].originFactoryName,\n          medicines[_upc].originFactoryLatitude,\n          medicines[_upc].originFactoryLongitude,\n          medicines[_upc].originFactoryInformation,\n          medicines[_upc].medicineNotes\n    );\n  }\n\n}\n",
  "sourcePath": "C:/Users/remove/try_v1/contracts/SimpleStorage.sol",
  "compiler": {
    "name": "solc",
    "version": "0.5.0+commit.1d4f565a.Emscripten.clang"
  },
  "schemaVersion": "3.0.1",
  "updatedAt": "2021-12-03T09:47:49.742Z",
  "devdoc": {
    "methods": {}
  },
  "userdoc": {
    "methods": {}
  }
}