{
  "contractName": "SimpleStorage",
  "abi": [
    {
      "constant": true,
      "inputs": [
        {
          "name": "account",
          "type": "address"
        }
      ],
      "name": "isManufacturer",
      "outputs": [
        {
          "name": "",
          "type": "bool"
        }
      ],
      "payable": false,
      "stateMutability": "view",
      "type": "function",
      "signature": "0x17d4a491"
    },
    {
      "constant": false,
      "inputs": [],
      "name": "renouncePharmacist",
      "outputs": [],
      "payable": false,
      "stateMutability": "nonpayable",
      "type": "function",
      "signature": "0x5ae63247"
    },
    {
      "constant": false,
      "inputs": [
        {
          "name": "account",
          "type": "address"
        }
      ],
      "name": "addManufacturer",
      "outputs": [],
      "payable": false,
      "stateMutability": "nonpayable",
      "type": "function",
      "signature": "0x5f8a5afa"
    },
    {
      "constant": false,
      "inputs": [],
      "name": "renounceDistributor",
      "outputs": [],
      "payable": false,
      "stateMutability": "nonpayable",
      "type": "function",
      "signature": "0x644241db"
    },
    {
      "constant": false,
      "inputs": [
        {
          "name": "account",
          "type": "address"
        }
      ],
      "name": "addPatient",
      "outputs": [],
      "payable": false,
      "stateMutability": "nonpayable",
      "type": "function",
      "signature": "0x6d263ceb"
    },
    {
      "constant": false,
      "inputs": [
        {
          "name": "account",
          "type": "address"
        }
      ],
      "name": "addDistributor",
      "outputs": [],
      "payable": false,
      "stateMutability": "nonpayable",
      "type": "function",
      "signature": "0x7250e224"
    },
    {
      "constant": false,
      "inputs": [],
      "name": "renouncePatient",
      "outputs": [],
      "payable": false,
      "stateMutability": "nonpayable",
      "type": "function",
      "signature": "0x81a07c36"
    },
    {
      "constant": true,
      "inputs": [
        {
          "name": "account",
          "type": "address"
        }
      ],
      "name": "isPharmacist",
      "outputs": [
        {
          "name": "",
          "type": "bool"
        }
      ],
      "payable": false,
      "stateMutability": "view",
      "type": "function",
      "signature": "0x82946ee2"
    },
    {
      "constant": true,
      "inputs": [
        {
          "name": "account",
          "type": "address"
        }
      ],
      "name": "isDistributor",
      "outputs": [
        {
          "name": "",
          "type": "bool"
        }
      ],
      "payable": false,
      "stateMutability": "view",
      "type": "function",
      "signature": "0x8f0c86fa"
    },
    {
      "constant": true,
      "inputs": [
        {
          "name": "account",
          "type": "address"
        }
      ],
      "name": "isPatient",
      "outputs": [
        {
          "name": "",
          "type": "bool"
        }
      ],
      "payable": false,
      "stateMutability": "view",
      "type": "function",
      "signature": "0x8f9c79ed"
    },
    {
      "constant": false,
      "inputs": [
        {
          "name": "account",
          "type": "address"
        }
      ],
      "name": "_addManufacturer",
      "outputs": [],
      "payable": false,
      "stateMutability": "nonpayable",
      "type": "function",
      "signature": "0x95f91fe4"
    },
    {
      "constant": false,
      "inputs": [
        {
          "name": "account",
          "type": "address"
        }
      ],
      "name": "addPharmacist",
      "outputs": [],
      "payable": false,
      "stateMutability": "nonpayable",
      "type": "function",
      "signature": "0xc09e2693"
    },
    {
      "constant": false,
      "inputs": [],
      "name": "renounceManufacturer",
      "outputs": [],
      "payable": false,
      "stateMutability": "nonpayable",
      "type": "function",
      "signature": "0xde07f34e"
    },
    {
      "anonymous": false,
      "inputs": [
        {
          "indexed": false,
          "name": "upc",
          "type": "uint256"
        }
      ],
      "name": "Made",
      "type": "event",
      "signature": "0xeb8109592a383473c76afa62041a6dbabac0ca80d859bbdffb13c5a70c454b90"
    },
    {
      "anonymous": false,
      "inputs": [
        {
          "indexed": false,
          "name": "upc",
          "type": "uint256"
        }
      ],
      "name": "Packed",
      "type": "event",
      "signature": "0x9b3b66e2380b690bae22c73ef1428fb0c91e72fe14a4b6defa13035214187aff"
    },
    {
      "anonymous": false,
      "inputs": [
        {
          "indexed": false,
          "name": "upc",
          "type": "uint256"
        }
      ],
      "name": "ForSale",
      "type": "event",
      "signature": "0xa96ae0fc3224ebd79eebfe54bd130cc9cb94416cddd1f2386115e00b72532468"
    },
    {
      "anonymous": false,
      "inputs": [
        {
          "indexed": false,
          "name": "upc",
          "type": "uint256"
        }
      ],
      "name": "Soldtodistributor",
      "type": "event",
      "signature": "0xbf196506b2f00aa0ddfe8eb41c3c9ccfddcc58a5142960f08f9131afa7908496"
    },
    {
      "anonymous": false,
      "inputs": [
        {
          "indexed": false,
          "name": "upc",
          "type": "uint256"
        }
      ],
      "name": "shippedbymanufacturer",
      "type": "event",
      "signature": "0xf5fba10cdde0743e9e1a1208d61a8f3bea78c1dc743844aef4501affa3efd151"
    },
    {
      "anonymous": false,
      "inputs": [
        {
          "indexed": false,
          "name": "upc",
          "type": "uint256"
        }
      ],
      "name": "recievedDistributor",
      "type": "event",
      "signature": "0x1e93508ab5b39bf9f45afa406d4ce6117c21b48d5b79372f9e599ce66210cda2"
    },
    {
      "anonymous": false,
      "inputs": [
        {
          "indexed": false,
          "name": "upc",
          "type": "uint256"
        }
      ],
      "name": "soldtoPharma",
      "type": "event",
      "signature": "0xd27cf9eb13fb50222e8ff27788988edb150171b58e49b33f165418d0eb0253eb"
    },
    {
      "anonymous": false,
      "inputs": [
        {
          "indexed": false,
          "name": "upc",
          "type": "uint256"
        }
      ],
      "name": "shippedtoPharma",
      "type": "event",
      "signature": "0x94d498cff24e232da4c3ed3ce9547d37faee065ef6fe670586828a6e3ccf8a53"
    },
    {
      "anonymous": false,
      "inputs": [
        {
          "indexed": false,
          "name": "upc",
          "type": "uint256"
        }
      ],
      "name": "recievedpharma",
      "type": "event",
      "signature": "0x73d6827c08a640a6959426f0ee26c7bb964902de8446b4ca6bca213740bf262f"
    },
    {
      "anonymous": false,
      "inputs": [
        {
          "indexed": false,
          "name": "upc",
          "type": "uint256"
        }
      ],
      "name": "soldtopatient",
      "type": "event",
      "signature": "0x616dfa0fd1e8003e293d0d707897c48415f6acadc960e3a8239f70841bc98c5b"
    },
    {
      "anonymous": false,
      "inputs": [
        {
          "indexed": false,
          "name": "upc",
          "type": "uint256"
        }
      ],
      "name": "shippedtopatient",
      "type": "event",
      "signature": "0xb4cdacdf11ca5dc03f3ddd7b53e92ed9d205e79bf7c06a3f4b514b084a17bb5d"
    },
    {
      "anonymous": false,
      "inputs": [
        {
          "indexed": false,
          "name": "upc",
          "type": "uint256"
        }
      ],
      "name": "Purchased",
      "type": "event",
      "signature": "0x653d56639fee6b566a5c804764e9689de38645f0b733df89a36a1b7b42173dd8"
    },
    {
      "anonymous": false,
      "inputs": [
        {
          "indexed": true,
          "name": "account",
          "type": "address"
        }
      ],
      "name": "DistributorAdded",
      "type": "event",
      "signature": "0xddbf200aa634dc3fb81cfd68583dd1040d1c751d335e1d86b631bde3e977fea8"
    },
    {
      "anonymous": false,
      "inputs": [
        {
          "indexed": true,
          "name": "account",
          "type": "address"
        }
      ],
      "name": "DistributorRemoved",
      "type": "event",
      "signature": "0x126174f6cf49c81cdb4a9214c6b8f037bef55b4ec31e4fc776cea2a1c8a88d59"
    },
    {
      "anonymous": false,
      "inputs": [
        {
          "indexed": true,
          "name": "account",
          "type": "address"
        }
      ],
      "name": "ManufacturerAdded",
      "type": "event",
      "signature": "0x561138658ca49a8540dc70dcfe64c9026c1c5b9344642242dd6562970f9c1278"
    },
    {
      "anonymous": false,
      "inputs": [
        {
          "indexed": true,
          "name": "account",
          "type": "address"
        }
      ],
      "name": "ManufacturerRemoved",
      "type": "event",
      "signature": "0x2fed5abf6a80d6dfe30b4895481b2fc5d7dce5f8f7b931832f4a2947d5040c7f"
    },
    {
      "anonymous": false,
      "inputs": [
        {
          "indexed": true,
          "name": "account",
          "type": "address"
        }
      ],
      "name": "PatientAdded",
      "type": "event",
      "signature": "0xa58cff07db0adda3ab7a40bd2f18ab57210bf38391a52ffd2e8eee6b8bdec71a"
    },
    {
      "anonymous": false,
      "inputs": [
        {
          "indexed": true,
          "name": "account",
          "type": "address"
        }
      ],
      "name": "PatientRemoved",
      "type": "event",
      "signature": "0x053a4badf166f01c4b02f6bcb71d2d67734470d0866282e291e73001aa25c769"
    },
    {
      "anonymous": false,
      "inputs": [
        {
          "indexed": true,
          "name": "account",
          "type": "address"
        }
      ],
      "name": "PharmacistAdded",
      "type": "event",
      "signature": "0x5a4264410853372bdd7255ebc9624cb523fc039cd6f9f1855165194738125f63"
    },
    {
      "anonymous": false,
      "inputs": [
        {
          "indexed": true,
          "name": "account",
          "type": "address"
        }
      ],
      "name": "PharmacistRemoved",
      "type": "event",
      "signature": "0x9d17ec7e57a5118cf27abf33370bcc6f007c27a9706ab4cc473a76fe552447d2"
    },
    {
      "constant": false,
      "inputs": [
        {
          "name": "_name",
          "type": "string"
        },
        {
          "name": "_upc",
          "type": "uint256"
        },
        {
          "name": "_originManufacturerID",
          "type": "address"
        },
        {
          "name": "_originFactoryName",
          "type": "string"
        },
        {
          "name": "_originFactoryInformation",
          "type": "string"
        },
        {
          "name": "_originFactoryLatitude",
          "type": "string"
        },
        {
          "name": "_originFactoryLongitude",
          "type": "string"
        },
        {
          "name": "_medicineNotes",
          "type": "string"
        },
        {
          "name": "_history",
          "type": "string"
        }
      ],
      "name": "makeMedicine",
      "outputs": [],
      "payable": false,
      "stateMutability": "nonpayable",
      "type": "function",
      "signature": "0x1e110c0a"
    },
    {
      "constant": true,
      "inputs": [
        {
          "name": "_manuname",
          "type": "string"
        },
        {
          "name": "_name",
          "type": "string"
        }
      ],
      "name": "checkstockmanuf",
      "outputs": [
        {
          "name": "",
          "type": "uint256"
        }
      ],
      "payable": false,
      "stateMutability": "view",
      "type": "function",
      "signature": "0x8562adb6"
    },
    {
      "constant": true,
      "inputs": [
        {
          "name": "_distname",
          "type": "string"
        },
        {
          "name": "_name",
          "type": "string"
        }
      ],
      "name": "checkstockdist",
      "outputs": [
        {
          "name": "",
          "type": "uint256"
        }
      ],
      "payable": false,
      "stateMutability": "view",
      "type": "function",
      "signature": "0x1ff61531"
    },
    {
      "constant": true,
      "inputs": [
        {
          "name": "_pharmaname",
          "type": "string"
        },
        {
          "name": "_name",
          "type": "string"
        }
      ],
      "name": "checkstockpharma",
      "outputs": [
        {
          "name": "",
          "type": "uint256"
        }
      ],
      "payable": false,
      "stateMutability": "view",
      "type": "function",
      "signature": "0x7407ab48"
    },
    {
      "constant": false,
      "inputs": [
        {
          "name": "_upc",
          "type": "uint256"
        },
        {
          "name": "_history",
          "type": "string"
        }
      ],
      "name": "packMedicine",
      "outputs": [],
      "payable": false,
      "stateMutability": "nonpayable",
      "type": "function",
      "signature": "0x70b184da"
    },
    {
      "constant": false,
      "inputs": [
        {
          "name": "_upc",
          "type": "uint256"
        },
        {
          "name": "_history",
          "type": "string"
        }
      ],
      "name": "forSale_bymanuf",
      "outputs": [],
      "payable": false,
      "stateMutability": "nonpayable",
      "type": "function",
      "signature": "0x9e1a2f30"
    },
    {
      "constant": false,
      "inputs": [
        {
          "name": "_upc",
          "type": "uint256"
        },
        {
          "name": "_history",
          "type": "string"
        }
      ],
      "name": "soldToDistributor",
      "outputs": [],
      "payable": false,
      "stateMutability": "nonpayable",
      "type": "function",
      "signature": "0x4ab7e29d"
    },
    {
      "constant": false,
      "inputs": [
        {
          "name": "_upc",
          "type": "uint256"
        },
        {
          "name": "_history",
          "type": "string"
        }
      ],
      "name": "shippedByManufacturer",
      "outputs": [],
      "payable": false,
      "stateMutability": "nonpayable",
      "type": "function",
      "signature": "0xd759283a"
    },
    {
      "constant": false,
      "inputs": [
        {
          "name": "_upc",
          "type": "uint256"
        },
        {
          "name": "_name",
          "type": "string"
        },
        {
          "name": "_long",
          "type": "string"
        },
        {
          "name": "_lat",
          "type": "string"
        },
        {
          "name": "_address",
          "type": "address"
        },
        {
          "name": "_history",
          "type": "string"
        }
      ],
      "name": "RecievedDistributor",
      "outputs": [],
      "payable": false,
      "stateMutability": "nonpayable",
      "type": "function",
      "signature": "0xe4f4aa2a"
    },
    {
      "constant": false,
      "inputs": [
        {
          "name": "_upc",
          "type": "uint256"
        },
        {
          "name": "_history",
          "type": "string"
        }
      ],
      "name": "SoldtoPharma",
      "outputs": [],
      "payable": false,
      "stateMutability": "nonpayable",
      "type": "function",
      "signature": "0x8c2891ce"
    },
    {
      "constant": false,
      "inputs": [
        {
          "name": "_upc",
          "type": "uint256"
        },
        {
          "name": "_history",
          "type": "string"
        }
      ],
      "name": "ShippedtoPharma",
      "outputs": [],
      "payable": false,
      "stateMutability": "nonpayable",
      "type": "function",
      "signature": "0x8f5d97f1"
    },
    {
      "constant": false,
      "inputs": [
        {
          "name": "_upc",
          "type": "uint256"
        },
        {
          "name": "_name",
          "type": "string"
        },
        {
          "name": "_long",
          "type": "string"
        },
        {
          "name": "_lat",
          "type": "string"
        },
        {
          "name": "_address",
          "type": "address"
        },
        {
          "name": "_history",
          "type": "string"
        }
      ],
      "name": "Recieved_Pharma",
      "outputs": [],
      "payable": false,
      "stateMutability": "nonpayable",
      "type": "function",
      "signature": "0x898513e4"
    },
    {
      "constant": false,
      "inputs": [
        {
          "name": "_upc",
          "type": "uint256"
        },
        {
          "name": "_history",
          "type": "string"
        }
      ],
      "name": "Sold_to_Patient",
      "outputs": [],
      "payable": false,
      "stateMutability": "nonpayable",
      "type": "function",
      "signature": "0xd1c6a24d"
    },
    {
      "constant": false,
      "inputs": [
        {
          "name": "_upc",
          "type": "uint256"
        },
        {
          "name": "_history",
          "type": "string"
        }
      ],
      "name": "Shipped_to_Patient",
      "outputs": [],
      "payable": false,
      "stateMutability": "nonpayable",
      "type": "function",
      "signature": "0x3e2d5e2b"
    },
    {
      "constant": true,
      "inputs": [
        {
          "name": "_upc",
          "type": "uint256"
        }
      ],
      "name": "checkmedicine",
      "outputs": [
        {
          "name": "",
          "type": "bool"
        }
      ],
      "payable": false,
      "stateMutability": "view",
      "type": "function",
      "signature": "0x027b3cbc"
    },
    {
      "constant": false,
      "inputs": [
        {
          "name": "_upc",
          "type": "uint256"
        }
      ],
      "name": "claim",
      "outputs": [],
      "payable": false,
      "stateMutability": "nonpayable",
      "type": "function",
      "signature": "0x379607f5"
    },
    {
      "constant": true,
      "inputs": [
        {
          "name": "_upc",
          "type": "uint256"
        }
      ],
      "name": "fetchstate",
      "outputs": [
        {
          "name": "_medicineState",
          "type": "uint8"
        },
        {
          "name": "_history",
          "type": "string"
        }
      ],
      "payable": false,
      "stateMutability": "view",
      "type": "function",
      "signature": "0xdbdf8b75"
    },
    {
      "constant": true,
      "inputs": [
        {
          "name": "_upc",
          "type": "uint256"
        }
      ],
      "name": "fetchCordinates",
      "outputs": [
        {
          "name": "manfcodlat",
          "type": "string"
        },
        {
          "name": "manfcodlong",
          "type": "string"
        },
        {
          "name": "distcodlat",
          "type": "string"
        },
        {
          "name": "distcodlong",
          "type": "string"
        },
        {
          "name": "phcodlat",
          "type": "string"
        },
        {
          "name": "phcodlong",
          "type": "string"
        }
      ],
      "payable": false,
      "stateMutability": "view",
      "type": "function",
      "signature": "0xf3a12307"
    },
    {
      "constant": true,
      "inputs": [
        {
          "name": "_upc",
          "type": "uint256"
        }
      ],
      "name": "fetchMedicine",
      "outputs": [
        {
          "name": "mid",
          "type": "address"
        },
        {
          "name": "did",
          "type": "address"
        },
        {
          "name": "pid",
          "type": "address"
        },
        {
          "name": "mname",
          "type": "string"
        },
        {
          "name": "dname",
          "type": "string"
        },
        {
          "name": "pname",
          "type": "string"
        },
        {
          "name": "mnotes",
          "type": "string"
        }
      ],
      "payable": false,
      "stateMutability": "view",
      "type": "function",
      "signature": "0x4fa75b7c"
    }
  ],
  "bytecode": "0x60806040526200001e3362000072640100000000026401000000009004565b6200003833620000d9640100000000026401000000009004565b620000523362000140640100000000026401000000009004565b6200006c33620001a7640100000000026401000000009004565b62000366565b620000936000826200020e6401000000000262005374176401000000009004565b8073ffffffffffffffffffffffffffffffffffffffff167f5a4264410853372bdd7255ebc9624cb523fc039cd6f9f1855165194738125f6360405160405180910390a250565b620000fa6001826200020e6401000000000262005374176401000000009004565b8073ffffffffffffffffffffffffffffffffffffffff167fa58cff07db0adda3ab7a40bd2f18ab57210bf38391a52ffd2e8eee6b8bdec71a60405160405180910390a250565b620001616002826200020e6401000000000262005374176401000000009004565b8073ffffffffffffffffffffffffffffffffffffffff167f561138658ca49a8540dc70dcfe64c9026c1c5b9344642242dd6562970f9c127860405160405180910390a250565b620001c86003826200020e6401000000000262005374176401000000009004565b8073ffffffffffffffffffffffffffffffffffffffff167fddbf200aa634dc3fb81cfd68583dd1040d1c751d335e1d86b631bde3e977fea860405160405180910390a250565b600073ffffffffffffffffffffffffffffffffffffffff168173ffffffffffffffffffffffffffffffffffffffff16141515156200024b57600080fd5b620002668282620002d1640100000000026401000000009004565b1515156200027357600080fd5b60018260000160008373ffffffffffffffffffffffffffffffffffffffff1673ffffffffffffffffffffffffffffffffffffffff16815260200190815260200160002060006101000a81548160ff0219169083151502179055505050565b60008073ffffffffffffffffffffffffffffffffffffffff168273ffffffffffffffffffffffffffffffffffffffff16141515156200030f57600080fd5b8260000160008373ffffffffffffffffffffffffffffffffffffffff1673ffffffffffffffffffffffffffffffffffffffff16815260200190815260200160002060009054906101000a900460ff16905092915050565b61580580620003766000396000f3fe608060405260043610610196576000357c0100000000000000000000000000000000000000000000000000000000900463ffffffff168063027b3cbc1461019b57806317d4a491146101ee5780631e110c0a146102575780631ff61531146106d4578063379607f5146108475780633e2d5e2b146108825780634ab7e29d146109545780634fa75b7c14610a265780635ae6324714610cb75780635f8a5afa14610cce578063644241db14610d1f5780636d263ceb14610d3657806370b184da14610d875780637250e22414610e595780637407ab4814610eaa57806381a07c361461101d57806382946ee2146110345780638562adb61461109d578063898513e4146112105780638c2891ce146114c75780638f0c86fa146115995780638f5d97f1146116025780638f9c79ed146116d457806395f91fe41461173d5780639e1a2f301461178e578063c09e269314611860578063d1c6a24d146118b1578063d759283a14611983578063dbdf8b7514611a55578063de07f34e14611b1e578063e4f4aa2a14611b35578063f3a1230714611dec575b600080fd5b3480156101a757600080fd5b506101d4600480360360208110156101be57600080fd5b81019080803590602001909291905050506120bc565b604051808215151515815260200191505060405180910390f35b3480156101fa57600080fd5b5061023d6004803603602081101561021157600080fd5b81019080803573ffffffffffffffffffffffffffffffffffffffff169060200190929190505050612101565b604051808215151515815260200191505060405180910390f35b34801561026357600080fd5b506106d2600480360361012081101561027b57600080fd5b810190808035906020019064010000000081111561029857600080fd5b8201836020820111156102aa57600080fd5b803590602001918460018302840111640100000000831117156102cc57600080fd5b91908080601f016020809104026020016040519081016040528093929190818152602001838380828437600081840152601f19601f82011690508083019250505050505050919291929080359060200190929190803573ffffffffffffffffffffffffffffffffffffffff1690602001909291908035906020019064010000000081111561035957600080fd5b82018360208201111561036b57600080fd5b8035906020019184600183028401116401000000008311171561038d57600080fd5b91908080601f016020809104026020016040519081016040528093929190818152602001838380828437600081840152601f19601f820116905080830192505050505050509192919290803590602001906401000000008111156103f057600080fd5b82018360208201111561040257600080fd5b8035906020019184600183028401116401000000008311171561042457600080fd5b91908080601f016020809104026020016040519081016040528093929190818152602001838380828437600081840152601f19601f8201169050808301925050505050505091929192908035906020019064010000000081111561048757600080fd5b82018360208201111561049957600080fd5b803590602001918460018302840111640100000000831117156104bb57600080fd5b91908080601f016020809104026020016040519081016040528093929190818152602001838380828437600081840152601f19601f8201169050808301925050505050505091929192908035906020019064010000000081111561051e57600080fd5b82018360208201111561053057600080fd5b8035906020019184600183028401116401000000008311171561055257600080fd5b91908080601f016020809104026020016040519081016040528093929190818152602001838380828437600081840152601f19601f820116905080830192505050505050509192919290803590602001906401000000008111156105b557600080fd5b8201836020820111156105c757600080fd5b803590602001918460018302840111640100000000831117156105e957600080fd5b91908080601f016020809104026020016040519081016040528093929190818152602001838380828437600081840152601f19601f8201169050808301925050505050505091929192908035906020019064010000000081111561064c57600080fd5b82018360208201111561065e57600080fd5b8035906020019184600183028401116401000000008311171561068057600080fd5b91908080601f016020809104026020016040519081016040528093929190818152602001838380828437600081840152601f19601f820116905080830192505050505050509192919290505050612115565b005b3480156106e057600080fd5b50610831600480360360408110156106f757600080fd5b810190808035906020019064010000000081111561071457600080fd5b82018360208201111561072657600080fd5b8035906020019184600183028401116401000000008311171561074857600080fd5b91908080601f016020809104026020016040519081016040528093929190818152602001838380828437600081840152601f19601f820116905080830192505050505050509192919290803590602001906401000000008111156107ab57600080fd5b8201836020820111156107bd57600080fd5b803590602001918460018302840111640100000000831117156107df57600080fd5b91908080601f016020809104026020016040519081016040528093929190818152602001838380828437600081840152601f19601f820116905080830192505050505050509192919290505050612989565b6040518082815260200191505060405180910390f35b34801561085357600080fd5b506108806004803603602081101561086a57600080fd5b8101908080359060200190929190505050612a25565b005b34801561088e57600080fd5b50610952600480360360408110156108a557600080fd5b8101908080359060200190929190803590602001906401000000008111156108cc57600080fd5b8201836020820111156108de57600080fd5b8035906020019184600183028401116401000000008311171561090057600080fd5b91908080601f016020809104026020016040519081016040528093929190818152602001838380828437600081840152601f19601f820116905080830192505050505050509192919290505050612a57565b005b34801561096057600080fd5b50610a246004803603604081101561097757600080fd5b81019080803590602001909291908035906020019064010000000081111561099e57600080fd5b8201836020820111156109b057600080fd5b803590602001918460018302840111640100000000831117156109d257600080fd5b91908080601f016020809104026020016040519081016040528093929190818152602001838380828437600081840152601f19601f820116905080830192505050505050509192919290505050612c10565b005b348015610a3257600080fd5b50610a5f60048036036020811015610a4957600080fd5b8101908080359060200190929190505050612dc9565b604051808873ffffffffffffffffffffffffffffffffffffffff1673ffffffffffffffffffffffffffffffffffffffff1681526020018773ffffffffffffffffffffffffffffffffffffffff1673ffffffffffffffffffffffffffffffffffffffff1681526020018673ffffffffffffffffffffffffffffffffffffffff1673ffffffffffffffffffffffffffffffffffffffff16815260200180602001806020018060200180602001858103855289818151815260200191508051906020019080838360005b83811015610b41578082015181840152602081019050610b26565b50505050905090810190601f168015610b6e5780820380516001836020036101000a031916815260200191505b50858103845288818151815260200191508051906020019080838360005b83811015610ba7578082015181840152602081019050610b8c565b50505050905090810190601f168015610bd45780820380516001836020036101000a031916815260200191505b50858103835287818151815260200191508051906020019080838360005b83811015610c0d578082015181840152602081019050610bf2565b50505050905090810190601f168015610c3a5780820380516001836020036101000a031916815260200191505b50858103825286818151815260200191508051906020019080838360005b83811015610c73578082015181840152602081019050610c58565b50505050905090810190601f168015610ca05780820380516001836020036101000a031916815260200191505b509b50505050505050505050505060405180910390f35b348015610cc357600080fd5b50610ccc61316e565b005b348015610cda57600080fd5b50610d1d60048036036020811015610cf157600080fd5b81019080803573ffffffffffffffffffffffffffffffffffffffff169060200190929190505050613179565b005b348015610d2b57600080fd5b50610d34613185565b005b348015610d4257600080fd5b50610d8560048036036020811015610d5957600080fd5b81019080803573ffffffffffffffffffffffffffffffffffffffff169060200190929190505050613190565b005b348015610d9357600080fd5b50610e5760048036036040811015610daa57600080fd5b810190808035906020019092919080359060200190640100000000811115610dd157600080fd5b820183602082011115610de357600080fd5b80359060200191846001830284011164010000000083111715610e0557600080fd5b91908080601f016020809104026020016040519081016040528093929190818152602001838380828437600081840152601f19601f8201169050808301925050505050505091929192905050506131b0565b005b348015610e6557600080fd5b50610ea860048036036020811015610e7c57600080fd5b81019080803573ffffffffffffffffffffffffffffffffffffffff169060200190929190505050613369565b005b348015610eb657600080fd5b5061100760048036036040811015610ecd57600080fd5b8101908080359060200190640100000000811115610eea57600080fd5b820183602082011115610efc57600080fd5b80359060200191846001830284011164010000000083111715610f1e57600080fd5b91908080601f016020809104026020016040519081016040528093929190818152602001838380828437600081840152601f19601f82011690508083019250505050505050919291929080359060200190640100000000811115610f8157600080fd5b820183602082011115610f9357600080fd5b80359060200191846001830284011164010000000083111715610fb557600080fd5b91908080601f016020809104026020016040519081016040528093929190818152602001838380828437600081840152601f19601f820116905080830192505050505050509192919290505050613389565b6040518082815260200191505060405180910390f35b34801561102957600080fd5b50611032613425565b005b34801561104057600080fd5b506110836004803603602081101561105757600080fd5b81019080803573ffffffffffffffffffffffffffffffffffffffff169060200190929190505050613430565b604051808215151515815260200191505060405180910390f35b3480156110a957600080fd5b506111fa600480360360408110156110c057600080fd5b81019080803590602001906401000000008111156110dd57600080fd5b8201836020820111156110ef57600080fd5b8035906020019184600183028401116401000000008311171561111157600080fd5b91908080601f016020809104026020016040519081016040528093929190818152602001838380828437600081840152601f19601f8201169050808301925050505050505091929192908035906020019064010000000081111561117457600080fd5b82018360208201111561118657600080fd5b803590602001918460018302840111640100000000831117156111a857600080fd5b91908080601f016020809104026020016040519081016040528093929190818152602001838380828437600081840152601f19601f820116905080830192505050505050509192919290505050613444565b6040518082815260200191505060405180910390f35b34801561121c57600080fd5b506114c5600480360360c081101561123357600080fd5b81019080803590602001909291908035906020019064010000000081111561125a57600080fd5b82018360208201111561126c57600080fd5b8035906020019184600183028401116401000000008311171561128e57600080fd5b91908080601f016020809104026020016040519081016040528093929190818152602001838380828437600081840152601f19601f820116905080830192505050505050509192919290803590602001906401000000008111156112f157600080fd5b82018360208201111561130357600080fd5b8035906020019184600183028401116401000000008311171561132557600080fd5b91908080601f016020809104026020016040519081016040528093929190818152602001838380828437600081840152601f19601f8201169050808301925050505050505091929192908035906020019064010000000081111561138857600080fd5b82018360208201111561139a57600080fd5b803590602001918460018302840111640100000000831117156113bc57600080fd5b91908080601f016020809104026020016040519081016040528093929190818152602001838380828437600081840152601f19601f820116905080830192505050505050509192919290803573ffffffffffffffffffffffffffffffffffffffff1690602001909291908035906020019064010000000081111561143f57600080fd5b82018360208201111561145157600080fd5b8035906020019184600183028401116401000000008311171561147357600080fd5b91908080601f016020809104026020016040519081016040528093929190818152602001838380828437600081840152601f19601f8201169050808301925050505050505091929192905050506134e0565b005b3480156114d357600080fd5b50611597600480360360408110156114ea57600080fd5b81019080803590602001909291908035906020019064010000000081111561151157600080fd5b82018360208201111561152357600080fd5b8035906020019184600183028401116401000000008311171561154557600080fd5b91908080601f016020809104026020016040519081016040528093929190818152602001838380828437600081840152601f19601f820116905080830192505050505050509192919290505050613ac1565b005b3480156115a557600080fd5b506115e8600480360360208110156115bc57600080fd5b81019080803573ffffffffffffffffffffffffffffffffffffffff169060200190929190505050613c7a565b604051808215151515815260200191505060405180910390f35b34801561160e57600080fd5b506116d26004803603604081101561162557600080fd5b81019080803590602001909291908035906020019064010000000081111561164c57600080fd5b82018360208201111561165e57600080fd5b8035906020019184600183028401116401000000008311171561168057600080fd5b91908080601f016020809104026020016040519081016040528093929190818152602001838380828437600081840152601f19601f820116905080830192505050505050509192919290505050613c8e565b005b3480156116e057600080fd5b50611723600480360360208110156116f757600080fd5b81019080803573ffffffffffffffffffffffffffffffffffffffff169060200190929190505050613e47565b604051808215151515815260200191505060405180910390f35b34801561174957600080fd5b5061178c6004803603602081101561176057600080fd5b81019080803573ffffffffffffffffffffffffffffffffffffffff169060200190929190505050613e5b565b005b34801561179a57600080fd5b5061185e600480360360408110156117b157600080fd5b8101908080359060200190929190803590602001906401000000008111156117d857600080fd5b8201836020820111156117ea57600080fd5b8035906020019184600183028401116401000000008311171561180c57600080fd5b91908080601f016020809104026020016040519081016040528093929190818152602001838380828437600081840152601f19601f820116905080830192505050505050509192919290505050613eac565b005b34801561186c57600080fd5b506118af6004803603602081101561188357600080fd5b81019080803573ffffffffffffffffffffffffffffffffffffffff169060200190929190505050614065565b005b3480156118bd57600080fd5b50611981600480360360408110156118d457600080fd5b8101908080359060200190929190803590602001906401000000008111156118fb57600080fd5b82018360208201111561190d57600080fd5b8035906020019184600183028401116401000000008311171561192f57600080fd5b91908080601f016020809104026020016040519081016040528093929190818152602001838380828437600081840152601f19601f820116905080830192505050505050509192919290505050614085565b005b34801561198f57600080fd5b50611a53600480360360408110156119a657600080fd5b8101908080359060200190929190803590602001906401000000008111156119cd57600080fd5b8201836020820111156119df57600080fd5b80359060200191846001830284011164010000000083111715611a0157600080fd5b91908080601f016020809104026020016040519081016040528093929190818152602001838380828437600081840152601f19601f82011690508083019250505050505050919291929050505061423e565b005b348015611a6157600080fd5b50611a8e60048036036020811015611a7857600080fd5b81019080803590602001909291905050506143f6565b6040518083600a811115611a9e57fe5b60ff16815260200180602001828103825283818151815260200191508051906020019080838360005b83811015611ae2578082015181840152602081019050611ac7565b50505050905090810190601f168015611b0f5780820380516001836020036101000a031916815260200191505b50935050505060405180910390f35b348015611b2a57600080fd5b50611b336144ea565b005b348015611b4157600080fd5b50611dea600480360360c0811015611b5857600080fd5b810190808035906020019092919080359060200190640100000000811115611b7f57600080fd5b820183602082011115611b9157600080fd5b80359060200191846001830284011164010000000083111715611bb357600080fd5b91908080601f016020809104026020016040519081016040528093929190818152602001838380828437600081840152601f19601f82011690508083019250505050505050919291929080359060200190640100000000811115611c1657600080fd5b820183602082011115611c2857600080fd5b80359060200191846001830284011164010000000083111715611c4a57600080fd5b91908080601f016020809104026020016040519081016040528093929190818152602001838380828437600081840152601f19601f82011690508083019250505050505050919291929080359060200190640100000000811115611cad57600080fd5b820183602082011115611cbf57600080fd5b80359060200191846001830284011164010000000083111715611ce157600080fd5b91908080601f016020809104026020016040519081016040528093929190818152602001838380828437600081840152601f19601f820116905080830192505050505050509192919290803573ffffffffffffffffffffffffffffffffffffffff16906020019092919080359060200190640100000000811115611d6457600080fd5b820183602082011115611d7657600080fd5b80359060200191846001830284011164010000000083111715611d9857600080fd5b91908080601f016020809104026020016040519081016040528093929190818152602001838380828437600081840152601f19601f8201169050808301925050505050505091929192905050506144f5565b005b348015611df857600080fd5b50611e2560048036036020811015611e0f57600080fd5b8101908080359060200190929190505050614c21565b6040518080602001806020018060200180602001806020018060200187810387528d818151815260200191508051906020019080838360005b83811015611e79578082015181840152602081019050611e5e565b50505050905090810190601f168015611ea65780820380516001836020036101000a031916815260200191505b5087810386528c818151815260200191508051906020019080838360005b83811015611edf578082015181840152602081019050611ec4565b50505050905090810190601f168015611f0c5780820380516001836020036101000a031916815260200191505b5087810385528b818151815260200191508051906020019080838360005b83811015611f45578082015181840152602081019050611f2a565b50505050905090810190601f168015611f725780820380516001836020036101000a031916815260200191505b5087810384528a818151815260200191508051906020019080838360005b83811015611fab578082015181840152602081019050611f90565b50505050905090810190601f168015611fd85780820380516001836020036101000a031916815260200191505b50878103835289818151815260200191508051906020019080838360005b83811015612011578082015181840152602081019050611ff6565b50505050905090810190601f16801561203e5780820380516001836020036101000a031916815260200191505b50878103825288818151815260200191508051906020019080838360005b8381101561207757808201518184015260208101905061205c565b50505050905090810190601f1680156120a45780820380516001836020036101000a031916815260200191505b509c5050505050505050505050505060405180910390f35b6000600115156004600084815260200190815260200160002060140160009054906101000a900460ff16151514156120f757600190506120fc565b600090505b919050565b600061210e60028361507f565b9050919050565b61211e33612101565b151561212957600080fd5b612131615575565b6102c0604051908101604052806001600b540181526020018a81526020018973ffffffffffffffffffffffffffffffffffffffff1681526020018973ffffffffffffffffffffffffffffffffffffffff1681526020018881526020018781526020018681526020018581526020018a600b540181526020018481526020018b81526020016000600a8111156121c257fe5b8152602001600073ffffffffffffffffffffffffffffffffffffffff168152602001600073ffffffffffffffffffffffffffffffffffffffff168152602001600073ffffffffffffffffffffffffffffffffffffffff1681526020016040805190810160405280600181526020017f200000000000000000000000000000000000000000000000000000000000000081525081526020016040805190810160405280600181526020017f200000000000000000000000000000000000000000000000000000000000000081525081526020016040805190810160405280600181526020017f200000000000000000000000000000000000000000000000000000000000000081525081526020016040805190810160405280600181526020017f200000000000000000000000000000000000000000000000000000000000000081525081526020016040805190810160405280600181526020017f200000000000000000000000000000000000000000000000000000000000000081525081526020016040805190810160405280600181526020017f200000000000000000000000000000000000000000000000000000000000000081525081526020016001151581525090506060612395888c615113565b9050600115156006826040518082805190602001908083835b6020831015156123d357805182526020820191506020810190506020830392506123ae565b6001836020036101000a038019825116818451168082178552505050505050905001915050908152602001604051809103902060010160009054906101000a900460ff16151514156125085760016006826040518082805190602001908083835b6020831015156124595780518252602082019150602081019050602083039250612434565b6001836020036101000a038019825116818451168082178552505050505050905001915050908152602001604051809103902060000154016006826040518082805190602001908083835b6020831015156124c957805182526020820191506020810190506020830392506124a4565b6001836020036101000a0380198251168184511680821785525050505050509050019150509081526020016040518091039020600001819055506125c6565b612510615698565b604080519081016040528060018152602001600115158152509050806006836040518082805190602001908083835b602083101515612564578051825260208201915060208101905060208303925061253f565b6001836020036101000a03801982511681845116808217855250505050505090500191505090815260200160405180910390206000820151816000015560208201518160010160006101000a81548160ff021916908315150217905550905050505b81600460008c8152602001908152602001600020600082015181600001556020820151816001015560408201518160020160006101000a81548173ffffffffffffffffffffffffffffffffffffffff021916908373ffffffffffffffffffffffffffffffffffffffff16021790555060608201518160030160006101000a81548173ffffffffffffffffffffffffffffffffffffffff021916908373ffffffffffffffffffffffffffffffffffffffff16021790555060808201518160040190805190602001906126989291906156b4565b5060a08201518160050190805190602001906126b59291906156b4565b5060c08201518160060190805190602001906126d29291906156b4565b5060e08201518160070190805190602001906126ef9291906156b4565b5061010082015181600801556101208201518160090190805190602001906127189291906156b4565b5061014082015181600a0190805190602001906127369291906156b4565b5061016082015181600b0160006101000a81548160ff0219169083600a81111561275c57fe5b021790555061018082015181600b0160016101000a81548173ffffffffffffffffffffffffffffffffffffffff021916908373ffffffffffffffffffffffffffffffffffffffff1602179055506101a082015181600c0160006101000a81548173ffffffffffffffffffffffffffffffffffffffff021916908373ffffffffffffffffffffffffffffffffffffffff1602179055506101c082015181600d0160006101000a81548173ffffffffffffffffffffffffffffffffffffffff021916908373ffffffffffffffffffffffffffffffffffffffff1602179055506101e082015181600e0190805190602001906128569291906156b4565b5061020082015181600f0190805190602001906128749291906156b4565b506102208201518160100190805190602001906128929291906156b4565b506102408201518160110190805190602001906128b09291906156b4565b506102608201518160120190805190602001906128ce9291906156b4565b506102808201518160130190805190602001906128ec9291906156b4565b506102a08201518160140160006101000a81548160ff02191690831515021790555090505082600560008c81526020019081526020016000209080519060200190612938929190615734565b506001600b5401600b819055507feb8109592a383473c76afa62041a6dbabac0ca80d859bbdffb13c5a70c454b908a6040518082815260200191505060405180910390a15050505050505050505050565b600061299433613c7a565b151561299f57600080fd5b60606129ab8484615113565b90506007816040518082805190602001908083835b6020831015156129e557805182526020820191506020810190506020830392506129c0565b6001836020036101000a03801982511681845116808217855250505050505090500191505090815260200160405180910390206000015491505092915050565b60006004600083815260200190815260200160002060140160006101000a81548160ff02191690831515021790555050565b816009600a811115612a6557fe5b60046000838152602001908152602001600020600b0160009054906101000a900460ff16600a811115612a9457fe5b141515612aa057600080fd5b612aa933613430565b1515612ab457600080fd5b600a60046000858152602001908152602001600020600b0160006101000a81548160ff0219169083600a811115612ae757fe5b02179055506060600560008581526020019081526020016000208054600181600116156101000203166002900480601f016020809104026020016040519081016040528092919081815260200182805460018160011615610100020316600290048015612b955780601f10612b6a57610100808354040283529160200191612b95565b820191906000526020600020905b815481529060010190602001808311612b7857829003601f168201915b505050505090506060612ba88285615113565b905080600560008781526020019081526020016000209080519060200190612bd1929190615734565b507fb4cdacdf11ca5dc03f3ddd7b53e92ed9d205e79bf7c06a3f4b514b084a17bb5d856040518082815260200191505060405180910390a15050505050565b816002600a811115612c1e57fe5b60046000838152602001908152602001600020600b0160009054906101000a900460ff16600a811115612c4d57fe5b141515612c5957600080fd5b612c6233612101565b1515612c6d57600080fd5b600360046000858152602001908152602001600020600b0160006101000a81548160ff0219169083600a811115612ca057fe5b02179055506060600560008581526020019081526020016000208054600181600116156101000203166002900480601f016020809104026020016040519081016040528092919081815260200182805460018160011615610100020316600290048015612d4e5780601f10612d2357610100808354040283529160200191612d4e565b820191906000526020600020905b815481529060010190602001808311612d3157829003601f168201915b505050505090506060612d618285615113565b905080600560008781526020019081526020016000209080519060200190612d8a929190615734565b507fbf196506b2f00aa0ddfe8eb41c3c9ccfddcc58a5142960f08f9131afa7908496856040518082815260200191505060405180910390a15050505050565b6000806000606080606080612ddd33613e47565b1515612de857600080fd5b6004600089815260200190815260200160002060030160009054906101000a900473ffffffffffffffffffffffffffffffffffffffff16600460008a8152602001908152602001600020600b0160019054906101000a900473ffffffffffffffffffffffffffffffffffffffff16600460008b8152602001908152602001600020600c0160009054906101000a900473ffffffffffffffffffffffffffffffffffffffff16600460008c8152602001908152602001600020600401600460008d8152602001908152602001600020600e01600460008e8152602001908152602001600020600f01600460008f8152602001908152602001600020600901838054600181600116156101000203166002900480601f016020809104026020016040519081016040528092919081815260200182805460018160011615610100020316600290048015612f7a5780601f10612f4f57610100808354040283529160200191612f7a565b820191906000526020600020905b815481529060010190602001808311612f5d57829003601f168201915b50505050509350828054600181600116156101000203166002900480601f0160208091040260200160405190810160405280929190818152602001828054600181600116156101000203166002900480156130165780601f10612feb57610100808354040283529160200191613016565b820191906000526020600020905b815481529060010190602001808311612ff957829003601f168201915b50505050509250818054600181600116156101000203166002900480601f0160208091040260200160405190810160405280929190818152602001828054600181600116156101000203166002900480156130b25780601f10613087576101008083540402835291602001916130b2565b820191906000526020600020905b81548152906001019060200180831161309557829003601f168201915b50505050509150808054600181600116156101000203166002900480601f01602080910402602001604051908101604052809291908181526020018280546001816001161561010002031660029004801561314e5780601f106131235761010080835404028352916020019161314e565b820191906000526020600020905b81548152906001019060200180831161313157829003601f168201915b505050505090509650965096509650965096509650919395979092949650565b613177336151df565b565b61318281613e5b565b50565b61318e33615230565b565b61319933613e47565b15156131a457600080fd5b6131ad81615281565b50565b816000600a8111156131be57fe5b60046000838152602001908152602001600020600b0160009054906101000a900460ff16600a8111156131ed57fe5b1415156131f957600080fd5b61320233612101565b151561320d57600080fd5b600160046000858152602001908152602001600020600b0160006101000a81548160ff0219169083600a81111561324057fe5b02179055506060600560008581526020019081526020016000208054600181600116156101000203166002900480601f0160208091040260200160405190810160405280929190818152602001828054600181600116156101000203166002900480156132ee5780601f106132c3576101008083540402835291602001916132ee565b820191906000526020600020905b8154815290600101906020018083116132d157829003601f168201915b5050505050905060606133018285615113565b90508060056000878152602001908152602001600020908051906020019061332a929190615734565b507f9b3b66e2380b690bae22c73ef1428fb0c91e72fe14a4b6defa13035214187aff856040518082815260200191505060405180910390a15050505050565b61337233613c7a565b151561337d57600080fd5b613386816152d2565b50565b600061339433613430565b151561339f57600080fd5b60606133ab8484615113565b90506008816040518082805190602001908083835b6020831015156133e557805182526020820191506020810190506020830392506133c0565b6001836020036101000a03801982511681845116808217855250505050505090500191505090815260200160405180910390206000015491505092915050565b61342e33615323565b565b600061343d60008361507f565b9050919050565b600061344f33612101565b151561345a57600080fd5b60606134668484615113565b90506006816040518082805190602001908083835b6020831015156134a0578051825260208201915060208101905060208303925061347b565b6001836020036101000a03801982511681845116808217855250505050505090500191505090815260200160405180910390206000015491505092915050565b856007600a8111156134ee57fe5b60046000838152602001908152602001600020600b0160009054906101000a900460ff16600a81111561351d57fe5b14151561352957600080fd5b61353233613430565b151561353d57600080fd5b600860046000898152602001908152602001600020600b0160006101000a81548160ff0219169083600a81111561357057fe5b02179055508560046000898152602001908152602001600020600f01908051906020019061359f929190615734565b50846004600089815260200190815260200160002060130190805190602001906135ca929190615734565b50836004600089815260200190815260200160002060120190805190602001906135f5929190615734565b508260046000898152602001908152602001600020600c0160006101000a81548173ffffffffffffffffffffffffffffffffffffffff021916908373ffffffffffffffffffffffffffffffffffffffff1602179055506060600560008981526020019081526020016000208054600181600116156101000203166002900480601f0160208091040260200160405190810160405280929190818152602001828054600181600116156101000203166002900480156136f45780601f106136c9576101008083540402835291602001916136f4565b820191906000526020600020905b8154815290600101906020018083116136d757829003601f168201915b5050505050905060606137078285615113565b905080600560008b81526020019081526020016000209080519060200190613730929190615734565b506060600460008b8152602001908152602001600020600e018054600181600116156101000203166002900480601f0160208091040260200160405190810160405280929190818152602001828054600181600116156101000203166002900480156137dd5780601f106137b2576101008083540402835291602001916137dd565b820191906000526020600020905b8154815290600101906020018083116137c057829003601f168201915b505050505090506060600460008c8152602001908152602001600020600a018054600181600116156101000203166002900480601f0160208091040260200160405190810160405280929190818152602001828054600181600116156101000203166002900480156138905780601f1061386557610100808354040283529160200191613890565b820191906000526020600020905b81548152906001019060200180831161387357829003601f168201915b5050505050905060606138a38383615113565b905060016007826040518082805190602001908083835b6020831015156138df57805182526020820191506020810190506020830392506138ba565b6001836020036101000a038019825116818451168082178552505050505050905001915050908152602001604051809103902060000154036007826040518082805190602001908083835b60208310151561394f578051825260208201915060208101905060208303925061392a565b6001836020036101000a03801982511681845116808217855250505050505090500191505090815260200160405180910390206000018190555060606139958c84615113565b905060016008826040518082805190602001908083835b6020831015156139d157805182526020820191506020810190506020830392506139ac565b6001836020036101000a038019825116818451168082178552505050505050905001915050908152602001604051809103902060000154016008826040518082805190602001908083835b602083101515613a415780518252602082019150602081019050602083039250613a1c565b6001836020036101000a0380198251168184511680821785525050505050509050019150509081526020016040518091039020600001819055507f73d6827c08a640a6959426f0ee26c7bb964902de8446b4ca6bca213740bf262f8d6040518082815260200191505060405180910390a150505050505050505050505050565b816005600a811115613acf57fe5b60046000838152602001908152602001600020600b0160009054906101000a900460ff16600a811115613afe57fe5b141515613b0a57600080fd5b613b1333613c7a565b1515613b1e57600080fd5b600660046000858152602001908152602001600020600b0160006101000a81548160ff0219169083600a811115613b5157fe5b02179055506060600560008581526020019081526020016000208054600181600116156101000203166002900480601f016020809104026020016040519081016040528092919081815260200182805460018160011615610100020316600290048015613bff5780601f10613bd457610100808354040283529160200191613bff565b820191906000526020600020905b815481529060010190602001808311613be257829003601f168201915b505050505090506060613c128285615113565b905080600560008781526020019081526020016000209080519060200190613c3b929190615734565b507fd27cf9eb13fb50222e8ff27788988edb150171b58e49b33f165418d0eb0253eb856040518082815260200191505060405180910390a15050505050565b6000613c8760038361507f565b9050919050565b816006600a811115613c9c57fe5b60046000838152602001908152602001600020600b0160009054906101000a900460ff16600a811115613ccb57fe5b141515613cd757600080fd5b613ce033613c7a565b1515613ceb57600080fd5b600760046000858152602001908152602001600020600b0160006101000a81548160ff0219169083600a811115613d1e57fe5b02179055506060600560008581526020019081526020016000208054600181600116156101000203166002900480601f016020809104026020016040519081016040528092919081815260200182805460018160011615610100020316600290048015613dcc5780601f10613da157610100808354040283529160200191613dcc565b820191906000526020600020905b815481529060010190602001808311613daf57829003601f168201915b505050505090506060613ddf8285615113565b905080600560008781526020019081526020016000209080519060200190613e08929190615734565b507f94d498cff24e232da4c3ed3ce9547d37faee065ef6fe670586828a6e3ccf8a53856040518082815260200191505060405180910390a15050505050565b6000613e5460018361507f565b9050919050565b613e66600282615374565b8073ffffffffffffffffffffffffffffffffffffffff167f561138658ca49a8540dc70dcfe64c9026c1c5b9344642242dd6562970f9c127860405160405180910390a250565b816001600a811115613eba57fe5b60046000838152602001908152602001600020600b0160009054906101000a900460ff16600a811115613ee957fe5b141515613ef557600080fd5b613efe33612101565b1515613f0957600080fd5b600260046000858152602001908152602001600020600b0160006101000a81548160ff0219169083600a811115613f3c57fe5b02179055506060600560008581526020019081526020016000208054600181600116156101000203166002900480601f016020809104026020016040519081016040528092919081815260200182805460018160011615610100020316600290048015613fea5780601f10613fbf57610100808354040283529160200191613fea565b820191906000526020600020905b815481529060010190602001808311613fcd57829003601f168201915b505050505090506060613ffd8285615113565b905080600560008781526020019081526020016000209080519060200190614026929190615734565b507fa96ae0fc3224ebd79eebfe54bd130cc9cb94416cddd1f2386115e00b72532468856040518082815260200191505060405180910390a15050505050565b61406e33613430565b151561407957600080fd5b61408281615424565b50565b816008600a81111561409357fe5b60046000838152602001908152602001600020600b0160009054906101000a900460ff16600a8111156140c257fe5b1415156140ce57600080fd5b6140d733613430565b15156140e257600080fd5b600960046000858152602001908152602001600020600b0160006101000a81548160ff0219169083600a81111561411557fe5b02179055506060600560008581526020019081526020016000208054600181600116156101000203166002900480601f0160208091040260200160405190810160405280929190818152602001828054600181600116156101000203166002900480156141c35780601f10614198576101008083540402835291602001916141c3565b820191906000526020600020905b8154815290600101906020018083116141a657829003601f168201915b5050505050905060606141d68285615113565b9050806005600087815260200190815260200160002090805190602001906141ff929190615734565b507f616dfa0fd1e8003e293d0d707897c48415f6acadc960e3a8239f70841bc98c5b856040518082815260200191505060405180910390a15050505050565b816003600a81111561424c57fe5b60046000838152602001908152602001600020600b0160009054906101000a900460ff16600a81111561427b57fe5b14151561428757600080fd5b61429033612101565b151561429b57600080fd5b6004806000858152602001908152602001600020600b0160006101000a81548160ff0219169083600a8111156142cd57fe5b02179055506060600560008581526020019081526020016000208054600181600116156101000203166002900480601f01602080910402602001604051908101604052809291908181526020018280546001816001161561010002031660029004801561437b5780601f106143505761010080835404028352916020019161437b565b820191906000526020600020905b81548152906001019060200180831161435e57829003601f168201915b50505050509050606061438e8285615113565b9050806005600087815260200190815260200160002090805190602001906143b7929190615734565b507ff5fba10cdde0743e9e1a1208d61a8f3bea78c1dc743844aef4501affa3efd151856040518082815260200191505060405180910390a15050505050565b6000606061440333613e47565b151561440e57600080fd5b60046000848152602001908152602001600020600b0160009054906101000a900460ff1660056000858152602001908152602001600020808054600181600116156101000203166002900480601f0160208091040260200160405190810160405280929190818152602001828054600181600116156101000203166002900480156144da5780601f106144af576101008083540402835291602001916144da565b820191906000526020600020905b8154815290600101906020018083116144bd57829003601f168201915b5050505050905091509150915091565b6144f333615475565b565b856004600a81111561450357fe5b60046000838152602001908152602001600020600b0160009054906101000a900460ff16600a81111561453257fe5b14151561453e57600080fd5b61454733613c7a565b151561455257600080fd5b600560046000898152602001908152602001600020600b0160006101000a81548160ff0219169083600a81111561458557fe5b02179055508560046000898152602001908152602001600020600e0190805190602001906145b4929190615734565b50846004600089815260200190815260200160002060110190805190602001906145df929190615734565b508360046000898152602001908152602001600020601001908051906020019061460a929190615734565b508260046000898152602001908152602001600020600b0160016101000a81548173ffffffffffffffffffffffffffffffffffffffff021916908373ffffffffffffffffffffffffffffffffffffffff1602179055506060600560008981526020019081526020016000208054600181600116156101000203166002900480601f0160208091040260200160405190810160405280929190818152602001828054600181600116156101000203166002900480156147095780601f106146de57610100808354040283529160200191614709565b820191906000526020600020905b8154815290600101906020018083116146ec57829003601f168201915b50505050509050606061471c8285615113565b905080600560008b81526020019081526020016000209080519060200190614745929190615734565b506060600460008b81526020019081526020016000206004018054600181600116156101000203166002900480601f0160208091040260200160405190810160405280929190818152602001828054600181600116156101000203166002900480156147f25780601f106147c7576101008083540402835291602001916147f2565b820191906000526020600020905b8154815290600101906020018083116147d557829003601f168201915b505050505090506060600460008c8152602001908152602001600020600a018054600181600116156101000203166002900480601f0160208091040260200160405190810160405280929190818152602001828054600181600116156101000203166002900480156148a55780601f1061487a576101008083540402835291602001916148a5565b820191906000526020600020905b81548152906001019060200180831161488857829003601f168201915b5050505050905060606148b88383615113565b905060016006826040518082805190602001908083835b6020831015156148f457805182526020820191506020810190506020830392506148cf565b6001836020036101000a038019825116818451168082178552505050505050905001915050908152602001604051809103902060000154036006826040518082805190602001908083835b602083101515614964578051825260208201915060208101905060208303925061493f565b6001836020036101000a03801982511681845116808217855250505050505090500191505090815260200160405180910390206000018190555060606149aa8c84615113565b9050600115156007826040518082805190602001908083835b6020831015156149e857805182526020820191506020810190506020830392506149c3565b6001836020036101000a038019825116818451168082178552505050505050905001915050908152602001604051809103902060010160009054906101000a900460ff1615151415614b1d5760016007826040518082805190602001908083835b602083101515614a6e5780518252602082019150602081019050602083039250614a49565b6001836020036101000a038019825116818451168082178552505050505050905001915050908152602001604051809103902060000154016007826040518082805190602001908083835b602083101515614ade5780518252602082019150602081019050602083039250614ab9565b6001836020036101000a038019825116818451168082178552505050505050905001915050908152602001604051809103902060000181905550614bdb565b614b25615698565b604080519081016040528060018152602001600115158152509050806007836040518082805190602001908083835b602083101515614b795780518252602082019150602081019050602083039250614b54565b6001836020036101000a03801982511681845116808217855250505050505090500191505090815260200160405180910390206000820151816000015560208201518160010160006101000a81548160ff021916908315150217905550905050505b7f1e93508ab5b39bf9f45afa406d4ce6117c21b48d5b79372f9e599ce66210cda28d6040518082815260200191505060405180910390a150505050505050505050505050565b606080606080606080614c3333613e47565b1515614c3e57600080fd5b6004600088815260200190815260200160002060060160046000898152602001908152602001600020600701600460008a8152602001908152602001600020601001600460008b8152602001908152602001600020601101600460008c8152602001908152602001600020601201600460008d8152602001908152602001600020601301858054600181600116156101000203166002900480601f016020809104026020016040519081016040528092919081815260200182805460018160011615610100020316600290048015614d575780601f10614d2c57610100808354040283529160200191614d57565b820191906000526020600020905b815481529060010190602001808311614d3a57829003601f168201915b50505050509550848054600181600116156101000203166002900480601f016020809104026020016040519081016040528092919081815260200182805460018160011615610100020316600290048015614df35780601f10614dc857610100808354040283529160200191614df3565b820191906000526020600020905b815481529060010190602001808311614dd657829003601f168201915b50505050509450838054600181600116156101000203166002900480601f016020809104026020016040519081016040528092919081815260200182805460018160011615610100020316600290048015614e8f5780601f10614e6457610100808354040283529160200191614e8f565b820191906000526020600020905b815481529060010190602001808311614e7257829003601f168201915b50505050509350828054600181600116156101000203166002900480601f016020809104026020016040519081016040528092919081815260200182805460018160011615610100020316600290048015614f2b5780601f10614f0057610100808354040283529160200191614f2b565b820191906000526020600020905b815481529060010190602001808311614f0e57829003601f168201915b50505050509250818054600181600116156101000203166002900480601f016020809104026020016040519081016040528092919081815260200182805460018160011615610100020316600290048015614fc75780601f10614f9c57610100808354040283529160200191614fc7565b820191906000526020600020905b815481529060010190602001808311614faa57829003601f168201915b50505050509150808054600181600116156101000203166002900480601f0160208091040260200160405190810160405280929190818152602001828054600181600116156101000203166002900480156150635780601f1061503857610100808354040283529160200191615063565b820191906000526020600020905b81548152906001019060200180831161504657829003601f168201915b5050505050905095509550955095509550955091939550919395565b60008073ffffffffffffffffffffffffffffffffffffffff168273ffffffffffffffffffffffffffffffffffffffff16141515156150bc57600080fd5b8260000160008373ffffffffffffffffffffffffffffffffffffffff1673ffffffffffffffffffffffffffffffffffffffff16815260200190815260200160002060009054906101000a900460ff16905092915050565b606082826040516020018083805190602001908083835b60208310151561514f578051825260208201915060208101905060208303925061512a565b6001836020036101000a03801982511681845116808217855250505050505090500182805190602001908083835b6020831015156151a2578051825260208201915060208101905060208303925061517d565b6001836020036101000a03801982511681845116808217855250505050505090500192505050604051602081830303815290604052905092915050565b6151ea6000826154c6565b8073ffffffffffffffffffffffffffffffffffffffff167f9d17ec7e57a5118cf27abf33370bcc6f007c27a9706ab4cc473a76fe552447d260405160405180910390a250565b61523b6003826154c6565b8073ffffffffffffffffffffffffffffffffffffffff167f126174f6cf49c81cdb4a9214c6b8f037bef55b4ec31e4fc776cea2a1c8a88d5960405160405180910390a250565b61528c600182615374565b8073ffffffffffffffffffffffffffffffffffffffff167fa58cff07db0adda3ab7a40bd2f18ab57210bf38391a52ffd2e8eee6b8bdec71a60405160405180910390a250565b6152dd600382615374565b8073ffffffffffffffffffffffffffffffffffffffff167fddbf200aa634dc3fb81cfd68583dd1040d1c751d335e1d86b631bde3e977fea860405160405180910390a250565b61532e6001826154c6565b8073ffffffffffffffffffffffffffffffffffffffff167f053a4badf166f01c4b02f6bcb71d2d67734470d0866282e291e73001aa25c76960405160405180910390a250565b600073ffffffffffffffffffffffffffffffffffffffff168173ffffffffffffffffffffffffffffffffffffffff16141515156153b057600080fd5b6153ba828261507f565b1515156153c657600080fd5b60018260000160008373ffffffffffffffffffffffffffffffffffffffff1673ffffffffffffffffffffffffffffffffffffffff16815260200190815260200160002060006101000a81548160ff0219169083151502179055505050565b61542f600082615374565b8073ffffffffffffffffffffffffffffffffffffffff167f5a4264410853372bdd7255ebc9624cb523fc039cd6f9f1855165194738125f6360405160405180910390a250565b6154806002826154c6565b8073ffffffffffffffffffffffffffffffffffffffff167f2fed5abf6a80d6dfe30b4895481b2fc5d7dce5f8f7b931832f4a2947d5040c7f60405160405180910390a250565b600073ffffffffffffffffffffffffffffffffffffffff168173ffffffffffffffffffffffffffffffffffffffff161415151561550257600080fd5b61550c828261507f565b151561551757600080fd5b60008260000160008373ffffffffffffffffffffffffffffffffffffffff1673ffffffffffffffffffffffffffffffffffffffff16815260200190815260200160002060006101000a81548160ff0219169083151502179055505050565b6102c0604051908101604052806000815260200160008152602001600073ffffffffffffffffffffffffffffffffffffffff168152602001600073ffffffffffffffffffffffffffffffffffffffff168152602001606081526020016060815260200160608152602001606081526020016000815260200160608152602001606081526020016000600a81111561560857fe5b8152602001600073ffffffffffffffffffffffffffffffffffffffff168152602001600073ffffffffffffffffffffffffffffffffffffffff168152602001600073ffffffffffffffffffffffffffffffffffffffff1681526020016060815260200160608152602001606081526020016060815260200160608152602001606081526020016000151581525090565b6040805190810160405280600081526020016000151581525090565b828054600181600116156101000203166002900490600052602060002090601f016020900481019282601f106156f557805160ff1916838001178555615723565b82800160010185558215615723579182015b82811115615722578251825591602001919060010190615707565b5b50905061573091906157b4565b5090565b828054600181600116156101000203166002900490600052602060002090601f016020900481019282601f1061577557805160ff19168380011785556157a3565b828001600101855582156157a3579182015b828111156157a2578251825591602001919060010190615787565b5b5090506157b091906157b4565b5090565b6157d691905b808211156157d25760008160009055506001016157ba565b5090565b9056fea165627a7a72305820ed5f9b168b7957122792278c06397c5aa23b22009ac876b2371f5c332dd68cdf0029",
  "source": "// SPDX-License-Identifier: MIT\r\npragma solidity >=0.4.21 <0.7.0;\r\nimport \"./Roles.sol\";\r\nimport \"./DistributorRole.sol\";\r\nimport \"./ManufacturerRole.sol\";\r\nimport \"./PatientRole.sol\";\r\nimport \"./PharmacistRole.sol\";\r\n\r\n\r\n\r\ncontract SimpleStorage is PharmacistRole, PatientRole,ManufacturerRole , DistributorRole  {\r\n\r\n  //debugging functions\r\n\r\n  \r\n\r\n\r\n  //basic functions\r\n\r\n     \r\n\r\n\r\n    function append(string memory a, string memory b) internal pure returns (string memory s) {\r\n\r\n    return string(abi.encodePacked(a, b));\r\n\r\n}\r\n\r\n\r\n\r\n  //Functionalities functions         \r\n\r\n   \r\n  struct record{\r\n    uint stock;\r\n    bool flag;\r\n  }\r\n\r\n\r\n  \r\n  mapping (uint => Medicine) medicines;\r\n  mapping (uint => string ) medicinehistory ; \r\n\r\n  //records maps\r\n\r\n\r\n  mapping(string => record) manufrec;\r\n  mapping(string => record) distrec;\r\n  mapping(string => record) pharmarec;\r\n    \r\n\r\n  address owner;\r\n\r\n  // Define a variable called 'upc' for Universal Product Code (UPC)\r\n  uint  upc;\r\n\r\n  // Define a variable called 'sku' for Stock Keeping Unit (SKU)\r\n  uint  sku;\r\n\r\n  //manufacturer events\r\n  event Made(uint upc);\r\n  event Packed(uint upc);\r\n  event ForSale(uint upc);\r\n  event Soldtodistributor(uint upc);\r\n  event shippedbymanufacturer(uint upc);\r\n  //distributor events\r\n  event recievedDistributor(uint upc);\r\n  event soldtoPharma(uint upc);\r\n  event shippedtoPharma(uint upc);\r\n  //pharma events\r\n  event recievedpharma(uint upc);\r\n  event soldtopatient(uint upc);\r\n  event shippedtopatient(uint upc);\r\n  //Patientt event \r\n  event Purchased(uint upc);\r\n\r\n    // Define enum 'State' with the following values:\r\n  enum State \r\n  { \r\n    //manufacturer states\r\n    Made,       // 0\r\n    Packed,     // 1\r\n    ForSale,    // 2\r\n    Soldtodistributor, //3\r\n    shippedbymanufacturer,//4\r\n    //distributor states\r\n    RecievedDistributor, //5\r\n    SoldtoPharma, //6\r\n    ShippedtoPharma,  //7\r\n    //Pharmacist\r\n    RecievedPharma, //8\r\n    SoldtoPatient , //9\r\n    ShippedtoPatient //10\r\n\r\n\r\n\r\n  }\r\n\r\n    \r\n\r\n   struct Medicine {\r\n    uint    sku;  // Stock Keeping Unit (SKU)\r\n    uint    upc; // Universal Product Code (UPC), generated by the Manufacturer, goes on the package, can be verified by the Patient\r\n    address ownerID;  // Metamask-Ethereum address of the current owner as the medicine moves through 8 stages\r\n    address originManufacturerID; // Metamask-Ethereum address of the Manufacturer\r\n    string  originFactoryName; // Manufacturer Name\r\n    string  originFactoryInformation;  // Manufacturer Information\r\n    string  originFactoryLatitude; // Factory Latitude\r\n    string  originFactoryLongitude;  // Factory Longitude\r\n    uint    medicineID;  // Product ID potentially a combination of upc + sku\r\n    string  medicineNotes; // Product Notes\r\n    string    medicineName; // Product Price\r\n    State   medicineState;  // Product State as represented in the enum above \r\n    address distributorID;  // Metamask-Ethereum address of the Distributor\r\n    address pharmacistID; // Metamask-Ethereum address of the Pharmacist\r\n    address patientID; // Metamask-Ethereum address of the Patient\r\n    string DistName;\r\n    string PharamaName;\r\n    string  DistLatitude; // Factory Latitude\r\n    string  DistLongitude;  // Factory Longitude\r\n    string  PharmaLatitude; // Factory Latitude\r\n    string  PharmaLongitude;  // Factory Longitude\r\n    bool onchain;\r\n  }\r\n\r\n  //modifiers for previous checking state\r\n  // Define a modifier that checks if an medicine.state of a upc is Made\r\n  modifier made(uint _upc) {\r\n    require(medicines[_upc].medicineState == State.Made);\r\n    _;\r\n  }\r\n  modifier packed(uint _upc) {\r\n    require(medicines[_upc].medicineState == State.Packed);\r\n    _;\r\n  }\r\n  modifier fsale(uint _upc) {\r\n    require(medicines[_upc].medicineState == State.ForSale);\r\n    _;\r\n  }\r\n  modifier soldtod(uint _upc) {\r\n    require(medicines[_upc].medicineState == State.Soldtodistributor);\r\n    _;\r\n  }\r\n  modifier shippedbym(uint _upc) {\r\n    require(medicines[_upc].medicineState == State.shippedbymanufacturer);\r\n    _;\r\n  }\r\n  modifier recivedD(uint _upc) {\r\n    require(medicines[_upc].medicineState == State.RecievedDistributor);\r\n    _;\r\n  }\r\n  modifier soldtoph(uint _upc) {\r\n    require(medicines[_upc].medicineState == State.SoldtoPharma);\r\n    _;\r\n  }\r\n  modifier shippedtoph(uint _upc) {\r\n    require(medicines[_upc].medicineState == State.ShippedtoPharma);\r\n    _;\r\n  }\r\n  modifier recivedPh(uint _upc) {\r\n    require(medicines[_upc].medicineState == State.RecievedPharma);\r\n    _;\r\n  }\r\n  modifier soldtop(uint _upc) {\r\n    require(medicines[_upc].medicineState == State.SoldtoPatient);\r\n    _;\r\n  }\r\n  modifier shippedtop(uint _upc) {\r\n    require(medicines[_upc].medicineState == State.ShippedtoPatient);\r\n    _;\r\n  }\r\n\r\n\r\n\r\n\r\n  function makeMedicine(string memory _name , uint _upc, address _originManufacturerID, string memory _originFactoryName, string memory _originFactoryInformation, string  memory _originFactoryLatitude, string  memory _originFactoryLongitude, string  memory _medicineNotes, string memory _history) public  onlyManufacturer {\r\n    // Add the new medicine as part of medicines\r\n    Medicine memory temp_medicine = Medicine({\r\n      sku:sku + 1,\r\n      upc:_upc,\r\n      ownerID:_originManufacturerID,\r\n      originManufacturerID:_originManufacturerID,\r\n      originFactoryName:_originFactoryName,\r\n      originFactoryInformation:_originFactoryInformation,\r\n      originFactoryLatitude:_originFactoryLatitude,\r\n      originFactoryLongitude:_originFactoryLongitude,\r\n      medicineID:sku+_upc,\r\n      medicineNotes:_medicineNotes,\r\n      medicineState:State.Made,\r\n      medicineName: _name,\r\n      distributorID:address(0),\r\n      pharmacistID:address(0),\r\n      patientID:address(0),\r\n      DistName: \" \",\r\n      PharamaName :\" \",\r\n      DistLongitude : \" \",\r\n      DistLatitude : \" \",\r\n      PharmaLatitude : \" \",\r\n      PharmaLongitude  : \" \",\r\n      onchain : true\r\n      });\r\n\r\n      string memory manustr = append(_originFactoryName,_name);\r\n      if(manufrec[manustr].flag == true){\r\n          manufrec[manustr].stock = manufrec[manustr].stock + 1;\r\n      }\r\n      else{\r\n          record memory r = record({\r\n              stock : 1,\r\n              flag : true\r\n          });\r\n          manufrec[manustr] = r;\r\n      }\r\n \r\n \r\n\r\n    //string storage initial_history=\"This med is made by date will be passed by frontend\" ;\r\n    medicines[_upc] = temp_medicine;\r\n    medicinehistory[_upc]  =_history;\r\n\r\n   // Increment sku\r\n    sku = sku + 1;\r\n    // Emit the appropriate event\r\n\r\n     emit Made(_upc);\r\n  }\r\n\r\n \r\n\r\n\r\n\r\n  // function makeMedicine(uint _upc,uint _price ,string memory _name) public {\r\n  //     Medicine memory temp_medicine = Medicine({\r\n  //         upc : _upc,\r\n  //         price : _price,\r\n  //         name : _name\r\n  //     });\r\n  //     medicines[_upc] = temp_medicine;\r\n\r\n  // }\r\n\r\n  //manufacturer sub events\r\n\r\n\r\n  function checkstockmanuf (string memory _manuname,string memory _name) public view  onlyManufacturer returns (uint)  {\r\n \r\n    string memory manustr = append(_manuname,_name);\r\n    return manufrec[manustr].stock;\r\n  }\r\n\r\n\r\n  function checkstockdist (string memory _distname,string memory _name) public view  onlyDistributor returns (uint)  {\r\n     \r\n    string memory diststr = append(_distname,_name);\r\n    return distrec[diststr].stock;\r\n  }\r\n\r\n  function checkstockpharma (string memory _pharmaname ,string memory _name) public view  onlyPharmacist returns (uint)  {\r\n  \r\n    string memory pharmastr = append(_pharmaname,_name);\r\n    return pharmarec[pharmastr].stock;\r\n  }\r\n\r\n\r\n  function packMedicine(uint _upc,string memory _history) public made(_upc) onlyManufacturer {\r\n  // // Call modifier to check if upc has passed previous supply chain stage\r\n  // Made(_upc);\r\n  // Call modifier to verify caller of this function\r\n  \r\n    // Update the appropriate fields\r\n    medicines[_upc].medicineState = State.Packed;\r\n    // string memory prevhis = medicinehistory[_upc];\r\n    //string  memory t1= concatenate(prevhis,_history);\r\n     string memory prevhis = medicinehistory[_upc];\r\n     string memory temp =  append(prevhis,_history);\r\n     medicinehistory[_upc]= temp;\r\n\r\n\r\n\r\n   // string memory history = medicinehistory[_upc];\r\n    //history = history + \" packed by manufacturer on date____\";\r\n    //medicinehistory[_upc] = history;\r\n    // Emit the appropriate event\r\n    emit Packed(_upc);\r\n  }\r\n\r\n   function forSale_bymanuf(uint _upc,string memory _history) public  packed(_upc) onlyManufacturer{\r\n  // // Call modifier to check if upc has passed previous supply chain stage\r\n  // Made(_upc);\r\n  // Call modifier to verify caller of this function\r\n  \r\n    // Update the appropriate fields\r\n    medicines[_upc].medicineState = State.ForSale;\r\n   // string memory history = medicinehistory[_upc];\r\n    //history = history + \" packed by manufacturer on date____\";\r\n    //medicinehistory[_upc] = history;\r\n    \r\n    string memory prevhis = medicinehistory[_upc];\r\n     string memory temp =  append(prevhis,_history);\r\n     medicinehistory[_upc]= temp;\r\n    // Emit the appropriate event\r\n\r\n    emit ForSale(_upc);\r\n  }\r\n\r\n   function soldToDistributor(uint _upc,string memory _history) public fsale(_upc) onlyManufacturer{\r\n  // // Call modifier to check if upc has passed previous supply chain stage\r\n  // Made(_upc);\r\n  // Call modifier to verify caller of this function\r\n  \r\n    // Update the appropriate fields\r\n    medicines[_upc].medicineState = State.Soldtodistributor;\r\n   // string memory history = medicinehistory[_upc];\r\n    //history = history + \" packed by manufacturer on date____\";\r\n    //medicinehistory[_upc] = history;\r\n    string memory prevhis = medicinehistory[_upc];\r\n     string memory temp =  append(prevhis,_history);\r\n     medicinehistory[_upc]= temp;\r\n    // Emit the appropriate event\r\n    emit Soldtodistributor(_upc);\r\n  }\r\n\r\n\r\n\r\n\r\n function shippedByManufacturer(uint _upc,string memory _history) public soldtod(_upc) onlyManufacturer{\r\n  // // Call modifier to check if upc has passed previous supply chain stage\r\n  // Made(_upc);\r\n  // Call modifier to verify caller of this function\r\n  \r\n    // Update the appropriate fields\r\n    medicines[_upc].medicineState = State.shippedbymanufacturer;\r\n   // string memory history = medicinehistory[_upc];\r\n    //history = history + \" packed by manufacturer on date____\";\r\n    //medicinehistory[_upc] = history;\r\n    // Emit the appropriate event\r\n    string memory prevhis = medicinehistory[_upc];\r\n     string memory temp =  append(prevhis,_history);\r\n     medicinehistory[_upc]= temp;\r\n    emit shippedbymanufacturer(_upc);\r\n  }\r\n\r\n  //distributor controlled functions\r\n\r\n\r\n\r\n  function RecievedDistributor(uint _upc,string memory _name,string memory _long,string memory _lat,address _address,string memory _history) public shippedbym(_upc) onlyDistributor{\r\n  // // Call modifier to check if upc has passed previous supply chain stage\r\n  // Made(_upc);\r\n  // Call modifier to verify caller of this function\r\n  \r\n    // Update the appropriate fields\r\n\r\n\r\n     \r\n      medicines[_upc].medicineState = State.RecievedDistributor;\r\n      medicines[_upc].DistName = _name;\r\n      medicines[_upc].DistLongitude = _long;\r\n      medicines[_upc].DistLatitude = _lat;\r\n      medicines[_upc].distributorID = _address;\r\n   // string memory history = medicinehistory[_upc];\r\n    //history = history + \" packed by manufacturer on date____\";\r\n    //medicinehistory[_upc] = history;\r\n    string memory prevhis = medicinehistory[_upc];\r\n     string memory temp =  append(prevhis,_history);\r\n     medicinehistory[_upc]= temp;\r\n     string memory manuf = medicines[_upc].originFactoryName;\r\n     string memory medname =  medicines[_upc].medicineName;\r\n     string memory manustr = append(manuf,medname);\r\n     manufrec[manustr].stock = manufrec[manustr].stock - 1;\r\n\r\n     string memory diststr = append(_name,medname);\r\n      if(distrec[diststr].flag == true){\r\n          distrec[diststr].stock = distrec[diststr].stock + 1;\r\n      }\r\n      else{\r\n          record memory r = record({\r\n              stock : 1,\r\n              flag : true\r\n          });\r\n          distrec[diststr] = r;\r\n      }\r\n\r\n\r\n    // Emit the appropriate event\r\n    emit recievedDistributor(_upc);\r\n  }\r\n  function SoldtoPharma(uint _upc , string memory _history) public recivedD(_upc) onlyDistributor{\r\n  // // Call modifier to check if upc has passed previous supply chain stage\r\n  // Made(_upc);\r\n  // Call modifier to verify caller of this function\r\n  \r\n    // Update the appropriate fields\r\n    medicines[_upc].medicineState = State.SoldtoPharma;\r\n   // string memory history = medicinehistory[_upc];\r\n    //history = history + \" packed by manufacturer on date____\";\r\n    //medicinehistory[_upc] = history;\r\n    string memory prevhis = medicinehistory[_upc];\r\n     string memory temp =  append(prevhis,_history);\r\n     medicinehistory[_upc]= temp;\r\n    // Emit the appropriate event\r\n    emit soldtoPharma(_upc);\r\n  }\r\n  function ShippedtoPharma(uint _upc, string memory _history) public soldtoph(_upc) onlyDistributor{\r\n  // // Call modifier to check if upc has passed previous supply chain stage\r\n  // Made(_upc);\r\n  // Call modifier to verify caller of this function\r\n  \r\n    // Update the appropriate fields\r\n    medicines[_upc].medicineState = State.ShippedtoPharma;\r\n   // string memory history = medicinehistory[_upc];\r\n    //history = history + \" packed by manufacturer on date____\";\r\n    //medicinehistory[_upc] = history;\r\n    string memory prevhis = medicinehistory[_upc];\r\n     string memory temp =  append(prevhis,_history);\r\n     medicinehistory[_upc]= temp;\r\n    // Emit the appropriate event\r\n    emit shippedtoPharma(_upc);\r\n  }\r\n\r\n\r\n  //Pharmacist functions \r\n\r\n  function Recieved_Pharma(uint _upc,string memory _name,string memory _long,string memory _lat,address _address,string memory _history) public shippedtoph(_upc) onlyPharmacist{\r\n  // // Call modifier to check if upc has passed previous supply chain stage\r\n  // Made(_upc);\r\n  // Call modifier to verify caller of this function\r\n  \r\n    // Update the appropriate fields\r\n    medicines[_upc].medicineState = State.RecievedPharma;\r\n    medicines[_upc].PharamaName = _name;\r\n      medicines[_upc].PharmaLongitude= _long;\r\n      medicines[_upc].PharmaLatitude = _lat;\r\n      medicines[_upc].pharmacistID = _address;\r\n   // string memory history = medicinehistory[_upc];\r\n    //history = history + \" packed by manufacturer on date____\";\r\n    //medicinehistory[_upc] = history;\r\n     string memory prevhis = medicinehistory[_upc];\r\n     string memory temp =  append(prevhis,_history);\r\n     medicinehistory[_upc]= temp;\r\n\r\n     string memory distname  = medicines[_upc].DistName;\r\n     string memory medname = medicines[_upc].medicineName;\r\n     string memory diststr = append(distname , medname);\r\n     distrec[diststr].stock = distrec[diststr].stock - 1;\r\n     string memory pharmastr = append(_name,medname);\r\n     pharmarec[pharmastr].stock = pharmarec[pharmastr].stock + 1;\r\n\r\n\r\n\r\n    \r\n    // Emit the appropriate event\r\n    emit recievedpharma(_upc);\r\n  }\r\n  function Sold_to_Patient(uint _upc,string memory _history) public recivedPh(_upc) onlyPharmacist{\r\n  // // Call modifier to check if upc has passed previous supply chain stage\r\n  // Made(_upc);\r\n  // Call modifier to verify caller of this function\r\n  \r\n    // Update the appropriate fields\r\n    medicines[_upc].medicineState = State.SoldtoPatient;\r\n   // string memory history = medicinehistory[_upc];\r\n    //history = history + \" packed by manufacturer on date____\";\r\n    //medicinehistory[_upc] = history;\r\n     string memory prevhis = medicinehistory[_upc];\r\n     string memory temp =  append(prevhis,_history);\r\n     medicinehistory[_upc]= temp;\r\n    // Emit the appropriate event\r\n    emit soldtopatient(_upc);\r\n  }\r\n  function Shipped_to_Patient(uint _upc,string memory _history) public soldtop(_upc) onlyPharmacist{\r\n  // // Call modifier to check if upc has passed previous supply chain stage\r\n  // Made(_upc);\r\n  // Call modifier to verify caller of this function\r\n  \r\n    // Update the appropriate fields\r\n    medicines[_upc].medicineState = State.ShippedtoPatient;\r\n   // string memory history = medicinehistory[_upc];\r\n    //history = history + \" packed by manufacturer on date____\";\r\n    //medicinehistory[_upc] = history;\r\n     string memory prevhis = medicinehistory[_upc];\r\n     string memory temp =  append(prevhis,_history);\r\n     medicinehistory[_upc]= temp;\r\n    // Emit the appropriate event\r\n    emit shippedtopatient(_upc);\r\n  }\r\n\r\n  function checkmedicine(uint _upc) public view returns(bool){\r\n      if(medicines[_upc].onchain == true){\r\n        return true;\r\n      }\r\n      else{\r\n        return false;\r\n      }\r\n  }\r\n\r\n  function claim(uint _upc) public {\r\n      medicines[_upc].onchain = false;\r\n  }\r\n\r\n  function fetchstate(uint _upc) public view onlyPatient returns (State _medicineState,string memory _history) {\r\n    return (\r\n      medicines[_upc].medicineState,\r\n      medicinehistory[_upc]\r\n      );\r\n  }\r\n\r\n   function fetchCordinates(uint _upc) public view onlyPatient returns (string memory manfcodlat,string memory manfcodlong,string memory distcodlat,string memory distcodlong,string memory phcodlat,string memory phcodlong) {\r\n    return (\r\n      medicines[_upc].originFactoryLatitude,\r\n      medicines[_upc].originFactoryLongitude,\r\n      medicines[_upc].DistLatitude,\r\n      medicines[_upc].DistLongitude,\r\n      medicines[_upc].PharmaLatitude,\r\n      medicines[_upc].PharmaLongitude\r\n      );\r\n  }\r\n\r\n  \r\n\r\n  function fetchMedicine(uint _upc) public view onlyPatient returns (address mid,address did,address pid,string memory mname,string memory dname,string memory pname,string memory mnotes) {\r\n    return(\r\n\r\n\r\n    \r\n     medicines[_upc].originManufacturerID, // Metamask-Ethereum address of the Manufacturer\r\n     medicines[_upc].distributorID,  // Metamask-Ethereum address of the Distributor\r\n     medicines[_upc].pharmacistID, // Metamask-Ethereum address of the Pharmacist\r\n     medicines[_upc].originFactoryName, // Manufacturer Name\r\n     medicines[_upc].DistName,\r\n     medicines[_upc].PharamaName, \r\n     medicines[_upc].medicineNotes // Product Notes\r\n    \r\n    \r\n           \r\n    );\r\n  }\r\n\r\n}\r\n",
  "sourcePath": "C:/Users/remove/Capstone_final/contracts/SimpleStorage.sol",
  "compiler": {
    "name": "solc",
    "version": "0.5.0+commit.1d4f565a.Emscripten.clang"
  },
  "schemaVersion": "3.0.1",
  "updatedAt": "2021-12-16T11:32:09.469Z",
  "devdoc": {
    "methods": {}
  },
  "userdoc": {
    "methods": {}
  }
}